{
  "_format": "hh-sol-artifact-1",
  "contractName": "PoolManager",
  "sourceName": "contracts/PoolManager.sol",
  "abi": [
    {
      "inputs": [
        {
          "internalType": "address",
          "name": "_positionManager",
          "type": "address"
        },
        {
          "internalType": "address",
          "name": "_factory",
          "type": "address"
        }
      ],
      "stateMutability": "nonpayable",
      "type": "constructor"
    },
    {
      "anonymous": false,
      "inputs": [
        {
          "indexed": true,
          "internalType": "uint256",
          "name": "recordId",
          "type": "uint256"
        },
        {
          "indexed": false,
          "internalType": "uint256",
          "name": "fee0",
          "type": "uint256"
        },
        {
          "indexed": false,
          "internalType": "uint256",
          "name": "fee1",
          "type": "uint256"
        }
      ],
      "name": "FeesCollected",
      "type": "event"
    },
    {
      "anonymous": false,
      "inputs": [
        {
          "indexed": true,
          "internalType": "uint256",
          "name": "recordId",
          "type": "uint256"
        },
        {
          "indexed": false,
          "internalType": "uint256",
          "name": "amount0",
          "type": "uint256"
        },
        {
          "indexed": false,
          "internalType": "uint256",
          "name": "amount1",
          "type": "uint256"
        }
      ],
      "name": "LiquidityDecreased",
      "type": "event"
    },
    {
      "anonymous": false,
      "inputs": [
        {
          "indexed": true,
          "internalType": "uint256",
          "name": "recordId",
          "type": "uint256"
        },
        {
          "indexed": false,
          "internalType": "uint128",
          "name": "liquidity",
          "type": "uint128"
        },
        {
          "indexed": false,
          "internalType": "uint256",
          "name": "amount0",
          "type": "uint256"
        },
        {
          "indexed": false,
          "internalType": "uint256",
          "name": "amount1",
          "type": "uint256"
        }
      ],
      "name": "LiquidityIncreased",
      "type": "event"
    },
    {
      "anonymous": false,
      "inputs": [
        {
          "indexed": true,
          "internalType": "address",
          "name": "previousOwner",
          "type": "address"
        },
        {
          "indexed": true,
          "internalType": "address",
          "name": "newOwner",
          "type": "address"
        }
      ],
      "name": "OwnershipTransferred",
      "type": "event"
    },
    {
      "anonymous": false,
      "inputs": [
        {
          "indexed": false,
          "internalType": "address",
          "name": "account",
          "type": "address"
        }
      ],
      "name": "Paused",
      "type": "event"
    },
    {
      "anonymous": false,
      "inputs": [
        {
          "indexed": true,
          "internalType": "uint256",
          "name": "recordId",
          "type": "uint256"
        },
        {
          "indexed": true,
          "internalType": "uint256",
          "name": "positionId",
          "type": "uint256"
        },
        {
          "indexed": true,
          "internalType": "address",
          "name": "token0",
          "type": "address"
        },
        {
          "indexed": false,
          "internalType": "address",
          "name": "token1",
          "type": "address"
        },
        {
          "indexed": false,
          "internalType": "int24",
          "name": "tickLower",
          "type": "int24"
        },
        {
          "indexed": false,
          "internalType": "int24",
          "name": "tickUpper",
          "type": "int24"
        },
        {
          "indexed": false,
          "internalType": "uint256",
          "name": "amount0",
          "type": "uint256"
        },
        {
          "indexed": false,
          "internalType": "uint256",
          "name": "amount1",
          "type": "uint256"
        }
      ],
      "name": "PositionCreated",
      "type": "event"
    },
    {
      "anonymous": false,
      "inputs": [
        {
          "indexed": false,
          "internalType": "address",
          "name": "account",
          "type": "address"
        }
      ],
      "name": "Unpaused",
      "type": "event"
    },
    {
      "inputs": [],
      "name": "FEE_TIER_HIGH",
      "outputs": [
        {
          "internalType": "uint24",
          "name": "",
          "type": "uint24"
        }
      ],
      "stateMutability": "view",
      "type": "function"
    },
    {
      "inputs": [],
      "name": "FEE_TIER_LOW",
      "outputs": [
        {
          "internalType": "uint24",
          "name": "",
          "type": "uint24"
        }
      ],
      "stateMutability": "view",
      "type": "function"
    },
    {
      "inputs": [],
      "name": "FEE_TIER_MEDIUM",
      "outputs": [
        {
          "internalType": "uint24",
          "name": "",
          "type": "uint24"
        }
      ],
      "stateMutability": "view",
      "type": "function"
    },
    {
      "inputs": [
        {
          "internalType": "uint256",
          "name": "recordId",
          "type": "uint256"
        }
      ],
      "name": "collectFees",
      "outputs": [],
      "stateMutability": "nonpayable",
      "type": "function"
    },
    {
      "inputs": [
        {
          "internalType": "address",
          "name": "token0",
          "type": "address"
        },
        {
          "internalType": "address",
          "name": "token1",
          "type": "address"
        },
        {
          "internalType": "uint24",
          "name": "fee",
          "type": "uint24"
        },
        {
          "internalType": "uint256",
          "name": "amount0Desired",
          "type": "uint256"
        },
        {
          "internalType": "uint256",
          "name": "amount1Desired",
          "type": "uint256"
        },
        {
          "internalType": "int24",
          "name": "tickLower",
          "type": "int24"
        },
        {
          "internalType": "int24",
          "name": "tickUpper",
          "type": "int24"
        }
      ],
      "name": "createPosition",
      "outputs": [
        {
          "internalType": "uint256",
          "name": "recordId",
          "type": "uint256"
        }
      ],
      "stateMutability": "nonpayable",
      "type": "function"
    },
    {
      "inputs": [
        {
          "internalType": "uint256",
          "name": "recordId",
          "type": "uint256"
        },
        {
          "internalType": "uint128",
          "name": "liquidity",
          "type": "uint128"
        }
      ],
      "name": "decreaseLiquidity",
      "outputs": [],
      "stateMutability": "nonpayable",
      "type": "function"
    },
    {
      "inputs": [],
      "name": "factory",
      "outputs": [
        {
          "internalType": "contract IUniswapV3Factory",
          "name": "",
          "type": "address"
        }
      ],
      "stateMutability": "view",
      "type": "function"
    },
    {
      "inputs": [
        {
          "internalType": "uint256",
          "name": "recordId",
          "type": "uint256"
        }
      ],
      "name": "getPositionInfo",
      "outputs": [
        {
          "internalType": "uint256",
          "name": "positionId",
          "type": "uint256"
        },
        {
          "internalType": "address",
          "name": "token0",
          "type": "address"
        },
        {
          "internalType": "address",
          "name": "token1",
          "type": "address"
        },
        {
          "internalType": "uint24",
          "name": "fee",
          "type": "uint24"
        },
        {
          "internalType": "int24",
          "name": "tickLower",
          "type": "int24"
        },
        {
          "internalType": "int24",
          "name": "tickUpper",
          "type": "int24"
        },
        {
          "internalType": "uint256",
          "name": "depositedAmount0",
          "type": "uint256"
        },
        {
          "internalType": "uint256",
          "name": "depositedAmount1",
          "type": "uint256"
        },
        {
          "internalType": "bool",
          "name": "active",
          "type": "bool"
        }
      ],
      "stateMutability": "view",
      "type": "function"
    },
    {
      "inputs": [
        {
          "internalType": "uint256",
          "name": "recordId",
          "type": "uint256"
        }
      ],
      "name": "getPositionLiquidity",
      "outputs": [
        {
          "internalType": "uint128",
          "name": "liquidity",
          "type": "uint128"
        }
      ],
      "stateMutability": "view",
      "type": "function"
    },
    {
      "inputs": [
        {
          "internalType": "address",
          "name": "user",
          "type": "address"
        }
      ],
      "name": "getUserPositions",
      "outputs": [
        {
          "internalType": "uint256[]",
          "name": "",
          "type": "uint256[]"
        }
      ],
      "stateMutability": "view",
      "type": "function"
    },
    {
      "inputs": [
        {
          "internalType": "uint256",
          "name": "recordId",
          "type": "uint256"
        },
        {
          "internalType": "uint256",
          "name": "amount0Desired",
          "type": "uint256"
        },
        {
          "internalType": "uint256",
          "name": "amount1Desired",
          "type": "uint256"
        }
      ],
      "name": "increaseLiquidity",
      "outputs": [],
      "stateMutability": "nonpayable",
      "type": "function"
    },
    {
      "inputs": [],
      "name": "nextRecordId",
      "outputs": [
        {
          "internalType": "uint256",
          "name": "",
          "type": "uint256"
        }
      ],
      "stateMutability": "view",
      "type": "function"
    },
    {
      "inputs": [],
      "name": "owner",
      "outputs": [
        {
          "internalType": "address",
          "name": "",
          "type": "address"
        }
      ],
      "stateMutability": "view",
      "type": "function"
    },
    {
      "inputs": [],
      "name": "pause",
      "outputs": [],
      "stateMutability": "nonpayable",
      "type": "function"
    },
    {
      "inputs": [],
      "name": "paused",
      "outputs": [
        {
          "internalType": "bool",
          "name": "",
          "type": "bool"
        }
      ],
      "stateMutability": "view",
      "type": "function"
    },
    {
      "inputs": [],
      "name": "positionManager",
      "outputs": [
        {
          "internalType": "contract INonfungiblePositionManager",
          "name": "",
          "type": "address"
        }
      ],
      "stateMutability": "view",
      "type": "function"
    },
    {
      "inputs": [
        {
          "internalType": "uint256",
          "name": "",
          "type": "uint256"
        }
      ],
      "name": "positions",
      "outputs": [
        {
          "internalType": "uint256",
          "name": "positionId",
          "type": "uint256"
        },
        {
          "internalType": "address",
          "name": "token0",
          "type": "address"
        },
        {
          "internalType": "address",
          "name": "token1",
          "type": "address"
        },
        {
          "internalType": "uint24",
          "name": "fee",
          "type": "uint24"
        },
        {
          "internalType": "int24",
          "name": "tickLower",
          "type": "int24"
        },
        {
          "internalType": "int24",
          "name": "tickUpper",
          "type": "int24"
        },
        {
          "internalType": "uint256",
          "name": "depositedAmount0",
          "type": "uint256"
        },
        {
          "internalType": "uint256",
          "name": "depositedAmount1",
          "type": "uint256"
        },
        {
          "internalType": "bool",
          "name": "active",
          "type": "bool"
        }
      ],
      "stateMutability": "view",
      "type": "function"
    },
    {
      "inputs": [],
      "name": "renounceOwnership",
      "outputs": [],
      "stateMutability": "nonpayable",
      "type": "function"
    },
    {
      "inputs": [
        {
          "internalType": "address",
          "name": "newOwner",
          "type": "address"
        }
      ],
      "name": "transferOwnership",
      "outputs": [],
      "stateMutability": "nonpayable",
      "type": "function"
    },
    {
      "inputs": [],
      "name": "unpause",
      "outputs": [],
      "stateMutability": "nonpayable",
      "type": "function"
    },
    {
      "inputs": [
        {
          "internalType": "address",
          "name": "",
          "type": "address"
        },
        {
          "internalType": "uint256",
          "name": "",
          "type": "uint256"
        }
      ],
      "name": "userPositions",
      "outputs": [
        {
          "internalType": "uint256",
          "name": "",
          "type": "uint256"
        }
      ],
      "stateMutability": "view",
      "type": "function"
    }
  ],
  "bytecode": "0x6080346200017757601f62001f8738819003918201601f19168301916001600160401b038311848410176200017c57808492604094855283398101031262000177576200005a6020620000528362000192565b920162000192565b6001600081815581546001600160a81b0319811633600881811b610100600160a81b031692909217909455604051956001600160a01b0395948694919390921c8416907f8be0079c531659141344cd1fd0a4f28419497f9722a3daafe3b4186f6b6457e09080a31692831562000135575016908115620000fe5760018060a01b0319908160035416176003556004541617600455604051611ddf9081620001a88239f35b60405162461bcd60e51b815260206004820152600f60248201526e496e76616c696420666163746f727960881b6044820152606490fd5b62461bcd60e51b815260206004820152601860248201527f496e76616c696420706f736974696f6e206d616e6167657200000000000000006044820152606490fd5b600080fd5b634e487b7160e01b600052604160045260246000fd5b51906001600160a01b0382168203620001775756fe6080604052600436101561001257600080fd5b60003560e01c80631efeed33146115845780632a6bc2dd146114d05780632d86fcb214610cbb5780633f4ba83a14610c27578063519f509914610ba35780635c975abb14610b805780635e1b4d9914610b28578063715018a614610ac75780637574d9a014610aaa578063791b98bc14610a815780638456cb5914610a285780638da5cb5b146109fb5780638f40e8f5146109de57806399d7b5941461073c57806399fbab88146106c1578063b17acdcd14610565578063c45a01551461053c578063dbde207d1461051e578063e115bc5c146101f9578063f2fde38b146101255763f6b9ec7c1461010357600080fd5b346101205760003660031901126101205760206040516101f48152f35b600080fd5b346101205760203660031901126101205761013e6116bf565b61014661175b565b6001600160a01b038181169182156101a55760018054610100600160a81b03198116600893841b610100600160a81b031617909155901c167f8be0079c531659141344cd1fd0a4f28419497f9722a3daafe3b4186f6b6457e0600080a3005b60405162461bcd60e51b815260206004820152602660248201527f4f776e61626c653a206e6577206f776e657220697320746865207a65726f206160448201526564647265737360d01b6064820152608490fd5b34610120576060366003190112610120576004356102156118bc565b61021d611878565b61022a6002548210611cc2565b806000526005602052604060002061024860ff600583015416611d06565b602435151580610513575b61025c906117b6565b600181015461027b9060243590309033906001600160a01b0316611955565b6002810190610297604435303360018060a01b03865416611955565b60018101546003546102b991602435916001600160a01b0390811691166119ae565b81546003546102d891604435916001600160a01b0390811691166119ae565b8054610e1042018042116104fd576040519160c0830183811067ffffffffffffffff8211176104e757604052825260243560208301526044356040830152600060608301526000608083015260a0820152606060a060c4600180831b0360035416936000604051958694859363219f5d1760e01b855280516004860152602081015160248601526040810151604486015287810151606486015260808101516084860152015160a48401525af19081156104db57600092600091600093610465575b5090600460609493927fc3e53dd207da84f2073ef5171a1db111b37e6d53d8a7983f0cf8a7ae89d9cd63966024358410610442575b604435851061041a575b50600381016103e984825461184a565b9055016103f783825461184a565b90556001600160801b036040519316835260208301526040820152a26001600055005b5461043c906001600160a01b03166104348660443561186b565b903390611912565b886103d9565b6001820154610460906001600160a01b03166104348660243561186b565b6103cf565b92509250506060813d6060116104d3575b8161048360609383611814565b81010312610120577fc3e53dd207da84f2073ef5171a1db111b37e6d53d8a7983f0cf8a7ae89d9cd639260609260046104bb84611857565b6020850151604090950151939650945091929161039a565b3d9150610476565b6040513d6000823e3d90fd5b634e487b7160e01b600052604160045260246000fd5b634e487b7160e01b600052601160045260246000fd5b506044351515610253565b34610120576000366003190112610120576020600254604051908152f35b34610120576000366003190112610120576004546040516001600160a01b039091168152602090f35b34610120576020366003190112610120576004356105816118bc565b61058e6002548210611cc2565b6001546001600160a01b039060081c8116330361067c576040610600600092848452600560205282842054908351916105c6836117f8565b82523360208301526001600160801b03808584015260608301526003541690835194858094819363fc6f786560e01b835260048301611d5d565b03925af180156104db577fa54e6c2fc0861aa9c991b26891d71059d517983b9e84b91020f42609c452eb9d9160409160009160009161064d575b5082519182526020820152a26001600055005b905061066f9150823d8411610675575b6106678183611814565b810190611d47565b8561063a565b503d61065d565b60405162461bcd60e51b815260206004820152601b60248201527f4f6e6c79206f776e65722063616e20636f6c6c656374206665657300000000006044820152606490fd5b346101205760203660031901126101205760043560005260056020526040600020805461073860018060a01b03806001850154169360028101549460038201549060ff6005600485015494015416936040519788978160d01c60020b938260b81c60020b9362ffffff8460a01c169316918a6116d5565b0390f35b3461012057604036600319011261012057600435602480356001600160801b038082168092036101205761076e6118bc565b61077b6002548510611cc2565b6001546001600160a01b03929060081c8316330361099a578460005260056020526040600020936107b260ff600587015416611d06565b811561095e57845490610e104201804211610949576040519260a0840184811067ffffffffffffffff8211176109345786959360a4936040969360009388528452602084019586528684018381526060850190848252608086019283528b600354169389519b8c998a98630624e65f60e11b8a525160048a01525116908701525160448601525160648501525160848401525af19283156104db5760009485938695610905575b50916108a2916040935491845192610870846117f8565b8352336020840152808584015260608301526003541690835196878094819363fc6f786560e01b835260048301611d5d565b03925af19182156104db577f9fff09bdb699560e15269e01134083f4348f16ba2a38e7dcca3a2f0dfcfe639f936040936108e9575082519182526020820152a26001600055005b6108ff90843d8611610675576106678183611814565b5061063a565b6040939195506108a292945061092790843d8611610675576106678183611814565b9490949591935091610859565b83634e487b7160e01b60005260416004526000fd5b50634e487b7160e01b60009081526011600452fd5b60649060156040519162461bcd60e51b8352602060048401528201527404c6971756964697479206d757374206265203e203605c1b6044820152fd5b60405162461bcd60e51b8152602060048201526017818601527f4f6e6c79206f776e65722063616e2064656372656173650000000000000000006044820152606490fd5b34610120576000366003190112610120576020604051610bb88152f35b346101205760003660031901126101205760015460405160089190911c6001600160a01b03168152602090f35b3461012057600036600319011261012057610a4161175b565b610a49611878565b600160ff19815416176001557f62e78cea01bee320cd4e420270b5ea74000d11b0c9f74754ebdbfc544b05a2586020604051338152a1005b34610120576000366003190112610120576003546040516001600160a01b039091168152602090f35b346101205760003660031901126101205760206040516127108152f35b3461012057600036600319011261012057610ae061175b565b60018054610100600160a81b0319811690915560009060081c6001600160a01b03167f8be0079c531659141344cd1fd0a4f28419497f9722a3daafe3b4186f6b6457e08280a3005b3461012057604036600319011261012057610b416116bf565b6001600160a01b031660009081526006602052604090208054602435919082101561012057602091610b729161172d565b90546040519160031b1c8152f35b3461012057600036600319011261012057602060ff600154166040519015158152f35b3461012057602036600319011261012057600435610bc46002548210611cc2565b60005260056020526040600020805461073860018060a01b03806001850154169360028101549460038201549060ff6005600485015494015416936040519788978160d01c60020b938260b81c60020b9362ffffff8460a01c169316918a6116d5565b3461012057600036600319011261012057610c4061175b565b60015460ff811615610c7f5760ff19166001557f5db9ee0a495bf2e6ff9c91a7834c1ba4fdd244a5e8aa4e537bd38aeae4b073aa6020604051338152a1005b60405162461bcd60e51b815260206004820152601460248201527314185d5cd8589b194e881b9bdd081c185d5cd95960621b6044820152606490fd5b346101205760e036600319011261012057610cd46116bf565b6024356001600160a01b03811690036101205762ffffff60443516604435036101205760a4358060020b81036101205760c4358060020b810361012057610d196118bc565b610d21611878565b60843592602435926064359290919085826001600160a01b038116801515806114bc575b15611486576024356001600160a01b031681146114415786151580611438575b610d6e906117b6565b6101f462ffffff60443516148015611426575b8015611414575b156113dc578360020b8660020b12156113a2576024356001600160a01b031610611390575b505060048054604051630b4c774160e11b81526001600160a01b038581169382019390935287831660248201526044803562ffffff1690820152911690602081606481855afa9081156104db57600091611356575b506001600160a01b031615611279575b50610e288430336001600160a01b038616611955565b610e3d8630336001600160a01b038916611955565b600354610e599085906001600160a01b039081169085166119ae565b600354610e759087906001600160a01b039081169088166119ae565b610e10420142116104fd57604051918261016081011067ffffffffffffffff610160850111176104e757610160830160405260018060a01b038116835260018060a01b038616602084015262ffffff6044351660408401528360020b60608401528160020b60808401528460a08401528660c0840152600060e0840152600061010084015230610120840152610e104201610140840152608061014061016460018060a01b03600354169560006040519788948593634418b22b60e11b855260018060a01b03815116600486015260018060a01b03602082015116602486015262ffffff6040820151166044860152606081015160020b60648601528781015160020b608486015260a081015160a486015260c081015160c486015260e081015160e486015261010081015161010486015260018060a01b036101208201511661012486015201516101448401525af19687156104db57600095600094600099611224575b509084828a938210611200575b50508082106111dc575b5050600254966040518061012081011067ffffffffffffffff610120830111176104e7576005816101208b93016040528881526020810160018060a01b03861681526040820160018060a01b038c168152606083019062ffffff60443516825260808401918b60020b835260a085018a60020b815260c08601938c855260e08701958a875261010088019960018b5260005288602052604060002097518855600188019060018060a01b039051166bffffffffffffffffffffffff60a01b825416179055600287019360018060a01b0390511684549362ffffff60a01b905160a01b16915160b81b925160d01b62ffffff60d01b169362ffffff60e81b1617179062ffffff60b81b1617179055516003830155516004820155019051151560ff80198354169116179055336000526006602052604060002093845493680100000000000000008510156104e7578996611173867f21d5d179f5246e40edb16d81f698ee5137599fc06b7dd0b793840c29cddee10c98600160a09901815561172d565b81548a8260031b1b916000199060031b1b191617905560405199600180881b03168a5260020b60208a015260020b604089015260608801526080870152600180831b031694a46002549060001982146104fd576001602092016002556001600055604051908152f35b6111f9916111e99161186b565b336001600160a01b038916611912565b8688610ff1565b61121d9161120d9161186b565b336001600160a01b038616611912565b848a610fe7565b9650935096506080853d608011611271575b8161124360809383611814565b810103126101205784519261125a60208701611857565b506040860151606090960151979395939084610fda565b3d9150611236565b60405163a167129560e01b81526001600160a01b038481166004830152871660248201526044803562ffffff1690820152906020908290816000816064810103925af19081156104db5760009161131c575b506001600160a01b0316156112e05786610e12565b60405162461bcd60e51b8152602060048201526014602482015273141bdbdb0818dc99585d1a5bdb8819985a5b195960621b6044820152606490fd5b90506020813d60201161134e575b8161133760209383611814565b810103126101205761134890611836565b876112cb565b3d915061132a565b90506020813d602011611388575b8161137160209383611814565b810103126101205761138290611836565b88610e02565b3d9150611364565b94965093945060243591508680610dad565b60405162461bcd60e51b8152602060048201526012602482015271496e76616c6964207469636b2072616e676560701b6044820152606490fd5b60405162461bcd60e51b815260206004820152601060248201526f24b73b30b634b2103332b2903a34b2b960811b6044820152606490fd5b5061271062ffffff6044351614610d88565b50610bb862ffffff6044351614610d81565b50881515610d65565b60405162461bcd60e51b815260206004820152601860248201527f546f6b656e73206d75737420626520646966666572656e7400000000000000006044820152606490fd5b60405162461bcd60e51b815260206004820152600e60248201526d496e76616c696420746f6b656e7360901b6044820152606490fd5b506024356001600160a01b03161515610d45565b3461012057602080600319360112610120576001600160a01b036114f26116bf565b1660005260068152604060002060405190818382549182815201908192600052846000209060005b8682821061157057868661153082880383611814565b604051928392818401908285525180915260408401929160005b82811061155957505050500390f35b83518552869550938101939281019260010161154a565b83548552909301926001928301920161151a565b34610120576020366003190112610120576004356115a56002548210611cc2565b6000526005602052604060002060018060a01b0360035416905460405191829163133f757160e31b835260048301528160246101809384935afa9081156104db57600091611602575b6020826001600160801b0360405191168152f35b905081813d83116116b8575b6116188183611814565b810103126101205780516bffffffffffffffffffffffff8116036101205761164260208201611836565b5061164f60408201611836565b5061165c60608201611836565b50608081015162ffffff811603610120578061167c60a060209301611d9b565b5061168960c08201611d9b565b506116b161016061169c60e08401611857565b926116aa6101408201611857565b5001611857565b50826115ee565b503d61160e565b600435906001600160a01b038216820361012057565b9081526001600160a01b0391821660208201529116604082015262ffffff9091166060820152600291820b608082015291900b60a082015260c081019190915260e08101919091529015156101008201526101200190565b80548210156117455760005260206000200190600090565b634e487b7160e01b600052603260045260246000fd5b60015460081c6001600160a01b0316330361177257565b606460405162461bcd60e51b815260206004820152602060248201527f4f776e61626c653a2063616c6c6572206973206e6f7420746865206f776e65726044820152fd5b156117bd57565b60405162461bcd60e51b81526020600482015260136024820152720416d6f756e7473206d757374206265203e203606c1b6044820152606490fd5b6080810190811067ffffffffffffffff8211176104e757604052565b90601f8019910116810190811067ffffffffffffffff8211176104e757604052565b51906001600160a01b038216820361012057565b919082018092116104fd57565b51906001600160801b038216820361012057565b919082039182116104fd57565b60ff6001541661188457565b60405162461bcd60e51b815260206004820152601060248201526f14185d5cd8589b194e881c185d5cd95960821b6044820152606490fd5b6002600054146118cd576002600055565b60405162461bcd60e51b815260206004820152601f60248201527f5265656e7472616e637947756172643a207265656e7472616e742063616c6c006044820152606490fd5b60405163a9059cbb60e01b60208201526001600160a01b039290921660248301526044808301939093529181526119539161194e606483611814565b611ab6565b565b6040516323b872dd60e01b60208201526001600160a01b03928316602482015292909116604483015260648083019390935291815260a081019181831067ffffffffffffffff8411176104e75761195392604052611ab6565b60405163095ea7b360e01b602082018181526001600160a01b03851660248401526044808401969096529482529092906119e9606485611814565b83516001600160a01b03958487169160009182919082855af190611a0b611bae565b82611a6c575b5081611a61575b5015611a26575b5050505050565b611a579461194e926040519260208401521660248201526000604482015260448152611a51816117f8565b82611ab6565b3880808080611a1f565b90503b151538611a18565b80519192508115918215611a84575b50509038611a11565b611a979250602080918301019101611a9e565b3880611a7b565b90816020910312610120575180151581036101205790565b60408051908101916001600160a01b031667ffffffffffffffff8311828410176104e757611b26926040526000806020958685527f5361666545524332303a206c6f772d6c6576656c2063616c6c206661696c656487860152868151910182855af1611b20611bae565b91611bee565b805190828215928315611b96575b50505015611b3f5750565b6084906040519062461bcd60e51b82526004820152602a60248201527f5361666545524332303a204552433230206f7065726174696f6e20646964206e6044820152691bdd081cdd58d8d9595960b21b6064820152fd5b611ba69350820181019101611a9e565b388281611b34565b3d15611be9573d9067ffffffffffffffff82116104e75760405191611bdd601f8201601f191660200184611814565b82523d6000602084013e565b606090565b91929015611c505750815115611c02575090565b3b15611c0b5790565b60405162461bcd60e51b815260206004820152601d60248201527f416464726573733a2063616c6c20746f206e6f6e2d636f6e74726163740000006044820152606490fd5b825190915015611c635750805190602001fd5b6040519062461bcd60e51b82528160208060048301528251908160248401526000935b828510611ca9575050604492506000838284010152601f80199101168101030190fd5b8481018201518686016044015293810193859350611c86565b15611cc957565b60405162461bcd60e51b8152602060048201526015602482015274149958dbdc9908191bd95cc81b9bdd08195e1a5cdd605a1b6044820152606490fd5b15611d0d57565b60405162461bcd60e51b81526020600482015260126024820152715265636f726420697320696e61637469766560701b6044820152606490fd5b9190826040910312610120576020825192015190565b919091606060808201938051835260018060a01b036020820151166020840152816001600160801b0391826040820151166040860152015116910152565b51908160020b82036101205756fea264697066735822122057e34d17f27f68dd515f580dc8f947d63f1eea16f0dccf1409d0d6db2e510e2264736f6c63430008140033",
  "linkReferences": {},
  "deployedLinkReferences": {}
}