{"contracts/SwapRouter.sol":{"SwapRouter":{"abi":[{"inputs":[{"internalType":"address","name":"_swapRouter","type":"address"}],"stateMutability":"nonpayable","type":"constructor"},{"anonymous":false,"inputs":[{"indexed":true,"internalType":"address","name":"user","type":"address"},{"indexed":true,"internalType":"address","name":"tokenIn","type":"address"},{"indexed":true,"internalType":"address","name":"tokenOut","type":"address"},{"indexed":false,"internalType":"uint256","name":"amountIn","type":"uint256"},{"indexed":false,"internalType":"uint256","name":"amountOut","type":"uint256"},{"indexed":false,"internalType":"uint256","name":"routeIndex","type":"uint256"},{"indexed":false,"internalType":"uint256","name":"timestamp","type":"uint256"}],"name":"MultiHopSwapExecuted","type":"event"},{"anonymous":false,"inputs":[{"indexed":true,"internalType":"address","name":"previousOwner","type":"address"},{"indexed":true,"internalType":"address","name":"newOwner","type":"address"}],"name":"OwnershipTransferred","type":"event"},{"anonymous":false,"inputs":[{"indexed":false,"internalType":"address","name":"account","type":"address"}],"name":"Paused","type":"event"},{"anonymous":false,"inputs":[{"indexed":true,"internalType":"address","name":"token","type":"address"},{"indexed":false,"internalType":"int256","name":"currentPrice","type":"int256"},{"indexed":false,"internalType":"int256","name":"expectedPrice","type":"int256"},{"indexed":false,"internalType":"string","name":"reason","type":"string"}],"name":"PriceCircuitBreakerTriggered","type":"event"},{"anonymous":false,"inputs":[{"indexed":true,"internalType":"uint256","name":"routeIndex","type":"uint256"},{"indexed":false,"internalType":"address[]","name":"tokens","type":"address[]"},{"indexed":false,"internalType":"uint24[]","name":"fees","type":"uint24[]"}],"name":"RouteCreated","type":"event"},{"anonymous":false,"inputs":[{"indexed":true,"internalType":"address","name":"user","type":"address"},{"indexed":true,"internalType":"address","name":"tokenIn","type":"address"},{"indexed":true,"internalType":"address","name":"tokenOut","type":"address"},{"indexed":false,"internalType":"uint256","name":"amountIn","type":"uint256"},{"indexed":false,"internalType":"uint256","name":"amountOut","type":"uint256"},{"indexed":false,"internalType":"uint24","name":"fee","type":"uint24"},{"indexed":false,"internalType":"uint256","name":"timestamp","type":"uint256"}],"name":"SwapExecuted","type":"event"},{"anonymous":false,"inputs":[{"indexed":false,"internalType":"address","name":"account","type":"address"}],"name":"Unpaused","type":"event"},{"inputs":[],"name":"BPS","outputs":[{"internalType":"uint256","name":"","type":"uint256"}],"stateMutability":"view","type":"function"},{"inputs":[],"name":"CIRCUIT_BREAKER_THRESHOLD","outputs":[{"internalType":"uint256","name":"","type":"uint256"}],"stateMutability":"view","type":"function"},{"inputs":[],"name":"MAX_SLIPPAGE_BPS","outputs":[{"internalType":"uint256","name":"","type":"uint256"}],"stateMutability":"view","type":"function"},{"inputs":[{"internalType":"address[]","name":"tokens","type":"address[]"},{"internalType":"uint24[]","name":"fees","type":"uint24[]"}],"name":"createRoute","outputs":[{"internalType":"uint256","name":"routeId","type":"uint256"}],"stateMutability":"nonpayable","type":"function"},{"inputs":[{"internalType":"address","name":"token","type":"address"}],"name":"emergencyWithdraw","outputs":[],"stateMutability":"nonpayable","type":"function"},{"inputs":[{"internalType":"uint256","name":"amountIn","type":"uint256"},{"internalType":"address[]","name":"route","type":"address[]"}],"name":"estimateSwap","outputs":[{"internalType":"uint256","name":"estimatedAmountOut","type":"uint256"}],"stateMutability":"view","type":"function"},{"inputs":[{"internalType":"address","name":"","type":"address"}],"name":"lastSwapTime","outputs":[{"internalType":"uint256","name":"","type":"uint256"}],"stateMutability":"view","type":"function"},{"inputs":[],"name":"nextRouteId","outputs":[{"internalType":"uint256","name":"","type":"uint256"}],"stateMutability":"view","type":"function"},{"inputs":[{"internalType":"bytes32","name":"","type":"bytes32"}],"name":"oracles","outputs":[{"internalType":"address","name":"priceFeed","type":"address"},{"internalType":"uint8","name":"decimals","type":"uint8"},{"internalType":"uint256","name":"stalePriceThreshold","type":"uint256"},{"internalType":"int256","name":"lowerBoundPercent","type":"int256"},{"internalType":"int256","name":"upperBoundPercent","type":"int256"}],"stateMutability":"view","type":"function"},{"inputs":[],"name":"owner","outputs":[{"internalType":"address","name":"","type":"address"}],"stateMutability":"view","type":"function"},{"inputs":[],"name":"pause","outputs":[],"stateMutability":"nonpayable","type":"function"},{"inputs":[],"name":"paused","outputs":[{"internalType":"bool","name":"","type":"bool"}],"stateMutability":"view","type":"function"},{"inputs":[{"internalType":"address","name":"token","type":"address"},{"internalType":"address","name":"priceFeed","type":"address"},{"internalType":"uint256","name":"stalePriceThreshold","type":"uint256"},{"internalType":"int256","name":"lowerBound","type":"int256"},{"internalType":"int256","name":"upperBound","type":"int256"}],"name":"registerOracle","outputs":[],"stateMutability":"nonpayable","type":"function"},{"inputs":[],"name":"renounceOwnership","outputs":[],"stateMutability":"nonpayable","type":"function"},{"inputs":[{"internalType":"uint256","name":"","type":"uint256"}],"name":"routes","outputs":[{"internalType":"bool","name":"active","type":"bool"}],"stateMutability":"view","type":"function"},{"inputs":[{"internalType":"uint256","name":"routeId","type":"uint256"},{"internalType":"uint256","name":"amountIn","type":"uint256"},{"internalType":"uint256","name":"minAmountOut","type":"uint256"}],"name":"swapExactInputMultiHop","outputs":[{"internalType":"uint256","name":"amountOut","type":"uint256"}],"stateMutability":"nonpayable","type":"function"},{"inputs":[{"internalType":"address","name":"tokenIn","type":"address"},{"internalType":"address","name":"tokenOut","type":"address"},{"internalType":"uint24","name":"fee","type":"uint24"},{"internalType":"uint256","name":"amountIn","type":"uint256"},{"internalType":"uint256","name":"minAmountOut","type":"uint256"}],"name":"swapExactInputSingle","outputs":[{"internalType":"uint256","name":"amountOut","type":"uint256"}],"stateMutability":"nonpayable","type":"function"},{"inputs":[],"name":"swapRouter","outputs":[{"internalType":"contract ISwapRouter","name":"","type":"address"}],"stateMutability":"view","type":"function"},{"inputs":[{"internalType":"address","name":"newOwner","type":"address"}],"name":"transferOwnership","outputs":[],"stateMutability":"nonpayable","type":"function"},{"inputs":[],"name":"unpause","outputs":[],"stateMutability":"nonpayable","type":"function"}],"evm":{"bytecode":{"linkReferences":{},"object":"60803461011657601f61239238819003918201601f19168301916001600160401b0383118484101761011b5780849260209460405283398101031261011657516001600160a01b0380821691829003610116576001600081815581546001600160a81b0319811633600881811b610100600160a81b0316929092179094556040519491901c16907f8be0079c531659141344cd1fd0a4f28419497f9722a3daafe3b4186f6b6457e09080a381156100d45750600280546001600160a01b03191691909117905560405161226090816101328239f35b62461bcd60e51b815260206004820152601360248201527f496e76616c6964207377617020726f75746572000000000000000000000000006044820152606490fd5b600080fd5b634e487b7160e01b600052604160045260246000fdfe608080604052600436101561001357600080fd5b60003560e01c9081630ca55cd71461180b57508063249d39e9146117ee5780633a7e75c2146116665780633f4ba83a146115d25780634ece7c061461159857806355c32c941461137d5780635c975abb1461135a57806365650ea11461104c5780636ff1c9bc14610f3a578063715018a614610ed9578063726f16d814610ea55780638456cb5914610e4c5780638da5cb5b14610e1f578063975cf31314610e01578063a81a267714610da1578063ae8008a014610801578063c31c9c07146107d8578063dc895236146101f1578063e229cd76146101d45763f2fde38b146100fb57600080fd5b346101cf5760203660031901126101cf57610114611856565b61011c6118a6565b6001600160a01b0381811691821561017b5760018054610100600160a81b03198116600893841b610100600160a81b031617909155901c167f8be0079c531659141344cd1fd0a4f28419497f9722a3daafe3b4186f6b6457e0600080a3005b60405162461bcd60e51b815260206004820152602660248201527f4f776e61626c653a206e6577206f776e657220697320746865207a65726f206160448201526564647265737360d01b6064820152608490fd5b600080fd5b346101cf5760003660031901126101cf5760206040516101f48152f35b346101cf5760603660031901126101cf5761020a611a8d565b610212611a49565b600354600435101561079c576004356000526004602052604060002060ff60028201541615610763576102486024351515611a08565b805480156105b257600082815260209020546001600160a01b031690600019808201828111610442578211156105b25760008481526020902090910101546001600160a01b0316906102a06044356024358484611e85565b6102ae602435303384611ae3565b6002546102c890602435906001600160a01b031683611b27565b60405192838460208354928381520180928460005260206000209060005b81811061074157505050600193916102ff910387611973565b6040519201805480845260009182526020808320928592918301915b8060098301106106b9576103819454918181106106a3575b81811061068a575b818110610671575b818110610658575b81811061063f575b818110610626575b81811061060d575b8181106105f4575b8181106105db575b106105c8575b500383611973565b8451156105b25751604051906001600160601b03199060601b166020820152601481526103ad81611958565b916000925b8251841015610458576103c58484612216565b5160018501851161044257610436603761043c936103e6600189018b612216565b51936040519482610401879451809260208088019101611e1d565b83019162ffffff60e81b9060e81b1660208301526001600160601b03199060601b166023820152036017810184520182611973565b93611994565b926103b2565b634e487b7160e01b600052601160045260246000fd5b9084603c420180421161044257600093602091604051916104788361193d565b8252338383015260408201526024356060820152604435608082015260018060a01b0360025416604051809681809463c04b8d5960e01b825286600483015260806104cf825160a0602486015260c4850190611e40565b888301516001600160a01b03166044850152604083015160648501526060830151608485015291015160a483015203925af19182156105a657600092610571575b602093503360005260068452426040600020556040516024358152838582015260043560408201524260608201527fdc45cc23a637acfc76bd724d5fe5b3195bb8ff1830052bde5e0cacb924152c7760803392a46001600055604051908152f35b91506020833d60201161059e575b8161058c60209383611973565b810103126101cf576020925191610510565b3d915061057f565b6040513d6000823e3d90fd5b634e487b7160e01b600052603260045260246000fd5b60d81c62ffffff16815260200188610379565b92602060019162ffffff8560c01c168152019301610373565b92602060019162ffffff8560a81c16815201930161036b565b92602060019162ffffff8560901c168152019301610363565b92602060019162ffffff8560781c16815201930161035b565b92602060019162ffffff8560601c168152019301610353565b92602060019162ffffff8560481c16815201930161034b565b92602060019162ffffff8560301c168152019301610343565b92602060019162ffffff8560181c16815201930161033b565b92602060019162ffffff85168152019301610333565b91600a919350610140600191865462ffffff908181168352818160181c166020840152818160301c166040840152818160481c166060840152818160601c166080840152818160781c1660a0840152818160c0828260901c1681870152828260a81c1660e08701521c1661010084015260d81c1661012082015201940192018592939161031b565b82546001600160a01b03168452899450602090930192600192830192016102e6565b60405162461bcd60e51b8152602060048201526011602482015270526f75746520697320696e61637469766560781b6044820152606490fd5b60405162461bcd60e51b8152602060048201526014602482015273149bdd5d1948191bd95cc81b9bdd08195e1a5cdd60621b6044820152606490fd5b346101cf5760003660031901126101cf576002546040516001600160a01b039091168152602090f35b346101cf5760403660031901126101cf576004356001600160401b0381116101cf57610831903690600401611826565b906024356001600160401b0381116101cf57610851903690600401611826565b6108596118a6565b60028410610d52576000198401848111610442578103610cfa5760005b848110610c41575060035492604051606081018181106001600160401b03821117610bc1576040526108a7866119c7565b6108b46040519182611973565b86815260208101368860051b8501116101cf5783905b8860051b85018210610c2957505081526108e3836119c7565b6108f06040519182611973565b83815260208101368560051b8701116101cf5785905b8560051b87018210610c11575050602082015260016040820152846000526004602052604060002081518051906001600160401b038211610bc157600160401b8211610bc1576020908354838555808410610bf4575b500182600052602060002060005b838110610bd7575050505060208201518051906001600160401b038211610bc157600160401b8211610bc1576020906001840154836001860155808410610b66575b5001906001830160005260206000209060005b600a82048110610b195750600a808204028103610abf575b505050600260409197939701910151151560ff80198354169116179055604051948160408701604088525260608601909160005b818110610a93575050602091508581038287015282815201919060005b818110610a6f57602085807fc2a1604c5fa5887ccc37e677e01f22ef8ee8e0c39f1a5f8dbf282aa2bd281c2f8988038aa2610a64600354611994565b600355604051908152f35b90919260208060019262ffffff610a8588611896565b168152019401929101610a28565b909160019060209081906001600160a01b03610aae88611882565b168152019401910192919092610a0b565b60009260005b600a8084040283038110610ae5575050600a9004015560026040896109d7565b90936020610b1060019262ffffff885116908560030260031b9162ffffff809116831b921b19161790565b95019101610ac5565b6000805b600a8110610b325750838201556001016109bf565b94906020610b5d60019262ffffff855116908960030260031b9162ffffff809116831b921b19161790565b92019501610b1d565b610b999060018601600052600a6009856000209260038389060280610b9f575b500104810190600a6009870104016119f1565b8a6109ac565b60001984848b010486010190815490600019908a0360031b1c1690558f610b86565b634e487b7160e01b600052604160045260246000fd5b82516001600160a01b03168183015560209092019160010161096a565b610c0b9085600052848460002091820191016119f1565b8a61095c565b60208091610c1e84611896565b815201910190610906565b60208091610c3684611882565b8152019101906108ca565b6001600160a01b03610c6881610c60610c5b858a8a6119a3565b6119b3565b161515611901565b81610c7d575b50610c7890611994565b610876565b610c8b610c5b8388886119a3565b90600019830183811161044257610ca7610c5b83928a8a6119a3565b16911614610cb55785610c6e565b60405162461bcd60e51b815260206004820152601960248201527f4475706c696361746520746f6b656e7320696e20726f757465000000000000006044820152606490fd5b60405162461bcd60e51b815260206004820152602a60248201527f466565206172726179206c656e677468206d75737420626520746f6b656e732e6044820152696c656e677468202d203160b01b6064820152608490fd5b60405162461bcd60e51b815260206004820152602160248201527f526f757465206d7573742068617665206174206c65617374203220746f6b656e6044820152607360f81b6064820152608490fd5b346101cf5760203660031901126101cf57600435600052600560205260a06040600020805490600181015490600360028201549101549160ff60405194600180881b0381168652861c166020850152604084015260608301526080820152f35b346101cf5760003660031901126101cf576020600354604051908152f35b346101cf5760003660031901126101cf5760015460405160089190911c6001600160a01b03168152602090f35b346101cf5760003660031901126101cf57610e656118a6565b610e6d611a49565b600160ff19815416176001557f62e78cea01bee320cd4e420270b5ea74000d11b0c9f74754ebdbfc544b05a2586020604051338152a1005b346101cf5760203660031901126101cf576004356000526004602052602060ff600260406000200154166040519015158152f35b346101cf5760003660031901126101cf57610ef26118a6565b60018054610100600160a81b0319811690915560009060081c6001600160a01b03167f8be0079c531659141344cd1fd0a4f28419497f9722a3daafe3b4186f6b6457e08280a3005b346101cf576020806003193601126101cf57610f54611856565b610f5c6118a6565b6040516370a0823160e01b8152306004820152906001600160a01b03908116908383602481855afa9283156105a65760009361101d575b508215610feb5760015460405163a9059cbb60e01b9581019590955260081c166001600160a01b031660248401526044830191909152610fe99190610fe4826064810103601f198101845283611973565b611c5b565b005b60405162461bcd60e51b815260048101859052600a6024820152694e6f2062616c616e636560b01b6044820152606490fd5b9092508381813d8311611045575b6110358183611973565b810103126101cf57519184610f93565b503d61102b565b346101cf5760a03660031901126101cf57611065611856565b61106d61186c565b6044359162ffffff831683036101cf57611085611a8d565b61108d611a49565b6001600160a01b038116151580611348575b15611312576001600160a01b03818116908316146112cd576110c46064351515611a08565b6110d46084356064358484611e85565b6110eb60643530336001600160a01b038516611ae3565b60025461110990606435906001600160a01b03908116908416611b27565b603c42014211610442576040519261010084018481106001600160401b03821117610bc15760009460209160405260018060a01b038416815260018060a01b0385168282015262ffffff83166040820152336060820152603c4201608082015260643560a082015260843560c08201528560e082015261010460018060a01b036002541691604051978893849263414bf38960e01b845260018060a01b03815116600485015260018060a01b038782015116602485015262ffffff604082015116604485015260018060a01b0360608201511660648501526080810151608485015260a081015160a485015260c081015160c485015260e060018060a01b039101511660e48401525af19283156105a657600093611298575b6020945033600052600685524260406000205562ffffff604051926064358452858785015216604083015242606083015260018060a01b03169160018060a01b0316907fe28b6697e9cdbd8c354eac7bfa9502ebc482b1fb66ed4aebe22298c5e796ff9860803392a46001600055604051908152f35b92506020843d6020116112c5575b816112b360209383611973565b810103126101cf576020935192611222565b3d91506112a6565b60405162461bcd60e51b815260206004820152601860248201527f546f6b656e73206d75737420626520646966666572656e7400000000000000006044820152606490fd5b60405162461bcd60e51b815260206004820152600e60248201526d496e76616c696420746f6b656e7360901b6044820152606490fd5b506001600160a01b038216151561109f565b346101cf5760003660031901126101cf57602060ff600154166040519015158152f35b346101cf5760a03660031901126101cf57611396611856565b61139e61186c565b906084356064356044356113b06118a6565b6001600160a01b039485906113c88683161515611901565b1694851561155e57811561152557600083138061151c575b156114e6576040519063313ce56760e01b825260209586836004818b5afa9283156105a6576000936114ac575b50600396600591604051828101916001600160601b03199060601b1682526014815261143881611958565b519020604051996114488b61193d565b8a5260ff828b019516855260408a0195865260608a0196875260808a0197885260005252604060002096511686549160ff60a01b905160a01b16916affffffffffffffffffffff60a81b161717855551600185015551600284015551910155600080f35b9092508681813d83116114df575b6114c48183611973565b810103126101cf575160ff811681036101cf5791600361140d565b503d6114ba565b60405162461bcd60e51b815260206004820152600e60248201526d496e76616c696420626f756e647360901b6044820152606490fd5b508284136113e0565b60405162461bcd60e51b8152602060048201526011602482015270125b9d985b1a59081d1a1c995cda1bdb19607a1b6044820152606490fd5b60405162461bcd60e51b8152602060048201526012602482015271125b9d985b1a59081c1c9a58d9481999595960721b6044820152606490fd5b346101cf5760203660031901126101cf576001600160a01b036115b9611856565b1660005260066020526020604060002054604051908152f35b346101cf5760003660031901126101cf576115eb6118a6565b60015460ff81161561162a5760ff19166001557f5db9ee0a495bf2e6ff9c91a7834c1ba4fdd244a5e8aa4e537bd38aeae4b073aa6020604051338152a1005b60405162461bcd60e51b815260206004820152601460248201527314185d5cd8589b194e881b9bdd081c185d5cd95960621b6044820152606490fd5b346101cf5760403660031901126101cf576004356024356001600160401b0381116101cf57611699903690600401611826565b9091600091600281106117b9576116b1821515611a08565b80156105b2576116c0846119b3565b90600019810194818611610442576020956116de92610c5b926119a3565b906040518581016001600160601b031991828460601b1682526014815261170481611958565b51902090604051878101918560601b1682526014815261172381611958565b5190206000918252600587526040909120546001600160a01b03908116151591826117a3575b505061175b575b505050604051908152f35b61176761176d91612064565b91612064565b916000821380611799575b156117505761179193509061178c916119de565b611e65565b828080611750565b5060008313611778565b9091506000526040600020541615158680611749565b60405162461bcd60e51b815260206004820152600d60248201526c496e76616c696420726f75746560981b6044820152606490fd5b346101cf5760003660031901126101cf5760206040516127108152f35b346101cf5760003660031901126101cf57806103e860209252f35b9181601f840112156101cf578235916001600160401b0383116101cf576020808501948460051b0101116101cf57565b600435906001600160a01b03821682036101cf57565b602435906001600160a01b03821682036101cf57565b35906001600160a01b03821682036101cf57565b359062ffffff821682036101cf57565b60015460081c6001600160a01b031633036118bd57565b606460405162461bcd60e51b815260206004820152602060248201527f4f776e61626c653a2063616c6c6572206973206e6f7420746865206f776e65726044820152fd5b1561190857565b60405162461bcd60e51b815260206004820152600d60248201526c24b73b30b634b2103a37b5b2b760991b6044820152606490fd5b60a081019081106001600160401b03821117610bc157604052565b604081019081106001600160401b03821117610bc157604052565b90601f801991011681019081106001600160401b03821117610bc157604052565b60001981146104425760010190565b91908110156105b25760051b0190565b356001600160a01b03811681036101cf5790565b6001600160401b038111610bc15760051b60200190565b8181029291811591840414171561044257565b8181106119fc575050565b600081556001016119f1565b15611a0f57565b60405162461bcd60e51b81526020600482015260126024820152710416d6f756e74206d757374206265203e20360741b6044820152606490fd5b60ff60015416611a5557565b60405162461bcd60e51b815260206004820152601060248201526f14185d5cd8589b194e881c185d5cd95960821b6044820152606490fd5b600260005414611a9e576002600055565b60405162461bcd60e51b815260206004820152601f60248201527f5265656e7472616e637947756172643a207265656e7472616e742063616c6c006044820152606490fd5b6040516323b872dd60e01b60208201526001600160a01b039283166024820152929091166044830152606480830193909352918152611b2591610fe48261193d565b565b60405163095ea7b360e01b602082018181526001600160a01b038516602484015260448084019690965294825294939092611b63606485611973565b83516000926001600160a01b039291858416918591829182855af190611b87611d41565b82611c11575b5081611c06575b5015611ba4575b50505050509050565b6040519660208801521660248601528060448601526044855260808501908582106001600160401b03831117611bf25750611be79394610fe49160405282611c5b565b803880808080611b9b565b634e487b7160e01b81526041600452602490fd5b90503b151538611b94565b80519192508115918215611c29575b50509038611b8d565b611c3c9250602080918301019101611c43565b3880611c20565b908160209103126101cf575180151581036101cf5790565b604051611cb9916001600160a01b0316611c7482611958565b6000806020958685527f5361666545524332303a206c6f772d6c6576656c2063616c6c206661696c656487860152868151910182855af1611cb3611d41565b91611d80565b805190828215928315611d29575b50505015611cd25750565b6084906040519062461bcd60e51b82526004820152602a60248201527f5361666545524332303a204552433230206f7065726174696f6e20646964206e6044820152691bdd081cdd58d8d9595960b21b6064820152fd5b611d399350820181019101611c43565b388281611cc7565b3d15611d7b573d906001600160401b038211610bc15760405191611d6f601f8201601f191660200184611973565b82523d6000602084013e565b606090565b91929015611de25750815115611d94575090565b3b15611d9d5790565b60405162461bcd60e51b815260206004820152601d60248201527f416464726573733a2063616c6c20746f206e6f6e2d636f6e74726163740000006044820152606490fd5b825190915015611df55750805190602001fd5b60405162461bcd60e51b815260206004820152908190611e19906024830190611e40565b0390fd5b60005b838110611e305750506000910152565b8181015183820152602001611e20565b90602091611e5981518092818552858086019101611e1d565b601f01601f1916010190565b8115611e6f570490565b634e487b7160e01b600052601260045260246000fd5b91929092604093845193602085016001600160601b031995868360601b16825260148152611eb281611958565b51902094865160208101918460601b16825260148152611ed181611958565b51902060009586526005602052868620546001600160a01b039081161591821561203c575b505061203457611767611f0891612064565b918482138061202b575b15611ff657611f25929161178c916119de565b918183039181811284841281169085851390151617611fe257612710808402938405149084141715611fba578215611fce57600160ff1b8214600019841416611fba5750906103e8910513611f775750565b5162461bcd60e51b815260206004820152601860248201527f507269636520646576696174696f6e20746f6f206869676800000000000000006044820152606490fd5b634e487b7160e01b81526011600452602490fd5b634e487b7160e01b81526012600452602490fd5b634e487b7160e01b82526011600452602482fd5b855162461bcd60e51b815260206004820152600e60248201526d496e76616c69642070726963657360901b6044820152606490fd5b50848313611f12565b505050505050565b875287872054161590503880611ef6565b519069ffffffffffffffffffff821682036101cf57565b604090815190602091828101916001600160601b03199060601b1682526014815261208e81611958565b51902091600092835260058252808320928151936120ab8561193d565b80549460ff60018060a01b0387169687835260a01c168582015260806003600184015493868401948552600281015460608501520154910152841561220b5760a0600495845196878092633fabe5a360e21b82525afa801561220157829583916121ab575b504203904282116121975751106121605783131561212d57505090565b60649250519062461bcd60e51b82526004820152600d60248201526c496e76616c696420707269636560981b6044820152fd5b815162461bcd60e51b815260048101849052601060248201526f5374616c65207072696365206461746160801b6044820152606490fd5b634e487b7160e01b83526011600452602483fd5b95505060a0853d82116121f9575b816121c660a09383611973565b810103126121f5576121d78561204d565b50838501516121ed60806060880151970161204d565b509438612110565b5080fd5b3d91506121b9565b83513d84823e3d90fd5b505050505060001990565b80518210156105b25760209160051b01019056fea264697066735822122069011497b2ba09f2f4fc3e50300314106526c3550851ec1e457ab367c54868e764736f6c63430008140033","opcodes":"PUSH1 0x80 CALLVALUE PUSH2 0x116 JUMPI PUSH1 0x1F PUSH2 0x2392 CODESIZE DUP2 SWAP1 SUB SWAP2 DUP3 ADD PUSH1 0x1F NOT AND DUP4 ADD SWAP2 PUSH1 0x1 PUSH1 0x1 PUSH1 0x40 SHL SUB DUP4 GT DUP5 DUP5 LT OR PUSH2 0x11B JUMPI DUP1 DUP5 SWAP3 PUSH1 0x20 SWAP5 PUSH1 0x40 MSTORE DUP4 CODECOPY DUP2 ADD SUB SLT PUSH2 0x116 JUMPI MLOAD PUSH1 0x1 PUSH1 0x1 PUSH1 0xA0 SHL SUB DUP1 DUP3 AND SWAP2 DUP3 SWAP1 SUB PUSH2 0x116 JUMPI PUSH1 0x1 PUSH1 0x0 DUP2 DUP2 SSTORE DUP2 SLOAD PUSH1 0x1 PUSH1 0x1 PUSH1 0xA8 SHL SUB NOT DUP2 AND CALLER PUSH1 0x8 DUP2 DUP2 SHL PUSH2 0x100 PUSH1 0x1 PUSH1 0xA8 SHL SUB AND SWAP3 SWAP1 SWAP3 OR SWAP1 SWAP5 SSTORE PUSH1 0x40 MLOAD SWAP5 SWAP2 SWAP1 SHR AND SWAP1 PUSH32 0x8BE0079C531659141344CD1FD0A4F28419497F9722A3DAAFE3B4186F6B6457E0 SWAP1 DUP1 LOG3 DUP2 ISZERO PUSH2 0xD4 JUMPI POP PUSH1 0x2 DUP1 SLOAD PUSH1 0x1 PUSH1 0x1 PUSH1 0xA0 SHL SUB NOT AND SWAP2 SWAP1 SWAP2 OR SWAP1 SSTORE PUSH1 0x40 MLOAD PUSH2 0x2260 SWAP1 DUP2 PUSH2 0x132 DUP3 CODECOPY RETURN JUMPDEST PUSH3 0x461BCD PUSH1 0xE5 SHL DUP2 MSTORE PUSH1 0x20 PUSH1 0x4 DUP3 ADD MSTORE PUSH1 0x13 PUSH1 0x24 DUP3 ADD MSTORE PUSH32 0x496E76616C6964207377617020726F7574657200000000000000000000000000 PUSH1 0x44 DUP3 ADD MSTORE PUSH1 0x64 SWAP1 REVERT JUMPDEST PUSH1 0x0 DUP1 REVERT JUMPDEST PUSH4 0x4E487B71 PUSH1 0xE0 SHL PUSH1 0x0 MSTORE PUSH1 0x41 PUSH1 0x4 MSTORE PUSH1 0x24 PUSH1 0x0 REVERT INVALID PUSH1 0x80 DUP1 PUSH1 0x40 MSTORE PUSH1 0x4 CALLDATASIZE LT ISZERO PUSH2 0x13 JUMPI PUSH1 0x0 DUP1 REVERT JUMPDEST PUSH1 0x0 CALLDATALOAD PUSH1 0xE0 SHR SWAP1 DUP2 PUSH4 0xCA55CD7 EQ PUSH2 0x180B JUMPI POP DUP1 PUSH4 0x249D39E9 EQ PUSH2 0x17EE JUMPI DUP1 PUSH4 0x3A7E75C2 EQ PUSH2 0x1666 JUMPI DUP1 PUSH4 0x3F4BA83A EQ PUSH2 0x15D2 JUMPI DUP1 PUSH4 0x4ECE7C06 EQ PUSH2 0x1598 JUMPI DUP1 PUSH4 0x55C32C94 EQ PUSH2 0x137D JUMPI DUP1 PUSH4 0x5C975ABB EQ PUSH2 0x135A JUMPI DUP1 PUSH4 0x65650EA1 EQ PUSH2 0x104C JUMPI DUP1 PUSH4 0x6FF1C9BC EQ PUSH2 0xF3A JUMPI DUP1 PUSH4 0x715018A6 EQ PUSH2 0xED9 JUMPI DUP1 PUSH4 0x726F16D8 EQ PUSH2 0xEA5 JUMPI DUP1 PUSH4 0x8456CB59 EQ PUSH2 0xE4C JUMPI DUP1 PUSH4 0x8DA5CB5B EQ PUSH2 0xE1F JUMPI DUP1 PUSH4 0x975CF313 EQ PUSH2 0xE01 JUMPI DUP1 PUSH4 0xA81A2677 EQ PUSH2 0xDA1 JUMPI DUP1 PUSH4 0xAE8008A0 EQ PUSH2 0x801 JUMPI DUP1 PUSH4 0xC31C9C07 EQ PUSH2 0x7D8 JUMPI DUP1 PUSH4 0xDC895236 EQ PUSH2 0x1F1 JUMPI DUP1 PUSH4 0xE229CD76 EQ PUSH2 0x1D4 JUMPI PUSH4 0xF2FDE38B EQ PUSH2 0xFB JUMPI PUSH1 0x0 DUP1 REVERT JUMPDEST CALLVALUE PUSH2 0x1CF JUMPI PUSH1 0x20 CALLDATASIZE PUSH1 0x3 NOT ADD SLT PUSH2 0x1CF JUMPI PUSH2 0x114 PUSH2 0x1856 JUMP JUMPDEST PUSH2 0x11C PUSH2 0x18A6 JUMP JUMPDEST PUSH1 0x1 PUSH1 0x1 PUSH1 0xA0 SHL SUB DUP2 DUP2 AND SWAP2 DUP3 ISZERO PUSH2 0x17B JUMPI PUSH1 0x1 DUP1 SLOAD PUSH2 0x100 PUSH1 0x1 PUSH1 0xA8 SHL SUB NOT DUP2 AND PUSH1 0x8 SWAP4 DUP5 SHL PUSH2 0x100 PUSH1 0x1 PUSH1 0xA8 SHL SUB AND OR SWAP1 SWAP2 SSTORE SWAP1 SHR AND PUSH32 0x8BE0079C531659141344CD1FD0A4F28419497F9722A3DAAFE3B4186F6B6457E0 PUSH1 0x0 DUP1 LOG3 STOP JUMPDEST PUSH1 0x40 MLOAD PUSH3 0x461BCD PUSH1 0xE5 SHL DUP2 MSTORE PUSH1 0x20 PUSH1 0x4 DUP3 ADD MSTORE PUSH1 0x26 PUSH1 0x24 DUP3 ADD MSTORE PUSH32 0x4F776E61626C653A206E6577206F776E657220697320746865207A65726F2061 PUSH1 0x44 DUP3 ADD MSTORE PUSH6 0x646472657373 PUSH1 0xD0 SHL PUSH1 0x64 DUP3 ADD MSTORE PUSH1 0x84 SWAP1 REVERT JUMPDEST PUSH1 0x0 DUP1 REVERT JUMPDEST CALLVALUE PUSH2 0x1CF JUMPI PUSH1 0x0 CALLDATASIZE PUSH1 0x3 NOT ADD SLT PUSH2 0x1CF JUMPI PUSH1 0x20 PUSH1 0x40 MLOAD PUSH2 0x1F4 DUP2 MSTORE RETURN JUMPDEST CALLVALUE PUSH2 0x1CF JUMPI PUSH1 0x60 CALLDATASIZE PUSH1 0x3 NOT ADD SLT PUSH2 0x1CF JUMPI PUSH2 0x20A PUSH2 0x1A8D JUMP JUMPDEST PUSH2 0x212 PUSH2 0x1A49 JUMP JUMPDEST PUSH1 0x3 SLOAD PUSH1 0x4 CALLDATALOAD LT ISZERO PUSH2 0x79C JUMPI PUSH1 0x4 CALLDATALOAD PUSH1 0x0 MSTORE PUSH1 0x4 PUSH1 0x20 MSTORE PUSH1 0x40 PUSH1 0x0 KECCAK256 PUSH1 0xFF PUSH1 0x2 DUP3 ADD SLOAD AND ISZERO PUSH2 0x763 JUMPI PUSH2 0x248 PUSH1 0x24 CALLDATALOAD ISZERO ISZERO PUSH2 0x1A08 JUMP JUMPDEST DUP1 SLOAD DUP1 ISZERO PUSH2 0x5B2 JUMPI PUSH1 0x0 DUP3 DUP2 MSTORE PUSH1 0x20 SWAP1 KECCAK256 SLOAD PUSH1 0x1 PUSH1 0x1 PUSH1 0xA0 SHL SUB AND SWAP1 PUSH1 0x0 NOT DUP1 DUP3 ADD DUP3 DUP2 GT PUSH2 0x442 JUMPI DUP3 GT ISZERO PUSH2 0x5B2 JUMPI PUSH1 0x0 DUP5 DUP2 MSTORE PUSH1 0x20 SWAP1 KECCAK256 SWAP1 SWAP2 ADD ADD SLOAD PUSH1 0x1 PUSH1 0x1 PUSH1 0xA0 SHL SUB AND SWAP1 PUSH2 0x2A0 PUSH1 0x44 CALLDATALOAD PUSH1 0x24 CALLDATALOAD DUP5 DUP5 PUSH2 0x1E85 JUMP JUMPDEST PUSH2 0x2AE PUSH1 0x24 CALLDATALOAD ADDRESS CALLER DUP5 PUSH2 0x1AE3 JUMP JUMPDEST PUSH1 0x2 SLOAD PUSH2 0x2C8 SWAP1 PUSH1 0x24 CALLDATALOAD SWAP1 PUSH1 0x1 PUSH1 0x1 PUSH1 0xA0 SHL SUB AND DUP4 PUSH2 0x1B27 JUMP JUMPDEST PUSH1 0x40 MLOAD SWAP3 DUP4 DUP5 PUSH1 0x20 DUP4 SLOAD SWAP3 DUP4 DUP2 MSTORE ADD DUP1 SWAP3 DUP5 PUSH1 0x0 MSTORE PUSH1 0x20 PUSH1 0x0 KECCAK256 SWAP1 PUSH1 0x0 JUMPDEST DUP2 DUP2 LT PUSH2 0x741 JUMPI POP POP POP PUSH1 0x1 SWAP4 SWAP2 PUSH2 0x2FF SWAP2 SUB DUP8 PUSH2 0x1973 JUMP JUMPDEST PUSH1 0x40 MLOAD SWAP3 ADD DUP1 SLOAD DUP1 DUP5 MSTORE PUSH1 0x0 SWAP2 DUP3 MSTORE PUSH1 0x20 DUP1 DUP4 KECCAK256 SWAP3 DUP6 SWAP3 SWAP2 DUP4 ADD SWAP2 JUMPDEST DUP1 PUSH1 0x9 DUP4 ADD LT PUSH2 0x6B9 JUMPI PUSH2 0x381 SWAP5 SLOAD SWAP2 DUP2 DUP2 LT PUSH2 0x6A3 JUMPI JUMPDEST DUP2 DUP2 LT PUSH2 0x68A JUMPI JUMPDEST DUP2 DUP2 LT PUSH2 0x671 JUMPI JUMPDEST DUP2 DUP2 LT PUSH2 0x658 JUMPI JUMPDEST DUP2 DUP2 LT PUSH2 0x63F JUMPI JUMPDEST DUP2 DUP2 LT PUSH2 0x626 JUMPI JUMPDEST DUP2 DUP2 LT PUSH2 0x60D JUMPI JUMPDEST DUP2 DUP2 LT PUSH2 0x5F4 JUMPI JUMPDEST DUP2 DUP2 LT PUSH2 0x5DB JUMPI JUMPDEST LT PUSH2 0x5C8 JUMPI JUMPDEST POP SUB DUP4 PUSH2 0x1973 JUMP JUMPDEST DUP5 MLOAD ISZERO PUSH2 0x5B2 JUMPI MLOAD PUSH1 0x40 MLOAD SWAP1 PUSH1 0x1 PUSH1 0x1 PUSH1 0x60 SHL SUB NOT SWAP1 PUSH1 0x60 SHL AND PUSH1 0x20 DUP3 ADD MSTORE PUSH1 0x14 DUP2 MSTORE PUSH2 0x3AD DUP2 PUSH2 0x1958 JUMP JUMPDEST SWAP2 PUSH1 0x0 SWAP3 JUMPDEST DUP3 MLOAD DUP5 LT ISZERO PUSH2 0x458 JUMPI PUSH2 0x3C5 DUP5 DUP5 PUSH2 0x2216 JUMP JUMPDEST MLOAD PUSH1 0x1 DUP6 ADD DUP6 GT PUSH2 0x442 JUMPI PUSH2 0x436 PUSH1 0x37 PUSH2 0x43C SWAP4 PUSH2 0x3E6 PUSH1 0x1 DUP10 ADD DUP12 PUSH2 0x2216 JUMP JUMPDEST MLOAD SWAP4 PUSH1 0x40 MLOAD SWAP5 DUP3 PUSH2 0x401 DUP8 SWAP5 MLOAD DUP1 SWAP3 PUSH1 0x20 DUP1 DUP9 ADD SWAP2 ADD PUSH2 0x1E1D JUMP JUMPDEST DUP4 ADD SWAP2 PUSH3 0xFFFFFF PUSH1 0xE8 SHL SWAP1 PUSH1 0xE8 SHL AND PUSH1 0x20 DUP4 ADD MSTORE PUSH1 0x1 PUSH1 0x1 PUSH1 0x60 SHL SUB NOT SWAP1 PUSH1 0x60 SHL AND PUSH1 0x23 DUP3 ADD MSTORE SUB PUSH1 0x17 DUP2 ADD DUP5 MSTORE ADD DUP3 PUSH2 0x1973 JUMP JUMPDEST SWAP4 PUSH2 0x1994 JUMP JUMPDEST SWAP3 PUSH2 0x3B2 JUMP JUMPDEST PUSH4 0x4E487B71 PUSH1 0xE0 SHL PUSH1 0x0 MSTORE PUSH1 0x11 PUSH1 0x4 MSTORE PUSH1 0x24 PUSH1 0x0 REVERT JUMPDEST SWAP1 DUP5 PUSH1 0x3C TIMESTAMP ADD DUP1 TIMESTAMP GT PUSH2 0x442 JUMPI PUSH1 0x0 SWAP4 PUSH1 0x20 SWAP2 PUSH1 0x40 MLOAD SWAP2 PUSH2 0x478 DUP4 PUSH2 0x193D JUMP JUMPDEST DUP3 MSTORE CALLER DUP4 DUP4 ADD MSTORE PUSH1 0x40 DUP3 ADD MSTORE PUSH1 0x24 CALLDATALOAD PUSH1 0x60 DUP3 ADD MSTORE PUSH1 0x44 CALLDATALOAD PUSH1 0x80 DUP3 ADD MSTORE PUSH1 0x1 DUP1 PUSH1 0xA0 SHL SUB PUSH1 0x2 SLOAD AND PUSH1 0x40 MLOAD DUP1 SWAP7 DUP2 DUP1 SWAP5 PUSH4 0xC04B8D59 PUSH1 0xE0 SHL DUP3 MSTORE DUP7 PUSH1 0x4 DUP4 ADD MSTORE PUSH1 0x80 PUSH2 0x4CF DUP3 MLOAD PUSH1 0xA0 PUSH1 0x24 DUP7 ADD MSTORE PUSH1 0xC4 DUP6 ADD SWAP1 PUSH2 0x1E40 JUMP JUMPDEST DUP9 DUP4 ADD MLOAD PUSH1 0x1 PUSH1 0x1 PUSH1 0xA0 SHL SUB AND PUSH1 0x44 DUP6 ADD MSTORE PUSH1 0x40 DUP4 ADD MLOAD PUSH1 0x64 DUP6 ADD MSTORE PUSH1 0x60 DUP4 ADD MLOAD PUSH1 0x84 DUP6 ADD MSTORE SWAP2 ADD MLOAD PUSH1 0xA4 DUP4 ADD MSTORE SUB SWAP3 GAS CALL SWAP2 DUP3 ISZERO PUSH2 0x5A6 JUMPI PUSH1 0x0 SWAP3 PUSH2 0x571 JUMPI JUMPDEST PUSH1 0x20 SWAP4 POP CALLER PUSH1 0x0 MSTORE PUSH1 0x6 DUP5 MSTORE TIMESTAMP PUSH1 0x40 PUSH1 0x0 KECCAK256 SSTORE PUSH1 0x40 MLOAD PUSH1 0x24 CALLDATALOAD DUP2 MSTORE DUP4 DUP6 DUP3 ADD MSTORE PUSH1 0x4 CALLDATALOAD PUSH1 0x40 DUP3 ADD MSTORE TIMESTAMP PUSH1 0x60 DUP3 ADD MSTORE PUSH32 0xDC45CC23A637ACFC76BD724D5FE5B3195BB8FF1830052BDE5E0CACB924152C77 PUSH1 0x80 CALLER SWAP3 LOG4 PUSH1 0x1 PUSH1 0x0 SSTORE PUSH1 0x40 MLOAD SWAP1 DUP2 MSTORE RETURN JUMPDEST SWAP2 POP PUSH1 0x20 DUP4 RETURNDATASIZE PUSH1 0x20 GT PUSH2 0x59E JUMPI JUMPDEST DUP2 PUSH2 0x58C PUSH1 0x20 SWAP4 DUP4 PUSH2 0x1973 JUMP JUMPDEST DUP2 ADD SUB SLT PUSH2 0x1CF JUMPI PUSH1 0x20 SWAP3 MLOAD SWAP2 PUSH2 0x510 JUMP JUMPDEST RETURNDATASIZE SWAP2 POP PUSH2 0x57F JUMP JUMPDEST PUSH1 0x40 MLOAD RETURNDATASIZE PUSH1 0x0 DUP3 RETURNDATACOPY RETURNDATASIZE SWAP1 REVERT JUMPDEST PUSH4 0x4E487B71 PUSH1 0xE0 SHL PUSH1 0x0 MSTORE PUSH1 0x32 PUSH1 0x4 MSTORE PUSH1 0x24 PUSH1 0x0 REVERT JUMPDEST PUSH1 0xD8 SHR PUSH3 0xFFFFFF AND DUP2 MSTORE PUSH1 0x20 ADD DUP9 PUSH2 0x379 JUMP JUMPDEST SWAP3 PUSH1 0x20 PUSH1 0x1 SWAP2 PUSH3 0xFFFFFF DUP6 PUSH1 0xC0 SHR AND DUP2 MSTORE ADD SWAP4 ADD PUSH2 0x373 JUMP JUMPDEST SWAP3 PUSH1 0x20 PUSH1 0x1 SWAP2 PUSH3 0xFFFFFF DUP6 PUSH1 0xA8 SHR AND DUP2 MSTORE ADD SWAP4 ADD PUSH2 0x36B JUMP JUMPDEST SWAP3 PUSH1 0x20 PUSH1 0x1 SWAP2 PUSH3 0xFFFFFF DUP6 PUSH1 0x90 SHR AND DUP2 MSTORE ADD SWAP4 ADD PUSH2 0x363 JUMP JUMPDEST SWAP3 PUSH1 0x20 PUSH1 0x1 SWAP2 PUSH3 0xFFFFFF DUP6 PUSH1 0x78 SHR AND DUP2 MSTORE ADD SWAP4 ADD PUSH2 0x35B JUMP JUMPDEST SWAP3 PUSH1 0x20 PUSH1 0x1 SWAP2 PUSH3 0xFFFFFF DUP6 PUSH1 0x60 SHR AND DUP2 MSTORE ADD SWAP4 ADD PUSH2 0x353 JUMP JUMPDEST SWAP3 PUSH1 0x20 PUSH1 0x1 SWAP2 PUSH3 0xFFFFFF DUP6 PUSH1 0x48 SHR AND DUP2 MSTORE ADD SWAP4 ADD PUSH2 0x34B JUMP JUMPDEST SWAP3 PUSH1 0x20 PUSH1 0x1 SWAP2 PUSH3 0xFFFFFF DUP6 PUSH1 0x30 SHR AND DUP2 MSTORE ADD SWAP4 ADD PUSH2 0x343 JUMP JUMPDEST SWAP3 PUSH1 0x20 PUSH1 0x1 SWAP2 PUSH3 0xFFFFFF DUP6 PUSH1 0x18 SHR AND DUP2 MSTORE ADD SWAP4 ADD PUSH2 0x33B JUMP JUMPDEST SWAP3 PUSH1 0x20 PUSH1 0x1 SWAP2 PUSH3 0xFFFFFF DUP6 AND DUP2 MSTORE ADD SWAP4 ADD PUSH2 0x333 JUMP JUMPDEST SWAP2 PUSH1 0xA SWAP2 SWAP4 POP PUSH2 0x140 PUSH1 0x1 SWAP2 DUP7 SLOAD PUSH3 0xFFFFFF SWAP1 DUP2 DUP2 AND DUP4 MSTORE DUP2 DUP2 PUSH1 0x18 SHR AND PUSH1 0x20 DUP5 ADD MSTORE DUP2 DUP2 PUSH1 0x30 SHR AND PUSH1 0x40 DUP5 ADD MSTORE DUP2 DUP2 PUSH1 0x48 SHR AND PUSH1 0x60 DUP5 ADD MSTORE DUP2 DUP2 PUSH1 0x60 SHR AND PUSH1 0x80 DUP5 ADD MSTORE DUP2 DUP2 PUSH1 0x78 SHR AND PUSH1 0xA0 DUP5 ADD MSTORE DUP2 DUP2 PUSH1 0xC0 DUP3 DUP3 PUSH1 0x90 SHR AND DUP2 DUP8 ADD MSTORE DUP3 DUP3 PUSH1 0xA8 SHR AND PUSH1 0xE0 DUP8 ADD MSTORE SHR AND PUSH2 0x100 DUP5 ADD MSTORE PUSH1 0xD8 SHR AND PUSH2 0x120 DUP3 ADD MSTORE ADD SWAP5 ADD SWAP3 ADD DUP6 SWAP3 SWAP4 SWAP2 PUSH2 0x31B JUMP JUMPDEST DUP3 SLOAD PUSH1 0x1 PUSH1 0x1 PUSH1 0xA0 SHL SUB AND DUP5 MSTORE DUP10 SWAP5 POP PUSH1 0x20 SWAP1 SWAP4 ADD SWAP3 PUSH1 0x1 SWAP3 DUP4 ADD SWAP3 ADD PUSH2 0x2E6 JUMP JUMPDEST PUSH1 0x40 MLOAD PUSH3 0x461BCD PUSH1 0xE5 SHL DUP2 MSTORE PUSH1 0x20 PUSH1 0x4 DUP3 ADD MSTORE PUSH1 0x11 PUSH1 0x24 DUP3 ADD MSTORE PUSH17 0x526F75746520697320696E616374697665 PUSH1 0x78 SHL PUSH1 0x44 DUP3 ADD MSTORE PUSH1 0x64 SWAP1 REVERT JUMPDEST PUSH1 0x40 MLOAD PUSH3 0x461BCD PUSH1 0xE5 SHL DUP2 MSTORE PUSH1 0x20 PUSH1 0x4 DUP3 ADD MSTORE PUSH1 0x14 PUSH1 0x24 DUP3 ADD MSTORE PUSH20 0x149BDD5D1948191BD95CC81B9BDD08195E1A5CDD PUSH1 0x62 SHL PUSH1 0x44 DUP3 ADD MSTORE PUSH1 0x64 SWAP1 REVERT JUMPDEST CALLVALUE PUSH2 0x1CF JUMPI PUSH1 0x0 CALLDATASIZE PUSH1 0x3 NOT ADD SLT PUSH2 0x1CF JUMPI PUSH1 0x2 SLOAD PUSH1 0x40 MLOAD PUSH1 0x1 PUSH1 0x1 PUSH1 0xA0 SHL SUB SWAP1 SWAP2 AND DUP2 MSTORE PUSH1 0x20 SWAP1 RETURN JUMPDEST CALLVALUE PUSH2 0x1CF JUMPI PUSH1 0x40 CALLDATASIZE PUSH1 0x3 NOT ADD SLT PUSH2 0x1CF JUMPI PUSH1 0x4 CALLDATALOAD PUSH1 0x1 PUSH1 0x1 PUSH1 0x40 SHL SUB DUP2 GT PUSH2 0x1CF JUMPI PUSH2 0x831 SWAP1 CALLDATASIZE SWAP1 PUSH1 0x4 ADD PUSH2 0x1826 JUMP JUMPDEST SWAP1 PUSH1 0x24 CALLDATALOAD PUSH1 0x1 PUSH1 0x1 PUSH1 0x40 SHL SUB DUP2 GT PUSH2 0x1CF JUMPI PUSH2 0x851 SWAP1 CALLDATASIZE SWAP1 PUSH1 0x4 ADD PUSH2 0x1826 JUMP JUMPDEST PUSH2 0x859 PUSH2 0x18A6 JUMP JUMPDEST PUSH1 0x2 DUP5 LT PUSH2 0xD52 JUMPI PUSH1 0x0 NOT DUP5 ADD DUP5 DUP2 GT PUSH2 0x442 JUMPI DUP2 SUB PUSH2 0xCFA JUMPI PUSH1 0x0 JUMPDEST DUP5 DUP2 LT PUSH2 0xC41 JUMPI POP PUSH1 0x3 SLOAD SWAP3 PUSH1 0x40 MLOAD PUSH1 0x60 DUP2 ADD DUP2 DUP2 LT PUSH1 0x1 PUSH1 0x1 PUSH1 0x40 SHL SUB DUP3 GT OR PUSH2 0xBC1 JUMPI PUSH1 0x40 MSTORE PUSH2 0x8A7 DUP7 PUSH2 0x19C7 JUMP JUMPDEST PUSH2 0x8B4 PUSH1 0x40 MLOAD SWAP2 DUP3 PUSH2 0x1973 JUMP JUMPDEST DUP7 DUP2 MSTORE PUSH1 0x20 DUP2 ADD CALLDATASIZE DUP9 PUSH1 0x5 SHL DUP6 ADD GT PUSH2 0x1CF JUMPI DUP4 SWAP1 JUMPDEST DUP9 PUSH1 0x5 SHL DUP6 ADD DUP3 LT PUSH2 0xC29 JUMPI POP POP DUP2 MSTORE PUSH2 0x8E3 DUP4 PUSH2 0x19C7 JUMP JUMPDEST PUSH2 0x8F0 PUSH1 0x40 MLOAD SWAP2 DUP3 PUSH2 0x1973 JUMP JUMPDEST DUP4 DUP2 MSTORE PUSH1 0x20 DUP2 ADD CALLDATASIZE DUP6 PUSH1 0x5 SHL DUP8 ADD GT PUSH2 0x1CF JUMPI DUP6 SWAP1 JUMPDEST DUP6 PUSH1 0x5 SHL DUP8 ADD DUP3 LT PUSH2 0xC11 JUMPI POP POP PUSH1 0x20 DUP3 ADD MSTORE PUSH1 0x1 PUSH1 0x40 DUP3 ADD MSTORE DUP5 PUSH1 0x0 MSTORE PUSH1 0x4 PUSH1 0x20 MSTORE PUSH1 0x40 PUSH1 0x0 KECCAK256 DUP2 MLOAD DUP1 MLOAD SWAP1 PUSH1 0x1 PUSH1 0x1 PUSH1 0x40 SHL SUB DUP3 GT PUSH2 0xBC1 JUMPI PUSH1 0x1 PUSH1 0x40 SHL DUP3 GT PUSH2 0xBC1 JUMPI PUSH1 0x20 SWAP1 DUP4 SLOAD DUP4 DUP6 SSTORE DUP1 DUP5 LT PUSH2 0xBF4 JUMPI JUMPDEST POP ADD DUP3 PUSH1 0x0 MSTORE PUSH1 0x20 PUSH1 0x0 KECCAK256 PUSH1 0x0 JUMPDEST DUP4 DUP2 LT PUSH2 0xBD7 JUMPI POP POP POP POP PUSH1 0x20 DUP3 ADD MLOAD DUP1 MLOAD SWAP1 PUSH1 0x1 PUSH1 0x1 PUSH1 0x40 SHL SUB DUP3 GT PUSH2 0xBC1 JUMPI PUSH1 0x1 PUSH1 0x40 SHL DUP3 GT PUSH2 0xBC1 JUMPI PUSH1 0x20 SWAP1 PUSH1 0x1 DUP5 ADD SLOAD DUP4 PUSH1 0x1 DUP7 ADD SSTORE DUP1 DUP5 LT PUSH2 0xB66 JUMPI JUMPDEST POP ADD SWAP1 PUSH1 0x1 DUP4 ADD PUSH1 0x0 MSTORE PUSH1 0x20 PUSH1 0x0 KECCAK256 SWAP1 PUSH1 0x0 JUMPDEST PUSH1 0xA DUP3 DIV DUP2 LT PUSH2 0xB19 JUMPI POP PUSH1 0xA DUP1 DUP3 DIV MUL DUP2 SUB PUSH2 0xABF JUMPI JUMPDEST POP POP POP PUSH1 0x2 PUSH1 0x40 SWAP2 SWAP8 SWAP4 SWAP8 ADD SWAP2 ADD MLOAD ISZERO ISZERO PUSH1 0xFF DUP1 NOT DUP4 SLOAD AND SWAP2 AND OR SWAP1 SSTORE PUSH1 0x40 MLOAD SWAP5 DUP2 PUSH1 0x40 DUP8 ADD PUSH1 0x40 DUP9 MSTORE MSTORE PUSH1 0x60 DUP7 ADD SWAP1 SWAP2 PUSH1 0x0 JUMPDEST DUP2 DUP2 LT PUSH2 0xA93 JUMPI POP POP PUSH1 0x20 SWAP2 POP DUP6 DUP2 SUB DUP3 DUP8 ADD MSTORE DUP3 DUP2 MSTORE ADD SWAP2 SWAP1 PUSH1 0x0 JUMPDEST DUP2 DUP2 LT PUSH2 0xA6F JUMPI PUSH1 0x20 DUP6 DUP1 PUSH32 0xC2A1604C5FA5887CCC37E677E01F22EF8EE8E0C39F1A5F8DBF282AA2BD281C2F DUP10 DUP9 SUB DUP11 LOG2 PUSH2 0xA64 PUSH1 0x3 SLOAD PUSH2 0x1994 JUMP JUMPDEST PUSH1 0x3 SSTORE PUSH1 0x40 MLOAD SWAP1 DUP2 MSTORE RETURN JUMPDEST SWAP1 SWAP2 SWAP3 PUSH1 0x20 DUP1 PUSH1 0x1 SWAP3 PUSH3 0xFFFFFF PUSH2 0xA85 DUP9 PUSH2 0x1896 JUMP JUMPDEST AND DUP2 MSTORE ADD SWAP5 ADD SWAP3 SWAP2 ADD PUSH2 0xA28 JUMP JUMPDEST SWAP1 SWAP2 PUSH1 0x1 SWAP1 PUSH1 0x20 SWAP1 DUP2 SWAP1 PUSH1 0x1 PUSH1 0x1 PUSH1 0xA0 SHL SUB PUSH2 0xAAE DUP9 PUSH2 0x1882 JUMP JUMPDEST AND DUP2 MSTORE ADD SWAP5 ADD SWAP2 ADD SWAP3 SWAP2 SWAP1 SWAP3 PUSH2 0xA0B JUMP JUMPDEST PUSH1 0x0 SWAP3 PUSH1 0x0 JUMPDEST PUSH1 0xA DUP1 DUP5 DIV MUL DUP4 SUB DUP2 LT PUSH2 0xAE5 JUMPI POP POP PUSH1 0xA SWAP1 DIV ADD SSTORE PUSH1 0x2 PUSH1 0x40 DUP10 PUSH2 0x9D7 JUMP JUMPDEST SWAP1 SWAP4 PUSH1 0x20 PUSH2 0xB10 PUSH1 0x1 SWAP3 PUSH3 0xFFFFFF DUP9 MLOAD AND SWAP1 DUP6 PUSH1 0x3 MUL PUSH1 0x3 SHL SWAP2 PUSH3 0xFFFFFF DUP1 SWAP2 AND DUP4 SHL SWAP3 SHL NOT AND OR SWAP1 JUMP JUMPDEST SWAP6 ADD SWAP2 ADD PUSH2 0xAC5 JUMP JUMPDEST PUSH1 0x0 DUP1 JUMPDEST PUSH1 0xA DUP2 LT PUSH2 0xB32 JUMPI POP DUP4 DUP3 ADD SSTORE PUSH1 0x1 ADD PUSH2 0x9BF JUMP JUMPDEST SWAP5 SWAP1 PUSH1 0x20 PUSH2 0xB5D PUSH1 0x1 SWAP3 PUSH3 0xFFFFFF DUP6 MLOAD AND SWAP1 DUP10 PUSH1 0x3 MUL PUSH1 0x3 SHL SWAP2 PUSH3 0xFFFFFF DUP1 SWAP2 AND DUP4 SHL SWAP3 SHL NOT AND OR SWAP1 JUMP JUMPDEST SWAP3 ADD SWAP6 ADD PUSH2 0xB1D JUMP JUMPDEST PUSH2 0xB99 SWAP1 PUSH1 0x1 DUP7 ADD PUSH1 0x0 MSTORE PUSH1 0xA PUSH1 0x9 DUP6 PUSH1 0x0 KECCAK256 SWAP3 PUSH1 0x3 DUP4 DUP10 MOD MUL DUP1 PUSH2 0xB9F JUMPI JUMPDEST POP ADD DIV DUP2 ADD SWAP1 PUSH1 0xA PUSH1 0x9 DUP8 ADD DIV ADD PUSH2 0x19F1 JUMP JUMPDEST DUP11 PUSH2 0x9AC JUMP JUMPDEST PUSH1 0x0 NOT DUP5 DUP5 DUP12 ADD DIV DUP7 ADD ADD SWAP1 DUP2 SLOAD SWAP1 PUSH1 0x0 NOT SWAP1 DUP11 SUB PUSH1 0x3 SHL SHR AND SWAP1 SSTORE DUP16 PUSH2 0xB86 JUMP JUMPDEST PUSH4 0x4E487B71 PUSH1 0xE0 SHL PUSH1 0x0 MSTORE PUSH1 0x41 PUSH1 0x4 MSTORE PUSH1 0x24 PUSH1 0x0 REVERT JUMPDEST DUP3 MLOAD PUSH1 0x1 PUSH1 0x1 PUSH1 0xA0 SHL SUB AND DUP2 DUP4 ADD SSTORE PUSH1 0x20 SWAP1 SWAP3 ADD SWAP2 PUSH1 0x1 ADD PUSH2 0x96A JUMP JUMPDEST PUSH2 0xC0B SWAP1 DUP6 PUSH1 0x0 MSTORE DUP5 DUP5 PUSH1 0x0 KECCAK256 SWAP2 DUP3 ADD SWAP2 ADD PUSH2 0x19F1 JUMP JUMPDEST DUP11 PUSH2 0x95C JUMP JUMPDEST PUSH1 0x20 DUP1 SWAP2 PUSH2 0xC1E DUP5 PUSH2 0x1896 JUMP JUMPDEST DUP2 MSTORE ADD SWAP2 ADD SWAP1 PUSH2 0x906 JUMP JUMPDEST PUSH1 0x20 DUP1 SWAP2 PUSH2 0xC36 DUP5 PUSH2 0x1882 JUMP JUMPDEST DUP2 MSTORE ADD SWAP2 ADD SWAP1 PUSH2 0x8CA JUMP JUMPDEST PUSH1 0x1 PUSH1 0x1 PUSH1 0xA0 SHL SUB PUSH2 0xC68 DUP2 PUSH2 0xC60 PUSH2 0xC5B DUP6 DUP11 DUP11 PUSH2 0x19A3 JUMP JUMPDEST PUSH2 0x19B3 JUMP JUMPDEST AND ISZERO ISZERO PUSH2 0x1901 JUMP JUMPDEST DUP2 PUSH2 0xC7D JUMPI JUMPDEST POP PUSH2 0xC78 SWAP1 PUSH2 0x1994 JUMP JUMPDEST PUSH2 0x876 JUMP JUMPDEST PUSH2 0xC8B PUSH2 0xC5B DUP4 DUP9 DUP9 PUSH2 0x19A3 JUMP JUMPDEST SWAP1 PUSH1 0x0 NOT DUP4 ADD DUP4 DUP2 GT PUSH2 0x442 JUMPI PUSH2 0xCA7 PUSH2 0xC5B DUP4 SWAP3 DUP11 DUP11 PUSH2 0x19A3 JUMP JUMPDEST AND SWAP2 AND EQ PUSH2 0xCB5 JUMPI DUP6 PUSH2 0xC6E JUMP JUMPDEST PUSH1 0x40 MLOAD PUSH3 0x461BCD PUSH1 0xE5 SHL DUP2 MSTORE PUSH1 0x20 PUSH1 0x4 DUP3 ADD MSTORE PUSH1 0x19 PUSH1 0x24 DUP3 ADD MSTORE PUSH32 0x4475706C696361746520746F6B656E7320696E20726F75746500000000000000 PUSH1 0x44 DUP3 ADD MSTORE PUSH1 0x64 SWAP1 REVERT JUMPDEST PUSH1 0x40 MLOAD PUSH3 0x461BCD PUSH1 0xE5 SHL DUP2 MSTORE PUSH1 0x20 PUSH1 0x4 DUP3 ADD MSTORE PUSH1 0x2A PUSH1 0x24 DUP3 ADD MSTORE PUSH32 0x466565206172726179206C656E677468206D75737420626520746F6B656E732E PUSH1 0x44 DUP3 ADD MSTORE PUSH10 0x6C656E677468202D2031 PUSH1 0xB0 SHL PUSH1 0x64 DUP3 ADD MSTORE PUSH1 0x84 SWAP1 REVERT JUMPDEST PUSH1 0x40 MLOAD PUSH3 0x461BCD PUSH1 0xE5 SHL DUP2 MSTORE PUSH1 0x20 PUSH1 0x4 DUP3 ADD MSTORE PUSH1 0x21 PUSH1 0x24 DUP3 ADD MSTORE PUSH32 0x526F757465206D7573742068617665206174206C65617374203220746F6B656E PUSH1 0x44 DUP3 ADD MSTORE PUSH1 0x73 PUSH1 0xF8 SHL PUSH1 0x64 DUP3 ADD MSTORE PUSH1 0x84 SWAP1 REVERT JUMPDEST CALLVALUE PUSH2 0x1CF JUMPI PUSH1 0x20 CALLDATASIZE PUSH1 0x3 NOT ADD SLT PUSH2 0x1CF JUMPI PUSH1 0x4 CALLDATALOAD PUSH1 0x0 MSTORE PUSH1 0x5 PUSH1 0x20 MSTORE PUSH1 0xA0 PUSH1 0x40 PUSH1 0x0 KECCAK256 DUP1 SLOAD SWAP1 PUSH1 0x1 DUP2 ADD SLOAD SWAP1 PUSH1 0x3 PUSH1 0x2 DUP3 ADD SLOAD SWAP2 ADD SLOAD SWAP2 PUSH1 0xFF PUSH1 0x40 MLOAD SWAP5 PUSH1 0x1 DUP1 DUP9 SHL SUB DUP2 AND DUP7 MSTORE DUP7 SHR AND PUSH1 0x20 DUP6 ADD MSTORE PUSH1 0x40 DUP5 ADD MSTORE PUSH1 0x60 DUP4 ADD MSTORE PUSH1 0x80 DUP3 ADD MSTORE RETURN JUMPDEST CALLVALUE PUSH2 0x1CF JUMPI PUSH1 0x0 CALLDATASIZE PUSH1 0x3 NOT ADD SLT PUSH2 0x1CF JUMPI PUSH1 0x20 PUSH1 0x3 SLOAD PUSH1 0x40 MLOAD SWAP1 DUP2 MSTORE RETURN JUMPDEST CALLVALUE PUSH2 0x1CF JUMPI PUSH1 0x0 CALLDATASIZE PUSH1 0x3 NOT ADD SLT PUSH2 0x1CF JUMPI PUSH1 0x1 SLOAD PUSH1 0x40 MLOAD PUSH1 0x8 SWAP2 SWAP1 SWAP2 SHR PUSH1 0x1 PUSH1 0x1 PUSH1 0xA0 SHL SUB AND DUP2 MSTORE PUSH1 0x20 SWAP1 RETURN JUMPDEST CALLVALUE PUSH2 0x1CF JUMPI PUSH1 0x0 CALLDATASIZE PUSH1 0x3 NOT ADD SLT PUSH2 0x1CF JUMPI PUSH2 0xE65 PUSH2 0x18A6 JUMP JUMPDEST PUSH2 0xE6D PUSH2 0x1A49 JUMP JUMPDEST PUSH1 0x1 PUSH1 0xFF NOT DUP2 SLOAD AND OR PUSH1 0x1 SSTORE PUSH32 0x62E78CEA01BEE320CD4E420270B5EA74000D11B0C9F74754EBDBFC544B05A258 PUSH1 0x20 PUSH1 0x40 MLOAD CALLER DUP2 MSTORE LOG1 STOP JUMPDEST CALLVALUE PUSH2 0x1CF JUMPI PUSH1 0x20 CALLDATASIZE PUSH1 0x3 NOT ADD SLT PUSH2 0x1CF JUMPI PUSH1 0x4 CALLDATALOAD PUSH1 0x0 MSTORE PUSH1 0x4 PUSH1 0x20 MSTORE PUSH1 0x20 PUSH1 0xFF PUSH1 0x2 PUSH1 0x40 PUSH1 0x0 KECCAK256 ADD SLOAD AND PUSH1 0x40 MLOAD SWAP1 ISZERO ISZERO DUP2 MSTORE RETURN JUMPDEST CALLVALUE PUSH2 0x1CF JUMPI PUSH1 0x0 CALLDATASIZE PUSH1 0x3 NOT ADD SLT PUSH2 0x1CF JUMPI PUSH2 0xEF2 PUSH2 0x18A6 JUMP JUMPDEST PUSH1 0x1 DUP1 SLOAD PUSH2 0x100 PUSH1 0x1 PUSH1 0xA8 SHL SUB NOT DUP2 AND SWAP1 SWAP2 SSTORE PUSH1 0x0 SWAP1 PUSH1 0x8 SHR PUSH1 0x1 PUSH1 0x1 PUSH1 0xA0 SHL SUB AND PUSH32 0x8BE0079C531659141344CD1FD0A4F28419497F9722A3DAAFE3B4186F6B6457E0 DUP3 DUP1 LOG3 STOP JUMPDEST CALLVALUE PUSH2 0x1CF JUMPI PUSH1 0x20 DUP1 PUSH1 0x3 NOT CALLDATASIZE ADD SLT PUSH2 0x1CF JUMPI PUSH2 0xF54 PUSH2 0x1856 JUMP JUMPDEST PUSH2 0xF5C PUSH2 0x18A6 JUMP JUMPDEST PUSH1 0x40 MLOAD PUSH4 0x70A08231 PUSH1 0xE0 SHL DUP2 MSTORE ADDRESS PUSH1 0x4 DUP3 ADD MSTORE SWAP1 PUSH1 0x1 PUSH1 0x1 PUSH1 0xA0 SHL SUB SWAP1 DUP2 AND SWAP1 DUP4 DUP4 PUSH1 0x24 DUP2 DUP6 GAS STATICCALL SWAP3 DUP4 ISZERO PUSH2 0x5A6 JUMPI PUSH1 0x0 SWAP4 PUSH2 0x101D JUMPI JUMPDEST POP DUP3 ISZERO PUSH2 0xFEB JUMPI PUSH1 0x1 SLOAD PUSH1 0x40 MLOAD PUSH4 0xA9059CBB PUSH1 0xE0 SHL SWAP6 DUP2 ADD SWAP6 SWAP1 SWAP6 MSTORE PUSH1 0x8 SHR AND PUSH1 0x1 PUSH1 0x1 PUSH1 0xA0 SHL SUB AND PUSH1 0x24 DUP5 ADD MSTORE PUSH1 0x44 DUP4 ADD SWAP2 SWAP1 SWAP2 MSTORE PUSH2 0xFE9 SWAP2 SWAP1 PUSH2 0xFE4 DUP3 PUSH1 0x64 DUP2 ADD SUB PUSH1 0x1F NOT DUP2 ADD DUP5 MSTORE DUP4 PUSH2 0x1973 JUMP JUMPDEST PUSH2 0x1C5B JUMP JUMPDEST STOP JUMPDEST PUSH1 0x40 MLOAD PUSH3 0x461BCD PUSH1 0xE5 SHL DUP2 MSTORE PUSH1 0x4 DUP2 ADD DUP6 SWAP1 MSTORE PUSH1 0xA PUSH1 0x24 DUP3 ADD MSTORE PUSH10 0x4E6F2062616C616E6365 PUSH1 0xB0 SHL PUSH1 0x44 DUP3 ADD MSTORE PUSH1 0x64 SWAP1 REVERT JUMPDEST SWAP1 SWAP3 POP DUP4 DUP2 DUP2 RETURNDATASIZE DUP4 GT PUSH2 0x1045 JUMPI JUMPDEST PUSH2 0x1035 DUP2 DUP4 PUSH2 0x1973 JUMP JUMPDEST DUP2 ADD SUB SLT PUSH2 0x1CF JUMPI MLOAD SWAP2 DUP5 PUSH2 0xF93 JUMP JUMPDEST POP RETURNDATASIZE PUSH2 0x102B JUMP JUMPDEST CALLVALUE PUSH2 0x1CF JUMPI PUSH1 0xA0 CALLDATASIZE PUSH1 0x3 NOT ADD SLT PUSH2 0x1CF JUMPI PUSH2 0x1065 PUSH2 0x1856 JUMP JUMPDEST PUSH2 0x106D PUSH2 0x186C JUMP JUMPDEST PUSH1 0x44 CALLDATALOAD SWAP2 PUSH3 0xFFFFFF DUP4 AND DUP4 SUB PUSH2 0x1CF JUMPI PUSH2 0x1085 PUSH2 0x1A8D JUMP JUMPDEST PUSH2 0x108D PUSH2 0x1A49 JUMP JUMPDEST PUSH1 0x1 PUSH1 0x1 PUSH1 0xA0 SHL SUB DUP2 AND ISZERO ISZERO DUP1 PUSH2 0x1348 JUMPI JUMPDEST ISZERO PUSH2 0x1312 JUMPI PUSH1 0x1 PUSH1 0x1 PUSH1 0xA0 SHL SUB DUP2 DUP2 AND SWAP1 DUP4 AND EQ PUSH2 0x12CD JUMPI PUSH2 0x10C4 PUSH1 0x64 CALLDATALOAD ISZERO ISZERO PUSH2 0x1A08 JUMP JUMPDEST PUSH2 0x10D4 PUSH1 0x84 CALLDATALOAD PUSH1 0x64 CALLDATALOAD DUP5 DUP5 PUSH2 0x1E85 JUMP JUMPDEST PUSH2 0x10EB PUSH1 0x64 CALLDATALOAD ADDRESS CALLER PUSH1 0x1 PUSH1 0x1 PUSH1 0xA0 SHL SUB DUP6 AND PUSH2 0x1AE3 JUMP JUMPDEST PUSH1 0x2 SLOAD PUSH2 0x1109 SWAP1 PUSH1 0x64 CALLDATALOAD SWAP1 PUSH1 0x1 PUSH1 0x1 PUSH1 0xA0 SHL SUB SWAP1 DUP2 AND SWAP1 DUP5 AND PUSH2 0x1B27 JUMP JUMPDEST PUSH1 0x3C TIMESTAMP ADD TIMESTAMP GT PUSH2 0x442 JUMPI PUSH1 0x40 MLOAD SWAP3 PUSH2 0x100 DUP5 ADD DUP5 DUP2 LT PUSH1 0x1 PUSH1 0x1 PUSH1 0x40 SHL SUB DUP3 GT OR PUSH2 0xBC1 JUMPI PUSH1 0x0 SWAP5 PUSH1 0x20 SWAP2 PUSH1 0x40 MSTORE PUSH1 0x1 DUP1 PUSH1 0xA0 SHL SUB DUP5 AND DUP2 MSTORE PUSH1 0x1 DUP1 PUSH1 0xA0 SHL SUB DUP6 AND DUP3 DUP3 ADD MSTORE PUSH3 0xFFFFFF DUP4 AND PUSH1 0x40 DUP3 ADD MSTORE CALLER PUSH1 0x60 DUP3 ADD MSTORE PUSH1 0x3C TIMESTAMP ADD PUSH1 0x80 DUP3 ADD MSTORE PUSH1 0x64 CALLDATALOAD PUSH1 0xA0 DUP3 ADD MSTORE PUSH1 0x84 CALLDATALOAD PUSH1 0xC0 DUP3 ADD MSTORE DUP6 PUSH1 0xE0 DUP3 ADD MSTORE PUSH2 0x104 PUSH1 0x1 DUP1 PUSH1 0xA0 SHL SUB PUSH1 0x2 SLOAD AND SWAP2 PUSH1 0x40 MLOAD SWAP8 DUP9 SWAP4 DUP5 SWAP3 PUSH4 0x414BF389 PUSH1 0xE0 SHL DUP5 MSTORE PUSH1 0x1 DUP1 PUSH1 0xA0 SHL SUB DUP2 MLOAD AND PUSH1 0x4 DUP6 ADD MSTORE PUSH1 0x1 DUP1 PUSH1 0xA0 SHL SUB DUP8 DUP3 ADD MLOAD AND PUSH1 0x24 DUP6 ADD MSTORE PUSH3 0xFFFFFF PUSH1 0x40 DUP3 ADD MLOAD AND PUSH1 0x44 DUP6 ADD MSTORE PUSH1 0x1 DUP1 PUSH1 0xA0 SHL SUB PUSH1 0x60 DUP3 ADD MLOAD AND PUSH1 0x64 DUP6 ADD MSTORE PUSH1 0x80 DUP2 ADD MLOAD PUSH1 0x84 DUP6 ADD MSTORE PUSH1 0xA0 DUP2 ADD MLOAD PUSH1 0xA4 DUP6 ADD MSTORE PUSH1 0xC0 DUP2 ADD MLOAD PUSH1 0xC4 DUP6 ADD MSTORE PUSH1 0xE0 PUSH1 0x1 DUP1 PUSH1 0xA0 SHL SUB SWAP2 ADD MLOAD AND PUSH1 0xE4 DUP5 ADD MSTORE GAS CALL SWAP3 DUP4 ISZERO PUSH2 0x5A6 JUMPI PUSH1 0x0 SWAP4 PUSH2 0x1298 JUMPI JUMPDEST PUSH1 0x20 SWAP5 POP CALLER PUSH1 0x0 MSTORE PUSH1 0x6 DUP6 MSTORE TIMESTAMP PUSH1 0x40 PUSH1 0x0 KECCAK256 SSTORE PUSH3 0xFFFFFF PUSH1 0x40 MLOAD SWAP3 PUSH1 0x64 CALLDATALOAD DUP5 MSTORE DUP6 DUP8 DUP6 ADD MSTORE AND PUSH1 0x40 DUP4 ADD MSTORE TIMESTAMP PUSH1 0x60 DUP4 ADD MSTORE PUSH1 0x1 DUP1 PUSH1 0xA0 SHL SUB AND SWAP2 PUSH1 0x1 DUP1 PUSH1 0xA0 SHL SUB AND SWAP1 PUSH32 0xE28B6697E9CDBD8C354EAC7BFA9502EBC482B1FB66ED4AEBE22298C5E796FF98 PUSH1 0x80 CALLER SWAP3 LOG4 PUSH1 0x1 PUSH1 0x0 SSTORE PUSH1 0x40 MLOAD SWAP1 DUP2 MSTORE RETURN JUMPDEST SWAP3 POP PUSH1 0x20 DUP5 RETURNDATASIZE PUSH1 0x20 GT PUSH2 0x12C5 JUMPI JUMPDEST DUP2 PUSH2 0x12B3 PUSH1 0x20 SWAP4 DUP4 PUSH2 0x1973 JUMP JUMPDEST DUP2 ADD SUB SLT PUSH2 0x1CF JUMPI PUSH1 0x20 SWAP4 MLOAD SWAP3 PUSH2 0x1222 JUMP JUMPDEST RETURNDATASIZE SWAP2 POP PUSH2 0x12A6 JUMP JUMPDEST PUSH1 0x40 MLOAD PUSH3 0x461BCD PUSH1 0xE5 SHL DUP2 MSTORE PUSH1 0x20 PUSH1 0x4 DUP3 ADD MSTORE PUSH1 0x18 PUSH1 0x24 DUP3 ADD MSTORE PUSH32 0x546F6B656E73206D75737420626520646966666572656E740000000000000000 PUSH1 0x44 DUP3 ADD MSTORE PUSH1 0x64 SWAP1 REVERT JUMPDEST PUSH1 0x40 MLOAD PUSH3 0x461BCD PUSH1 0xE5 SHL DUP2 MSTORE PUSH1 0x20 PUSH1 0x4 DUP3 ADD MSTORE PUSH1 0xE PUSH1 0x24 DUP3 ADD MSTORE PUSH14 0x496E76616C696420746F6B656E73 PUSH1 0x90 SHL PUSH1 0x44 DUP3 ADD MSTORE PUSH1 0x64 SWAP1 REVERT JUMPDEST POP PUSH1 0x1 PUSH1 0x1 PUSH1 0xA0 SHL SUB DUP3 AND ISZERO ISZERO PUSH2 0x109F JUMP JUMPDEST CALLVALUE PUSH2 0x1CF JUMPI PUSH1 0x0 CALLDATASIZE PUSH1 0x3 NOT ADD SLT PUSH2 0x1CF JUMPI PUSH1 0x20 PUSH1 0xFF PUSH1 0x1 SLOAD AND PUSH1 0x40 MLOAD SWAP1 ISZERO ISZERO DUP2 MSTORE RETURN JUMPDEST CALLVALUE PUSH2 0x1CF JUMPI PUSH1 0xA0 CALLDATASIZE PUSH1 0x3 NOT ADD SLT PUSH2 0x1CF JUMPI PUSH2 0x1396 PUSH2 0x1856 JUMP JUMPDEST PUSH2 0x139E PUSH2 0x186C JUMP JUMPDEST SWAP1 PUSH1 0x84 CALLDATALOAD PUSH1 0x64 CALLDATALOAD PUSH1 0x44 CALLDATALOAD PUSH2 0x13B0 PUSH2 0x18A6 JUMP JUMPDEST PUSH1 0x1 PUSH1 0x1 PUSH1 0xA0 SHL SUB SWAP5 DUP6 SWAP1 PUSH2 0x13C8 DUP7 DUP4 AND ISZERO ISZERO PUSH2 0x1901 JUMP JUMPDEST AND SWAP5 DUP6 ISZERO PUSH2 0x155E JUMPI DUP2 ISZERO PUSH2 0x1525 JUMPI PUSH1 0x0 DUP4 SGT DUP1 PUSH2 0x151C JUMPI JUMPDEST ISZERO PUSH2 0x14E6 JUMPI PUSH1 0x40 MLOAD SWAP1 PUSH4 0x313CE567 PUSH1 0xE0 SHL DUP3 MSTORE PUSH1 0x20 SWAP6 DUP7 DUP4 PUSH1 0x4 DUP2 DUP12 GAS STATICCALL SWAP3 DUP4 ISZERO PUSH2 0x5A6 JUMPI PUSH1 0x0 SWAP4 PUSH2 0x14AC JUMPI JUMPDEST POP PUSH1 0x3 SWAP7 PUSH1 0x5 SWAP2 PUSH1 0x40 MLOAD DUP3 DUP2 ADD SWAP2 PUSH1 0x1 PUSH1 0x1 PUSH1 0x60 SHL SUB NOT SWAP1 PUSH1 0x60 SHL AND DUP3 MSTORE PUSH1 0x14 DUP2 MSTORE PUSH2 0x1438 DUP2 PUSH2 0x1958 JUMP JUMPDEST MLOAD SWAP1 KECCAK256 PUSH1 0x40 MLOAD SWAP10 PUSH2 0x1448 DUP12 PUSH2 0x193D JUMP JUMPDEST DUP11 MSTORE PUSH1 0xFF DUP3 DUP12 ADD SWAP6 AND DUP6 MSTORE PUSH1 0x40 DUP11 ADD SWAP6 DUP7 MSTORE PUSH1 0x60 DUP11 ADD SWAP7 DUP8 MSTORE PUSH1 0x80 DUP11 ADD SWAP8 DUP9 MSTORE PUSH1 0x0 MSTORE MSTORE PUSH1 0x40 PUSH1 0x0 KECCAK256 SWAP7 MLOAD AND DUP7 SLOAD SWAP2 PUSH1 0xFF PUSH1 0xA0 SHL SWAP1 MLOAD PUSH1 0xA0 SHL AND SWAP2 PUSH11 0xFFFFFFFFFFFFFFFFFFFFFF PUSH1 0xA8 SHL AND OR OR DUP6 SSTORE MLOAD PUSH1 0x1 DUP6 ADD SSTORE MLOAD PUSH1 0x2 DUP5 ADD SSTORE MLOAD SWAP2 ADD SSTORE PUSH1 0x0 DUP1 RETURN JUMPDEST SWAP1 SWAP3 POP DUP7 DUP2 DUP2 RETURNDATASIZE DUP4 GT PUSH2 0x14DF JUMPI JUMPDEST PUSH2 0x14C4 DUP2 DUP4 PUSH2 0x1973 JUMP JUMPDEST DUP2 ADD SUB SLT PUSH2 0x1CF JUMPI MLOAD PUSH1 0xFF DUP2 AND DUP2 SUB PUSH2 0x1CF JUMPI SWAP2 PUSH1 0x3 PUSH2 0x140D JUMP JUMPDEST POP RETURNDATASIZE PUSH2 0x14BA JUMP JUMPDEST PUSH1 0x40 MLOAD PUSH3 0x461BCD PUSH1 0xE5 SHL DUP2 MSTORE PUSH1 0x20 PUSH1 0x4 DUP3 ADD MSTORE PUSH1 0xE PUSH1 0x24 DUP3 ADD MSTORE PUSH14 0x496E76616C696420626F756E6473 PUSH1 0x90 SHL PUSH1 0x44 DUP3 ADD MSTORE PUSH1 0x64 SWAP1 REVERT JUMPDEST POP DUP3 DUP5 SGT PUSH2 0x13E0 JUMP JUMPDEST PUSH1 0x40 MLOAD PUSH3 0x461BCD PUSH1 0xE5 SHL DUP2 MSTORE PUSH1 0x20 PUSH1 0x4 DUP3 ADD MSTORE PUSH1 0x11 PUSH1 0x24 DUP3 ADD MSTORE PUSH17 0x125B9D985B1A59081D1A1C995CDA1BDB19 PUSH1 0x7A SHL PUSH1 0x44 DUP3 ADD MSTORE PUSH1 0x64 SWAP1 REVERT JUMPDEST PUSH1 0x40 MLOAD PUSH3 0x461BCD PUSH1 0xE5 SHL DUP2 MSTORE PUSH1 0x20 PUSH1 0x4 DUP3 ADD MSTORE PUSH1 0x12 PUSH1 0x24 DUP3 ADD MSTORE PUSH18 0x125B9D985B1A59081C1C9A58D94819995959 PUSH1 0x72 SHL PUSH1 0x44 DUP3 ADD MSTORE PUSH1 0x64 SWAP1 REVERT JUMPDEST CALLVALUE PUSH2 0x1CF JUMPI PUSH1 0x20 CALLDATASIZE PUSH1 0x3 NOT ADD SLT PUSH2 0x1CF JUMPI PUSH1 0x1 PUSH1 0x1 PUSH1 0xA0 SHL SUB PUSH2 0x15B9 PUSH2 0x1856 JUMP JUMPDEST AND PUSH1 0x0 MSTORE PUSH1 0x6 PUSH1 0x20 MSTORE PUSH1 0x20 PUSH1 0x40 PUSH1 0x0 KECCAK256 SLOAD PUSH1 0x40 MLOAD SWAP1 DUP2 MSTORE RETURN JUMPDEST CALLVALUE PUSH2 0x1CF JUMPI PUSH1 0x0 CALLDATASIZE PUSH1 0x3 NOT ADD SLT PUSH2 0x1CF JUMPI PUSH2 0x15EB PUSH2 0x18A6 JUMP JUMPDEST PUSH1 0x1 SLOAD PUSH1 0xFF DUP2 AND ISZERO PUSH2 0x162A JUMPI PUSH1 0xFF NOT AND PUSH1 0x1 SSTORE PUSH32 0x5DB9EE0A495BF2E6FF9C91A7834C1BA4FDD244A5E8AA4E537BD38AEAE4B073AA PUSH1 0x20 PUSH1 0x40 MLOAD CALLER DUP2 MSTORE LOG1 STOP JUMPDEST PUSH1 0x40 MLOAD PUSH3 0x461BCD PUSH1 0xE5 SHL DUP2 MSTORE PUSH1 0x20 PUSH1 0x4 DUP3 ADD MSTORE PUSH1 0x14 PUSH1 0x24 DUP3 ADD MSTORE PUSH20 0x14185D5CD8589B194E881B9BDD081C185D5CD959 PUSH1 0x62 SHL PUSH1 0x44 DUP3 ADD MSTORE PUSH1 0x64 SWAP1 REVERT JUMPDEST CALLVALUE PUSH2 0x1CF JUMPI PUSH1 0x40 CALLDATASIZE PUSH1 0x3 NOT ADD SLT PUSH2 0x1CF JUMPI PUSH1 0x4 CALLDATALOAD PUSH1 0x24 CALLDATALOAD PUSH1 0x1 PUSH1 0x1 PUSH1 0x40 SHL SUB DUP2 GT PUSH2 0x1CF JUMPI PUSH2 0x1699 SWAP1 CALLDATASIZE SWAP1 PUSH1 0x4 ADD PUSH2 0x1826 JUMP JUMPDEST SWAP1 SWAP2 PUSH1 0x0 SWAP2 PUSH1 0x2 DUP2 LT PUSH2 0x17B9 JUMPI PUSH2 0x16B1 DUP3 ISZERO ISZERO PUSH2 0x1A08 JUMP JUMPDEST DUP1 ISZERO PUSH2 0x5B2 JUMPI PUSH2 0x16C0 DUP5 PUSH2 0x19B3 JUMP JUMPDEST SWAP1 PUSH1 0x0 NOT DUP2 ADD SWAP5 DUP2 DUP7 GT PUSH2 0x442 JUMPI PUSH1 0x20 SWAP6 PUSH2 0x16DE SWAP3 PUSH2 0xC5B SWAP3 PUSH2 0x19A3 JUMP JUMPDEST SWAP1 PUSH1 0x40 MLOAD DUP6 DUP2 ADD PUSH1 0x1 PUSH1 0x1 PUSH1 0x60 SHL SUB NOT SWAP2 DUP3 DUP5 PUSH1 0x60 SHL AND DUP3 MSTORE PUSH1 0x14 DUP2 MSTORE PUSH2 0x1704 DUP2 PUSH2 0x1958 JUMP JUMPDEST MLOAD SWAP1 KECCAK256 SWAP1 PUSH1 0x40 MLOAD DUP8 DUP2 ADD SWAP2 DUP6 PUSH1 0x60 SHL AND DUP3 MSTORE PUSH1 0x14 DUP2 MSTORE PUSH2 0x1723 DUP2 PUSH2 0x1958 JUMP JUMPDEST MLOAD SWAP1 KECCAK256 PUSH1 0x0 SWAP2 DUP3 MSTORE PUSH1 0x5 DUP8 MSTORE PUSH1 0x40 SWAP1 SWAP2 KECCAK256 SLOAD PUSH1 0x1 PUSH1 0x1 PUSH1 0xA0 SHL SUB SWAP1 DUP2 AND ISZERO ISZERO SWAP2 DUP3 PUSH2 0x17A3 JUMPI JUMPDEST POP POP PUSH2 0x175B JUMPI JUMPDEST POP POP POP PUSH1 0x40 MLOAD SWAP1 DUP2 MSTORE RETURN JUMPDEST PUSH2 0x1767 PUSH2 0x176D SWAP2 PUSH2 0x2064 JUMP JUMPDEST SWAP2 PUSH2 0x2064 JUMP JUMPDEST SWAP2 PUSH1 0x0 DUP3 SGT DUP1 PUSH2 0x1799 JUMPI JUMPDEST ISZERO PUSH2 0x1750 JUMPI PUSH2 0x1791 SWAP4 POP SWAP1 PUSH2 0x178C SWAP2 PUSH2 0x19DE JUMP JUMPDEST PUSH2 0x1E65 JUMP JUMPDEST DUP3 DUP1 DUP1 PUSH2 0x1750 JUMP JUMPDEST POP PUSH1 0x0 DUP4 SGT PUSH2 0x1778 JUMP JUMPDEST SWAP1 SWAP2 POP PUSH1 0x0 MSTORE PUSH1 0x40 PUSH1 0x0 KECCAK256 SLOAD AND ISZERO ISZERO DUP7 DUP1 PUSH2 0x1749 JUMP JUMPDEST PUSH1 0x40 MLOAD PUSH3 0x461BCD PUSH1 0xE5 SHL DUP2 MSTORE PUSH1 0x20 PUSH1 0x4 DUP3 ADD MSTORE PUSH1 0xD PUSH1 0x24 DUP3 ADD MSTORE PUSH13 0x496E76616C696420726F757465 PUSH1 0x98 SHL PUSH1 0x44 DUP3 ADD MSTORE PUSH1 0x64 SWAP1 REVERT JUMPDEST CALLVALUE PUSH2 0x1CF JUMPI PUSH1 0x0 CALLDATASIZE PUSH1 0x3 NOT ADD SLT PUSH2 0x1CF JUMPI PUSH1 0x20 PUSH1 0x40 MLOAD PUSH2 0x2710 DUP2 MSTORE RETURN JUMPDEST CALLVALUE PUSH2 0x1CF JUMPI PUSH1 0x0 CALLDATASIZE PUSH1 0x3 NOT ADD SLT PUSH2 0x1CF JUMPI DUP1 PUSH2 0x3E8 PUSH1 0x20 SWAP3 MSTORE RETURN JUMPDEST SWAP2 DUP2 PUSH1 0x1F DUP5 ADD SLT ISZERO PUSH2 0x1CF JUMPI DUP3 CALLDATALOAD SWAP2 PUSH1 0x1 PUSH1 0x1 PUSH1 0x40 SHL SUB DUP4 GT PUSH2 0x1CF JUMPI PUSH1 0x20 DUP1 DUP6 ADD SWAP5 DUP5 PUSH1 0x5 SHL ADD ADD GT PUSH2 0x1CF JUMPI JUMP JUMPDEST PUSH1 0x4 CALLDATALOAD SWAP1 PUSH1 0x1 PUSH1 0x1 PUSH1 0xA0 SHL SUB DUP3 AND DUP3 SUB PUSH2 0x1CF JUMPI JUMP JUMPDEST PUSH1 0x24 CALLDATALOAD SWAP1 PUSH1 0x1 PUSH1 0x1 PUSH1 0xA0 SHL SUB DUP3 AND DUP3 SUB PUSH2 0x1CF JUMPI JUMP JUMPDEST CALLDATALOAD SWAP1 PUSH1 0x1 PUSH1 0x1 PUSH1 0xA0 SHL SUB DUP3 AND DUP3 SUB PUSH2 0x1CF JUMPI JUMP JUMPDEST CALLDATALOAD SWAP1 PUSH3 0xFFFFFF DUP3 AND DUP3 SUB PUSH2 0x1CF JUMPI JUMP JUMPDEST PUSH1 0x1 SLOAD PUSH1 0x8 SHR PUSH1 0x1 PUSH1 0x1 PUSH1 0xA0 SHL SUB AND CALLER SUB PUSH2 0x18BD JUMPI JUMP JUMPDEST PUSH1 0x64 PUSH1 0x40 MLOAD PUSH3 0x461BCD PUSH1 0xE5 SHL DUP2 MSTORE PUSH1 0x20 PUSH1 0x4 DUP3 ADD MSTORE PUSH1 0x20 PUSH1 0x24 DUP3 ADD MSTORE PUSH32 0x4F776E61626C653A2063616C6C6572206973206E6F7420746865206F776E6572 PUSH1 0x44 DUP3 ADD MSTORE REVERT JUMPDEST ISZERO PUSH2 0x1908 JUMPI JUMP JUMPDEST PUSH1 0x40 MLOAD PUSH3 0x461BCD PUSH1 0xE5 SHL DUP2 MSTORE PUSH1 0x20 PUSH1 0x4 DUP3 ADD MSTORE PUSH1 0xD PUSH1 0x24 DUP3 ADD MSTORE PUSH13 0x24B73B30B634B2103A37B5B2B7 PUSH1 0x99 SHL PUSH1 0x44 DUP3 ADD MSTORE PUSH1 0x64 SWAP1 REVERT JUMPDEST PUSH1 0xA0 DUP2 ADD SWAP1 DUP2 LT PUSH1 0x1 PUSH1 0x1 PUSH1 0x40 SHL SUB DUP3 GT OR PUSH2 0xBC1 JUMPI PUSH1 0x40 MSTORE JUMP JUMPDEST PUSH1 0x40 DUP2 ADD SWAP1 DUP2 LT PUSH1 0x1 PUSH1 0x1 PUSH1 0x40 SHL SUB DUP3 GT OR PUSH2 0xBC1 JUMPI PUSH1 0x40 MSTORE JUMP JUMPDEST SWAP1 PUSH1 0x1F DUP1 NOT SWAP2 ADD AND DUP2 ADD SWAP1 DUP2 LT PUSH1 0x1 PUSH1 0x1 PUSH1 0x40 SHL SUB DUP3 GT OR PUSH2 0xBC1 JUMPI PUSH1 0x40 MSTORE JUMP JUMPDEST PUSH1 0x0 NOT DUP2 EQ PUSH2 0x442 JUMPI PUSH1 0x1 ADD SWAP1 JUMP JUMPDEST SWAP2 SWAP1 DUP2 LT ISZERO PUSH2 0x5B2 JUMPI PUSH1 0x5 SHL ADD SWAP1 JUMP JUMPDEST CALLDATALOAD PUSH1 0x1 PUSH1 0x1 PUSH1 0xA0 SHL SUB DUP2 AND DUP2 SUB PUSH2 0x1CF JUMPI SWAP1 JUMP JUMPDEST PUSH1 0x1 PUSH1 0x1 PUSH1 0x40 SHL SUB DUP2 GT PUSH2 0xBC1 JUMPI PUSH1 0x5 SHL PUSH1 0x20 ADD SWAP1 JUMP JUMPDEST DUP2 DUP2 MUL SWAP3 SWAP2 DUP2 ISZERO SWAP2 DUP5 DIV EQ OR ISZERO PUSH2 0x442 JUMPI JUMP JUMPDEST DUP2 DUP2 LT PUSH2 0x19FC JUMPI POP POP JUMP JUMPDEST PUSH1 0x0 DUP2 SSTORE PUSH1 0x1 ADD PUSH2 0x19F1 JUMP JUMPDEST ISZERO PUSH2 0x1A0F JUMPI JUMP JUMPDEST PUSH1 0x40 MLOAD PUSH3 0x461BCD PUSH1 0xE5 SHL DUP2 MSTORE PUSH1 0x20 PUSH1 0x4 DUP3 ADD MSTORE PUSH1 0x12 PUSH1 0x24 DUP3 ADD MSTORE PUSH18 0x416D6F756E74206D757374206265203E203 PUSH1 0x74 SHL PUSH1 0x44 DUP3 ADD MSTORE PUSH1 0x64 SWAP1 REVERT JUMPDEST PUSH1 0xFF PUSH1 0x1 SLOAD AND PUSH2 0x1A55 JUMPI JUMP JUMPDEST PUSH1 0x40 MLOAD PUSH3 0x461BCD PUSH1 0xE5 SHL DUP2 MSTORE PUSH1 0x20 PUSH1 0x4 DUP3 ADD MSTORE PUSH1 0x10 PUSH1 0x24 DUP3 ADD MSTORE PUSH16 0x14185D5CD8589B194E881C185D5CD959 PUSH1 0x82 SHL PUSH1 0x44 DUP3 ADD MSTORE PUSH1 0x64 SWAP1 REVERT JUMPDEST PUSH1 0x2 PUSH1 0x0 SLOAD EQ PUSH2 0x1A9E JUMPI PUSH1 0x2 PUSH1 0x0 SSTORE JUMP JUMPDEST PUSH1 0x40 MLOAD PUSH3 0x461BCD PUSH1 0xE5 SHL DUP2 MSTORE PUSH1 0x20 PUSH1 0x4 DUP3 ADD MSTORE PUSH1 0x1F PUSH1 0x24 DUP3 ADD MSTORE PUSH32 0x5265656E7472616E637947756172643A207265656E7472616E742063616C6C00 PUSH1 0x44 DUP3 ADD MSTORE PUSH1 0x64 SWAP1 REVERT JUMPDEST PUSH1 0x40 MLOAD PUSH4 0x23B872DD PUSH1 0xE0 SHL PUSH1 0x20 DUP3 ADD MSTORE PUSH1 0x1 PUSH1 0x1 PUSH1 0xA0 SHL SUB SWAP3 DUP4 AND PUSH1 0x24 DUP3 ADD MSTORE SWAP3 SWAP1 SWAP2 AND PUSH1 0x44 DUP4 ADD MSTORE PUSH1 0x64 DUP1 DUP4 ADD SWAP4 SWAP1 SWAP4 MSTORE SWAP2 DUP2 MSTORE PUSH2 0x1B25 SWAP2 PUSH2 0xFE4 DUP3 PUSH2 0x193D JUMP JUMPDEST JUMP JUMPDEST PUSH1 0x40 MLOAD PUSH4 0x95EA7B3 PUSH1 0xE0 SHL PUSH1 0x20 DUP3 ADD DUP2 DUP2 MSTORE PUSH1 0x1 PUSH1 0x1 PUSH1 0xA0 SHL SUB DUP6 AND PUSH1 0x24 DUP5 ADD MSTORE PUSH1 0x44 DUP1 DUP5 ADD SWAP7 SWAP1 SWAP7 MSTORE SWAP5 DUP3 MSTORE SWAP5 SWAP4 SWAP1 SWAP3 PUSH2 0x1B63 PUSH1 0x64 DUP6 PUSH2 0x1973 JUMP JUMPDEST DUP4 MLOAD PUSH1 0x0 SWAP3 PUSH1 0x1 PUSH1 0x1 PUSH1 0xA0 SHL SUB SWAP3 SWAP2 DUP6 DUP5 AND SWAP2 DUP6 SWAP2 DUP3 SWAP2 DUP3 DUP6 GAS CALL SWAP1 PUSH2 0x1B87 PUSH2 0x1D41 JUMP JUMPDEST DUP3 PUSH2 0x1C11 JUMPI JUMPDEST POP DUP2 PUSH2 0x1C06 JUMPI JUMPDEST POP ISZERO PUSH2 0x1BA4 JUMPI JUMPDEST POP POP POP POP POP SWAP1 POP JUMP JUMPDEST PUSH1 0x40 MLOAD SWAP7 PUSH1 0x20 DUP9 ADD MSTORE AND PUSH1 0x24 DUP7 ADD MSTORE DUP1 PUSH1 0x44 DUP7 ADD MSTORE PUSH1 0x44 DUP6 MSTORE PUSH1 0x80 DUP6 ADD SWAP1 DUP6 DUP3 LT PUSH1 0x1 PUSH1 0x1 PUSH1 0x40 SHL SUB DUP4 GT OR PUSH2 0x1BF2 JUMPI POP PUSH2 0x1BE7 SWAP4 SWAP5 PUSH2 0xFE4 SWAP2 PUSH1 0x40 MSTORE DUP3 PUSH2 0x1C5B JUMP JUMPDEST DUP1 CODESIZE DUP1 DUP1 DUP1 DUP1 PUSH2 0x1B9B JUMP JUMPDEST PUSH4 0x4E487B71 PUSH1 0xE0 SHL DUP2 MSTORE PUSH1 0x41 PUSH1 0x4 MSTORE PUSH1 0x24 SWAP1 REVERT JUMPDEST SWAP1 POP EXTCODESIZE ISZERO ISZERO CODESIZE PUSH2 0x1B94 JUMP JUMPDEST DUP1 MLOAD SWAP2 SWAP3 POP DUP2 ISZERO SWAP2 DUP3 ISZERO PUSH2 0x1C29 JUMPI JUMPDEST POP POP SWAP1 CODESIZE PUSH2 0x1B8D JUMP JUMPDEST PUSH2 0x1C3C SWAP3 POP PUSH1 0x20 DUP1 SWAP2 DUP4 ADD ADD SWAP2 ADD PUSH2 0x1C43 JUMP JUMPDEST CODESIZE DUP1 PUSH2 0x1C20 JUMP JUMPDEST SWAP1 DUP2 PUSH1 0x20 SWAP2 SUB SLT PUSH2 0x1CF JUMPI MLOAD DUP1 ISZERO ISZERO DUP2 SUB PUSH2 0x1CF JUMPI SWAP1 JUMP JUMPDEST PUSH1 0x40 MLOAD PUSH2 0x1CB9 SWAP2 PUSH1 0x1 PUSH1 0x1 PUSH1 0xA0 SHL SUB AND PUSH2 0x1C74 DUP3 PUSH2 0x1958 JUMP JUMPDEST PUSH1 0x0 DUP1 PUSH1 0x20 SWAP6 DUP7 DUP6 MSTORE PUSH32 0x5361666545524332303A206C6F772D6C6576656C2063616C6C206661696C6564 DUP8 DUP7 ADD MSTORE DUP7 DUP2 MLOAD SWAP2 ADD DUP3 DUP6 GAS CALL PUSH2 0x1CB3 PUSH2 0x1D41 JUMP JUMPDEST SWAP2 PUSH2 0x1D80 JUMP JUMPDEST DUP1 MLOAD SWAP1 DUP3 DUP3 ISZERO SWAP3 DUP4 ISZERO PUSH2 0x1D29 JUMPI JUMPDEST POP POP POP ISZERO PUSH2 0x1CD2 JUMPI POP JUMP JUMPDEST PUSH1 0x84 SWAP1 PUSH1 0x40 MLOAD SWAP1 PUSH3 0x461BCD PUSH1 0xE5 SHL DUP3 MSTORE PUSH1 0x4 DUP3 ADD MSTORE PUSH1 0x2A PUSH1 0x24 DUP3 ADD MSTORE PUSH32 0x5361666545524332303A204552433230206F7065726174696F6E20646964206E PUSH1 0x44 DUP3 ADD MSTORE PUSH10 0x1BDD081CDD58D8D95959 PUSH1 0xB2 SHL PUSH1 0x64 DUP3 ADD MSTORE REVERT JUMPDEST PUSH2 0x1D39 SWAP4 POP DUP3 ADD DUP2 ADD SWAP2 ADD PUSH2 0x1C43 JUMP JUMPDEST CODESIZE DUP3 DUP2 PUSH2 0x1CC7 JUMP JUMPDEST RETURNDATASIZE ISZERO PUSH2 0x1D7B JUMPI RETURNDATASIZE SWAP1 PUSH1 0x1 PUSH1 0x1 PUSH1 0x40 SHL SUB DUP3 GT PUSH2 0xBC1 JUMPI PUSH1 0x40 MLOAD SWAP2 PUSH2 0x1D6F PUSH1 0x1F DUP3 ADD PUSH1 0x1F NOT AND PUSH1 0x20 ADD DUP5 PUSH2 0x1973 JUMP JUMPDEST DUP3 MSTORE RETURNDATASIZE PUSH1 0x0 PUSH1 0x20 DUP5 ADD RETURNDATACOPY JUMP JUMPDEST PUSH1 0x60 SWAP1 JUMP JUMPDEST SWAP2 SWAP3 SWAP1 ISZERO PUSH2 0x1DE2 JUMPI POP DUP2 MLOAD ISZERO PUSH2 0x1D94 JUMPI POP SWAP1 JUMP JUMPDEST EXTCODESIZE ISZERO PUSH2 0x1D9D JUMPI SWAP1 JUMP JUMPDEST PUSH1 0x40 MLOAD PUSH3 0x461BCD PUSH1 0xE5 SHL DUP2 MSTORE PUSH1 0x20 PUSH1 0x4 DUP3 ADD MSTORE PUSH1 0x1D PUSH1 0x24 DUP3 ADD MSTORE PUSH32 0x416464726573733A2063616C6C20746F206E6F6E2D636F6E7472616374000000 PUSH1 0x44 DUP3 ADD MSTORE PUSH1 0x64 SWAP1 REVERT JUMPDEST DUP3 MLOAD SWAP1 SWAP2 POP ISZERO PUSH2 0x1DF5 JUMPI POP DUP1 MLOAD SWAP1 PUSH1 0x20 ADD REVERT JUMPDEST PUSH1 0x40 MLOAD PUSH3 0x461BCD PUSH1 0xE5 SHL DUP2 MSTORE PUSH1 0x20 PUSH1 0x4 DUP3 ADD MSTORE SWAP1 DUP2 SWAP1 PUSH2 0x1E19 SWAP1 PUSH1 0x24 DUP4 ADD SWAP1 PUSH2 0x1E40 JUMP JUMPDEST SUB SWAP1 REVERT JUMPDEST PUSH1 0x0 JUMPDEST DUP4 DUP2 LT PUSH2 0x1E30 JUMPI POP POP PUSH1 0x0 SWAP2 ADD MSTORE JUMP JUMPDEST DUP2 DUP2 ADD MLOAD DUP4 DUP3 ADD MSTORE PUSH1 0x20 ADD PUSH2 0x1E20 JUMP JUMPDEST SWAP1 PUSH1 0x20 SWAP2 PUSH2 0x1E59 DUP2 MLOAD DUP1 SWAP3 DUP2 DUP6 MSTORE DUP6 DUP1 DUP7 ADD SWAP2 ADD PUSH2 0x1E1D JUMP JUMPDEST PUSH1 0x1F ADD PUSH1 0x1F NOT AND ADD ADD SWAP1 JUMP JUMPDEST DUP2 ISZERO PUSH2 0x1E6F JUMPI DIV SWAP1 JUMP JUMPDEST PUSH4 0x4E487B71 PUSH1 0xE0 SHL PUSH1 0x0 MSTORE PUSH1 0x12 PUSH1 0x4 MSTORE PUSH1 0x24 PUSH1 0x0 REVERT JUMPDEST SWAP2 SWAP3 SWAP1 SWAP3 PUSH1 0x40 SWAP4 DUP5 MLOAD SWAP4 PUSH1 0x20 DUP6 ADD PUSH1 0x1 PUSH1 0x1 PUSH1 0x60 SHL SUB NOT SWAP6 DUP7 DUP4 PUSH1 0x60 SHL AND DUP3 MSTORE PUSH1 0x14 DUP2 MSTORE PUSH2 0x1EB2 DUP2 PUSH2 0x1958 JUMP JUMPDEST MLOAD SWAP1 KECCAK256 SWAP5 DUP7 MLOAD PUSH1 0x20 DUP2 ADD SWAP2 DUP5 PUSH1 0x60 SHL AND DUP3 MSTORE PUSH1 0x14 DUP2 MSTORE PUSH2 0x1ED1 DUP2 PUSH2 0x1958 JUMP JUMPDEST MLOAD SWAP1 KECCAK256 PUSH1 0x0 SWAP6 DUP7 MSTORE PUSH1 0x5 PUSH1 0x20 MSTORE DUP7 DUP7 KECCAK256 SLOAD PUSH1 0x1 PUSH1 0x1 PUSH1 0xA0 SHL SUB SWAP1 DUP2 AND ISZERO SWAP2 DUP3 ISZERO PUSH2 0x203C JUMPI JUMPDEST POP POP PUSH2 0x2034 JUMPI PUSH2 0x1767 PUSH2 0x1F08 SWAP2 PUSH2 0x2064 JUMP JUMPDEST SWAP2 DUP5 DUP3 SGT DUP1 PUSH2 0x202B JUMPI JUMPDEST ISZERO PUSH2 0x1FF6 JUMPI PUSH2 0x1F25 SWAP3 SWAP2 PUSH2 0x178C SWAP2 PUSH2 0x19DE JUMP JUMPDEST SWAP2 DUP2 DUP4 SUB SWAP2 DUP2 DUP2 SLT DUP5 DUP5 SLT DUP2 AND SWAP1 DUP6 DUP6 SGT SWAP1 ISZERO AND OR PUSH2 0x1FE2 JUMPI PUSH2 0x2710 DUP1 DUP5 MUL SWAP4 DUP5 SDIV EQ SWAP1 DUP5 EQ OR ISZERO PUSH2 0x1FBA JUMPI DUP3 ISZERO PUSH2 0x1FCE JUMPI PUSH1 0x1 PUSH1 0xFF SHL DUP3 EQ PUSH1 0x0 NOT DUP5 EQ AND PUSH2 0x1FBA JUMPI POP SWAP1 PUSH2 0x3E8 SWAP2 SDIV SGT PUSH2 0x1F77 JUMPI POP JUMP JUMPDEST MLOAD PUSH3 0x461BCD PUSH1 0xE5 SHL DUP2 MSTORE PUSH1 0x20 PUSH1 0x4 DUP3 ADD MSTORE PUSH1 0x18 PUSH1 0x24 DUP3 ADD MSTORE PUSH32 0x507269636520646576696174696F6E20746F6F20686967680000000000000000 PUSH1 0x44 DUP3 ADD MSTORE PUSH1 0x64 SWAP1 REVERT JUMPDEST PUSH4 0x4E487B71 PUSH1 0xE0 SHL DUP2 MSTORE PUSH1 0x11 PUSH1 0x4 MSTORE PUSH1 0x24 SWAP1 REVERT JUMPDEST PUSH4 0x4E487B71 PUSH1 0xE0 SHL DUP2 MSTORE PUSH1 0x12 PUSH1 0x4 MSTORE PUSH1 0x24 SWAP1 REVERT JUMPDEST PUSH4 0x4E487B71 PUSH1 0xE0 SHL DUP3 MSTORE PUSH1 0x11 PUSH1 0x4 MSTORE PUSH1 0x24 DUP3 REVERT JUMPDEST DUP6 MLOAD PUSH3 0x461BCD PUSH1 0xE5 SHL DUP2 MSTORE PUSH1 0x20 PUSH1 0x4 DUP3 ADD MSTORE PUSH1 0xE PUSH1 0x24 DUP3 ADD MSTORE PUSH14 0x496E76616C696420707269636573 PUSH1 0x90 SHL PUSH1 0x44 DUP3 ADD MSTORE PUSH1 0x64 SWAP1 REVERT JUMPDEST POP DUP5 DUP4 SGT PUSH2 0x1F12 JUMP JUMPDEST POP POP POP POP POP POP JUMP JUMPDEST DUP8 MSTORE DUP8 DUP8 KECCAK256 SLOAD AND ISZERO SWAP1 POP CODESIZE DUP1 PUSH2 0x1EF6 JUMP JUMPDEST MLOAD SWAP1 PUSH10 0xFFFFFFFFFFFFFFFFFFFF DUP3 AND DUP3 SUB PUSH2 0x1CF JUMPI JUMP JUMPDEST PUSH1 0x40 SWAP1 DUP2 MLOAD SWAP1 PUSH1 0x20 SWAP2 DUP3 DUP2 ADD SWAP2 PUSH1 0x1 PUSH1 0x1 PUSH1 0x60 SHL SUB NOT SWAP1 PUSH1 0x60 SHL AND DUP3 MSTORE PUSH1 0x14 DUP2 MSTORE PUSH2 0x208E DUP2 PUSH2 0x1958 JUMP JUMPDEST MLOAD SWAP1 KECCAK256 SWAP2 PUSH1 0x0 SWAP3 DUP4 MSTORE PUSH1 0x5 DUP3 MSTORE DUP1 DUP4 KECCAK256 SWAP3 DUP2 MLOAD SWAP4 PUSH2 0x20AB DUP6 PUSH2 0x193D JUMP JUMPDEST DUP1 SLOAD SWAP5 PUSH1 0xFF PUSH1 0x1 DUP1 PUSH1 0xA0 SHL SUB DUP8 AND SWAP7 DUP8 DUP4 MSTORE PUSH1 0xA0 SHR AND DUP6 DUP3 ADD MSTORE PUSH1 0x80 PUSH1 0x3 PUSH1 0x1 DUP5 ADD SLOAD SWAP4 DUP7 DUP5 ADD SWAP5 DUP6 MSTORE PUSH1 0x2 DUP2 ADD SLOAD PUSH1 0x60 DUP6 ADD MSTORE ADD SLOAD SWAP2 ADD MSTORE DUP5 ISZERO PUSH2 0x220B JUMPI PUSH1 0xA0 PUSH1 0x4 SWAP6 DUP5 MLOAD SWAP7 DUP8 DUP1 SWAP3 PUSH4 0x3FABE5A3 PUSH1 0xE2 SHL DUP3 MSTORE GAS STATICCALL DUP1 ISZERO PUSH2 0x2201 JUMPI DUP3 SWAP6 DUP4 SWAP2 PUSH2 0x21AB JUMPI JUMPDEST POP TIMESTAMP SUB SWAP1 TIMESTAMP DUP3 GT PUSH2 0x2197 JUMPI MLOAD LT PUSH2 0x2160 JUMPI DUP4 SGT ISZERO PUSH2 0x212D JUMPI POP POP SWAP1 JUMP JUMPDEST PUSH1 0x64 SWAP3 POP MLOAD SWAP1 PUSH3 0x461BCD PUSH1 0xE5 SHL DUP3 MSTORE PUSH1 0x4 DUP3 ADD MSTORE PUSH1 0xD PUSH1 0x24 DUP3 ADD MSTORE PUSH13 0x496E76616C6964207072696365 PUSH1 0x98 SHL PUSH1 0x44 DUP3 ADD MSTORE REVERT JUMPDEST DUP2 MLOAD PUSH3 0x461BCD PUSH1 0xE5 SHL DUP2 MSTORE PUSH1 0x4 DUP2 ADD DUP5 SWAP1 MSTORE PUSH1 0x10 PUSH1 0x24 DUP3 ADD MSTORE PUSH16 0x5374616C652070726963652064617461 PUSH1 0x80 SHL PUSH1 0x44 DUP3 ADD MSTORE PUSH1 0x64 SWAP1 REVERT JUMPDEST PUSH4 0x4E487B71 PUSH1 0xE0 SHL DUP4 MSTORE PUSH1 0x11 PUSH1 0x4 MSTORE PUSH1 0x24 DUP4 REVERT JUMPDEST SWAP6 POP POP PUSH1 0xA0 DUP6 RETURNDATASIZE DUP3 GT PUSH2 0x21F9 JUMPI JUMPDEST DUP2 PUSH2 0x21C6 PUSH1 0xA0 SWAP4 DUP4 PUSH2 0x1973 JUMP JUMPDEST DUP2 ADD SUB SLT PUSH2 0x21F5 JUMPI PUSH2 0x21D7 DUP6 PUSH2 0x204D JUMP JUMPDEST POP DUP4 DUP6 ADD MLOAD PUSH2 0x21ED PUSH1 0x80 PUSH1 0x60 DUP9 ADD MLOAD SWAP8 ADD PUSH2 0x204D JUMP JUMPDEST POP SWAP5 CODESIZE PUSH2 0x2110 JUMP JUMPDEST POP DUP1 REVERT JUMPDEST RETURNDATASIZE SWAP2 POP PUSH2 0x21B9 JUMP JUMPDEST DUP4 MLOAD RETURNDATASIZE DUP5 DUP3 RETURNDATACOPY RETURNDATASIZE SWAP1 REVERT JUMPDEST POP POP POP POP POP PUSH1 0x0 NOT SWAP1 JUMP JUMPDEST DUP1 MLOAD DUP3 LT ISZERO PUSH2 0x5B2 JUMPI PUSH1 0x20 SWAP2 PUSH1 0x5 SHL ADD ADD SWAP1 JUMP INVALID LOG2 PUSH5 0x6970667358 0x22 SLT KECCAK256 PUSH10 0x11497B2BA09F2F4FC3E POP ADDRESS SUB EQ LT PUSH6 0x26C3550851EC 0x1E GASLIMIT PUSH27 0xB367C54868E764736F6C6343000814003300000000000000000000 "},"methodIdentifiers":{"BPS()":"249d39e9","CIRCUIT_BREAKER_THRESHOLD()":"0ca55cd7","MAX_SLIPPAGE_BPS()":"e229cd76","createRoute(address[],uint24[])":"ae8008a0","emergencyWithdraw(address)":"6ff1c9bc","estimateSwap(uint256,address[])":"3a7e75c2","lastSwapTime(address)":"4ece7c06","nextRouteId()":"975cf313","oracles(bytes32)":"a81a2677","owner()":"8da5cb5b","pause()":"8456cb59","paused()":"5c975abb","registerOracle(address,address,uint256,int256,int256)":"55c32c94","renounceOwnership()":"715018a6","routes(uint256)":"726f16d8","swapExactInputMultiHop(uint256,uint256,uint256)":"dc895236","swapExactInputSingle(address,address,uint24,uint256,uint256)":"65650ea1","swapRouter()":"c31c9c07","transferOwnership(address)":"f2fde38b","unpause()":"3f4ba83a"}}}}}