{"contracts/StreamPayCore.sol":{"StreamPayCore":{"abi":[{"inputs":[],"stateMutability":"nonpayable","type":"constructor"},{"anonymous":false,"inputs":[{"indexed":true,"internalType":"address","name":"previousOwner","type":"address"},{"indexed":true,"internalType":"address","name":"newOwner","type":"address"}],"name":"OwnershipTransferred","type":"event"},{"anonymous":false,"inputs":[{"indexed":false,"internalType":"address","name":"account","type":"address"}],"name":"Paused","type":"event"},{"anonymous":false,"inputs":[{"indexed":true,"internalType":"uint256","name":"streamId","type":"uint256"},{"indexed":true,"internalType":"address","name":"sender","type":"address"},{"indexed":false,"internalType":"uint256","name":"senderRefund","type":"uint256"},{"indexed":false,"internalType":"uint256","name":"recipientPayout","type":"uint256"}],"name":"StreamCancelled","type":"event"},{"anonymous":false,"inputs":[{"indexed":true,"internalType":"uint256","name":"streamId","type":"uint256"},{"indexed":true,"internalType":"address","name":"recipient","type":"address"},{"indexed":false,"internalType":"uint256","name":"amount","type":"uint256"}],"name":"StreamClaimed","type":"event"},{"anonymous":false,"inputs":[{"indexed":true,"internalType":"uint256","name":"streamId","type":"uint256"},{"indexed":true,"internalType":"address","name":"sender","type":"address"},{"indexed":true,"internalType":"address","name":"recipient","type":"address"},{"indexed":false,"internalType":"address","name":"token","type":"address"},{"indexed":false,"internalType":"uint256","name":"ratePerSecond","type":"uint256"},{"indexed":false,"internalType":"uint256","name":"duration","type":"uint256"}],"name":"StreamCreated","type":"event"},{"anonymous":false,"inputs":[{"indexed":true,"internalType":"uint256","name":"streamId","type":"uint256"},{"indexed":true,"internalType":"address","name":"sender","type":"address"},{"indexed":false,"internalType":"uint256","name":"amount","type":"uint256"}],"name":"StreamWithdrawn","type":"event"},{"anonymous":false,"inputs":[{"indexed":false,"internalType":"address","name":"account","type":"address"}],"name":"Unpaused","type":"event"},{"inputs":[{"internalType":"uint256","name":"streamId","type":"uint256"}],"name":"availableToClaim","outputs":[{"internalType":"uint256","name":"","type":"uint256"}],"stateMutability":"view","type":"function"},{"inputs":[{"internalType":"uint256","name":"streamId","type":"uint256"}],"name":"cancelStream","outputs":[],"stateMutability":"nonpayable","type":"function"},{"inputs":[{"internalType":"uint256","name":"streamId","type":"uint256"}],"name":"claim","outputs":[],"stateMutability":"nonpayable","type":"function"},{"inputs":[{"internalType":"address","name":"recipient","type":"address"},{"internalType":"address","name":"token","type":"address"},{"internalType":"uint256","name":"deposit","type":"uint256"},{"internalType":"uint256","name":"ratePerSecond","type":"uint256"},{"internalType":"uint256","name":"duration","type":"uint256"}],"name":"createStream","outputs":[{"internalType":"uint256","name":"","type":"uint256"}],"stateMutability":"nonpayable","type":"function"},{"inputs":[{"internalType":"uint256","name":"streamId","type":"uint256"}],"name":"getStreamInfo","outputs":[{"internalType":"address","name":"sender","type":"address"},{"internalType":"address","name":"recipient","type":"address"},{"internalType":"address","name":"token","type":"address"},{"internalType":"uint256","name":"deposit","type":"uint256"},{"internalType":"uint256","name":"ratePerSecond","type":"uint256"},{"internalType":"uint256","name":"startTime","type":"uint256"},{"internalType":"uint256","name":"stopTime","type":"uint256"},{"internalType":"uint256","name":"remainingBalance","type":"uint256"},{"internalType":"bool","name":"active","type":"bool"},{"internalType":"uint256","name":"claimableNow","type":"uint256"}],"stateMutability":"view","type":"function"},{"inputs":[],"name":"nextStreamId","outputs":[{"internalType":"uint256","name":"","type":"uint256"}],"stateMutability":"view","type":"function"},{"inputs":[],"name":"owner","outputs":[{"internalType":"address","name":"","type":"address"}],"stateMutability":"view","type":"function"},{"inputs":[],"name":"pause","outputs":[],"stateMutability":"nonpayable","type":"function"},{"inputs":[],"name":"paused","outputs":[{"internalType":"bool","name":"","type":"bool"}],"stateMutability":"view","type":"function"},{"inputs":[],"name":"renounceOwnership","outputs":[],"stateMutability":"nonpayable","type":"function"},{"inputs":[{"internalType":"uint256","name":"","type":"uint256"}],"name":"streams","outputs":[{"internalType":"address","name":"sender","type":"address"},{"internalType":"address","name":"recipient","type":"address"},{"internalType":"address","name":"token","type":"address"},{"internalType":"uint256","name":"deposit","type":"uint256"},{"internalType":"uint256","name":"ratePerSecond","type":"uint256"},{"internalType":"uint256","name":"startTime","type":"uint256"},{"internalType":"uint256","name":"stopTime","type":"uint256"},{"internalType":"uint256","name":"remainingBalance","type":"uint256"},{"internalType":"bool","name":"active","type":"bool"}],"stateMutability":"view","type":"function"},{"inputs":[{"internalType":"address","name":"newOwner","type":"address"}],"name":"transferOwnership","outputs":[],"stateMutability":"nonpayable","type":"function"},{"inputs":[],"name":"unpause","outputs":[],"stateMutability":"nonpayable","type":"function"},{"inputs":[{"internalType":"uint256","name":"streamId","type":"uint256"}],"name":"withdrawExpiredStream","outputs":[],"stateMutability":"nonpayable","type":"function"}],"evm":{"bytecode":{"linkReferences":{},"object":"60808060405234610070576001600081815581546001600160a81b0319811633600881811b610100600160a81b0316929092179094551c6001600160a01b0316907f8be0079c531659141344cd1fd0a4f28419497f9722a3daafe3b4186f6b6457e09080a361131290816100768239f35b600080fdfe6040608081526004908136101561001557600080fd5b600091823560e01c806306eb2dd314610a2b5780631e99d56914610a0c578063379607f51461085f5780633f4ba83a146107ca5780635c975abb146107a657806364d60d911461071457806369e62d6a146104d35780636db9241b14610362578063715018a6146103015780638456cb59146102a75780638da5cb5b1461027657806396bb2192146101c0578063b6cc2a7d146101965763f2fde38b146100bb57600080fd5b34610192576020366003190112610192576100d4610def565b6100dc610e0a565b6001600160a01b0381811693909290841561014057505060018054610100600160a81b03198116600893841b610100600160a81b031617909155901c167f8be0079c531659141344cd1fd0a4f28419497f9722a3daafe3b4186f6b6457e08380a380f35b906020608492519162461bcd60e51b8352820152602660248201527f4f776e61626c653a206e6577206f776e657220697320746865207a65726f206160448201526564647265737360d01b6064820152fd5b8280fd5b5091346101bd5760203660031901126101bd57506101b660209235611228565b9051908152f35b80fd5b50903461019257602036600319011261019257610140928235815260036020528181209060018060a01b039283835416948460018501541694600285015416906003850154908501549060058601549260068701549460078801549660ff60088a015416988960001461026f576102379150611266565b985b81519a8b5260208b01528901526060880152608087015260a086015260c085015260e08401521515610100830152610120820152f35b5098610239565b5050346102a357816003193601126102a357600154905160089190911c6001600160a01b03168152602090f35b5080fd5b5050346102a357816003193601126102a35760207f62e78cea01bee320cd4e420270b5ea74000d11b0c9f74754ebdbfc544b05a258916102e5610e0a565b6102ed610e9b565b600160ff198154161760015551338152a180f35b83346101bd57806003193601126101bd5761031a610e0a565b60018054610100600160a81b03198116909155819060081c6001600160a01b03167f8be0079c531659141344cd1fd0a4f28419497f9722a3daafe3b4186f6b6457e08280a380f35b503461019257602036600319011261019257803561037e610edf565b808452600360205282842092600884019384549461039e60ff8716611198565b81546001600160a01b0395908616330361049757506103bc82611266565b9560ff191690558593869186151580610489575b610444575b7fa6379f61382c1003d8c4c63f81dfd08cbeae892e76aad686c9b5021259ad2c5794959650876007820161040a898254610e8e565b80610427575b505554169482519182526020820152a36001815580f35b945061043e858560028601541686865416906111d6565b38610410565b7fa6379f61382c1003d8c4c63f81dfd08cbeae892e76aad686c9b5021259ad2c57949550610480878360028401541684600185015416906111d6565b869594506103d5565b5060078101548711156103d0565b606490602085519162461bcd60e51b8352820152601660248201527513db9b1e481cd95b99195c8818d85b8818d85b98d95b60521b6044820152fd5b509190346102a357602080600319360112610192578335906104f3610edf565b818452600381528284209460ff6008870154166106dd576006860154958642106106a65760018060a01b03908181541697883303610663576007820190815490811561062a5761054b61055491600586015490610e8e565b86850154610e65565b610562826003860154610e8e565b808211156106225761057391610e8e565b8082111561061a576105859082610e8e565b945b85156105df57507fb8794a93ad70d58bd94788f8523cd8ebcff47f5541f8816ade60c636f1b57827969798996105d0926105c2878094610e8e565b9055846002850154166111d6565b54169451908152a36001815580f35b885162461bcd60e51b815290810187905260156024820152744e6f20776974686472617761626c652066756e647360581b6044820152606490fd5b508894610587565b505088610573565b885162461bcd60e51b815280870188905260136024820152724e6f7468696e6720746f20776974686472617760681b6044820152606490fd5b865162461bcd60e51b8152808501869052601860248201527f4f6e6c792073656e6465722063616e20776974686472617700000000000000006044820152606490fd5b5060649184519162461bcd60e51b8352820152601260248201527114dd1c99585b481b9bdd08195e1c1a5c995960721b6044820152fd5b60649184519162461bcd60e51b8352820152601360248201527253747265616d207374696c6c2061637469766560681b6044820152fd5b5090346101925760203660031901126101925780610120938335815260036020522060018060a01b039182825416938360018401541693600284015416906003840154908401549060058501549260068601549460ff6008600789015498015416978151998a5260208a01528801526060870152608086015260a085015260c084015260e08301521515610100820152f35b5050346102a357816003193601126102a35760209060ff6001541690519015158152f35b50346101925782600319360112610192576107e3610e0a565b6001549060ff821615610825575060ff1916600155513381527f5db9ee0a495bf2e6ff9c91a7834c1ba4fdd244a5e8aa4e537bd38aeae4b073aa90602090a180f35b606490602084519162461bcd60e51b8352820152601460248201527314185d5cd8589b194e881b9bdd081c185d5cd95960621b6044820152fd5b5090346101925760209182600319360112610a085780359161087f610edf565b8285526003845280852092600884019461089c60ff875416611198565b6001850180546001600160a01b0390811691338390036109c5576108bf88611266565b92831561098f5760078901978854908186116109555750848094939261090a7fae8194793eb0586860ad9ca74669746e16d4383642d338c9539501787c5ae8d2989761091894610e8e565b8b558460028d0154166111d6565b54169451908152a35415908115610946575b50610938575b506001815580f35b805460ff1916905538610930565b6006915001544210153861092a565b885162461bcd60e51b81529081018790526014602482015273496e73756666696369656e742062616c616e636560601b6044820152606490fd5b865162461bcd60e51b8152808901869052601060248201526f4e6f7468696e6720746f20636c61696d60801b6044820152606490fd5b855162461bcd60e51b8152808801859052601860248201527f4f6e6c7920726563697069656e742063616e20636c61696d00000000000000006044820152606490fd5b8380fd5b5050346102a357816003193601126102a3576020906002549051908152f35b5090346101925760a036600319011261019257610a46610def565b916024906001600160a01b03823581811690819003610deb576044958635966064978835988560843594610a78610edf565b610a80610e9b565b16958615610db857338714610d81578515610d52578215610d1d578a15610ceb578415610cb55784420191824211610ca357610abc868d610e65565b8410610c6e578a51946323b872dd60e01b6020870152338b87015230908601528381860152845260a084019367ffffffffffffffff9481811086821117610c5c578b52610b099087610f35565b895193610120850190811185821017610c4a57918c8c8c60089694600198968252338752602087018c8152828801918c83528060608a019489865260808b0196875260a08b019742895260c08c01998a5260e08c019a8b526101008c019d8e526002548152600360205220995116916bffffffffffffffffffffffff60a01b92838b5416178a558160018b01915116838254161790556002890192511690825416179055516003860155518a850155516005840155516006830155516007820155019051151560ff80198354169116179055600254968651928352602083015285820152857feda1e5a48c710fd6bedb62b49521e911de7889fb3556c8c0485978520441e8d260603393a46000198414610c395760018401806002558411610c3957505060016020935551908152f35b634e487b7160e01b85526011905283fd5b634e487b7160e01b8d5260418952898dfd5b634e487b7160e01b8e5260418a528a8efd5b8a5162461bcd60e51b81526020818b01526014818c015273125b9cdd59999a58da595b9d0819195c1bdcda5d60621b81870152fd5b634e487b7160e01b8d5260118952898dfd5b50885162461bcd60e51b81526020818901526014818a01527304475726174696f6e206d757374206265203e20360641b81850152fd5b50885162461bcd60e51b81526020818901526010818a01526f052617465206d757374206265203e20360841b81850152fd5b50885162461bcd60e51b81526020818901526013818a01527204465706f736974206d757374206265203e203606c1b81850152fd5b50885162461bcd60e51b8152602081890152600d818a01526c24b73b30b634b2103a37b5b2b760991b81850152fd5b50885162461bcd60e51b81526020818901526015818a01527421b0b73737ba1039ba3932b0b6903a379039b2b63360591b81850152fd5b50885162461bcd60e51b81526020818901526011818a015270125b9d985b1a59081c9958da5c1a595b9d607a1b81850152fd5b8680fd5b600435906001600160a01b0382168203610e0557565b600080fd5b60015460081c6001600160a01b03163303610e2157565b606460405162461bcd60e51b815260206004820152602060248201527f4f776e61626c653a2063616c6c6572206973206e6f7420746865206f776e65726044820152fd5b81810292918115918404141715610e7857565b634e487b7160e01b600052601160045260246000fd5b91908203918211610e7857565b60ff60015416610ea757565b60405162461bcd60e51b815260206004820152601060248201526f14185d5cd8589b194e881c185d5cd95960821b6044820152606490fd5b600260005414610ef0576002600055565b60405162461bcd60e51b815260206004820152601f60248201527f5265656e7472616e637947756172643a207265656e7472616e742063616c6c006044820152606490fd5b6040805167ffffffffffffffff94936001600160a01b039093169290808301868111828210176110ae5783526020938482527f5361666545524332303a206c6f772d6c6576656c2063616c6c206661696c6564858301526000808487829651910182855af13d1561109d573d9188831161108957855192601f19603f81601f8401160116840199848b10908b11176110755786979899610fdf96975283528286893d92013e6110c4565b805191821591858315611051575b505050905015610ffb575050565b60849250519062461bcd60e51b82526004820152602a60248201527f5361666545524332303a204552433230206f7065726174696f6e20646964206e6044820152691bdd081cdd58d8d9595960b21b6064820152fd5b9193818094500103126102a3578301519081151582036101bd575080388085610fed565b634e487b7160e01b86526041600452602486fd5b634e487b7160e01b85526041600452602485fd5b610fdf9394959697506060916110c4565b634e487b7160e01b600052604160045260246000fd5b9192901561112657508151156110d8575090565b3b156110e15790565b60405162461bcd60e51b815260206004820152601d60248201527f416464726573733a2063616c6c20746f206e6f6e2d636f6e74726163740000006044820152606490fd5b8251909150156111395750805190602001fd5b6040519062461bcd60e51b82528160208060048301528251908160248401526000935b82851061117f575050604492506000838284010152601f80199101168101030190fd5b848101820151868601604401529381019385935061115c565b1561119f57565b60405162461bcd60e51b815260206004820152600f60248201526e496e6163746976652073747265616d60881b6044820152606490fd5b60405163a9059cbb60e01b60208201526001600160a01b039092166024830152604480830193909352918152608081019167ffffffffffffffff8311828410176110ae5761122692604052610f35565b565b6000526003602052604060002060ff6008820154161561126057600761124d82611266565b91015480821161125b575090565b905090565b50600090565b60068101548042116000146112c25761129461128a6112a592600585015490610e8e565b6004840154610e65565b916007600382015491015490610e8e565b600091818111156112bd576112ba9250610e8e565b90565b505090565b506112a56112946112d7600584015442610e8e565b61128a56fea2646970667358221220d67c2b5c579445d708f25b42f4e96e3a587807e7512182cfa3be6c945e93490764736f6c63430008140033","opcodes":"PUSH1 0x80 DUP1 PUSH1 0x40 MSTORE CALLVALUE PUSH2 0x70 JUMPI PUSH1 0x1 PUSH1 0x0 DUP2 DUP2 SSTORE DUP2 SLOAD PUSH1 0x1 PUSH1 0x1 PUSH1 0xA8 SHL SUB NOT DUP2 AND CALLER PUSH1 0x8 DUP2 DUP2 SHL PUSH2 0x100 PUSH1 0x1 PUSH1 0xA8 SHL SUB AND SWAP3 SWAP1 SWAP3 OR SWAP1 SWAP5 SSTORE SHR PUSH1 0x1 PUSH1 0x1 PUSH1 0xA0 SHL SUB AND SWAP1 PUSH32 0x8BE0079C531659141344CD1FD0A4F28419497F9722A3DAAFE3B4186F6B6457E0 SWAP1 DUP1 LOG3 PUSH2 0x1312 SWAP1 DUP2 PUSH2 0x76 DUP3 CODECOPY RETURN JUMPDEST PUSH1 0x0 DUP1 REVERT INVALID PUSH1 0x40 PUSH1 0x80 DUP2 MSTORE PUSH1 0x4 SWAP1 DUP2 CALLDATASIZE LT ISZERO PUSH2 0x15 JUMPI PUSH1 0x0 DUP1 REVERT JUMPDEST PUSH1 0x0 SWAP2 DUP3 CALLDATALOAD PUSH1 0xE0 SHR DUP1 PUSH4 0x6EB2DD3 EQ PUSH2 0xA2B JUMPI DUP1 PUSH4 0x1E99D569 EQ PUSH2 0xA0C JUMPI DUP1 PUSH4 0x379607F5 EQ PUSH2 0x85F JUMPI DUP1 PUSH4 0x3F4BA83A EQ PUSH2 0x7CA JUMPI DUP1 PUSH4 0x5C975ABB EQ PUSH2 0x7A6 JUMPI DUP1 PUSH4 0x64D60D91 EQ PUSH2 0x714 JUMPI DUP1 PUSH4 0x69E62D6A EQ PUSH2 0x4D3 JUMPI DUP1 PUSH4 0x6DB9241B EQ PUSH2 0x362 JUMPI DUP1 PUSH4 0x715018A6 EQ PUSH2 0x301 JUMPI DUP1 PUSH4 0x8456CB59 EQ PUSH2 0x2A7 JUMPI DUP1 PUSH4 0x8DA5CB5B EQ PUSH2 0x276 JUMPI DUP1 PUSH4 0x96BB2192 EQ PUSH2 0x1C0 JUMPI DUP1 PUSH4 0xB6CC2A7D EQ PUSH2 0x196 JUMPI PUSH4 0xF2FDE38B EQ PUSH2 0xBB JUMPI PUSH1 0x0 DUP1 REVERT JUMPDEST CALLVALUE PUSH2 0x192 JUMPI PUSH1 0x20 CALLDATASIZE PUSH1 0x3 NOT ADD SLT PUSH2 0x192 JUMPI PUSH2 0xD4 PUSH2 0xDEF JUMP JUMPDEST PUSH2 0xDC PUSH2 0xE0A JUMP JUMPDEST PUSH1 0x1 PUSH1 0x1 PUSH1 0xA0 SHL SUB DUP2 DUP2 AND SWAP4 SWAP1 SWAP3 SWAP1 DUP5 ISZERO PUSH2 0x140 JUMPI POP POP PUSH1 0x1 DUP1 SLOAD PUSH2 0x100 PUSH1 0x1 PUSH1 0xA8 SHL SUB NOT DUP2 AND PUSH1 0x8 SWAP4 DUP5 SHL PUSH2 0x100 PUSH1 0x1 PUSH1 0xA8 SHL SUB AND OR SWAP1 SWAP2 SSTORE SWAP1 SHR AND PUSH32 0x8BE0079C531659141344CD1FD0A4F28419497F9722A3DAAFE3B4186F6B6457E0 DUP4 DUP1 LOG3 DUP1 RETURN JUMPDEST SWAP1 PUSH1 0x20 PUSH1 0x84 SWAP3 MLOAD SWAP2 PUSH3 0x461BCD PUSH1 0xE5 SHL DUP4 MSTORE DUP3 ADD MSTORE PUSH1 0x26 PUSH1 0x24 DUP3 ADD MSTORE PUSH32 0x4F776E61626C653A206E6577206F776E657220697320746865207A65726F2061 PUSH1 0x44 DUP3 ADD MSTORE PUSH6 0x646472657373 PUSH1 0xD0 SHL PUSH1 0x64 DUP3 ADD MSTORE REVERT JUMPDEST DUP3 DUP1 REVERT JUMPDEST POP SWAP2 CALLVALUE PUSH2 0x1BD JUMPI PUSH1 0x20 CALLDATASIZE PUSH1 0x3 NOT ADD SLT PUSH2 0x1BD JUMPI POP PUSH2 0x1B6 PUSH1 0x20 SWAP3 CALLDATALOAD PUSH2 0x1228 JUMP JUMPDEST SWAP1 MLOAD SWAP1 DUP2 MSTORE RETURN JUMPDEST DUP1 REVERT JUMPDEST POP SWAP1 CALLVALUE PUSH2 0x192 JUMPI PUSH1 0x20 CALLDATASIZE PUSH1 0x3 NOT ADD SLT PUSH2 0x192 JUMPI PUSH2 0x140 SWAP3 DUP3 CALLDATALOAD DUP2 MSTORE PUSH1 0x3 PUSH1 0x20 MSTORE DUP2 DUP2 KECCAK256 SWAP1 PUSH1 0x1 DUP1 PUSH1 0xA0 SHL SUB SWAP3 DUP4 DUP4 SLOAD AND SWAP5 DUP5 PUSH1 0x1 DUP6 ADD SLOAD AND SWAP5 PUSH1 0x2 DUP6 ADD SLOAD AND SWAP1 PUSH1 0x3 DUP6 ADD SLOAD SWAP1 DUP6 ADD SLOAD SWAP1 PUSH1 0x5 DUP7 ADD SLOAD SWAP3 PUSH1 0x6 DUP8 ADD SLOAD SWAP5 PUSH1 0x7 DUP9 ADD SLOAD SWAP7 PUSH1 0xFF PUSH1 0x8 DUP11 ADD SLOAD AND SWAP9 DUP10 PUSH1 0x0 EQ PUSH2 0x26F JUMPI PUSH2 0x237 SWAP2 POP PUSH2 0x1266 JUMP JUMPDEST SWAP9 JUMPDEST DUP2 MLOAD SWAP11 DUP12 MSTORE PUSH1 0x20 DUP12 ADD MSTORE DUP10 ADD MSTORE PUSH1 0x60 DUP9 ADD MSTORE PUSH1 0x80 DUP8 ADD MSTORE PUSH1 0xA0 DUP7 ADD MSTORE PUSH1 0xC0 DUP6 ADD MSTORE PUSH1 0xE0 DUP5 ADD MSTORE ISZERO ISZERO PUSH2 0x100 DUP4 ADD MSTORE PUSH2 0x120 DUP3 ADD MSTORE RETURN JUMPDEST POP SWAP9 PUSH2 0x239 JUMP JUMPDEST POP POP CALLVALUE PUSH2 0x2A3 JUMPI DUP2 PUSH1 0x3 NOT CALLDATASIZE ADD SLT PUSH2 0x2A3 JUMPI PUSH1 0x1 SLOAD SWAP1 MLOAD PUSH1 0x8 SWAP2 SWAP1 SWAP2 SHR PUSH1 0x1 PUSH1 0x1 PUSH1 0xA0 SHL SUB AND DUP2 MSTORE PUSH1 0x20 SWAP1 RETURN JUMPDEST POP DUP1 REVERT JUMPDEST POP POP CALLVALUE PUSH2 0x2A3 JUMPI DUP2 PUSH1 0x3 NOT CALLDATASIZE ADD SLT PUSH2 0x2A3 JUMPI PUSH1 0x20 PUSH32 0x62E78CEA01BEE320CD4E420270B5EA74000D11B0C9F74754EBDBFC544B05A258 SWAP2 PUSH2 0x2E5 PUSH2 0xE0A JUMP JUMPDEST PUSH2 0x2ED PUSH2 0xE9B JUMP JUMPDEST PUSH1 0x1 PUSH1 0xFF NOT DUP2 SLOAD AND OR PUSH1 0x1 SSTORE MLOAD CALLER DUP2 MSTORE LOG1 DUP1 RETURN JUMPDEST DUP4 CALLVALUE PUSH2 0x1BD JUMPI DUP1 PUSH1 0x3 NOT CALLDATASIZE ADD SLT PUSH2 0x1BD JUMPI PUSH2 0x31A PUSH2 0xE0A JUMP JUMPDEST PUSH1 0x1 DUP1 SLOAD PUSH2 0x100 PUSH1 0x1 PUSH1 0xA8 SHL SUB NOT DUP2 AND SWAP1 SWAP2 SSTORE DUP2 SWAP1 PUSH1 0x8 SHR PUSH1 0x1 PUSH1 0x1 PUSH1 0xA0 SHL SUB AND PUSH32 0x8BE0079C531659141344CD1FD0A4F28419497F9722A3DAAFE3B4186F6B6457E0 DUP3 DUP1 LOG3 DUP1 RETURN JUMPDEST POP CALLVALUE PUSH2 0x192 JUMPI PUSH1 0x20 CALLDATASIZE PUSH1 0x3 NOT ADD SLT PUSH2 0x192 JUMPI DUP1 CALLDATALOAD PUSH2 0x37E PUSH2 0xEDF JUMP JUMPDEST DUP1 DUP5 MSTORE PUSH1 0x3 PUSH1 0x20 MSTORE DUP3 DUP5 KECCAK256 SWAP3 PUSH1 0x8 DUP5 ADD SWAP4 DUP5 SLOAD SWAP5 PUSH2 0x39E PUSH1 0xFF DUP8 AND PUSH2 0x1198 JUMP JUMPDEST DUP2 SLOAD PUSH1 0x1 PUSH1 0x1 PUSH1 0xA0 SHL SUB SWAP6 SWAP1 DUP7 AND CALLER SUB PUSH2 0x497 JUMPI POP PUSH2 0x3BC DUP3 PUSH2 0x1266 JUMP JUMPDEST SWAP6 PUSH1 0xFF NOT AND SWAP1 SSTORE DUP6 SWAP4 DUP7 SWAP2 DUP7 ISZERO ISZERO DUP1 PUSH2 0x489 JUMPI JUMPDEST PUSH2 0x444 JUMPI JUMPDEST PUSH32 0xA6379F61382C1003D8C4C63F81DFD08CBEAE892E76AAD686C9B5021259AD2C57 SWAP5 SWAP6 SWAP7 POP DUP8 PUSH1 0x7 DUP3 ADD PUSH2 0x40A DUP10 DUP3 SLOAD PUSH2 0xE8E JUMP JUMPDEST DUP1 PUSH2 0x427 JUMPI JUMPDEST POP SSTORE SLOAD AND SWAP5 DUP3 MLOAD SWAP2 DUP3 MSTORE PUSH1 0x20 DUP3 ADD MSTORE LOG3 PUSH1 0x1 DUP2 SSTORE DUP1 RETURN JUMPDEST SWAP5 POP PUSH2 0x43E DUP6 DUP6 PUSH1 0x2 DUP7 ADD SLOAD AND DUP7 DUP7 SLOAD AND SWAP1 PUSH2 0x11D6 JUMP JUMPDEST CODESIZE PUSH2 0x410 JUMP JUMPDEST PUSH32 0xA6379F61382C1003D8C4C63F81DFD08CBEAE892E76AAD686C9B5021259AD2C57 SWAP5 SWAP6 POP PUSH2 0x480 DUP8 DUP4 PUSH1 0x2 DUP5 ADD SLOAD AND DUP5 PUSH1 0x1 DUP6 ADD SLOAD AND SWAP1 PUSH2 0x11D6 JUMP JUMPDEST DUP7 SWAP6 SWAP5 POP PUSH2 0x3D5 JUMP JUMPDEST POP PUSH1 0x7 DUP2 ADD SLOAD DUP8 GT ISZERO PUSH2 0x3D0 JUMP JUMPDEST PUSH1 0x64 SWAP1 PUSH1 0x20 DUP6 MLOAD SWAP2 PUSH3 0x461BCD PUSH1 0xE5 SHL DUP4 MSTORE DUP3 ADD MSTORE PUSH1 0x16 PUSH1 0x24 DUP3 ADD MSTORE PUSH22 0x13DB9B1E481CD95B99195C8818D85B8818D85B98D95B PUSH1 0x52 SHL PUSH1 0x44 DUP3 ADD MSTORE REVERT JUMPDEST POP SWAP2 SWAP1 CALLVALUE PUSH2 0x2A3 JUMPI PUSH1 0x20 DUP1 PUSH1 0x3 NOT CALLDATASIZE ADD SLT PUSH2 0x192 JUMPI DUP4 CALLDATALOAD SWAP1 PUSH2 0x4F3 PUSH2 0xEDF JUMP JUMPDEST DUP2 DUP5 MSTORE PUSH1 0x3 DUP2 MSTORE DUP3 DUP5 KECCAK256 SWAP5 PUSH1 0xFF PUSH1 0x8 DUP8 ADD SLOAD AND PUSH2 0x6DD JUMPI PUSH1 0x6 DUP7 ADD SLOAD SWAP6 DUP7 TIMESTAMP LT PUSH2 0x6A6 JUMPI PUSH1 0x1 DUP1 PUSH1 0xA0 SHL SUB SWAP1 DUP2 DUP2 SLOAD AND SWAP8 DUP9 CALLER SUB PUSH2 0x663 JUMPI PUSH1 0x7 DUP3 ADD SWAP1 DUP2 SLOAD SWAP1 DUP2 ISZERO PUSH2 0x62A JUMPI PUSH2 0x54B PUSH2 0x554 SWAP2 PUSH1 0x5 DUP7 ADD SLOAD SWAP1 PUSH2 0xE8E JUMP JUMPDEST DUP7 DUP6 ADD SLOAD PUSH2 0xE65 JUMP JUMPDEST PUSH2 0x562 DUP3 PUSH1 0x3 DUP7 ADD SLOAD PUSH2 0xE8E JUMP JUMPDEST DUP1 DUP3 GT ISZERO PUSH2 0x622 JUMPI PUSH2 0x573 SWAP2 PUSH2 0xE8E JUMP JUMPDEST DUP1 DUP3 GT ISZERO PUSH2 0x61A JUMPI PUSH2 0x585 SWAP1 DUP3 PUSH2 0xE8E JUMP JUMPDEST SWAP5 JUMPDEST DUP6 ISZERO PUSH2 0x5DF JUMPI POP PUSH32 0xB8794A93AD70D58BD94788F8523CD8EBCFF47F5541F8816ADE60C636F1B57827 SWAP7 SWAP8 SWAP9 SWAP10 PUSH2 0x5D0 SWAP3 PUSH2 0x5C2 DUP8 DUP1 SWAP5 PUSH2 0xE8E JUMP JUMPDEST SWAP1 SSTORE DUP5 PUSH1 0x2 DUP6 ADD SLOAD AND PUSH2 0x11D6 JUMP JUMPDEST SLOAD AND SWAP5 MLOAD SWAP1 DUP2 MSTORE LOG3 PUSH1 0x1 DUP2 SSTORE DUP1 RETURN JUMPDEST DUP9 MLOAD PUSH3 0x461BCD PUSH1 0xE5 SHL DUP2 MSTORE SWAP1 DUP2 ADD DUP8 SWAP1 MSTORE PUSH1 0x15 PUSH1 0x24 DUP3 ADD MSTORE PUSH21 0x4E6F20776974686472617761626C652066756E6473 PUSH1 0x58 SHL PUSH1 0x44 DUP3 ADD MSTORE PUSH1 0x64 SWAP1 REVERT JUMPDEST POP DUP9 SWAP5 PUSH2 0x587 JUMP JUMPDEST POP POP DUP9 PUSH2 0x573 JUMP JUMPDEST DUP9 MLOAD PUSH3 0x461BCD PUSH1 0xE5 SHL DUP2 MSTORE DUP1 DUP8 ADD DUP9 SWAP1 MSTORE PUSH1 0x13 PUSH1 0x24 DUP3 ADD MSTORE PUSH19 0x4E6F7468696E6720746F207769746864726177 PUSH1 0x68 SHL PUSH1 0x44 DUP3 ADD MSTORE PUSH1 0x64 SWAP1 REVERT JUMPDEST DUP7 MLOAD PUSH3 0x461BCD PUSH1 0xE5 SHL DUP2 MSTORE DUP1 DUP6 ADD DUP7 SWAP1 MSTORE PUSH1 0x18 PUSH1 0x24 DUP3 ADD MSTORE PUSH32 0x4F6E6C792073656E6465722063616E2077697468647261770000000000000000 PUSH1 0x44 DUP3 ADD MSTORE PUSH1 0x64 SWAP1 REVERT JUMPDEST POP PUSH1 0x64 SWAP2 DUP5 MLOAD SWAP2 PUSH3 0x461BCD PUSH1 0xE5 SHL DUP4 MSTORE DUP3 ADD MSTORE PUSH1 0x12 PUSH1 0x24 DUP3 ADD MSTORE PUSH18 0x14DD1C99585B481B9BDD08195E1C1A5C9959 PUSH1 0x72 SHL PUSH1 0x44 DUP3 ADD MSTORE REVERT JUMPDEST PUSH1 0x64 SWAP2 DUP5 MLOAD SWAP2 PUSH3 0x461BCD PUSH1 0xE5 SHL DUP4 MSTORE DUP3 ADD MSTORE PUSH1 0x13 PUSH1 0x24 DUP3 ADD MSTORE PUSH19 0x53747265616D207374696C6C20616374697665 PUSH1 0x68 SHL PUSH1 0x44 DUP3 ADD MSTORE REVERT JUMPDEST POP SWAP1 CALLVALUE PUSH2 0x192 JUMPI PUSH1 0x20 CALLDATASIZE PUSH1 0x3 NOT ADD SLT PUSH2 0x192 JUMPI DUP1 PUSH2 0x120 SWAP4 DUP4 CALLDATALOAD DUP2 MSTORE PUSH1 0x3 PUSH1 0x20 MSTORE KECCAK256 PUSH1 0x1 DUP1 PUSH1 0xA0 SHL SUB SWAP2 DUP3 DUP3 SLOAD AND SWAP4 DUP4 PUSH1 0x1 DUP5 ADD SLOAD AND SWAP4 PUSH1 0x2 DUP5 ADD SLOAD AND SWAP1 PUSH1 0x3 DUP5 ADD SLOAD SWAP1 DUP5 ADD SLOAD SWAP1 PUSH1 0x5 DUP6 ADD SLOAD SWAP3 PUSH1 0x6 DUP7 ADD SLOAD SWAP5 PUSH1 0xFF PUSH1 0x8 PUSH1 0x7 DUP10 ADD SLOAD SWAP9 ADD SLOAD AND SWAP8 DUP2 MLOAD SWAP10 DUP11 MSTORE PUSH1 0x20 DUP11 ADD MSTORE DUP9 ADD MSTORE PUSH1 0x60 DUP8 ADD MSTORE PUSH1 0x80 DUP7 ADD MSTORE PUSH1 0xA0 DUP6 ADD MSTORE PUSH1 0xC0 DUP5 ADD MSTORE PUSH1 0xE0 DUP4 ADD MSTORE ISZERO ISZERO PUSH2 0x100 DUP3 ADD MSTORE RETURN JUMPDEST POP POP CALLVALUE PUSH2 0x2A3 JUMPI DUP2 PUSH1 0x3 NOT CALLDATASIZE ADD SLT PUSH2 0x2A3 JUMPI PUSH1 0x20 SWAP1 PUSH1 0xFF PUSH1 0x1 SLOAD AND SWAP1 MLOAD SWAP1 ISZERO ISZERO DUP2 MSTORE RETURN JUMPDEST POP CALLVALUE PUSH2 0x192 JUMPI DUP3 PUSH1 0x3 NOT CALLDATASIZE ADD SLT PUSH2 0x192 JUMPI PUSH2 0x7E3 PUSH2 0xE0A JUMP JUMPDEST PUSH1 0x1 SLOAD SWAP1 PUSH1 0xFF DUP3 AND ISZERO PUSH2 0x825 JUMPI POP PUSH1 0xFF NOT AND PUSH1 0x1 SSTORE MLOAD CALLER DUP2 MSTORE PUSH32 0x5DB9EE0A495BF2E6FF9C91A7834C1BA4FDD244A5E8AA4E537BD38AEAE4B073AA SWAP1 PUSH1 0x20 SWAP1 LOG1 DUP1 RETURN JUMPDEST PUSH1 0x64 SWAP1 PUSH1 0x20 DUP5 MLOAD SWAP2 PUSH3 0x461BCD PUSH1 0xE5 SHL DUP4 MSTORE DUP3 ADD MSTORE PUSH1 0x14 PUSH1 0x24 DUP3 ADD MSTORE PUSH20 0x14185D5CD8589B194E881B9BDD081C185D5CD959 PUSH1 0x62 SHL PUSH1 0x44 DUP3 ADD MSTORE REVERT JUMPDEST POP SWAP1 CALLVALUE PUSH2 0x192 JUMPI PUSH1 0x20 SWAP2 DUP3 PUSH1 0x3 NOT CALLDATASIZE ADD SLT PUSH2 0xA08 JUMPI DUP1 CALLDATALOAD SWAP2 PUSH2 0x87F PUSH2 0xEDF JUMP JUMPDEST DUP3 DUP6 MSTORE PUSH1 0x3 DUP5 MSTORE DUP1 DUP6 KECCAK256 SWAP3 PUSH1 0x8 DUP5 ADD SWAP5 PUSH2 0x89C PUSH1 0xFF DUP8 SLOAD AND PUSH2 0x1198 JUMP JUMPDEST PUSH1 0x1 DUP6 ADD DUP1 SLOAD PUSH1 0x1 PUSH1 0x1 PUSH1 0xA0 SHL SUB SWAP1 DUP2 AND SWAP2 CALLER DUP4 SWAP1 SUB PUSH2 0x9C5 JUMPI PUSH2 0x8BF DUP9 PUSH2 0x1266 JUMP JUMPDEST SWAP3 DUP4 ISZERO PUSH2 0x98F JUMPI PUSH1 0x7 DUP10 ADD SWAP8 DUP9 SLOAD SWAP1 DUP2 DUP7 GT PUSH2 0x955 JUMPI POP DUP5 DUP1 SWAP5 SWAP4 SWAP3 PUSH2 0x90A PUSH32 0xAE8194793EB0586860AD9CA74669746E16D4383642D338C9539501787C5AE8D2 SWAP9 SWAP8 PUSH2 0x918 SWAP5 PUSH2 0xE8E JUMP JUMPDEST DUP12 SSTORE DUP5 PUSH1 0x2 DUP14 ADD SLOAD AND PUSH2 0x11D6 JUMP JUMPDEST SLOAD AND SWAP5 MLOAD SWAP1 DUP2 MSTORE LOG3 SLOAD ISZERO SWAP1 DUP2 ISZERO PUSH2 0x946 JUMPI JUMPDEST POP PUSH2 0x938 JUMPI JUMPDEST POP PUSH1 0x1 DUP2 SSTORE DUP1 RETURN JUMPDEST DUP1 SLOAD PUSH1 0xFF NOT AND SWAP1 SSTORE CODESIZE PUSH2 0x930 JUMP JUMPDEST PUSH1 0x6 SWAP2 POP ADD SLOAD TIMESTAMP LT ISZERO CODESIZE PUSH2 0x92A JUMP JUMPDEST DUP9 MLOAD PUSH3 0x461BCD PUSH1 0xE5 SHL DUP2 MSTORE SWAP1 DUP2 ADD DUP8 SWAP1 MSTORE PUSH1 0x14 PUSH1 0x24 DUP3 ADD MSTORE PUSH20 0x496E73756666696369656E742062616C616E6365 PUSH1 0x60 SHL PUSH1 0x44 DUP3 ADD MSTORE PUSH1 0x64 SWAP1 REVERT JUMPDEST DUP7 MLOAD PUSH3 0x461BCD PUSH1 0xE5 SHL DUP2 MSTORE DUP1 DUP10 ADD DUP7 SWAP1 MSTORE PUSH1 0x10 PUSH1 0x24 DUP3 ADD MSTORE PUSH16 0x4E6F7468696E6720746F20636C61696D PUSH1 0x80 SHL PUSH1 0x44 DUP3 ADD MSTORE PUSH1 0x64 SWAP1 REVERT JUMPDEST DUP6 MLOAD PUSH3 0x461BCD PUSH1 0xE5 SHL DUP2 MSTORE DUP1 DUP9 ADD DUP6 SWAP1 MSTORE PUSH1 0x18 PUSH1 0x24 DUP3 ADD MSTORE PUSH32 0x4F6E6C7920726563697069656E742063616E20636C61696D0000000000000000 PUSH1 0x44 DUP3 ADD MSTORE PUSH1 0x64 SWAP1 REVERT JUMPDEST DUP4 DUP1 REVERT JUMPDEST POP POP CALLVALUE PUSH2 0x2A3 JUMPI DUP2 PUSH1 0x3 NOT CALLDATASIZE ADD SLT PUSH2 0x2A3 JUMPI PUSH1 0x20 SWAP1 PUSH1 0x2 SLOAD SWAP1 MLOAD SWAP1 DUP2 MSTORE RETURN JUMPDEST POP SWAP1 CALLVALUE PUSH2 0x192 JUMPI PUSH1 0xA0 CALLDATASIZE PUSH1 0x3 NOT ADD SLT PUSH2 0x192 JUMPI PUSH2 0xA46 PUSH2 0xDEF JUMP JUMPDEST SWAP2 PUSH1 0x24 SWAP1 PUSH1 0x1 PUSH1 0x1 PUSH1 0xA0 SHL SUB DUP3 CALLDATALOAD DUP2 DUP2 AND SWAP1 DUP2 SWAP1 SUB PUSH2 0xDEB JUMPI PUSH1 0x44 SWAP6 DUP7 CALLDATALOAD SWAP7 PUSH1 0x64 SWAP8 DUP9 CALLDATALOAD SWAP9 DUP6 PUSH1 0x84 CALLDATALOAD SWAP5 PUSH2 0xA78 PUSH2 0xEDF JUMP JUMPDEST PUSH2 0xA80 PUSH2 0xE9B JUMP JUMPDEST AND SWAP6 DUP7 ISZERO PUSH2 0xDB8 JUMPI CALLER DUP8 EQ PUSH2 0xD81 JUMPI DUP6 ISZERO PUSH2 0xD52 JUMPI DUP3 ISZERO PUSH2 0xD1D JUMPI DUP11 ISZERO PUSH2 0xCEB JUMPI DUP5 ISZERO PUSH2 0xCB5 JUMPI DUP5 TIMESTAMP ADD SWAP2 DUP3 TIMESTAMP GT PUSH2 0xCA3 JUMPI PUSH2 0xABC DUP7 DUP14 PUSH2 0xE65 JUMP JUMPDEST DUP5 LT PUSH2 0xC6E JUMPI DUP11 MLOAD SWAP5 PUSH4 0x23B872DD PUSH1 0xE0 SHL PUSH1 0x20 DUP8 ADD MSTORE CALLER DUP12 DUP8 ADD MSTORE ADDRESS SWAP1 DUP7 ADD MSTORE DUP4 DUP2 DUP7 ADD MSTORE DUP5 MSTORE PUSH1 0xA0 DUP5 ADD SWAP4 PUSH8 0xFFFFFFFFFFFFFFFF SWAP5 DUP2 DUP2 LT DUP7 DUP3 GT OR PUSH2 0xC5C JUMPI DUP12 MSTORE PUSH2 0xB09 SWAP1 DUP8 PUSH2 0xF35 JUMP JUMPDEST DUP10 MLOAD SWAP4 PUSH2 0x120 DUP6 ADD SWAP1 DUP2 GT DUP6 DUP3 LT OR PUSH2 0xC4A JUMPI SWAP2 DUP13 DUP13 DUP13 PUSH1 0x8 SWAP7 SWAP5 PUSH1 0x1 SWAP9 SWAP7 DUP3 MSTORE CALLER DUP8 MSTORE PUSH1 0x20 DUP8 ADD DUP13 DUP2 MSTORE DUP3 DUP9 ADD SWAP2 DUP13 DUP4 MSTORE DUP1 PUSH1 0x60 DUP11 ADD SWAP5 DUP10 DUP7 MSTORE PUSH1 0x80 DUP12 ADD SWAP7 DUP8 MSTORE PUSH1 0xA0 DUP12 ADD SWAP8 TIMESTAMP DUP10 MSTORE PUSH1 0xC0 DUP13 ADD SWAP10 DUP11 MSTORE PUSH1 0xE0 DUP13 ADD SWAP11 DUP12 MSTORE PUSH2 0x100 DUP13 ADD SWAP14 DUP15 MSTORE PUSH1 0x2 SLOAD DUP2 MSTORE PUSH1 0x3 PUSH1 0x20 MSTORE KECCAK256 SWAP10 MLOAD AND SWAP2 PUSH12 0xFFFFFFFFFFFFFFFFFFFFFFFF PUSH1 0xA0 SHL SWAP3 DUP4 DUP12 SLOAD AND OR DUP11 SSTORE DUP2 PUSH1 0x1 DUP12 ADD SWAP2 MLOAD AND DUP4 DUP3 SLOAD AND OR SWAP1 SSTORE PUSH1 0x2 DUP10 ADD SWAP3 MLOAD AND SWAP1 DUP3 SLOAD AND OR SWAP1 SSTORE MLOAD PUSH1 0x3 DUP7 ADD SSTORE MLOAD DUP11 DUP6 ADD SSTORE MLOAD PUSH1 0x5 DUP5 ADD SSTORE MLOAD PUSH1 0x6 DUP4 ADD SSTORE MLOAD PUSH1 0x7 DUP3 ADD SSTORE ADD SWAP1 MLOAD ISZERO ISZERO PUSH1 0xFF DUP1 NOT DUP4 SLOAD AND SWAP2 AND OR SWAP1 SSTORE PUSH1 0x2 SLOAD SWAP7 DUP7 MLOAD SWAP3 DUP4 MSTORE PUSH1 0x20 DUP4 ADD MSTORE DUP6 DUP3 ADD MSTORE DUP6 PUSH32 0xEDA1E5A48C710FD6BEDB62B49521E911DE7889FB3556C8C0485978520441E8D2 PUSH1 0x60 CALLER SWAP4 LOG4 PUSH1 0x0 NOT DUP5 EQ PUSH2 0xC39 JUMPI PUSH1 0x1 DUP5 ADD DUP1 PUSH1 0x2 SSTORE DUP5 GT PUSH2 0xC39 JUMPI POP POP PUSH1 0x1 PUSH1 0x20 SWAP4 SSTORE MLOAD SWAP1 DUP2 MSTORE RETURN JUMPDEST PUSH4 0x4E487B71 PUSH1 0xE0 SHL DUP6 MSTORE PUSH1 0x11 SWAP1 MSTORE DUP4 REVERT JUMPDEST PUSH4 0x4E487B71 PUSH1 0xE0 SHL DUP14 MSTORE PUSH1 0x41 DUP10 MSTORE DUP10 DUP14 REVERT JUMPDEST PUSH4 0x4E487B71 PUSH1 0xE0 SHL DUP15 MSTORE PUSH1 0x41 DUP11 MSTORE DUP11 DUP15 REVERT JUMPDEST DUP11 MLOAD PUSH3 0x461BCD PUSH1 0xE5 SHL DUP2 MSTORE PUSH1 0x20 DUP2 DUP12 ADD MSTORE PUSH1 0x14 DUP2 DUP13 ADD MSTORE PUSH20 0x125B9CDD59999A58DA595B9D0819195C1BDCDA5D PUSH1 0x62 SHL DUP2 DUP8 ADD MSTORE REVERT JUMPDEST PUSH4 0x4E487B71 PUSH1 0xE0 SHL DUP14 MSTORE PUSH1 0x11 DUP10 MSTORE DUP10 DUP14 REVERT JUMPDEST POP DUP9 MLOAD PUSH3 0x461BCD PUSH1 0xE5 SHL DUP2 MSTORE PUSH1 0x20 DUP2 DUP10 ADD MSTORE PUSH1 0x14 DUP2 DUP11 ADD MSTORE PUSH20 0x4475726174696F6E206D757374206265203E203 PUSH1 0x64 SHL DUP2 DUP6 ADD MSTORE REVERT JUMPDEST POP DUP9 MLOAD PUSH3 0x461BCD PUSH1 0xE5 SHL DUP2 MSTORE PUSH1 0x20 DUP2 DUP10 ADD MSTORE PUSH1 0x10 DUP2 DUP11 ADD MSTORE PUSH16 0x52617465206D757374206265203E203 PUSH1 0x84 SHL DUP2 DUP6 ADD MSTORE REVERT JUMPDEST POP DUP9 MLOAD PUSH3 0x461BCD PUSH1 0xE5 SHL DUP2 MSTORE PUSH1 0x20 DUP2 DUP10 ADD MSTORE PUSH1 0x13 DUP2 DUP11 ADD MSTORE PUSH19 0x4465706F736974206D757374206265203E203 PUSH1 0x6C SHL DUP2 DUP6 ADD MSTORE REVERT JUMPDEST POP DUP9 MLOAD PUSH3 0x461BCD PUSH1 0xE5 SHL DUP2 MSTORE PUSH1 0x20 DUP2 DUP10 ADD MSTORE PUSH1 0xD DUP2 DUP11 ADD MSTORE PUSH13 0x24B73B30B634B2103A37B5B2B7 PUSH1 0x99 SHL DUP2 DUP6 ADD MSTORE REVERT JUMPDEST POP DUP9 MLOAD PUSH3 0x461BCD PUSH1 0xE5 SHL DUP2 MSTORE PUSH1 0x20 DUP2 DUP10 ADD MSTORE PUSH1 0x15 DUP2 DUP11 ADD MSTORE PUSH21 0x21B0B73737BA1039BA3932B0B6903A379039B2B633 PUSH1 0x59 SHL DUP2 DUP6 ADD MSTORE REVERT JUMPDEST POP DUP9 MLOAD PUSH3 0x461BCD PUSH1 0xE5 SHL DUP2 MSTORE PUSH1 0x20 DUP2 DUP10 ADD MSTORE PUSH1 0x11 DUP2 DUP11 ADD MSTORE PUSH17 0x125B9D985B1A59081C9958DA5C1A595B9D PUSH1 0x7A SHL DUP2 DUP6 ADD MSTORE REVERT JUMPDEST DUP7 DUP1 REVERT JUMPDEST PUSH1 0x4 CALLDATALOAD SWAP1 PUSH1 0x1 PUSH1 0x1 PUSH1 0xA0 SHL SUB DUP3 AND DUP3 SUB PUSH2 0xE05 JUMPI JUMP JUMPDEST PUSH1 0x0 DUP1 REVERT JUMPDEST PUSH1 0x1 SLOAD PUSH1 0x8 SHR PUSH1 0x1 PUSH1 0x1 PUSH1 0xA0 SHL SUB AND CALLER SUB PUSH2 0xE21 JUMPI JUMP JUMPDEST PUSH1 0x64 PUSH1 0x40 MLOAD PUSH3 0x461BCD PUSH1 0xE5 SHL DUP2 MSTORE PUSH1 0x20 PUSH1 0x4 DUP3 ADD MSTORE PUSH1 0x20 PUSH1 0x24 DUP3 ADD MSTORE PUSH32 0x4F776E61626C653A2063616C6C6572206973206E6F7420746865206F776E6572 PUSH1 0x44 DUP3 ADD MSTORE REVERT JUMPDEST DUP2 DUP2 MUL SWAP3 SWAP2 DUP2 ISZERO SWAP2 DUP5 DIV EQ OR ISZERO PUSH2 0xE78 JUMPI JUMP JUMPDEST PUSH4 0x4E487B71 PUSH1 0xE0 SHL PUSH1 0x0 MSTORE PUSH1 0x11 PUSH1 0x4 MSTORE PUSH1 0x24 PUSH1 0x0 REVERT JUMPDEST SWAP2 SWAP1 DUP3 SUB SWAP2 DUP3 GT PUSH2 0xE78 JUMPI JUMP JUMPDEST PUSH1 0xFF PUSH1 0x1 SLOAD AND PUSH2 0xEA7 JUMPI JUMP JUMPDEST PUSH1 0x40 MLOAD PUSH3 0x461BCD PUSH1 0xE5 SHL DUP2 MSTORE PUSH1 0x20 PUSH1 0x4 DUP3 ADD MSTORE PUSH1 0x10 PUSH1 0x24 DUP3 ADD MSTORE PUSH16 0x14185D5CD8589B194E881C185D5CD959 PUSH1 0x82 SHL PUSH1 0x44 DUP3 ADD MSTORE PUSH1 0x64 SWAP1 REVERT JUMPDEST PUSH1 0x2 PUSH1 0x0 SLOAD EQ PUSH2 0xEF0 JUMPI PUSH1 0x2 PUSH1 0x0 SSTORE JUMP JUMPDEST PUSH1 0x40 MLOAD PUSH3 0x461BCD PUSH1 0xE5 SHL DUP2 MSTORE PUSH1 0x20 PUSH1 0x4 DUP3 ADD MSTORE PUSH1 0x1F PUSH1 0x24 DUP3 ADD MSTORE PUSH32 0x5265656E7472616E637947756172643A207265656E7472616E742063616C6C00 PUSH1 0x44 DUP3 ADD MSTORE PUSH1 0x64 SWAP1 REVERT JUMPDEST PUSH1 0x40 DUP1 MLOAD PUSH8 0xFFFFFFFFFFFFFFFF SWAP5 SWAP4 PUSH1 0x1 PUSH1 0x1 PUSH1 0xA0 SHL SUB SWAP1 SWAP4 AND SWAP3 SWAP1 DUP1 DUP4 ADD DUP7 DUP2 GT DUP3 DUP3 LT OR PUSH2 0x10AE JUMPI DUP4 MSTORE PUSH1 0x20 SWAP4 DUP5 DUP3 MSTORE PUSH32 0x5361666545524332303A206C6F772D6C6576656C2063616C6C206661696C6564 DUP6 DUP4 ADD MSTORE PUSH1 0x0 DUP1 DUP5 DUP8 DUP3 SWAP7 MLOAD SWAP2 ADD DUP3 DUP6 GAS CALL RETURNDATASIZE ISZERO PUSH2 0x109D JUMPI RETURNDATASIZE SWAP2 DUP9 DUP4 GT PUSH2 0x1089 JUMPI DUP6 MLOAD SWAP3 PUSH1 0x1F NOT PUSH1 0x3F DUP2 PUSH1 0x1F DUP5 ADD AND ADD AND DUP5 ADD SWAP10 DUP5 DUP12 LT SWAP1 DUP12 GT OR PUSH2 0x1075 JUMPI DUP7 SWAP8 SWAP9 SWAP10 PUSH2 0xFDF SWAP7 SWAP8 MSTORE DUP4 MSTORE DUP3 DUP7 DUP10 RETURNDATASIZE SWAP3 ADD RETURNDATACOPY PUSH2 0x10C4 JUMP JUMPDEST DUP1 MLOAD SWAP2 DUP3 ISZERO SWAP2 DUP6 DUP4 ISZERO PUSH2 0x1051 JUMPI JUMPDEST POP POP POP SWAP1 POP ISZERO PUSH2 0xFFB JUMPI POP POP JUMP JUMPDEST PUSH1 0x84 SWAP3 POP MLOAD SWAP1 PUSH3 0x461BCD PUSH1 0xE5 SHL DUP3 MSTORE PUSH1 0x4 DUP3 ADD MSTORE PUSH1 0x2A PUSH1 0x24 DUP3 ADD MSTORE PUSH32 0x5361666545524332303A204552433230206F7065726174696F6E20646964206E PUSH1 0x44 DUP3 ADD MSTORE PUSH10 0x1BDD081CDD58D8D95959 PUSH1 0xB2 SHL PUSH1 0x64 DUP3 ADD MSTORE REVERT JUMPDEST SWAP2 SWAP4 DUP2 DUP1 SWAP5 POP ADD SUB SLT PUSH2 0x2A3 JUMPI DUP4 ADD MLOAD SWAP1 DUP2 ISZERO ISZERO DUP3 SUB PUSH2 0x1BD JUMPI POP DUP1 CODESIZE DUP1 DUP6 PUSH2 0xFED JUMP JUMPDEST PUSH4 0x4E487B71 PUSH1 0xE0 SHL DUP7 MSTORE PUSH1 0x41 PUSH1 0x4 MSTORE PUSH1 0x24 DUP7 REVERT JUMPDEST PUSH4 0x4E487B71 PUSH1 0xE0 SHL DUP6 MSTORE PUSH1 0x41 PUSH1 0x4 MSTORE PUSH1 0x24 DUP6 REVERT JUMPDEST PUSH2 0xFDF SWAP4 SWAP5 SWAP6 SWAP7 SWAP8 POP PUSH1 0x60 SWAP2 PUSH2 0x10C4 JUMP JUMPDEST PUSH4 0x4E487B71 PUSH1 0xE0 SHL PUSH1 0x0 MSTORE PUSH1 0x41 PUSH1 0x4 MSTORE PUSH1 0x24 PUSH1 0x0 REVERT JUMPDEST SWAP2 SWAP3 SWAP1 ISZERO PUSH2 0x1126 JUMPI POP DUP2 MLOAD ISZERO PUSH2 0x10D8 JUMPI POP SWAP1 JUMP JUMPDEST EXTCODESIZE ISZERO PUSH2 0x10E1 JUMPI SWAP1 JUMP JUMPDEST PUSH1 0x40 MLOAD PUSH3 0x461BCD PUSH1 0xE5 SHL DUP2 MSTORE PUSH1 0x20 PUSH1 0x4 DUP3 ADD MSTORE PUSH1 0x1D PUSH1 0x24 DUP3 ADD MSTORE PUSH32 0x416464726573733A2063616C6C20746F206E6F6E2D636F6E7472616374000000 PUSH1 0x44 DUP3 ADD MSTORE PUSH1 0x64 SWAP1 REVERT JUMPDEST DUP3 MLOAD SWAP1 SWAP2 POP ISZERO PUSH2 0x1139 JUMPI POP DUP1 MLOAD SWAP1 PUSH1 0x20 ADD REVERT JUMPDEST PUSH1 0x40 MLOAD SWAP1 PUSH3 0x461BCD PUSH1 0xE5 SHL DUP3 MSTORE DUP2 PUSH1 0x20 DUP1 PUSH1 0x4 DUP4 ADD MSTORE DUP3 MLOAD SWAP1 DUP2 PUSH1 0x24 DUP5 ADD MSTORE PUSH1 0x0 SWAP4 JUMPDEST DUP3 DUP6 LT PUSH2 0x117F JUMPI POP POP PUSH1 0x44 SWAP3 POP PUSH1 0x0 DUP4 DUP3 DUP5 ADD ADD MSTORE PUSH1 0x1F DUP1 NOT SWAP2 ADD AND DUP2 ADD SUB ADD SWAP1 REVERT JUMPDEST DUP5 DUP2 ADD DUP3 ADD MLOAD DUP7 DUP7 ADD PUSH1 0x44 ADD MSTORE SWAP4 DUP2 ADD SWAP4 DUP6 SWAP4 POP PUSH2 0x115C JUMP JUMPDEST ISZERO PUSH2 0x119F JUMPI JUMP JUMPDEST PUSH1 0x40 MLOAD PUSH3 0x461BCD PUSH1 0xE5 SHL DUP2 MSTORE PUSH1 0x20 PUSH1 0x4 DUP3 ADD MSTORE PUSH1 0xF PUSH1 0x24 DUP3 ADD MSTORE PUSH15 0x496E6163746976652073747265616D PUSH1 0x88 SHL PUSH1 0x44 DUP3 ADD MSTORE PUSH1 0x64 SWAP1 REVERT JUMPDEST PUSH1 0x40 MLOAD PUSH4 0xA9059CBB PUSH1 0xE0 SHL PUSH1 0x20 DUP3 ADD MSTORE PUSH1 0x1 PUSH1 0x1 PUSH1 0xA0 SHL SUB SWAP1 SWAP3 AND PUSH1 0x24 DUP4 ADD MSTORE PUSH1 0x44 DUP1 DUP4 ADD SWAP4 SWAP1 SWAP4 MSTORE SWAP2 DUP2 MSTORE PUSH1 0x80 DUP2 ADD SWAP2 PUSH8 0xFFFFFFFFFFFFFFFF DUP4 GT DUP3 DUP5 LT OR PUSH2 0x10AE JUMPI PUSH2 0x1226 SWAP3 PUSH1 0x40 MSTORE PUSH2 0xF35 JUMP JUMPDEST JUMP JUMPDEST PUSH1 0x0 MSTORE PUSH1 0x3 PUSH1 0x20 MSTORE PUSH1 0x40 PUSH1 0x0 KECCAK256 PUSH1 0xFF PUSH1 0x8 DUP3 ADD SLOAD AND ISZERO PUSH2 0x1260 JUMPI PUSH1 0x7 PUSH2 0x124D DUP3 PUSH2 0x1266 JUMP JUMPDEST SWAP2 ADD SLOAD DUP1 DUP3 GT PUSH2 0x125B JUMPI POP SWAP1 JUMP JUMPDEST SWAP1 POP SWAP1 JUMP JUMPDEST POP PUSH1 0x0 SWAP1 JUMP JUMPDEST PUSH1 0x6 DUP2 ADD SLOAD DUP1 TIMESTAMP GT PUSH1 0x0 EQ PUSH2 0x12C2 JUMPI PUSH2 0x1294 PUSH2 0x128A PUSH2 0x12A5 SWAP3 PUSH1 0x5 DUP6 ADD SLOAD SWAP1 PUSH2 0xE8E JUMP JUMPDEST PUSH1 0x4 DUP5 ADD SLOAD PUSH2 0xE65 JUMP JUMPDEST SWAP2 PUSH1 0x7 PUSH1 0x3 DUP3 ADD SLOAD SWAP2 ADD SLOAD SWAP1 PUSH2 0xE8E JUMP JUMPDEST PUSH1 0x0 SWAP2 DUP2 DUP2 GT ISZERO PUSH2 0x12BD JUMPI PUSH2 0x12BA SWAP3 POP PUSH2 0xE8E JUMP JUMPDEST SWAP1 JUMP JUMPDEST POP POP SWAP1 JUMP JUMPDEST POP PUSH2 0x12A5 PUSH2 0x1294 PUSH2 0x12D7 PUSH1 0x5 DUP5 ADD SLOAD TIMESTAMP PUSH2 0xE8E JUMP JUMPDEST PUSH2 0x128A JUMP INVALID LOG2 PUSH5 0x6970667358 0x22 SLT KECCAK256 0xD6 PUSH29 0x2B5C579445D708F25B42F4E96E3A587807E7512182CFA3BE6C945E9349 SMOD PUSH5 0x736F6C6343 STOP ADDMOD EQ STOP CALLER "},"methodIdentifiers":{"availableToClaim(uint256)":"b6cc2a7d","cancelStream(uint256)":"6db9241b","claim(uint256)":"379607f5","createStream(address,address,uint256,uint256,uint256)":"06eb2dd3","getStreamInfo(uint256)":"96bb2192","nextStreamId()":"1e99d569","owner()":"8da5cb5b","pause()":"8456cb59","paused()":"5c975abb","renounceOwnership()":"715018a6","streams(uint256)":"64d60d91","transferOwnership(address)":"f2fde38b","unpause()":"3f4ba83a","withdrawExpiredStream(uint256)":"69e62d6a"}}}}}