{"contracts/PoolManager.sol":{"PoolManager":{"abi":[{"inputs":[{"internalType":"address","name":"_positionManager","type":"address"},{"internalType":"address","name":"_factory","type":"address"}],"stateMutability":"nonpayable","type":"constructor"},{"anonymous":false,"inputs":[{"indexed":true,"internalType":"uint256","name":"recordId","type":"uint256"},{"indexed":false,"internalType":"uint256","name":"fee0","type":"uint256"},{"indexed":false,"internalType":"uint256","name":"fee1","type":"uint256"}],"name":"FeesCollected","type":"event"},{"anonymous":false,"inputs":[{"indexed":true,"internalType":"uint256","name":"recordId","type":"uint256"},{"indexed":false,"internalType":"uint256","name":"amount0","type":"uint256"},{"indexed":false,"internalType":"uint256","name":"amount1","type":"uint256"}],"name":"LiquidityDecreased","type":"event"},{"anonymous":false,"inputs":[{"indexed":true,"internalType":"uint256","name":"recordId","type":"uint256"},{"indexed":false,"internalType":"uint128","name":"liquidity","type":"uint128"},{"indexed":false,"internalType":"uint256","name":"amount0","type":"uint256"},{"indexed":false,"internalType":"uint256","name":"amount1","type":"uint256"}],"name":"LiquidityIncreased","type":"event"},{"anonymous":false,"inputs":[{"indexed":true,"internalType":"address","name":"previousOwner","type":"address"},{"indexed":true,"internalType":"address","name":"newOwner","type":"address"}],"name":"OwnershipTransferred","type":"event"},{"anonymous":false,"inputs":[{"indexed":false,"internalType":"address","name":"account","type":"address"}],"name":"Paused","type":"event"},{"anonymous":false,"inputs":[{"indexed":true,"internalType":"uint256","name":"recordId","type":"uint256"},{"indexed":true,"internalType":"uint256","name":"positionId","type":"uint256"},{"indexed":true,"internalType":"address","name":"token0","type":"address"},{"indexed":false,"internalType":"address","name":"token1","type":"address"},{"indexed":false,"internalType":"int24","name":"tickLower","type":"int24"},{"indexed":false,"internalType":"int24","name":"tickUpper","type":"int24"},{"indexed":false,"internalType":"uint256","name":"amount0","type":"uint256"},{"indexed":false,"internalType":"uint256","name":"amount1","type":"uint256"}],"name":"PositionCreated","type":"event"},{"anonymous":false,"inputs":[{"indexed":false,"internalType":"address","name":"account","type":"address"}],"name":"Unpaused","type":"event"},{"inputs":[],"name":"FEE_TIER_HIGH","outputs":[{"internalType":"uint24","name":"","type":"uint24"}],"stateMutability":"view","type":"function"},{"inputs":[],"name":"FEE_TIER_LOW","outputs":[{"internalType":"uint24","name":"","type":"uint24"}],"stateMutability":"view","type":"function"},{"inputs":[],"name":"FEE_TIER_MEDIUM","outputs":[{"internalType":"uint24","name":"","type":"uint24"}],"stateMutability":"view","type":"function"},{"inputs":[{"internalType":"uint256","name":"recordId","type":"uint256"}],"name":"collectFees","outputs":[],"stateMutability":"nonpayable","type":"function"},{"inputs":[{"internalType":"address","name":"token0","type":"address"},{"internalType":"address","name":"token1","type":"address"},{"internalType":"uint24","name":"fee","type":"uint24"},{"internalType":"uint256","name":"amount0Desired","type":"uint256"},{"internalType":"uint256","name":"amount1Desired","type":"uint256"},{"internalType":"int24","name":"tickLower","type":"int24"},{"internalType":"int24","name":"tickUpper","type":"int24"}],"name":"createPosition","outputs":[{"internalType":"uint256","name":"recordId","type":"uint256"}],"stateMutability":"nonpayable","type":"function"},{"inputs":[{"internalType":"uint256","name":"recordId","type":"uint256"},{"internalType":"uint128","name":"liquidity","type":"uint128"}],"name":"decreaseLiquidity","outputs":[],"stateMutability":"nonpayable","type":"function"},{"inputs":[],"name":"factory","outputs":[{"internalType":"contract IUniswapV3Factory","name":"","type":"address"}],"stateMutability":"view","type":"function"},{"inputs":[{"internalType":"uint256","name":"recordId","type":"uint256"}],"name":"getPositionInfo","outputs":[{"internalType":"uint256","name":"positionId","type":"uint256"},{"internalType":"address","name":"token0","type":"address"},{"internalType":"address","name":"token1","type":"address"},{"internalType":"uint24","name":"fee","type":"uint24"},{"internalType":"int24","name":"tickLower","type":"int24"},{"internalType":"int24","name":"tickUpper","type":"int24"},{"internalType":"uint256","name":"depositedAmount0","type":"uint256"},{"internalType":"uint256","name":"depositedAmount1","type":"uint256"},{"internalType":"bool","name":"active","type":"bool"}],"stateMutability":"view","type":"function"},{"inputs":[{"internalType":"uint256","name":"recordId","type":"uint256"}],"name":"getPositionLiquidity","outputs":[{"internalType":"uint128","name":"liquidity","type":"uint128"}],"stateMutability":"view","type":"function"},{"inputs":[{"internalType":"address","name":"user","type":"address"}],"name":"getUserPositions","outputs":[{"internalType":"uint256[]","name":"","type":"uint256[]"}],"stateMutability":"view","type":"function"},{"inputs":[{"internalType":"uint256","name":"recordId","type":"uint256"},{"internalType":"uint256","name":"amount0Desired","type":"uint256"},{"internalType":"uint256","name":"amount1Desired","type":"uint256"}],"name":"increaseLiquidity","outputs":[],"stateMutability":"nonpayable","type":"function"},{"inputs":[],"name":"nextRecordId","outputs":[{"internalType":"uint256","name":"","type":"uint256"}],"stateMutability":"view","type":"function"},{"inputs":[],"name":"owner","outputs":[{"internalType":"address","name":"","type":"address"}],"stateMutability":"view","type":"function"},{"inputs":[],"name":"pause","outputs":[],"stateMutability":"nonpayable","type":"function"},{"inputs":[],"name":"paused","outputs":[{"internalType":"bool","name":"","type":"bool"}],"stateMutability":"view","type":"function"},{"inputs":[],"name":"positionManager","outputs":[{"internalType":"contract INonfungiblePositionManager","name":"","type":"address"}],"stateMutability":"view","type":"function"},{"inputs":[{"internalType":"uint256","name":"","type":"uint256"}],"name":"positions","outputs":[{"internalType":"uint256","name":"positionId","type":"uint256"},{"internalType":"address","name":"token0","type":"address"},{"internalType":"address","name":"token1","type":"address"},{"internalType":"uint24","name":"fee","type":"uint24"},{"internalType":"int24","name":"tickLower","type":"int24"},{"internalType":"int24","name":"tickUpper","type":"int24"},{"internalType":"uint256","name":"depositedAmount0","type":"uint256"},{"internalType":"uint256","name":"depositedAmount1","type":"uint256"},{"internalType":"bool","name":"active","type":"bool"}],"stateMutability":"view","type":"function"},{"inputs":[],"name":"renounceOwnership","outputs":[],"stateMutability":"nonpayable","type":"function"},{"inputs":[{"internalType":"address","name":"newOwner","type":"address"}],"name":"transferOwnership","outputs":[],"stateMutability":"nonpayable","type":"function"},{"inputs":[],"name":"unpause","outputs":[],"stateMutability":"nonpayable","type":"function"},{"inputs":[{"internalType":"address","name":"","type":"address"},{"internalType":"uint256","name":"","type":"uint256"}],"name":"userPositions","outputs":[{"internalType":"uint256","name":"","type":"uint256"}],"stateMutability":"view","type":"function"}],"evm":{"bytecode":{"linkReferences":{},"object":"6080346200017757601f62001f8738819003918201601f19168301916001600160401b038311848410176200017c57808492604094855283398101031262000177576200005a6020620000528362000192565b920162000192565b6001600081815581546001600160a81b0319811633600881811b610100600160a81b031692909217909455604051956001600160a01b0395948694919390921c8416907f8be0079c531659141344cd1fd0a4f28419497f9722a3daafe3b4186f6b6457e09080a31692831562000135575016908115620000fe5760018060a01b0319908160035416176003556004541617600455604051611ddf9081620001a88239f35b60405162461bcd60e51b815260206004820152600f60248201526e496e76616c696420666163746f727960881b6044820152606490fd5b62461bcd60e51b815260206004820152601860248201527f496e76616c696420706f736974696f6e206d616e6167657200000000000000006044820152606490fd5b600080fd5b634e487b7160e01b600052604160045260246000fd5b51906001600160a01b0382168203620001775756fe6080604052600436101561001257600080fd5b60003560e01c80631efeed33146115845780632a6bc2dd146114d05780632d86fcb214610cbb5780633f4ba83a14610c27578063519f509914610ba35780635c975abb14610b805780635e1b4d9914610b28578063715018a614610ac75780637574d9a014610aaa578063791b98bc14610a815780638456cb5914610a285780638da5cb5b146109fb5780638f40e8f5146109de57806399d7b5941461073c57806399fbab88146106c1578063b17acdcd14610565578063c45a01551461053c578063dbde207d1461051e578063e115bc5c146101f9578063f2fde38b146101255763f6b9ec7c1461010357600080fd5b346101205760003660031901126101205760206040516101f48152f35b600080fd5b346101205760203660031901126101205761013e6116bf565b61014661175b565b6001600160a01b038181169182156101a55760018054610100600160a81b03198116600893841b610100600160a81b031617909155901c167f8be0079c531659141344cd1fd0a4f28419497f9722a3daafe3b4186f6b6457e0600080a3005b60405162461bcd60e51b815260206004820152602660248201527f4f776e61626c653a206e6577206f776e657220697320746865207a65726f206160448201526564647265737360d01b6064820152608490fd5b34610120576060366003190112610120576004356102156118bc565b61021d611878565b61022a6002548210611cc2565b806000526005602052604060002061024860ff600583015416611d06565b602435151580610513575b61025c906117b6565b600181015461027b9060243590309033906001600160a01b0316611955565b6002810190610297604435303360018060a01b03865416611955565b60018101546003546102b991602435916001600160a01b0390811691166119ae565b81546003546102d891604435916001600160a01b0390811691166119ae565b8054610e1042018042116104fd576040519160c0830183811067ffffffffffffffff8211176104e757604052825260243560208301526044356040830152600060608301526000608083015260a0820152606060a060c4600180831b0360035416936000604051958694859363219f5d1760e01b855280516004860152602081015160248601526040810151604486015287810151606486015260808101516084860152015160a48401525af19081156104db57600092600091600093610465575b5090600460609493927fc3e53dd207da84f2073ef5171a1db111b37e6d53d8a7983f0cf8a7ae89d9cd63966024358410610442575b604435851061041a575b50600381016103e984825461184a565b9055016103f783825461184a565b90556001600160801b036040519316835260208301526040820152a26001600055005b5461043c906001600160a01b03166104348660443561186b565b903390611912565b886103d9565b6001820154610460906001600160a01b03166104348660243561186b565b6103cf565b92509250506060813d6060116104d3575b8161048360609383611814565b81010312610120577fc3e53dd207da84f2073ef5171a1db111b37e6d53d8a7983f0cf8a7ae89d9cd639260609260046104bb84611857565b6020850151604090950151939650945091929161039a565b3d9150610476565b6040513d6000823e3d90fd5b634e487b7160e01b600052604160045260246000fd5b634e487b7160e01b600052601160045260246000fd5b506044351515610253565b34610120576000366003190112610120576020600254604051908152f35b34610120576000366003190112610120576004546040516001600160a01b039091168152602090f35b34610120576020366003190112610120576004356105816118bc565b61058e6002548210611cc2565b6001546001600160a01b039060081c8116330361067c576040610600600092848452600560205282842054908351916105c6836117f8565b82523360208301526001600160801b03808584015260608301526003541690835194858094819363fc6f786560e01b835260048301611d5d565b03925af180156104db577fa54e6c2fc0861aa9c991b26891d71059d517983b9e84b91020f42609c452eb9d9160409160009160009161064d575b5082519182526020820152a26001600055005b905061066f9150823d8411610675575b6106678183611814565b810190611d47565b8561063a565b503d61065d565b60405162461bcd60e51b815260206004820152601b60248201527f4f6e6c79206f776e65722063616e20636f6c6c656374206665657300000000006044820152606490fd5b346101205760203660031901126101205760043560005260056020526040600020805461073860018060a01b03806001850154169360028101549460038201549060ff6005600485015494015416936040519788978160d01c60020b938260b81c60020b9362ffffff8460a01c169316918a6116d5565b0390f35b3461012057604036600319011261012057600435602480356001600160801b038082168092036101205761076e6118bc565b61077b6002548510611cc2565b6001546001600160a01b03929060081c8316330361099a578460005260056020526040600020936107b260ff600587015416611d06565b811561095e57845490610e104201804211610949576040519260a0840184811067ffffffffffffffff8211176109345786959360a4936040969360009388528452602084019586528684018381526060850190848252608086019283528b600354169389519b8c998a98630624e65f60e11b8a525160048a01525116908701525160448601525160648501525160848401525af19283156104db5760009485938695610905575b50916108a2916040935491845192610870846117f8565b8352336020840152808584015260608301526003541690835196878094819363fc6f786560e01b835260048301611d5d565b03925af19182156104db577f9fff09bdb699560e15269e01134083f4348f16ba2a38e7dcca3a2f0dfcfe639f936040936108e9575082519182526020820152a26001600055005b6108ff90843d8611610675576106678183611814565b5061063a565b6040939195506108a292945061092790843d8611610675576106678183611814565b9490949591935091610859565b83634e487b7160e01b60005260416004526000fd5b50634e487b7160e01b60009081526011600452fd5b60649060156040519162461bcd60e51b8352602060048401528201527404c6971756964697479206d757374206265203e203605c1b6044820152fd5b60405162461bcd60e51b8152602060048201526017818601527f4f6e6c79206f776e65722063616e2064656372656173650000000000000000006044820152606490fd5b34610120576000366003190112610120576020604051610bb88152f35b346101205760003660031901126101205760015460405160089190911c6001600160a01b03168152602090f35b3461012057600036600319011261012057610a4161175b565b610a49611878565b600160ff19815416176001557f62e78cea01bee320cd4e420270b5ea74000d11b0c9f74754ebdbfc544b05a2586020604051338152a1005b34610120576000366003190112610120576003546040516001600160a01b039091168152602090f35b346101205760003660031901126101205760206040516127108152f35b3461012057600036600319011261012057610ae061175b565b60018054610100600160a81b0319811690915560009060081c6001600160a01b03167f8be0079c531659141344cd1fd0a4f28419497f9722a3daafe3b4186f6b6457e08280a3005b3461012057604036600319011261012057610b416116bf565b6001600160a01b031660009081526006602052604090208054602435919082101561012057602091610b729161172d565b90546040519160031b1c8152f35b3461012057600036600319011261012057602060ff600154166040519015158152f35b3461012057602036600319011261012057600435610bc46002548210611cc2565b60005260056020526040600020805461073860018060a01b03806001850154169360028101549460038201549060ff6005600485015494015416936040519788978160d01c60020b938260b81c60020b9362ffffff8460a01c169316918a6116d5565b3461012057600036600319011261012057610c4061175b565b60015460ff811615610c7f5760ff19166001557f5db9ee0a495bf2e6ff9c91a7834c1ba4fdd244a5e8aa4e537bd38aeae4b073aa6020604051338152a1005b60405162461bcd60e51b815260206004820152601460248201527314185d5cd8589b194e881b9bdd081c185d5cd95960621b6044820152606490fd5b346101205760e036600319011261012057610cd46116bf565b6024356001600160a01b03811690036101205762ffffff60443516604435036101205760a4358060020b81036101205760c4358060020b810361012057610d196118bc565b610d21611878565b60843592602435926064359290919085826001600160a01b038116801515806114bc575b15611486576024356001600160a01b031681146114415786151580611438575b610d6e906117b6565b6101f462ffffff60443516148015611426575b8015611414575b156113dc578360020b8660020b12156113a2576024356001600160a01b031610611390575b505060048054604051630b4c774160e11b81526001600160a01b038581169382019390935287831660248201526044803562ffffff1690820152911690602081606481855afa9081156104db57600091611356575b506001600160a01b031615611279575b50610e288430336001600160a01b038616611955565b610e3d8630336001600160a01b038916611955565b600354610e599085906001600160a01b039081169085166119ae565b600354610e759087906001600160a01b039081169088166119ae565b610e10420142116104fd57604051918261016081011067ffffffffffffffff610160850111176104e757610160830160405260018060a01b038116835260018060a01b038616602084015262ffffff6044351660408401528360020b60608401528160020b60808401528460a08401528660c0840152600060e0840152600061010084015230610120840152610e104201610140840152608061014061016460018060a01b03600354169560006040519788948593634418b22b60e11b855260018060a01b03815116600486015260018060a01b03602082015116602486015262ffffff6040820151166044860152606081015160020b60648601528781015160020b608486015260a081015160a486015260c081015160c486015260e081015160e486015261010081015161010486015260018060a01b036101208201511661012486015201516101448401525af19687156104db57600095600094600099611224575b509084828a938210611200575b50508082106111dc575b5050600254966040518061012081011067ffffffffffffffff610120830111176104e7576005816101208b93016040528881526020810160018060a01b03861681526040820160018060a01b038c168152606083019062ffffff60443516825260808401918b60020b835260a085018a60020b815260c08601938c855260e08701958a875261010088019960018b5260005288602052604060002097518855600188019060018060a01b039051166bffffffffffffffffffffffff60a01b825416179055600287019360018060a01b0390511684549362ffffff60a01b905160a01b16915160b81b925160d01b62ffffff60d01b169362ffffff60e81b1617179062ffffff60b81b1617179055516003830155516004820155019051151560ff80198354169116179055336000526006602052604060002093845493680100000000000000008510156104e7578996611173867f21d5d179f5246e40edb16d81f698ee5137599fc06b7dd0b793840c29cddee10c98600160a09901815561172d565b81548a8260031b1b916000199060031b1b191617905560405199600180881b03168a5260020b60208a015260020b604089015260608801526080870152600180831b031694a46002549060001982146104fd576001602092016002556001600055604051908152f35b6111f9916111e99161186b565b336001600160a01b038916611912565b8688610ff1565b61121d9161120d9161186b565b336001600160a01b038616611912565b848a610fe7565b9650935096506080853d608011611271575b8161124360809383611814565b810103126101205784519261125a60208701611857565b506040860151606090960151979395939084610fda565b3d9150611236565b60405163a167129560e01b81526001600160a01b038481166004830152871660248201526044803562ffffff1690820152906020908290816000816064810103925af19081156104db5760009161131c575b506001600160a01b0316156112e05786610e12565b60405162461bcd60e51b8152602060048201526014602482015273141bdbdb0818dc99585d1a5bdb8819985a5b195960621b6044820152606490fd5b90506020813d60201161134e575b8161133760209383611814565b810103126101205761134890611836565b876112cb565b3d915061132a565b90506020813d602011611388575b8161137160209383611814565b810103126101205761138290611836565b88610e02565b3d9150611364565b94965093945060243591508680610dad565b60405162461bcd60e51b8152602060048201526012602482015271496e76616c6964207469636b2072616e676560701b6044820152606490fd5b60405162461bcd60e51b815260206004820152601060248201526f24b73b30b634b2103332b2903a34b2b960811b6044820152606490fd5b5061271062ffffff6044351614610d88565b50610bb862ffffff6044351614610d81565b50881515610d65565b60405162461bcd60e51b815260206004820152601860248201527f546f6b656e73206d75737420626520646966666572656e7400000000000000006044820152606490fd5b60405162461bcd60e51b815260206004820152600e60248201526d496e76616c696420746f6b656e7360901b6044820152606490fd5b506024356001600160a01b03161515610d45565b3461012057602080600319360112610120576001600160a01b036114f26116bf565b1660005260068152604060002060405190818382549182815201908192600052846000209060005b8682821061157057868661153082880383611814565b604051928392818401908285525180915260408401929160005b82811061155957505050500390f35b83518552869550938101939281019260010161154a565b83548552909301926001928301920161151a565b34610120576020366003190112610120576004356115a56002548210611cc2565b6000526005602052604060002060018060a01b0360035416905460405191829163133f757160e31b835260048301528160246101809384935afa9081156104db57600091611602575b6020826001600160801b0360405191168152f35b905081813d83116116b8575b6116188183611814565b810103126101205780516bffffffffffffffffffffffff8116036101205761164260208201611836565b5061164f60408201611836565b5061165c60608201611836565b50608081015162ffffff811603610120578061167c60a060209301611d9b565b5061168960c08201611d9b565b506116b161016061169c60e08401611857565b926116aa6101408201611857565b5001611857565b50826115ee565b503d61160e565b600435906001600160a01b038216820361012057565b9081526001600160a01b0391821660208201529116604082015262ffffff9091166060820152600291820b608082015291900b60a082015260c081019190915260e08101919091529015156101008201526101200190565b80548210156117455760005260206000200190600090565b634e487b7160e01b600052603260045260246000fd5b60015460081c6001600160a01b0316330361177257565b606460405162461bcd60e51b815260206004820152602060248201527f4f776e61626c653a2063616c6c6572206973206e6f7420746865206f776e65726044820152fd5b156117bd57565b60405162461bcd60e51b81526020600482015260136024820152720416d6f756e7473206d757374206265203e203606c1b6044820152606490fd5b6080810190811067ffffffffffffffff8211176104e757604052565b90601f8019910116810190811067ffffffffffffffff8211176104e757604052565b51906001600160a01b038216820361012057565b919082018092116104fd57565b51906001600160801b038216820361012057565b919082039182116104fd57565b60ff6001541661188457565b60405162461bcd60e51b815260206004820152601060248201526f14185d5cd8589b194e881c185d5cd95960821b6044820152606490fd5b6002600054146118cd576002600055565b60405162461bcd60e51b815260206004820152601f60248201527f5265656e7472616e637947756172643a207265656e7472616e742063616c6c006044820152606490fd5b60405163a9059cbb60e01b60208201526001600160a01b039290921660248301526044808301939093529181526119539161194e606483611814565b611ab6565b565b6040516323b872dd60e01b60208201526001600160a01b03928316602482015292909116604483015260648083019390935291815260a081019181831067ffffffffffffffff8411176104e75761195392604052611ab6565b60405163095ea7b360e01b602082018181526001600160a01b03851660248401526044808401969096529482529092906119e9606485611814565b83516001600160a01b03958487169160009182919082855af190611a0b611bae565b82611a6c575b5081611a61575b5015611a26575b5050505050565b611a579461194e926040519260208401521660248201526000604482015260448152611a51816117f8565b82611ab6565b3880808080611a1f565b90503b151538611a18565b80519192508115918215611a84575b50509038611a11565b611a979250602080918301019101611a9e565b3880611a7b565b90816020910312610120575180151581036101205790565b60408051908101916001600160a01b031667ffffffffffffffff8311828410176104e757611b26926040526000806020958685527f5361666545524332303a206c6f772d6c6576656c2063616c6c206661696c656487860152868151910182855af1611b20611bae565b91611bee565b805190828215928315611b96575b50505015611b3f5750565b6084906040519062461bcd60e51b82526004820152602a60248201527f5361666545524332303a204552433230206f7065726174696f6e20646964206e6044820152691bdd081cdd58d8d9595960b21b6064820152fd5b611ba69350820181019101611a9e565b388281611b34565b3d15611be9573d9067ffffffffffffffff82116104e75760405191611bdd601f8201601f191660200184611814565b82523d6000602084013e565b606090565b91929015611c505750815115611c02575090565b3b15611c0b5790565b60405162461bcd60e51b815260206004820152601d60248201527f416464726573733a2063616c6c20746f206e6f6e2d636f6e74726163740000006044820152606490fd5b825190915015611c635750805190602001fd5b6040519062461bcd60e51b82528160208060048301528251908160248401526000935b828510611ca9575050604492506000838284010152601f80199101168101030190fd5b8481018201518686016044015293810193859350611c86565b15611cc957565b60405162461bcd60e51b8152602060048201526015602482015274149958dbdc9908191bd95cc81b9bdd08195e1a5cdd605a1b6044820152606490fd5b15611d0d57565b60405162461bcd60e51b81526020600482015260126024820152715265636f726420697320696e61637469766560701b6044820152606490fd5b9190826040910312610120576020825192015190565b919091606060808201938051835260018060a01b036020820151166020840152816001600160801b0391826040820151166040860152015116910152565b51908160020b82036101205756fea264697066735822122057e34d17f27f68dd515f580dc8f947d63f1eea16f0dccf1409d0d6db2e510e2264736f6c63430008140033","opcodes":"PUSH1 0x80 CALLVALUE PUSH3 0x177 JUMPI PUSH1 0x1F PUSH3 0x1F87 CODESIZE DUP2 SWAP1 SUB SWAP2 DUP3 ADD PUSH1 0x1F NOT AND DUP4 ADD SWAP2 PUSH1 0x1 PUSH1 0x1 PUSH1 0x40 SHL SUB DUP4 GT DUP5 DUP5 LT OR PUSH3 0x17C JUMPI DUP1 DUP5 SWAP3 PUSH1 0x40 SWAP5 DUP6 MSTORE DUP4 CODECOPY DUP2 ADD SUB SLT PUSH3 0x177 JUMPI PUSH3 0x5A PUSH1 0x20 PUSH3 0x52 DUP4 PUSH3 0x192 JUMP JUMPDEST SWAP3 ADD PUSH3 0x192 JUMP JUMPDEST PUSH1 0x1 PUSH1 0x0 DUP2 DUP2 SSTORE DUP2 SLOAD PUSH1 0x1 PUSH1 0x1 PUSH1 0xA8 SHL SUB NOT DUP2 AND CALLER PUSH1 0x8 DUP2 DUP2 SHL PUSH2 0x100 PUSH1 0x1 PUSH1 0xA8 SHL SUB AND SWAP3 SWAP1 SWAP3 OR SWAP1 SWAP5 SSTORE PUSH1 0x40 MLOAD SWAP6 PUSH1 0x1 PUSH1 0x1 PUSH1 0xA0 SHL SUB SWAP6 SWAP5 DUP7 SWAP5 SWAP2 SWAP4 SWAP1 SWAP3 SHR DUP5 AND SWAP1 PUSH32 0x8BE0079C531659141344CD1FD0A4F28419497F9722A3DAAFE3B4186F6B6457E0 SWAP1 DUP1 LOG3 AND SWAP3 DUP4 ISZERO PUSH3 0x135 JUMPI POP AND SWAP1 DUP2 ISZERO PUSH3 0xFE JUMPI PUSH1 0x1 DUP1 PUSH1 0xA0 SHL SUB NOT SWAP1 DUP2 PUSH1 0x3 SLOAD AND OR PUSH1 0x3 SSTORE PUSH1 0x4 SLOAD AND OR PUSH1 0x4 SSTORE PUSH1 0x40 MLOAD PUSH2 0x1DDF SWAP1 DUP2 PUSH3 0x1A8 DUP3 CODECOPY RETURN JUMPDEST PUSH1 0x40 MLOAD PUSH3 0x461BCD PUSH1 0xE5 SHL DUP2 MSTORE PUSH1 0x20 PUSH1 0x4 DUP3 ADD MSTORE PUSH1 0xF PUSH1 0x24 DUP3 ADD MSTORE PUSH15 0x496E76616C696420666163746F7279 PUSH1 0x88 SHL PUSH1 0x44 DUP3 ADD MSTORE PUSH1 0x64 SWAP1 REVERT JUMPDEST PUSH3 0x461BCD PUSH1 0xE5 SHL DUP2 MSTORE PUSH1 0x20 PUSH1 0x4 DUP3 ADD MSTORE PUSH1 0x18 PUSH1 0x24 DUP3 ADD MSTORE PUSH32 0x496E76616C696420706F736974696F6E206D616E616765720000000000000000 PUSH1 0x44 DUP3 ADD MSTORE PUSH1 0x64 SWAP1 REVERT JUMPDEST PUSH1 0x0 DUP1 REVERT JUMPDEST PUSH4 0x4E487B71 PUSH1 0xE0 SHL PUSH1 0x0 MSTORE PUSH1 0x41 PUSH1 0x4 MSTORE PUSH1 0x24 PUSH1 0x0 REVERT JUMPDEST MLOAD SWAP1 PUSH1 0x1 PUSH1 0x1 PUSH1 0xA0 SHL SUB DUP3 AND DUP3 SUB PUSH3 0x177 JUMPI JUMP INVALID PUSH1 0x80 PUSH1 0x40 MSTORE PUSH1 0x4 CALLDATASIZE LT ISZERO PUSH2 0x12 JUMPI PUSH1 0x0 DUP1 REVERT JUMPDEST PUSH1 0x0 CALLDATALOAD PUSH1 0xE0 SHR DUP1 PUSH4 0x1EFEED33 EQ PUSH2 0x1584 JUMPI DUP1 PUSH4 0x2A6BC2DD EQ PUSH2 0x14D0 JUMPI DUP1 PUSH4 0x2D86FCB2 EQ PUSH2 0xCBB JUMPI DUP1 PUSH4 0x3F4BA83A EQ PUSH2 0xC27 JUMPI DUP1 PUSH4 0x519F5099 EQ PUSH2 0xBA3 JUMPI DUP1 PUSH4 0x5C975ABB EQ PUSH2 0xB80 JUMPI DUP1 PUSH4 0x5E1B4D99 EQ PUSH2 0xB28 JUMPI DUP1 PUSH4 0x715018A6 EQ PUSH2 0xAC7 JUMPI DUP1 PUSH4 0x7574D9A0 EQ PUSH2 0xAAA JUMPI DUP1 PUSH4 0x791B98BC EQ PUSH2 0xA81 JUMPI DUP1 PUSH4 0x8456CB59 EQ PUSH2 0xA28 JUMPI DUP1 PUSH4 0x8DA5CB5B EQ PUSH2 0x9FB JUMPI DUP1 PUSH4 0x8F40E8F5 EQ PUSH2 0x9DE JUMPI DUP1 PUSH4 0x99D7B594 EQ PUSH2 0x73C JUMPI DUP1 PUSH4 0x99FBAB88 EQ PUSH2 0x6C1 JUMPI DUP1 PUSH4 0xB17ACDCD EQ PUSH2 0x565 JUMPI DUP1 PUSH4 0xC45A0155 EQ PUSH2 0x53C JUMPI DUP1 PUSH4 0xDBDE207D EQ PUSH2 0x51E JUMPI DUP1 PUSH4 0xE115BC5C EQ PUSH2 0x1F9 JUMPI DUP1 PUSH4 0xF2FDE38B EQ PUSH2 0x125 JUMPI PUSH4 0xF6B9EC7C EQ PUSH2 0x103 JUMPI PUSH1 0x0 DUP1 REVERT JUMPDEST CALLVALUE PUSH2 0x120 JUMPI PUSH1 0x0 CALLDATASIZE PUSH1 0x3 NOT ADD SLT PUSH2 0x120 JUMPI PUSH1 0x20 PUSH1 0x40 MLOAD PUSH2 0x1F4 DUP2 MSTORE RETURN JUMPDEST PUSH1 0x0 DUP1 REVERT JUMPDEST CALLVALUE PUSH2 0x120 JUMPI PUSH1 0x20 CALLDATASIZE PUSH1 0x3 NOT ADD SLT PUSH2 0x120 JUMPI PUSH2 0x13E PUSH2 0x16BF JUMP JUMPDEST PUSH2 0x146 PUSH2 0x175B JUMP JUMPDEST PUSH1 0x1 PUSH1 0x1 PUSH1 0xA0 SHL SUB DUP2 DUP2 AND SWAP2 DUP3 ISZERO PUSH2 0x1A5 JUMPI PUSH1 0x1 DUP1 SLOAD PUSH2 0x100 PUSH1 0x1 PUSH1 0xA8 SHL SUB NOT DUP2 AND PUSH1 0x8 SWAP4 DUP5 SHL PUSH2 0x100 PUSH1 0x1 PUSH1 0xA8 SHL SUB AND OR SWAP1 SWAP2 SSTORE SWAP1 SHR AND PUSH32 0x8BE0079C531659141344CD1FD0A4F28419497F9722A3DAAFE3B4186F6B6457E0 PUSH1 0x0 DUP1 LOG3 STOP JUMPDEST PUSH1 0x40 MLOAD PUSH3 0x461BCD PUSH1 0xE5 SHL DUP2 MSTORE PUSH1 0x20 PUSH1 0x4 DUP3 ADD MSTORE PUSH1 0x26 PUSH1 0x24 DUP3 ADD MSTORE PUSH32 0x4F776E61626C653A206E6577206F776E657220697320746865207A65726F2061 PUSH1 0x44 DUP3 ADD MSTORE PUSH6 0x646472657373 PUSH1 0xD0 SHL PUSH1 0x64 DUP3 ADD MSTORE PUSH1 0x84 SWAP1 REVERT JUMPDEST CALLVALUE PUSH2 0x120 JUMPI PUSH1 0x60 CALLDATASIZE PUSH1 0x3 NOT ADD SLT PUSH2 0x120 JUMPI PUSH1 0x4 CALLDATALOAD PUSH2 0x215 PUSH2 0x18BC JUMP JUMPDEST PUSH2 0x21D PUSH2 0x1878 JUMP JUMPDEST PUSH2 0x22A PUSH1 0x2 SLOAD DUP3 LT PUSH2 0x1CC2 JUMP JUMPDEST DUP1 PUSH1 0x0 MSTORE PUSH1 0x5 PUSH1 0x20 MSTORE PUSH1 0x40 PUSH1 0x0 KECCAK256 PUSH2 0x248 PUSH1 0xFF PUSH1 0x5 DUP4 ADD SLOAD AND PUSH2 0x1D06 JUMP JUMPDEST PUSH1 0x24 CALLDATALOAD ISZERO ISZERO DUP1 PUSH2 0x513 JUMPI JUMPDEST PUSH2 0x25C SWAP1 PUSH2 0x17B6 JUMP JUMPDEST PUSH1 0x1 DUP2 ADD SLOAD PUSH2 0x27B SWAP1 PUSH1 0x24 CALLDATALOAD SWAP1 ADDRESS SWAP1 CALLER SWAP1 PUSH1 0x1 PUSH1 0x1 PUSH1 0xA0 SHL SUB AND PUSH2 0x1955 JUMP JUMPDEST PUSH1 0x2 DUP2 ADD SWAP1 PUSH2 0x297 PUSH1 0x44 CALLDATALOAD ADDRESS CALLER PUSH1 0x1 DUP1 PUSH1 0xA0 SHL SUB DUP7 SLOAD AND PUSH2 0x1955 JUMP JUMPDEST PUSH1 0x1 DUP2 ADD SLOAD PUSH1 0x3 SLOAD PUSH2 0x2B9 SWAP2 PUSH1 0x24 CALLDATALOAD SWAP2 PUSH1 0x1 PUSH1 0x1 PUSH1 0xA0 SHL SUB SWAP1 DUP2 AND SWAP2 AND PUSH2 0x19AE JUMP JUMPDEST DUP2 SLOAD PUSH1 0x3 SLOAD PUSH2 0x2D8 SWAP2 PUSH1 0x44 CALLDATALOAD SWAP2 PUSH1 0x1 PUSH1 0x1 PUSH1 0xA0 SHL SUB SWAP1 DUP2 AND SWAP2 AND PUSH2 0x19AE JUMP JUMPDEST DUP1 SLOAD PUSH2 0xE10 TIMESTAMP ADD DUP1 TIMESTAMP GT PUSH2 0x4FD JUMPI PUSH1 0x40 MLOAD SWAP2 PUSH1 0xC0 DUP4 ADD DUP4 DUP2 LT PUSH8 0xFFFFFFFFFFFFFFFF DUP3 GT OR PUSH2 0x4E7 JUMPI PUSH1 0x40 MSTORE DUP3 MSTORE PUSH1 0x24 CALLDATALOAD PUSH1 0x20 DUP4 ADD MSTORE PUSH1 0x44 CALLDATALOAD PUSH1 0x40 DUP4 ADD MSTORE PUSH1 0x0 PUSH1 0x60 DUP4 ADD MSTORE PUSH1 0x0 PUSH1 0x80 DUP4 ADD MSTORE PUSH1 0xA0 DUP3 ADD MSTORE PUSH1 0x60 PUSH1 0xA0 PUSH1 0xC4 PUSH1 0x1 DUP1 DUP4 SHL SUB PUSH1 0x3 SLOAD AND SWAP4 PUSH1 0x0 PUSH1 0x40 MLOAD SWAP6 DUP7 SWAP5 DUP6 SWAP4 PUSH4 0x219F5D17 PUSH1 0xE0 SHL DUP6 MSTORE DUP1 MLOAD PUSH1 0x4 DUP7 ADD MSTORE PUSH1 0x20 DUP2 ADD MLOAD PUSH1 0x24 DUP7 ADD MSTORE PUSH1 0x40 DUP2 ADD MLOAD PUSH1 0x44 DUP7 ADD MSTORE DUP8 DUP2 ADD MLOAD PUSH1 0x64 DUP7 ADD MSTORE PUSH1 0x80 DUP2 ADD MLOAD PUSH1 0x84 DUP7 ADD MSTORE ADD MLOAD PUSH1 0xA4 DUP5 ADD MSTORE GAS CALL SWAP1 DUP2 ISZERO PUSH2 0x4DB JUMPI PUSH1 0x0 SWAP3 PUSH1 0x0 SWAP2 PUSH1 0x0 SWAP4 PUSH2 0x465 JUMPI JUMPDEST POP SWAP1 PUSH1 0x4 PUSH1 0x60 SWAP5 SWAP4 SWAP3 PUSH32 0xC3E53DD207DA84F2073EF5171A1DB111B37E6D53D8A7983F0CF8A7AE89D9CD63 SWAP7 PUSH1 0x24 CALLDATALOAD DUP5 LT PUSH2 0x442 JUMPI JUMPDEST PUSH1 0x44 CALLDATALOAD DUP6 LT PUSH2 0x41A JUMPI JUMPDEST POP PUSH1 0x3 DUP2 ADD PUSH2 0x3E9 DUP5 DUP3 SLOAD PUSH2 0x184A JUMP JUMPDEST SWAP1 SSTORE ADD PUSH2 0x3F7 DUP4 DUP3 SLOAD PUSH2 0x184A JUMP JUMPDEST SWAP1 SSTORE PUSH1 0x1 PUSH1 0x1 PUSH1 0x80 SHL SUB PUSH1 0x40 MLOAD SWAP4 AND DUP4 MSTORE PUSH1 0x20 DUP4 ADD MSTORE PUSH1 0x40 DUP3 ADD MSTORE LOG2 PUSH1 0x1 PUSH1 0x0 SSTORE STOP JUMPDEST SLOAD PUSH2 0x43C SWAP1 PUSH1 0x1 PUSH1 0x1 PUSH1 0xA0 SHL SUB AND PUSH2 0x434 DUP7 PUSH1 0x44 CALLDATALOAD PUSH2 0x186B JUMP JUMPDEST SWAP1 CALLER SWAP1 PUSH2 0x1912 JUMP JUMPDEST DUP9 PUSH2 0x3D9 JUMP JUMPDEST PUSH1 0x1 DUP3 ADD SLOAD PUSH2 0x460 SWAP1 PUSH1 0x1 PUSH1 0x1 PUSH1 0xA0 SHL SUB AND PUSH2 0x434 DUP7 PUSH1 0x24 CALLDATALOAD PUSH2 0x186B JUMP JUMPDEST PUSH2 0x3CF JUMP JUMPDEST SWAP3 POP SWAP3 POP POP PUSH1 0x60 DUP2 RETURNDATASIZE PUSH1 0x60 GT PUSH2 0x4D3 JUMPI JUMPDEST DUP2 PUSH2 0x483 PUSH1 0x60 SWAP4 DUP4 PUSH2 0x1814 JUMP JUMPDEST DUP2 ADD SUB SLT PUSH2 0x120 JUMPI PUSH32 0xC3E53DD207DA84F2073EF5171A1DB111B37E6D53D8A7983F0CF8A7AE89D9CD63 SWAP3 PUSH1 0x60 SWAP3 PUSH1 0x4 PUSH2 0x4BB DUP5 PUSH2 0x1857 JUMP JUMPDEST PUSH1 0x20 DUP6 ADD MLOAD PUSH1 0x40 SWAP1 SWAP6 ADD MLOAD SWAP4 SWAP7 POP SWAP5 POP SWAP2 SWAP3 SWAP2 PUSH2 0x39A JUMP JUMPDEST RETURNDATASIZE SWAP2 POP PUSH2 0x476 JUMP JUMPDEST PUSH1 0x40 MLOAD RETURNDATASIZE PUSH1 0x0 DUP3 RETURNDATACOPY RETURNDATASIZE SWAP1 REVERT JUMPDEST PUSH4 0x4E487B71 PUSH1 0xE0 SHL PUSH1 0x0 MSTORE PUSH1 0x41 PUSH1 0x4 MSTORE PUSH1 0x24 PUSH1 0x0 REVERT JUMPDEST PUSH4 0x4E487B71 PUSH1 0xE0 SHL PUSH1 0x0 MSTORE PUSH1 0x11 PUSH1 0x4 MSTORE PUSH1 0x24 PUSH1 0x0 REVERT JUMPDEST POP PUSH1 0x44 CALLDATALOAD ISZERO ISZERO PUSH2 0x253 JUMP JUMPDEST CALLVALUE PUSH2 0x120 JUMPI PUSH1 0x0 CALLDATASIZE PUSH1 0x3 NOT ADD SLT PUSH2 0x120 JUMPI PUSH1 0x20 PUSH1 0x2 SLOAD PUSH1 0x40 MLOAD SWAP1 DUP2 MSTORE RETURN JUMPDEST CALLVALUE PUSH2 0x120 JUMPI PUSH1 0x0 CALLDATASIZE PUSH1 0x3 NOT ADD SLT PUSH2 0x120 JUMPI PUSH1 0x4 SLOAD PUSH1 0x40 MLOAD PUSH1 0x1 PUSH1 0x1 PUSH1 0xA0 SHL SUB SWAP1 SWAP2 AND DUP2 MSTORE PUSH1 0x20 SWAP1 RETURN JUMPDEST CALLVALUE PUSH2 0x120 JUMPI PUSH1 0x20 CALLDATASIZE PUSH1 0x3 NOT ADD SLT PUSH2 0x120 JUMPI PUSH1 0x4 CALLDATALOAD PUSH2 0x581 PUSH2 0x18BC JUMP JUMPDEST PUSH2 0x58E PUSH1 0x2 SLOAD DUP3 LT PUSH2 0x1CC2 JUMP JUMPDEST PUSH1 0x1 SLOAD PUSH1 0x1 PUSH1 0x1 PUSH1 0xA0 SHL SUB SWAP1 PUSH1 0x8 SHR DUP2 AND CALLER SUB PUSH2 0x67C JUMPI PUSH1 0x40 PUSH2 0x600 PUSH1 0x0 SWAP3 DUP5 DUP5 MSTORE PUSH1 0x5 PUSH1 0x20 MSTORE DUP3 DUP5 KECCAK256 SLOAD SWAP1 DUP4 MLOAD SWAP2 PUSH2 0x5C6 DUP4 PUSH2 0x17F8 JUMP JUMPDEST DUP3 MSTORE CALLER PUSH1 0x20 DUP4 ADD MSTORE PUSH1 0x1 PUSH1 0x1 PUSH1 0x80 SHL SUB DUP1 DUP6 DUP5 ADD MSTORE PUSH1 0x60 DUP4 ADD MSTORE PUSH1 0x3 SLOAD AND SWAP1 DUP4 MLOAD SWAP5 DUP6 DUP1 SWAP5 DUP2 SWAP4 PUSH4 0xFC6F7865 PUSH1 0xE0 SHL DUP4 MSTORE PUSH1 0x4 DUP4 ADD PUSH2 0x1D5D JUMP JUMPDEST SUB SWAP3 GAS CALL DUP1 ISZERO PUSH2 0x4DB JUMPI PUSH32 0xA54E6C2FC0861AA9C991B26891D71059D517983B9E84B91020F42609C452EB9D SWAP2 PUSH1 0x40 SWAP2 PUSH1 0x0 SWAP2 PUSH1 0x0 SWAP2 PUSH2 0x64D JUMPI JUMPDEST POP DUP3 MLOAD SWAP2 DUP3 MSTORE PUSH1 0x20 DUP3 ADD MSTORE LOG2 PUSH1 0x1 PUSH1 0x0 SSTORE STOP JUMPDEST SWAP1 POP PUSH2 0x66F SWAP2 POP DUP3 RETURNDATASIZE DUP5 GT PUSH2 0x675 JUMPI JUMPDEST PUSH2 0x667 DUP2 DUP4 PUSH2 0x1814 JUMP JUMPDEST DUP2 ADD SWAP1 PUSH2 0x1D47 JUMP JUMPDEST DUP6 PUSH2 0x63A JUMP JUMPDEST POP RETURNDATASIZE PUSH2 0x65D JUMP JUMPDEST PUSH1 0x40 MLOAD PUSH3 0x461BCD PUSH1 0xE5 SHL DUP2 MSTORE PUSH1 0x20 PUSH1 0x4 DUP3 ADD MSTORE PUSH1 0x1B PUSH1 0x24 DUP3 ADD MSTORE PUSH32 0x4F6E6C79206F776E65722063616E20636F6C6C65637420666565730000000000 PUSH1 0x44 DUP3 ADD MSTORE PUSH1 0x64 SWAP1 REVERT JUMPDEST CALLVALUE PUSH2 0x120 JUMPI PUSH1 0x20 CALLDATASIZE PUSH1 0x3 NOT ADD SLT PUSH2 0x120 JUMPI PUSH1 0x4 CALLDATALOAD PUSH1 0x0 MSTORE PUSH1 0x5 PUSH1 0x20 MSTORE PUSH1 0x40 PUSH1 0x0 KECCAK256 DUP1 SLOAD PUSH2 0x738 PUSH1 0x1 DUP1 PUSH1 0xA0 SHL SUB DUP1 PUSH1 0x1 DUP6 ADD SLOAD AND SWAP4 PUSH1 0x2 DUP2 ADD SLOAD SWAP5 PUSH1 0x3 DUP3 ADD SLOAD SWAP1 PUSH1 0xFF PUSH1 0x5 PUSH1 0x4 DUP6 ADD SLOAD SWAP5 ADD SLOAD AND SWAP4 PUSH1 0x40 MLOAD SWAP8 DUP9 SWAP8 DUP2 PUSH1 0xD0 SHR PUSH1 0x2 SIGNEXTEND SWAP4 DUP3 PUSH1 0xB8 SHR PUSH1 0x2 SIGNEXTEND SWAP4 PUSH3 0xFFFFFF DUP5 PUSH1 0xA0 SHR AND SWAP4 AND SWAP2 DUP11 PUSH2 0x16D5 JUMP JUMPDEST SUB SWAP1 RETURN JUMPDEST CALLVALUE PUSH2 0x120 JUMPI PUSH1 0x40 CALLDATASIZE PUSH1 0x3 NOT ADD SLT PUSH2 0x120 JUMPI PUSH1 0x4 CALLDATALOAD PUSH1 0x24 DUP1 CALLDATALOAD PUSH1 0x1 PUSH1 0x1 PUSH1 0x80 SHL SUB DUP1 DUP3 AND DUP1 SWAP3 SUB PUSH2 0x120 JUMPI PUSH2 0x76E PUSH2 0x18BC JUMP JUMPDEST PUSH2 0x77B PUSH1 0x2 SLOAD DUP6 LT PUSH2 0x1CC2 JUMP JUMPDEST PUSH1 0x1 SLOAD PUSH1 0x1 PUSH1 0x1 PUSH1 0xA0 SHL SUB SWAP3 SWAP1 PUSH1 0x8 SHR DUP4 AND CALLER SUB PUSH2 0x99A JUMPI DUP5 PUSH1 0x0 MSTORE PUSH1 0x5 PUSH1 0x20 MSTORE PUSH1 0x40 PUSH1 0x0 KECCAK256 SWAP4 PUSH2 0x7B2 PUSH1 0xFF PUSH1 0x5 DUP8 ADD SLOAD AND PUSH2 0x1D06 JUMP JUMPDEST DUP2 ISZERO PUSH2 0x95E JUMPI DUP5 SLOAD SWAP1 PUSH2 0xE10 TIMESTAMP ADD DUP1 TIMESTAMP GT PUSH2 0x949 JUMPI PUSH1 0x40 MLOAD SWAP3 PUSH1 0xA0 DUP5 ADD DUP5 DUP2 LT PUSH8 0xFFFFFFFFFFFFFFFF DUP3 GT OR PUSH2 0x934 JUMPI DUP7 SWAP6 SWAP4 PUSH1 0xA4 SWAP4 PUSH1 0x40 SWAP7 SWAP4 PUSH1 0x0 SWAP4 DUP9 MSTORE DUP5 MSTORE PUSH1 0x20 DUP5 ADD SWAP6 DUP7 MSTORE DUP7 DUP5 ADD DUP4 DUP2 MSTORE PUSH1 0x60 DUP6 ADD SWAP1 DUP5 DUP3 MSTORE PUSH1 0x80 DUP7 ADD SWAP3 DUP4 MSTORE DUP12 PUSH1 0x3 SLOAD AND SWAP4 DUP10 MLOAD SWAP12 DUP13 SWAP10 DUP11 SWAP9 PUSH4 0x624E65F PUSH1 0xE1 SHL DUP11 MSTORE MLOAD PUSH1 0x4 DUP11 ADD MSTORE MLOAD AND SWAP1 DUP8 ADD MSTORE MLOAD PUSH1 0x44 DUP7 ADD MSTORE MLOAD PUSH1 0x64 DUP6 ADD MSTORE MLOAD PUSH1 0x84 DUP5 ADD MSTORE GAS CALL SWAP3 DUP4 ISZERO PUSH2 0x4DB JUMPI PUSH1 0x0 SWAP5 DUP6 SWAP4 DUP7 SWAP6 PUSH2 0x905 JUMPI JUMPDEST POP SWAP2 PUSH2 0x8A2 SWAP2 PUSH1 0x40 SWAP4 SLOAD SWAP2 DUP5 MLOAD SWAP3 PUSH2 0x870 DUP5 PUSH2 0x17F8 JUMP JUMPDEST DUP4 MSTORE CALLER PUSH1 0x20 DUP5 ADD MSTORE DUP1 DUP6 DUP5 ADD MSTORE PUSH1 0x60 DUP4 ADD MSTORE PUSH1 0x3 SLOAD AND SWAP1 DUP4 MLOAD SWAP7 DUP8 DUP1 SWAP5 DUP2 SWAP4 PUSH4 0xFC6F7865 PUSH1 0xE0 SHL DUP4 MSTORE PUSH1 0x4 DUP4 ADD PUSH2 0x1D5D JUMP JUMPDEST SUB SWAP3 GAS CALL SWAP2 DUP3 ISZERO PUSH2 0x4DB JUMPI PUSH32 0x9FFF09BDB699560E15269E01134083F4348F16BA2A38E7DCCA3A2F0DFCFE639F SWAP4 PUSH1 0x40 SWAP4 PUSH2 0x8E9 JUMPI POP DUP3 MLOAD SWAP2 DUP3 MSTORE PUSH1 0x20 DUP3 ADD MSTORE LOG2 PUSH1 0x1 PUSH1 0x0 SSTORE STOP JUMPDEST PUSH2 0x8FF SWAP1 DUP5 RETURNDATASIZE DUP7 GT PUSH2 0x675 JUMPI PUSH2 0x667 DUP2 DUP4 PUSH2 0x1814 JUMP JUMPDEST POP PUSH2 0x63A JUMP JUMPDEST PUSH1 0x40 SWAP4 SWAP2 SWAP6 POP PUSH2 0x8A2 SWAP3 SWAP5 POP PUSH2 0x927 SWAP1 DUP5 RETURNDATASIZE DUP7 GT PUSH2 0x675 JUMPI PUSH2 0x667 DUP2 DUP4 PUSH2 0x1814 JUMP JUMPDEST SWAP5 SWAP1 SWAP5 SWAP6 SWAP2 SWAP4 POP SWAP2 PUSH2 0x859 JUMP JUMPDEST DUP4 PUSH4 0x4E487B71 PUSH1 0xE0 SHL PUSH1 0x0 MSTORE PUSH1 0x41 PUSH1 0x4 MSTORE PUSH1 0x0 REVERT JUMPDEST POP PUSH4 0x4E487B71 PUSH1 0xE0 SHL PUSH1 0x0 SWAP1 DUP2 MSTORE PUSH1 0x11 PUSH1 0x4 MSTORE REVERT JUMPDEST PUSH1 0x64 SWAP1 PUSH1 0x15 PUSH1 0x40 MLOAD SWAP2 PUSH3 0x461BCD PUSH1 0xE5 SHL DUP4 MSTORE PUSH1 0x20 PUSH1 0x4 DUP5 ADD MSTORE DUP3 ADD MSTORE PUSH21 0x4C6971756964697479206D757374206265203E203 PUSH1 0x5C SHL PUSH1 0x44 DUP3 ADD MSTORE REVERT JUMPDEST PUSH1 0x40 MLOAD PUSH3 0x461BCD PUSH1 0xE5 SHL DUP2 MSTORE PUSH1 0x20 PUSH1 0x4 DUP3 ADD MSTORE PUSH1 0x17 DUP2 DUP7 ADD MSTORE PUSH32 0x4F6E6C79206F776E65722063616E206465637265617365000000000000000000 PUSH1 0x44 DUP3 ADD MSTORE PUSH1 0x64 SWAP1 REVERT JUMPDEST CALLVALUE PUSH2 0x120 JUMPI PUSH1 0x0 CALLDATASIZE PUSH1 0x3 NOT ADD SLT PUSH2 0x120 JUMPI PUSH1 0x20 PUSH1 0x40 MLOAD PUSH2 0xBB8 DUP2 MSTORE RETURN JUMPDEST CALLVALUE PUSH2 0x120 JUMPI PUSH1 0x0 CALLDATASIZE PUSH1 0x3 NOT ADD SLT PUSH2 0x120 JUMPI PUSH1 0x1 SLOAD PUSH1 0x40 MLOAD PUSH1 0x8 SWAP2 SWAP1 SWAP2 SHR PUSH1 0x1 PUSH1 0x1 PUSH1 0xA0 SHL SUB AND DUP2 MSTORE PUSH1 0x20 SWAP1 RETURN JUMPDEST CALLVALUE PUSH2 0x120 JUMPI PUSH1 0x0 CALLDATASIZE PUSH1 0x3 NOT ADD SLT PUSH2 0x120 JUMPI PUSH2 0xA41 PUSH2 0x175B JUMP JUMPDEST PUSH2 0xA49 PUSH2 0x1878 JUMP JUMPDEST PUSH1 0x1 PUSH1 0xFF NOT DUP2 SLOAD AND OR PUSH1 0x1 SSTORE PUSH32 0x62E78CEA01BEE320CD4E420270B5EA74000D11B0C9F74754EBDBFC544B05A258 PUSH1 0x20 PUSH1 0x40 MLOAD CALLER DUP2 MSTORE LOG1 STOP JUMPDEST CALLVALUE PUSH2 0x120 JUMPI PUSH1 0x0 CALLDATASIZE PUSH1 0x3 NOT ADD SLT PUSH2 0x120 JUMPI PUSH1 0x3 SLOAD PUSH1 0x40 MLOAD PUSH1 0x1 PUSH1 0x1 PUSH1 0xA0 SHL SUB SWAP1 SWAP2 AND DUP2 MSTORE PUSH1 0x20 SWAP1 RETURN JUMPDEST CALLVALUE PUSH2 0x120 JUMPI PUSH1 0x0 CALLDATASIZE PUSH1 0x3 NOT ADD SLT PUSH2 0x120 JUMPI PUSH1 0x20 PUSH1 0x40 MLOAD PUSH2 0x2710 DUP2 MSTORE RETURN JUMPDEST CALLVALUE PUSH2 0x120 JUMPI PUSH1 0x0 CALLDATASIZE PUSH1 0x3 NOT ADD SLT PUSH2 0x120 JUMPI PUSH2 0xAE0 PUSH2 0x175B JUMP JUMPDEST PUSH1 0x1 DUP1 SLOAD PUSH2 0x100 PUSH1 0x1 PUSH1 0xA8 SHL SUB NOT DUP2 AND SWAP1 SWAP2 SSTORE PUSH1 0x0 SWAP1 PUSH1 0x8 SHR PUSH1 0x1 PUSH1 0x1 PUSH1 0xA0 SHL SUB AND PUSH32 0x8BE0079C531659141344CD1FD0A4F28419497F9722A3DAAFE3B4186F6B6457E0 DUP3 DUP1 LOG3 STOP JUMPDEST CALLVALUE PUSH2 0x120 JUMPI PUSH1 0x40 CALLDATASIZE PUSH1 0x3 NOT ADD SLT PUSH2 0x120 JUMPI PUSH2 0xB41 PUSH2 0x16BF JUMP JUMPDEST PUSH1 0x1 PUSH1 0x1 PUSH1 0xA0 SHL SUB AND PUSH1 0x0 SWAP1 DUP2 MSTORE PUSH1 0x6 PUSH1 0x20 MSTORE PUSH1 0x40 SWAP1 KECCAK256 DUP1 SLOAD PUSH1 0x24 CALLDATALOAD SWAP2 SWAP1 DUP3 LT ISZERO PUSH2 0x120 JUMPI PUSH1 0x20 SWAP2 PUSH2 0xB72 SWAP2 PUSH2 0x172D JUMP JUMPDEST SWAP1 SLOAD PUSH1 0x40 MLOAD SWAP2 PUSH1 0x3 SHL SHR DUP2 MSTORE RETURN JUMPDEST CALLVALUE PUSH2 0x120 JUMPI PUSH1 0x0 CALLDATASIZE PUSH1 0x3 NOT ADD SLT PUSH2 0x120 JUMPI PUSH1 0x20 PUSH1 0xFF PUSH1 0x1 SLOAD AND PUSH1 0x40 MLOAD SWAP1 ISZERO ISZERO DUP2 MSTORE RETURN JUMPDEST CALLVALUE PUSH2 0x120 JUMPI PUSH1 0x20 CALLDATASIZE PUSH1 0x3 NOT ADD SLT PUSH2 0x120 JUMPI PUSH1 0x4 CALLDATALOAD PUSH2 0xBC4 PUSH1 0x2 SLOAD DUP3 LT PUSH2 0x1CC2 JUMP JUMPDEST PUSH1 0x0 MSTORE PUSH1 0x5 PUSH1 0x20 MSTORE PUSH1 0x40 PUSH1 0x0 KECCAK256 DUP1 SLOAD PUSH2 0x738 PUSH1 0x1 DUP1 PUSH1 0xA0 SHL SUB DUP1 PUSH1 0x1 DUP6 ADD SLOAD AND SWAP4 PUSH1 0x2 DUP2 ADD SLOAD SWAP5 PUSH1 0x3 DUP3 ADD SLOAD SWAP1 PUSH1 0xFF PUSH1 0x5 PUSH1 0x4 DUP6 ADD SLOAD SWAP5 ADD SLOAD AND SWAP4 PUSH1 0x40 MLOAD SWAP8 DUP9 SWAP8 DUP2 PUSH1 0xD0 SHR PUSH1 0x2 SIGNEXTEND SWAP4 DUP3 PUSH1 0xB8 SHR PUSH1 0x2 SIGNEXTEND SWAP4 PUSH3 0xFFFFFF DUP5 PUSH1 0xA0 SHR AND SWAP4 AND SWAP2 DUP11 PUSH2 0x16D5 JUMP JUMPDEST CALLVALUE PUSH2 0x120 JUMPI PUSH1 0x0 CALLDATASIZE PUSH1 0x3 NOT ADD SLT PUSH2 0x120 JUMPI PUSH2 0xC40 PUSH2 0x175B JUMP JUMPDEST PUSH1 0x1 SLOAD PUSH1 0xFF DUP2 AND ISZERO PUSH2 0xC7F JUMPI PUSH1 0xFF NOT AND PUSH1 0x1 SSTORE PUSH32 0x5DB9EE0A495BF2E6FF9C91A7834C1BA4FDD244A5E8AA4E537BD38AEAE4B073AA PUSH1 0x20 PUSH1 0x40 MLOAD CALLER DUP2 MSTORE LOG1 STOP JUMPDEST PUSH1 0x40 MLOAD PUSH3 0x461BCD PUSH1 0xE5 SHL DUP2 MSTORE PUSH1 0x20 PUSH1 0x4 DUP3 ADD MSTORE PUSH1 0x14 PUSH1 0x24 DUP3 ADD MSTORE PUSH20 0x14185D5CD8589B194E881B9BDD081C185D5CD959 PUSH1 0x62 SHL PUSH1 0x44 DUP3 ADD MSTORE PUSH1 0x64 SWAP1 REVERT JUMPDEST CALLVALUE PUSH2 0x120 JUMPI PUSH1 0xE0 CALLDATASIZE PUSH1 0x3 NOT ADD SLT PUSH2 0x120 JUMPI PUSH2 0xCD4 PUSH2 0x16BF JUMP JUMPDEST PUSH1 0x24 CALLDATALOAD PUSH1 0x1 PUSH1 0x1 PUSH1 0xA0 SHL SUB DUP2 AND SWAP1 SUB PUSH2 0x120 JUMPI PUSH3 0xFFFFFF PUSH1 0x44 CALLDATALOAD AND PUSH1 0x44 CALLDATALOAD SUB PUSH2 0x120 JUMPI PUSH1 0xA4 CALLDATALOAD DUP1 PUSH1 0x2 SIGNEXTEND DUP2 SUB PUSH2 0x120 JUMPI PUSH1 0xC4 CALLDATALOAD DUP1 PUSH1 0x2 SIGNEXTEND DUP2 SUB PUSH2 0x120 JUMPI PUSH2 0xD19 PUSH2 0x18BC JUMP JUMPDEST PUSH2 0xD21 PUSH2 0x1878 JUMP JUMPDEST PUSH1 0x84 CALLDATALOAD SWAP3 PUSH1 0x24 CALLDATALOAD SWAP3 PUSH1 0x64 CALLDATALOAD SWAP3 SWAP1 SWAP2 SWAP1 DUP6 DUP3 PUSH1 0x1 PUSH1 0x1 PUSH1 0xA0 SHL SUB DUP2 AND DUP1 ISZERO ISZERO DUP1 PUSH2 0x14BC JUMPI JUMPDEST ISZERO PUSH2 0x1486 JUMPI PUSH1 0x24 CALLDATALOAD PUSH1 0x1 PUSH1 0x1 PUSH1 0xA0 SHL SUB AND DUP2 EQ PUSH2 0x1441 JUMPI DUP7 ISZERO ISZERO DUP1 PUSH2 0x1438 JUMPI JUMPDEST PUSH2 0xD6E SWAP1 PUSH2 0x17B6 JUMP JUMPDEST PUSH2 0x1F4 PUSH3 0xFFFFFF PUSH1 0x44 CALLDATALOAD AND EQ DUP1 ISZERO PUSH2 0x1426 JUMPI JUMPDEST DUP1 ISZERO PUSH2 0x1414 JUMPI JUMPDEST ISZERO PUSH2 0x13DC JUMPI DUP4 PUSH1 0x2 SIGNEXTEND DUP7 PUSH1 0x2 SIGNEXTEND SLT ISZERO PUSH2 0x13A2 JUMPI PUSH1 0x24 CALLDATALOAD PUSH1 0x1 PUSH1 0x1 PUSH1 0xA0 SHL SUB AND LT PUSH2 0x1390 JUMPI JUMPDEST POP POP PUSH1 0x4 DUP1 SLOAD PUSH1 0x40 MLOAD PUSH4 0xB4C7741 PUSH1 0xE1 SHL DUP2 MSTORE PUSH1 0x1 PUSH1 0x1 PUSH1 0xA0 SHL SUB DUP6 DUP2 AND SWAP4 DUP3 ADD SWAP4 SWAP1 SWAP4 MSTORE DUP8 DUP4 AND PUSH1 0x24 DUP3 ADD MSTORE PUSH1 0x44 DUP1 CALLDATALOAD PUSH3 0xFFFFFF AND SWAP1 DUP3 ADD MSTORE SWAP2 AND SWAP1 PUSH1 0x20 DUP2 PUSH1 0x64 DUP2 DUP6 GAS STATICCALL SWAP1 DUP2 ISZERO PUSH2 0x4DB JUMPI PUSH1 0x0 SWAP2 PUSH2 0x1356 JUMPI JUMPDEST POP PUSH1 0x1 PUSH1 0x1 PUSH1 0xA0 SHL SUB AND ISZERO PUSH2 0x1279 JUMPI JUMPDEST POP PUSH2 0xE28 DUP5 ADDRESS CALLER PUSH1 0x1 PUSH1 0x1 PUSH1 0xA0 SHL SUB DUP7 AND PUSH2 0x1955 JUMP JUMPDEST PUSH2 0xE3D DUP7 ADDRESS CALLER PUSH1 0x1 PUSH1 0x1 PUSH1 0xA0 SHL SUB DUP10 AND PUSH2 0x1955 JUMP JUMPDEST PUSH1 0x3 SLOAD PUSH2 0xE59 SWAP1 DUP6 SWAP1 PUSH1 0x1 PUSH1 0x1 PUSH1 0xA0 SHL SUB SWAP1 DUP2 AND SWAP1 DUP6 AND PUSH2 0x19AE JUMP JUMPDEST PUSH1 0x3 SLOAD PUSH2 0xE75 SWAP1 DUP8 SWAP1 PUSH1 0x1 PUSH1 0x1 PUSH1 0xA0 SHL SUB SWAP1 DUP2 AND SWAP1 DUP9 AND PUSH2 0x19AE JUMP JUMPDEST PUSH2 0xE10 TIMESTAMP ADD TIMESTAMP GT PUSH2 0x4FD JUMPI PUSH1 0x40 MLOAD SWAP2 DUP3 PUSH2 0x160 DUP2 ADD LT PUSH8 0xFFFFFFFFFFFFFFFF PUSH2 0x160 DUP6 ADD GT OR PUSH2 0x4E7 JUMPI PUSH2 0x160 DUP4 ADD PUSH1 0x40 MSTORE PUSH1 0x1 DUP1 PUSH1 0xA0 SHL SUB DUP2 AND DUP4 MSTORE PUSH1 0x1 DUP1 PUSH1 0xA0 SHL SUB DUP7 AND PUSH1 0x20 DUP5 ADD MSTORE PUSH3 0xFFFFFF PUSH1 0x44 CALLDATALOAD AND PUSH1 0x40 DUP5 ADD MSTORE DUP4 PUSH1 0x2 SIGNEXTEND PUSH1 0x60 DUP5 ADD MSTORE DUP2 PUSH1 0x2 SIGNEXTEND PUSH1 0x80 DUP5 ADD MSTORE DUP5 PUSH1 0xA0 DUP5 ADD MSTORE DUP7 PUSH1 0xC0 DUP5 ADD MSTORE PUSH1 0x0 PUSH1 0xE0 DUP5 ADD MSTORE PUSH1 0x0 PUSH2 0x100 DUP5 ADD MSTORE ADDRESS PUSH2 0x120 DUP5 ADD MSTORE PUSH2 0xE10 TIMESTAMP ADD PUSH2 0x140 DUP5 ADD MSTORE PUSH1 0x80 PUSH2 0x140 PUSH2 0x164 PUSH1 0x1 DUP1 PUSH1 0xA0 SHL SUB PUSH1 0x3 SLOAD AND SWAP6 PUSH1 0x0 PUSH1 0x40 MLOAD SWAP8 DUP9 SWAP5 DUP6 SWAP4 PUSH4 0x4418B22B PUSH1 0xE1 SHL DUP6 MSTORE PUSH1 0x1 DUP1 PUSH1 0xA0 SHL SUB DUP2 MLOAD AND PUSH1 0x4 DUP7 ADD MSTORE PUSH1 0x1 DUP1 PUSH1 0xA0 SHL SUB PUSH1 0x20 DUP3 ADD MLOAD AND PUSH1 0x24 DUP7 ADD MSTORE PUSH3 0xFFFFFF PUSH1 0x40 DUP3 ADD MLOAD AND PUSH1 0x44 DUP7 ADD MSTORE PUSH1 0x60 DUP2 ADD MLOAD PUSH1 0x2 SIGNEXTEND PUSH1 0x64 DUP7 ADD MSTORE DUP8 DUP2 ADD MLOAD PUSH1 0x2 SIGNEXTEND PUSH1 0x84 DUP7 ADD MSTORE PUSH1 0xA0 DUP2 ADD MLOAD PUSH1 0xA4 DUP7 ADD MSTORE PUSH1 0xC0 DUP2 ADD MLOAD PUSH1 0xC4 DUP7 ADD MSTORE PUSH1 0xE0 DUP2 ADD MLOAD PUSH1 0xE4 DUP7 ADD MSTORE PUSH2 0x100 DUP2 ADD MLOAD PUSH2 0x104 DUP7 ADD MSTORE PUSH1 0x1 DUP1 PUSH1 0xA0 SHL SUB PUSH2 0x120 DUP3 ADD MLOAD AND PUSH2 0x124 DUP7 ADD MSTORE ADD MLOAD PUSH2 0x144 DUP5 ADD MSTORE GAS CALL SWAP7 DUP8 ISZERO PUSH2 0x4DB JUMPI PUSH1 0x0 SWAP6 PUSH1 0x0 SWAP5 PUSH1 0x0 SWAP10 PUSH2 0x1224 JUMPI JUMPDEST POP SWAP1 DUP5 DUP3 DUP11 SWAP4 DUP3 LT PUSH2 0x1200 JUMPI JUMPDEST POP POP DUP1 DUP3 LT PUSH2 0x11DC JUMPI JUMPDEST POP POP PUSH1 0x2 SLOAD SWAP7 PUSH1 0x40 MLOAD DUP1 PUSH2 0x120 DUP2 ADD LT PUSH8 0xFFFFFFFFFFFFFFFF PUSH2 0x120 DUP4 ADD GT OR PUSH2 0x4E7 JUMPI PUSH1 0x5 DUP2 PUSH2 0x120 DUP12 SWAP4 ADD PUSH1 0x40 MSTORE DUP9 DUP2 MSTORE PUSH1 0x20 DUP2 ADD PUSH1 0x1 DUP1 PUSH1 0xA0 SHL SUB DUP7 AND DUP2 MSTORE PUSH1 0x40 DUP3 ADD PUSH1 0x1 DUP1 PUSH1 0xA0 SHL SUB DUP13 AND DUP2 MSTORE PUSH1 0x60 DUP4 ADD SWAP1 PUSH3 0xFFFFFF PUSH1 0x44 CALLDATALOAD AND DUP3 MSTORE PUSH1 0x80 DUP5 ADD SWAP2 DUP12 PUSH1 0x2 SIGNEXTEND DUP4 MSTORE PUSH1 0xA0 DUP6 ADD DUP11 PUSH1 0x2 SIGNEXTEND DUP2 MSTORE PUSH1 0xC0 DUP7 ADD SWAP4 DUP13 DUP6 MSTORE PUSH1 0xE0 DUP8 ADD SWAP6 DUP11 DUP8 MSTORE PUSH2 0x100 DUP9 ADD SWAP10 PUSH1 0x1 DUP12 MSTORE PUSH1 0x0 MSTORE DUP9 PUSH1 0x20 MSTORE PUSH1 0x40 PUSH1 0x0 KECCAK256 SWAP8 MLOAD DUP9 SSTORE PUSH1 0x1 DUP9 ADD SWAP1 PUSH1 0x1 DUP1 PUSH1 0xA0 SHL SUB SWAP1 MLOAD AND PUSH12 0xFFFFFFFFFFFFFFFFFFFFFFFF PUSH1 0xA0 SHL DUP3 SLOAD AND OR SWAP1 SSTORE PUSH1 0x2 DUP8 ADD SWAP4 PUSH1 0x1 DUP1 PUSH1 0xA0 SHL SUB SWAP1 MLOAD AND DUP5 SLOAD SWAP4 PUSH3 0xFFFFFF PUSH1 0xA0 SHL SWAP1 MLOAD PUSH1 0xA0 SHL AND SWAP2 MLOAD PUSH1 0xB8 SHL SWAP3 MLOAD PUSH1 0xD0 SHL PUSH3 0xFFFFFF PUSH1 0xD0 SHL AND SWAP4 PUSH3 0xFFFFFF PUSH1 0xE8 SHL AND OR OR SWAP1 PUSH3 0xFFFFFF PUSH1 0xB8 SHL AND OR OR SWAP1 SSTORE MLOAD PUSH1 0x3 DUP4 ADD SSTORE MLOAD PUSH1 0x4 DUP3 ADD SSTORE ADD SWAP1 MLOAD ISZERO ISZERO PUSH1 0xFF DUP1 NOT DUP4 SLOAD AND SWAP2 AND OR SWAP1 SSTORE CALLER PUSH1 0x0 MSTORE PUSH1 0x6 PUSH1 0x20 MSTORE PUSH1 0x40 PUSH1 0x0 KECCAK256 SWAP4 DUP5 SLOAD SWAP4 PUSH9 0x10000000000000000 DUP6 LT ISZERO PUSH2 0x4E7 JUMPI DUP10 SWAP7 PUSH2 0x1173 DUP7 PUSH32 0x21D5D179F5246E40EDB16D81F698EE5137599FC06B7DD0B793840C29CDDEE10C SWAP9 PUSH1 0x1 PUSH1 0xA0 SWAP10 ADD DUP2 SSTORE PUSH2 0x172D JUMP JUMPDEST DUP2 SLOAD DUP11 DUP3 PUSH1 0x3 SHL SHL SWAP2 PUSH1 0x0 NOT SWAP1 PUSH1 0x3 SHL SHL NOT AND OR SWAP1 SSTORE PUSH1 0x40 MLOAD SWAP10 PUSH1 0x1 DUP1 DUP9 SHL SUB AND DUP11 MSTORE PUSH1 0x2 SIGNEXTEND PUSH1 0x20 DUP11 ADD MSTORE PUSH1 0x2 SIGNEXTEND PUSH1 0x40 DUP10 ADD MSTORE PUSH1 0x60 DUP9 ADD MSTORE PUSH1 0x80 DUP8 ADD MSTORE PUSH1 0x1 DUP1 DUP4 SHL SUB AND SWAP5 LOG4 PUSH1 0x2 SLOAD SWAP1 PUSH1 0x0 NOT DUP3 EQ PUSH2 0x4FD JUMPI PUSH1 0x1 PUSH1 0x20 SWAP3 ADD PUSH1 0x2 SSTORE PUSH1 0x1 PUSH1 0x0 SSTORE PUSH1 0x40 MLOAD SWAP1 DUP2 MSTORE RETURN JUMPDEST PUSH2 0x11F9 SWAP2 PUSH2 0x11E9 SWAP2 PUSH2 0x186B JUMP JUMPDEST CALLER PUSH1 0x1 PUSH1 0x1 PUSH1 0xA0 SHL SUB DUP10 AND PUSH2 0x1912 JUMP JUMPDEST DUP7 DUP9 PUSH2 0xFF1 JUMP JUMPDEST PUSH2 0x121D SWAP2 PUSH2 0x120D SWAP2 PUSH2 0x186B JUMP JUMPDEST CALLER PUSH1 0x1 PUSH1 0x1 PUSH1 0xA0 SHL SUB DUP7 AND PUSH2 0x1912 JUMP JUMPDEST DUP5 DUP11 PUSH2 0xFE7 JUMP JUMPDEST SWAP7 POP SWAP4 POP SWAP7 POP PUSH1 0x80 DUP6 RETURNDATASIZE PUSH1 0x80 GT PUSH2 0x1271 JUMPI JUMPDEST DUP2 PUSH2 0x1243 PUSH1 0x80 SWAP4 DUP4 PUSH2 0x1814 JUMP JUMPDEST DUP2 ADD SUB SLT PUSH2 0x120 JUMPI DUP5 MLOAD SWAP3 PUSH2 0x125A PUSH1 0x20 DUP8 ADD PUSH2 0x1857 JUMP JUMPDEST POP PUSH1 0x40 DUP7 ADD MLOAD PUSH1 0x60 SWAP1 SWAP7 ADD MLOAD SWAP8 SWAP4 SWAP6 SWAP4 SWAP1 DUP5 PUSH2 0xFDA JUMP JUMPDEST RETURNDATASIZE SWAP2 POP PUSH2 0x1236 JUMP JUMPDEST PUSH1 0x40 MLOAD PUSH4 0xA1671295 PUSH1 0xE0 SHL DUP2 MSTORE PUSH1 0x1 PUSH1 0x1 PUSH1 0xA0 SHL SUB DUP5 DUP2 AND PUSH1 0x4 DUP4 ADD MSTORE DUP8 AND PUSH1 0x24 DUP3 ADD MSTORE PUSH1 0x44 DUP1 CALLDATALOAD PUSH3 0xFFFFFF AND SWAP1 DUP3 ADD MSTORE SWAP1 PUSH1 0x20 SWAP1 DUP3 SWAP1 DUP2 PUSH1 0x0 DUP2 PUSH1 0x64 DUP2 ADD SUB SWAP3 GAS CALL SWAP1 DUP2 ISZERO PUSH2 0x4DB JUMPI PUSH1 0x0 SWAP2 PUSH2 0x131C JUMPI JUMPDEST POP PUSH1 0x1 PUSH1 0x1 PUSH1 0xA0 SHL SUB AND ISZERO PUSH2 0x12E0 JUMPI DUP7 PUSH2 0xE12 JUMP JUMPDEST PUSH1 0x40 MLOAD PUSH3 0x461BCD PUSH1 0xE5 SHL DUP2 MSTORE PUSH1 0x20 PUSH1 0x4 DUP3 ADD MSTORE PUSH1 0x14 PUSH1 0x24 DUP3 ADD MSTORE PUSH20 0x141BDBDB0818DC99585D1A5BDB8819985A5B1959 PUSH1 0x62 SHL PUSH1 0x44 DUP3 ADD MSTORE PUSH1 0x64 SWAP1 REVERT JUMPDEST SWAP1 POP PUSH1 0x20 DUP2 RETURNDATASIZE PUSH1 0x20 GT PUSH2 0x134E JUMPI JUMPDEST DUP2 PUSH2 0x1337 PUSH1 0x20 SWAP4 DUP4 PUSH2 0x1814 JUMP JUMPDEST DUP2 ADD SUB SLT PUSH2 0x120 JUMPI PUSH2 0x1348 SWAP1 PUSH2 0x1836 JUMP JUMPDEST DUP8 PUSH2 0x12CB JUMP JUMPDEST RETURNDATASIZE SWAP2 POP PUSH2 0x132A JUMP JUMPDEST SWAP1 POP PUSH1 0x20 DUP2 RETURNDATASIZE PUSH1 0x20 GT PUSH2 0x1388 JUMPI JUMPDEST DUP2 PUSH2 0x1371 PUSH1 0x20 SWAP4 DUP4 PUSH2 0x1814 JUMP JUMPDEST DUP2 ADD SUB SLT PUSH2 0x120 JUMPI PUSH2 0x1382 SWAP1 PUSH2 0x1836 JUMP JUMPDEST DUP9 PUSH2 0xE02 JUMP JUMPDEST RETURNDATASIZE SWAP2 POP PUSH2 0x1364 JUMP JUMPDEST SWAP5 SWAP7 POP SWAP4 SWAP5 POP PUSH1 0x24 CALLDATALOAD SWAP2 POP DUP7 DUP1 PUSH2 0xDAD JUMP JUMPDEST PUSH1 0x40 MLOAD PUSH3 0x461BCD PUSH1 0xE5 SHL DUP2 MSTORE PUSH1 0x20 PUSH1 0x4 DUP3 ADD MSTORE PUSH1 0x12 PUSH1 0x24 DUP3 ADD MSTORE PUSH18 0x496E76616C6964207469636B2072616E6765 PUSH1 0x70 SHL PUSH1 0x44 DUP3 ADD MSTORE PUSH1 0x64 SWAP1 REVERT JUMPDEST PUSH1 0x40 MLOAD PUSH3 0x461BCD PUSH1 0xE5 SHL DUP2 MSTORE PUSH1 0x20 PUSH1 0x4 DUP3 ADD MSTORE PUSH1 0x10 PUSH1 0x24 DUP3 ADD MSTORE PUSH16 0x24B73B30B634B2103332B2903A34B2B9 PUSH1 0x81 SHL PUSH1 0x44 DUP3 ADD MSTORE PUSH1 0x64 SWAP1 REVERT JUMPDEST POP PUSH2 0x2710 PUSH3 0xFFFFFF PUSH1 0x44 CALLDATALOAD AND EQ PUSH2 0xD88 JUMP JUMPDEST POP PUSH2 0xBB8 PUSH3 0xFFFFFF PUSH1 0x44 CALLDATALOAD AND EQ PUSH2 0xD81 JUMP JUMPDEST POP DUP9 ISZERO ISZERO PUSH2 0xD65 JUMP JUMPDEST PUSH1 0x40 MLOAD PUSH3 0x461BCD PUSH1 0xE5 SHL DUP2 MSTORE PUSH1 0x20 PUSH1 0x4 DUP3 ADD MSTORE PUSH1 0x18 PUSH1 0x24 DUP3 ADD MSTORE PUSH32 0x546F6B656E73206D75737420626520646966666572656E740000000000000000 PUSH1 0x44 DUP3 ADD MSTORE PUSH1 0x64 SWAP1 REVERT JUMPDEST PUSH1 0x40 MLOAD PUSH3 0x461BCD PUSH1 0xE5 SHL DUP2 MSTORE PUSH1 0x20 PUSH1 0x4 DUP3 ADD MSTORE PUSH1 0xE PUSH1 0x24 DUP3 ADD MSTORE PUSH14 0x496E76616C696420746F6B656E73 PUSH1 0x90 SHL PUSH1 0x44 DUP3 ADD MSTORE PUSH1 0x64 SWAP1 REVERT JUMPDEST POP PUSH1 0x24 CALLDATALOAD PUSH1 0x1 PUSH1 0x1 PUSH1 0xA0 SHL SUB AND ISZERO ISZERO PUSH2 0xD45 JUMP JUMPDEST CALLVALUE PUSH2 0x120 JUMPI PUSH1 0x20 DUP1 PUSH1 0x3 NOT CALLDATASIZE ADD SLT PUSH2 0x120 JUMPI PUSH1 0x1 PUSH1 0x1 PUSH1 0xA0 SHL SUB PUSH2 0x14F2 PUSH2 0x16BF JUMP JUMPDEST AND PUSH1 0x0 MSTORE PUSH1 0x6 DUP2 MSTORE PUSH1 0x40 PUSH1 0x0 KECCAK256 PUSH1 0x40 MLOAD SWAP1 DUP2 DUP4 DUP3 SLOAD SWAP2 DUP3 DUP2 MSTORE ADD SWAP1 DUP2 SWAP3 PUSH1 0x0 MSTORE DUP5 PUSH1 0x0 KECCAK256 SWAP1 PUSH1 0x0 JUMPDEST DUP7 DUP3 DUP3 LT PUSH2 0x1570 JUMPI DUP7 DUP7 PUSH2 0x1530 DUP3 DUP9 SUB DUP4 PUSH2 0x1814 JUMP JUMPDEST PUSH1 0x40 MLOAD SWAP3 DUP4 SWAP3 DUP2 DUP5 ADD SWAP1 DUP3 DUP6 MSTORE MLOAD DUP1 SWAP2 MSTORE PUSH1 0x40 DUP5 ADD SWAP3 SWAP2 PUSH1 0x0 JUMPDEST DUP3 DUP2 LT PUSH2 0x1559 JUMPI POP POP POP POP SUB SWAP1 RETURN JUMPDEST DUP4 MLOAD DUP6 MSTORE DUP7 SWAP6 POP SWAP4 DUP2 ADD SWAP4 SWAP3 DUP2 ADD SWAP3 PUSH1 0x1 ADD PUSH2 0x154A JUMP JUMPDEST DUP4 SLOAD DUP6 MSTORE SWAP1 SWAP4 ADD SWAP3 PUSH1 0x1 SWAP3 DUP4 ADD SWAP3 ADD PUSH2 0x151A JUMP JUMPDEST CALLVALUE PUSH2 0x120 JUMPI PUSH1 0x20 CALLDATASIZE PUSH1 0x3 NOT ADD SLT PUSH2 0x120 JUMPI PUSH1 0x4 CALLDATALOAD PUSH2 0x15A5 PUSH1 0x2 SLOAD DUP3 LT PUSH2 0x1CC2 JUMP JUMPDEST PUSH1 0x0 MSTORE PUSH1 0x5 PUSH1 0x20 MSTORE PUSH1 0x40 PUSH1 0x0 KECCAK256 PUSH1 0x1 DUP1 PUSH1 0xA0 SHL SUB PUSH1 0x3 SLOAD AND SWAP1 SLOAD PUSH1 0x40 MLOAD SWAP2 DUP3 SWAP2 PUSH4 0x133F7571 PUSH1 0xE3 SHL DUP4 MSTORE PUSH1 0x4 DUP4 ADD MSTORE DUP2 PUSH1 0x24 PUSH2 0x180 SWAP4 DUP5 SWAP4 GAS STATICCALL SWAP1 DUP2 ISZERO PUSH2 0x4DB JUMPI PUSH1 0x0 SWAP2 PUSH2 0x1602 JUMPI JUMPDEST PUSH1 0x20 DUP3 PUSH1 0x1 PUSH1 0x1 PUSH1 0x80 SHL SUB PUSH1 0x40 MLOAD SWAP2 AND DUP2 MSTORE RETURN JUMPDEST SWAP1 POP DUP2 DUP2 RETURNDATASIZE DUP4 GT PUSH2 0x16B8 JUMPI JUMPDEST PUSH2 0x1618 DUP2 DUP4 PUSH2 0x1814 JUMP JUMPDEST DUP2 ADD SUB SLT PUSH2 0x120 JUMPI DUP1 MLOAD PUSH12 0xFFFFFFFFFFFFFFFFFFFFFFFF DUP2 AND SUB PUSH2 0x120 JUMPI PUSH2 0x1642 PUSH1 0x20 DUP3 ADD PUSH2 0x1836 JUMP JUMPDEST POP PUSH2 0x164F PUSH1 0x40 DUP3 ADD PUSH2 0x1836 JUMP JUMPDEST POP PUSH2 0x165C PUSH1 0x60 DUP3 ADD PUSH2 0x1836 JUMP JUMPDEST POP PUSH1 0x80 DUP2 ADD MLOAD PUSH3 0xFFFFFF DUP2 AND SUB PUSH2 0x120 JUMPI DUP1 PUSH2 0x167C PUSH1 0xA0 PUSH1 0x20 SWAP4 ADD PUSH2 0x1D9B JUMP JUMPDEST POP PUSH2 0x1689 PUSH1 0xC0 DUP3 ADD PUSH2 0x1D9B JUMP JUMPDEST POP PUSH2 0x16B1 PUSH2 0x160 PUSH2 0x169C PUSH1 0xE0 DUP5 ADD PUSH2 0x1857 JUMP JUMPDEST SWAP3 PUSH2 0x16AA PUSH2 0x140 DUP3 ADD PUSH2 0x1857 JUMP JUMPDEST POP ADD PUSH2 0x1857 JUMP JUMPDEST POP DUP3 PUSH2 0x15EE JUMP JUMPDEST POP RETURNDATASIZE PUSH2 0x160E JUMP JUMPDEST PUSH1 0x4 CALLDATALOAD SWAP1 PUSH1 0x1 PUSH1 0x1 PUSH1 0xA0 SHL SUB DUP3 AND DUP3 SUB PUSH2 0x120 JUMPI JUMP JUMPDEST SWAP1 DUP2 MSTORE PUSH1 0x1 PUSH1 0x1 PUSH1 0xA0 SHL SUB SWAP2 DUP3 AND PUSH1 0x20 DUP3 ADD MSTORE SWAP2 AND PUSH1 0x40 DUP3 ADD MSTORE PUSH3 0xFFFFFF SWAP1 SWAP2 AND PUSH1 0x60 DUP3 ADD MSTORE PUSH1 0x2 SWAP2 DUP3 SIGNEXTEND PUSH1 0x80 DUP3 ADD MSTORE SWAP2 SWAP1 SIGNEXTEND PUSH1 0xA0 DUP3 ADD MSTORE PUSH1 0xC0 DUP2 ADD SWAP2 SWAP1 SWAP2 MSTORE PUSH1 0xE0 DUP2 ADD SWAP2 SWAP1 SWAP2 MSTORE SWAP1 ISZERO ISZERO PUSH2 0x100 DUP3 ADD MSTORE PUSH2 0x120 ADD SWAP1 JUMP JUMPDEST DUP1 SLOAD DUP3 LT ISZERO PUSH2 0x1745 JUMPI PUSH1 0x0 MSTORE PUSH1 0x20 PUSH1 0x0 KECCAK256 ADD SWAP1 PUSH1 0x0 SWAP1 JUMP JUMPDEST PUSH4 0x4E487B71 PUSH1 0xE0 SHL PUSH1 0x0 MSTORE PUSH1 0x32 PUSH1 0x4 MSTORE PUSH1 0x24 PUSH1 0x0 REVERT JUMPDEST PUSH1 0x1 SLOAD PUSH1 0x8 SHR PUSH1 0x1 PUSH1 0x1 PUSH1 0xA0 SHL SUB AND CALLER SUB PUSH2 0x1772 JUMPI JUMP JUMPDEST PUSH1 0x64 PUSH1 0x40 MLOAD PUSH3 0x461BCD PUSH1 0xE5 SHL DUP2 MSTORE PUSH1 0x20 PUSH1 0x4 DUP3 ADD MSTORE PUSH1 0x20 PUSH1 0x24 DUP3 ADD MSTORE PUSH32 0x4F776E61626C653A2063616C6C6572206973206E6F7420746865206F776E6572 PUSH1 0x44 DUP3 ADD MSTORE REVERT JUMPDEST ISZERO PUSH2 0x17BD JUMPI JUMP JUMPDEST PUSH1 0x40 MLOAD PUSH3 0x461BCD PUSH1 0xE5 SHL DUP2 MSTORE PUSH1 0x20 PUSH1 0x4 DUP3 ADD MSTORE PUSH1 0x13 PUSH1 0x24 DUP3 ADD MSTORE PUSH19 0x416D6F756E7473206D757374206265203E203 PUSH1 0x6C SHL PUSH1 0x44 DUP3 ADD MSTORE PUSH1 0x64 SWAP1 REVERT JUMPDEST PUSH1 0x80 DUP2 ADD SWAP1 DUP2 LT PUSH8 0xFFFFFFFFFFFFFFFF DUP3 GT OR PUSH2 0x4E7 JUMPI PUSH1 0x40 MSTORE JUMP JUMPDEST SWAP1 PUSH1 0x1F DUP1 NOT SWAP2 ADD AND DUP2 ADD SWAP1 DUP2 LT PUSH8 0xFFFFFFFFFFFFFFFF DUP3 GT OR PUSH2 0x4E7 JUMPI PUSH1 0x40 MSTORE JUMP JUMPDEST MLOAD SWAP1 PUSH1 0x1 PUSH1 0x1 PUSH1 0xA0 SHL SUB DUP3 AND DUP3 SUB PUSH2 0x120 JUMPI JUMP JUMPDEST SWAP2 SWAP1 DUP3 ADD DUP1 SWAP3 GT PUSH2 0x4FD JUMPI JUMP JUMPDEST MLOAD SWAP1 PUSH1 0x1 PUSH1 0x1 PUSH1 0x80 SHL SUB DUP3 AND DUP3 SUB PUSH2 0x120 JUMPI JUMP JUMPDEST SWAP2 SWAP1 DUP3 SUB SWAP2 DUP3 GT PUSH2 0x4FD JUMPI JUMP JUMPDEST PUSH1 0xFF PUSH1 0x1 SLOAD AND PUSH2 0x1884 JUMPI JUMP JUMPDEST PUSH1 0x40 MLOAD PUSH3 0x461BCD PUSH1 0xE5 SHL DUP2 MSTORE PUSH1 0x20 PUSH1 0x4 DUP3 ADD MSTORE PUSH1 0x10 PUSH1 0x24 DUP3 ADD MSTORE PUSH16 0x14185D5CD8589B194E881C185D5CD959 PUSH1 0x82 SHL PUSH1 0x44 DUP3 ADD MSTORE PUSH1 0x64 SWAP1 REVERT JUMPDEST PUSH1 0x2 PUSH1 0x0 SLOAD EQ PUSH2 0x18CD JUMPI PUSH1 0x2 PUSH1 0x0 SSTORE JUMP JUMPDEST PUSH1 0x40 MLOAD PUSH3 0x461BCD PUSH1 0xE5 SHL DUP2 MSTORE PUSH1 0x20 PUSH1 0x4 DUP3 ADD MSTORE PUSH1 0x1F PUSH1 0x24 DUP3 ADD MSTORE PUSH32 0x5265656E7472616E637947756172643A207265656E7472616E742063616C6C00 PUSH1 0x44 DUP3 ADD MSTORE PUSH1 0x64 SWAP1 REVERT JUMPDEST PUSH1 0x40 MLOAD PUSH4 0xA9059CBB PUSH1 0xE0 SHL PUSH1 0x20 DUP3 ADD MSTORE PUSH1 0x1 PUSH1 0x1 PUSH1 0xA0 SHL SUB SWAP3 SWAP1 SWAP3 AND PUSH1 0x24 DUP4 ADD MSTORE PUSH1 0x44 DUP1 DUP4 ADD SWAP4 SWAP1 SWAP4 MSTORE SWAP2 DUP2 MSTORE PUSH2 0x1953 SWAP2 PUSH2 0x194E PUSH1 0x64 DUP4 PUSH2 0x1814 JUMP JUMPDEST PUSH2 0x1AB6 JUMP JUMPDEST JUMP JUMPDEST PUSH1 0x40 MLOAD PUSH4 0x23B872DD PUSH1 0xE0 SHL PUSH1 0x20 DUP3 ADD MSTORE PUSH1 0x1 PUSH1 0x1 PUSH1 0xA0 SHL SUB SWAP3 DUP4 AND PUSH1 0x24 DUP3 ADD MSTORE SWAP3 SWAP1 SWAP2 AND PUSH1 0x44 DUP4 ADD MSTORE PUSH1 0x64 DUP1 DUP4 ADD SWAP4 SWAP1 SWAP4 MSTORE SWAP2 DUP2 MSTORE PUSH1 0xA0 DUP2 ADD SWAP2 DUP2 DUP4 LT PUSH8 0xFFFFFFFFFFFFFFFF DUP5 GT OR PUSH2 0x4E7 JUMPI PUSH2 0x1953 SWAP3 PUSH1 0x40 MSTORE PUSH2 0x1AB6 JUMP JUMPDEST PUSH1 0x40 MLOAD PUSH4 0x95EA7B3 PUSH1 0xE0 SHL PUSH1 0x20 DUP3 ADD DUP2 DUP2 MSTORE PUSH1 0x1 PUSH1 0x1 PUSH1 0xA0 SHL SUB DUP6 AND PUSH1 0x24 DUP5 ADD MSTORE PUSH1 0x44 DUP1 DUP5 ADD SWAP7 SWAP1 SWAP7 MSTORE SWAP5 DUP3 MSTORE SWAP1 SWAP3 SWAP1 PUSH2 0x19E9 PUSH1 0x64 DUP6 PUSH2 0x1814 JUMP JUMPDEST DUP4 MLOAD PUSH1 0x1 PUSH1 0x1 PUSH1 0xA0 SHL SUB SWAP6 DUP5 DUP8 AND SWAP2 PUSH1 0x0 SWAP2 DUP3 SWAP2 SWAP1 DUP3 DUP6 GAS CALL SWAP1 PUSH2 0x1A0B PUSH2 0x1BAE JUMP JUMPDEST DUP3 PUSH2 0x1A6C JUMPI JUMPDEST POP DUP2 PUSH2 0x1A61 JUMPI JUMPDEST POP ISZERO PUSH2 0x1A26 JUMPI JUMPDEST POP POP POP POP POP JUMP JUMPDEST PUSH2 0x1A57 SWAP5 PUSH2 0x194E SWAP3 PUSH1 0x40 MLOAD SWAP3 PUSH1 0x20 DUP5 ADD MSTORE AND PUSH1 0x24 DUP3 ADD MSTORE PUSH1 0x0 PUSH1 0x44 DUP3 ADD MSTORE PUSH1 0x44 DUP2 MSTORE PUSH2 0x1A51 DUP2 PUSH2 0x17F8 JUMP JUMPDEST DUP3 PUSH2 0x1AB6 JUMP JUMPDEST CODESIZE DUP1 DUP1 DUP1 DUP1 PUSH2 0x1A1F JUMP JUMPDEST SWAP1 POP EXTCODESIZE ISZERO ISZERO CODESIZE PUSH2 0x1A18 JUMP JUMPDEST DUP1 MLOAD SWAP2 SWAP3 POP DUP2 ISZERO SWAP2 DUP3 ISZERO PUSH2 0x1A84 JUMPI JUMPDEST POP POP SWAP1 CODESIZE PUSH2 0x1A11 JUMP JUMPDEST PUSH2 0x1A97 SWAP3 POP PUSH1 0x20 DUP1 SWAP2 DUP4 ADD ADD SWAP2 ADD PUSH2 0x1A9E JUMP JUMPDEST CODESIZE DUP1 PUSH2 0x1A7B JUMP JUMPDEST SWAP1 DUP2 PUSH1 0x20 SWAP2 SUB SLT PUSH2 0x120 JUMPI MLOAD DUP1 ISZERO ISZERO DUP2 SUB PUSH2 0x120 JUMPI SWAP1 JUMP JUMPDEST PUSH1 0x40 DUP1 MLOAD SWAP1 DUP2 ADD SWAP2 PUSH1 0x1 PUSH1 0x1 PUSH1 0xA0 SHL SUB AND PUSH8 0xFFFFFFFFFFFFFFFF DUP4 GT DUP3 DUP5 LT OR PUSH2 0x4E7 JUMPI PUSH2 0x1B26 SWAP3 PUSH1 0x40 MSTORE PUSH1 0x0 DUP1 PUSH1 0x20 SWAP6 DUP7 DUP6 MSTORE PUSH32 0x5361666545524332303A206C6F772D6C6576656C2063616C6C206661696C6564 DUP8 DUP7 ADD MSTORE DUP7 DUP2 MLOAD SWAP2 ADD DUP3 DUP6 GAS CALL PUSH2 0x1B20 PUSH2 0x1BAE JUMP JUMPDEST SWAP2 PUSH2 0x1BEE JUMP JUMPDEST DUP1 MLOAD SWAP1 DUP3 DUP3 ISZERO SWAP3 DUP4 ISZERO PUSH2 0x1B96 JUMPI JUMPDEST POP POP POP ISZERO PUSH2 0x1B3F JUMPI POP JUMP JUMPDEST PUSH1 0x84 SWAP1 PUSH1 0x40 MLOAD SWAP1 PUSH3 0x461BCD PUSH1 0xE5 SHL DUP3 MSTORE PUSH1 0x4 DUP3 ADD MSTORE PUSH1 0x2A PUSH1 0x24 DUP3 ADD MSTORE PUSH32 0x5361666545524332303A204552433230206F7065726174696F6E20646964206E PUSH1 0x44 DUP3 ADD MSTORE PUSH10 0x1BDD081CDD58D8D95959 PUSH1 0xB2 SHL PUSH1 0x64 DUP3 ADD MSTORE REVERT JUMPDEST PUSH2 0x1BA6 SWAP4 POP DUP3 ADD DUP2 ADD SWAP2 ADD PUSH2 0x1A9E JUMP JUMPDEST CODESIZE DUP3 DUP2 PUSH2 0x1B34 JUMP JUMPDEST RETURNDATASIZE ISZERO PUSH2 0x1BE9 JUMPI RETURNDATASIZE SWAP1 PUSH8 0xFFFFFFFFFFFFFFFF DUP3 GT PUSH2 0x4E7 JUMPI PUSH1 0x40 MLOAD SWAP2 PUSH2 0x1BDD PUSH1 0x1F DUP3 ADD PUSH1 0x1F NOT AND PUSH1 0x20 ADD DUP5 PUSH2 0x1814 JUMP JUMPDEST DUP3 MSTORE RETURNDATASIZE PUSH1 0x0 PUSH1 0x20 DUP5 ADD RETURNDATACOPY JUMP JUMPDEST PUSH1 0x60 SWAP1 JUMP JUMPDEST SWAP2 SWAP3 SWAP1 ISZERO PUSH2 0x1C50 JUMPI POP DUP2 MLOAD ISZERO PUSH2 0x1C02 JUMPI POP SWAP1 JUMP JUMPDEST EXTCODESIZE ISZERO PUSH2 0x1C0B JUMPI SWAP1 JUMP JUMPDEST PUSH1 0x40 MLOAD PUSH3 0x461BCD PUSH1 0xE5 SHL DUP2 MSTORE PUSH1 0x20 PUSH1 0x4 DUP3 ADD MSTORE PUSH1 0x1D PUSH1 0x24 DUP3 ADD MSTORE PUSH32 0x416464726573733A2063616C6C20746F206E6F6E2D636F6E7472616374000000 PUSH1 0x44 DUP3 ADD MSTORE PUSH1 0x64 SWAP1 REVERT JUMPDEST DUP3 MLOAD SWAP1 SWAP2 POP ISZERO PUSH2 0x1C63 JUMPI POP DUP1 MLOAD SWAP1 PUSH1 0x20 ADD REVERT JUMPDEST PUSH1 0x40 MLOAD SWAP1 PUSH3 0x461BCD PUSH1 0xE5 SHL DUP3 MSTORE DUP2 PUSH1 0x20 DUP1 PUSH1 0x4 DUP4 ADD MSTORE DUP3 MLOAD SWAP1 DUP2 PUSH1 0x24 DUP5 ADD MSTORE PUSH1 0x0 SWAP4 JUMPDEST DUP3 DUP6 LT PUSH2 0x1CA9 JUMPI POP POP PUSH1 0x44 SWAP3 POP PUSH1 0x0 DUP4 DUP3 DUP5 ADD ADD MSTORE PUSH1 0x1F DUP1 NOT SWAP2 ADD AND DUP2 ADD SUB ADD SWAP1 REVERT JUMPDEST DUP5 DUP2 ADD DUP3 ADD MLOAD DUP7 DUP7 ADD PUSH1 0x44 ADD MSTORE SWAP4 DUP2 ADD SWAP4 DUP6 SWAP4 POP PUSH2 0x1C86 JUMP JUMPDEST ISZERO PUSH2 0x1CC9 JUMPI JUMP JUMPDEST PUSH1 0x40 MLOAD PUSH3 0x461BCD PUSH1 0xE5 SHL DUP2 MSTORE PUSH1 0x20 PUSH1 0x4 DUP3 ADD MSTORE PUSH1 0x15 PUSH1 0x24 DUP3 ADD MSTORE PUSH21 0x149958DBDC9908191BD95CC81B9BDD08195E1A5CDD PUSH1 0x5A SHL PUSH1 0x44 DUP3 ADD MSTORE PUSH1 0x64 SWAP1 REVERT JUMPDEST ISZERO PUSH2 0x1D0D JUMPI JUMP JUMPDEST PUSH1 0x40 MLOAD PUSH3 0x461BCD PUSH1 0xE5 SHL DUP2 MSTORE PUSH1 0x20 PUSH1 0x4 DUP3 ADD MSTORE PUSH1 0x12 PUSH1 0x24 DUP3 ADD MSTORE PUSH18 0x5265636F726420697320696E616374697665 PUSH1 0x70 SHL PUSH1 0x44 DUP3 ADD MSTORE PUSH1 0x64 SWAP1 REVERT JUMPDEST SWAP2 SWAP1 DUP3 PUSH1 0x40 SWAP2 SUB SLT PUSH2 0x120 JUMPI PUSH1 0x20 DUP3 MLOAD SWAP3 ADD MLOAD SWAP1 JUMP JUMPDEST SWAP2 SWAP1 SWAP2 PUSH1 0x60 PUSH1 0x80 DUP3 ADD SWAP4 DUP1 MLOAD DUP4 MSTORE PUSH1 0x1 DUP1 PUSH1 0xA0 SHL SUB PUSH1 0x20 DUP3 ADD MLOAD AND PUSH1 0x20 DUP5 ADD MSTORE DUP2 PUSH1 0x1 PUSH1 0x1 PUSH1 0x80 SHL SUB SWAP2 DUP3 PUSH1 0x40 DUP3 ADD MLOAD AND PUSH1 0x40 DUP7 ADD MSTORE ADD MLOAD AND SWAP2 ADD MSTORE JUMP JUMPDEST MLOAD SWAP1 DUP2 PUSH1 0x2 SIGNEXTEND DUP3 SUB PUSH2 0x120 JUMPI JUMP INVALID LOG2 PUSH5 0x6970667358 0x22 SLT KECCAK256 JUMPI 0xE3 0x4D OR CALLCODE PUSH32 0x68DD515F580DC8F947D63F1EEA16F0DCCF1409D0D6DB2E510E2264736F6C6343 STOP ADDMOD EQ STOP CALLER "},"methodIdentifiers":{"FEE_TIER_HIGH()":"7574d9a0","FEE_TIER_LOW()":"f6b9ec7c","FEE_TIER_MEDIUM()":"8f40e8f5","collectFees(uint256)":"b17acdcd","createPosition(address,address,uint24,uint256,uint256,int24,int24)":"2d86fcb2","decreaseLiquidity(uint256,uint128)":"99d7b594","factory()":"c45a0155","getPositionInfo(uint256)":"519f5099","getPositionLiquidity(uint256)":"1efeed33","getUserPositions(address)":"2a6bc2dd","increaseLiquidity(uint256,uint256,uint256)":"e115bc5c","nextRecordId()":"dbde207d","owner()":"8da5cb5b","pause()":"8456cb59","paused()":"5c975abb","positionManager()":"791b98bc","positions(uint256)":"99fbab88","renounceOwnership()":"715018a6","transferOwnership(address)":"f2fde38b","unpause()":"3f4ba83a","userPositions(address,uint256)":"5e1b4d99"}}}}}