{"contracts/LiquidityPool.sol":{"LiquidityPool":{"abi":[{"inputs":[],"stateMutability":"nonpayable","type":"constructor"},{"anonymous":false,"inputs":[{"indexed":true,"internalType":"uint256","name":"poolId","type":"uint256"},{"indexed":true,"internalType":"address","name":"provider","type":"address"},{"indexed":false,"internalType":"uint256","name":"amount0","type":"uint256"},{"indexed":false,"internalType":"uint256","name":"amount1","type":"uint256"},{"indexed":false,"internalType":"uint256","name":"sharesIssued","type":"uint256"}],"name":"LiquidityAdded","type":"event"},{"anonymous":false,"inputs":[{"indexed":true,"internalType":"uint256","name":"poolId","type":"uint256"},{"indexed":true,"internalType":"address","name":"provider","type":"address"},{"indexed":false,"internalType":"uint256","name":"amount0","type":"uint256"},{"indexed":false,"internalType":"uint256","name":"amount1","type":"uint256"},{"indexed":false,"internalType":"uint256","name":"sharesBurned","type":"uint256"}],"name":"LiquidityRemoved","type":"event"},{"anonymous":false,"inputs":[{"indexed":true,"internalType":"address","name":"previousOwner","type":"address"},{"indexed":true,"internalType":"address","name":"newOwner","type":"address"}],"name":"OwnershipTransferred","type":"event"},{"anonymous":false,"inputs":[{"indexed":false,"internalType":"address","name":"account","type":"address"}],"name":"Paused","type":"event"},{"anonymous":false,"inputs":[{"indexed":true,"internalType":"uint256","name":"poolId","type":"uint256"},{"indexed":true,"internalType":"address","name":"token0","type":"address"},{"indexed":true,"internalType":"address","name":"token1","type":"address"},{"indexed":false,"internalType":"uint256","name":"initialLiquidity0","type":"uint256"},{"indexed":false,"internalType":"uint256","name":"initialLiquidity1","type":"uint256"}],"name":"PoolCreated","type":"event"},{"anonymous":false,"inputs":[{"indexed":true,"internalType":"uint256","name":"poolId","type":"uint256"},{"indexed":false,"internalType":"uint256","name":"fee0","type":"uint256"},{"indexed":false,"internalType":"uint256","name":"fee1","type":"uint256"}],"name":"PoolFeeCollected","type":"event"},{"anonymous":false,"inputs":[{"indexed":true,"internalType":"uint256","name":"poolId","type":"uint256"},{"indexed":true,"internalType":"address","name":"user","type":"address"},{"indexed":true,"internalType":"address","name":"tokenIn","type":"address"},{"indexed":false,"internalType":"uint256","name":"amountIn","type":"uint256"},{"indexed":false,"internalType":"uint256","name":"amountOut","type":"uint256"},{"indexed":false,"internalType":"uint256","name":"newReserve0","type":"uint256"},{"indexed":false,"internalType":"uint256","name":"newReserve1","type":"uint256"}],"name":"Swapped","type":"event"},{"anonymous":false,"inputs":[{"indexed":false,"internalType":"address","name":"account","type":"address"}],"name":"Unpaused","type":"event"},{"inputs":[],"name":"FEE_PERCENTAGE","outputs":[{"internalType":"uint256","name":"","type":"uint256"}],"stateMutability":"view","type":"function"},{"inputs":[],"name":"MINIMUM_LIQUIDITY","outputs":[{"internalType":"uint256","name":"","type":"uint256"}],"stateMutability":"view","type":"function"},{"inputs":[],"name":"PRECISION","outputs":[{"internalType":"uint256","name":"","type":"uint256"}],"stateMutability":"view","type":"function"},{"inputs":[{"internalType":"uint256","name":"poolId","type":"uint256"},{"internalType":"uint256","name":"amount0","type":"uint256"},{"internalType":"uint256","name":"amount1","type":"uint256"}],"name":"addLiquidity","outputs":[],"stateMutability":"nonpayable","type":"function"},{"inputs":[{"internalType":"uint256","name":"poolId","type":"uint256"}],"name":"collectFees","outputs":[],"stateMutability":"nonpayable","type":"function"},{"inputs":[{"internalType":"uint256","name":"","type":"uint256"}],"name":"collectedFees0","outputs":[{"internalType":"uint256","name":"","type":"uint256"}],"stateMutability":"view","type":"function"},{"inputs":[{"internalType":"uint256","name":"","type":"uint256"}],"name":"collectedFees1","outputs":[{"internalType":"uint256","name":"","type":"uint256"}],"stateMutability":"view","type":"function"},{"inputs":[{"internalType":"address","name":"token0","type":"address"},{"internalType":"address","name":"token1","type":"address"},{"internalType":"uint256","name":"amount0","type":"uint256"},{"internalType":"uint256","name":"amount1","type":"uint256"}],"name":"createPool","outputs":[{"internalType":"uint256","name":"","type":"uint256"}],"stateMutability":"nonpayable","type":"function"},{"inputs":[{"internalType":"address","name":"user","type":"address"},{"internalType":"uint256","name":"poolId","type":"uint256"}],"name":"getLPPosition","outputs":[{"internalType":"uint256","name":"shares","type":"uint256"},{"internalType":"uint256","name":"depositedToken0","type":"uint256"},{"internalType":"uint256","name":"depositedToken1","type":"uint256"}],"stateMutability":"view","type":"function"},{"inputs":[{"internalType":"uint256","name":"poolId","type":"uint256"}],"name":"getPoolInfo","outputs":[{"internalType":"address","name":"token0","type":"address"},{"internalType":"address","name":"token1","type":"address"},{"internalType":"uint256","name":"reserve0","type":"uint256"},{"internalType":"uint256","name":"reserve1","type":"uint256"},{"internalType":"uint256","name":"totalShares","type":"uint256"},{"internalType":"bool","name":"active","type":"bool"}],"stateMutability":"view","type":"function"},{"inputs":[{"internalType":"uint256","name":"poolId","type":"uint256"},{"internalType":"address","name":"tokenIn","type":"address"},{"internalType":"uint256","name":"amountIn","type":"uint256"}],"name":"getSwapAmount","outputs":[{"internalType":"uint256","name":"amountOut","type":"uint256"}],"stateMutability":"view","type":"function"},{"inputs":[{"internalType":"address","name":"","type":"address"},{"internalType":"uint256","name":"","type":"uint256"}],"name":"lpPositions","outputs":[{"internalType":"uint256","name":"poolId","type":"uint256"},{"internalType":"uint256","name":"shares","type":"uint256"},{"internalType":"uint256","name":"depositedToken0","type":"uint256"},{"internalType":"uint256","name":"depositedToken1","type":"uint256"}],"stateMutability":"view","type":"function"},{"inputs":[],"name":"nextPoolId","outputs":[{"internalType":"uint256","name":"","type":"uint256"}],"stateMutability":"view","type":"function"},{"inputs":[],"name":"owner","outputs":[{"internalType":"address","name":"","type":"address"}],"stateMutability":"view","type":"function"},{"inputs":[],"name":"pause","outputs":[],"stateMutability":"nonpayable","type":"function"},{"inputs":[],"name":"paused","outputs":[{"internalType":"bool","name":"","type":"bool"}],"stateMutability":"view","type":"function"},{"inputs":[{"internalType":"uint256","name":"","type":"uint256"}],"name":"pools","outputs":[{"internalType":"address","name":"token0","type":"address"},{"internalType":"address","name":"token1","type":"address"},{"internalType":"uint256","name":"reserve0","type":"uint256"},{"internalType":"uint256","name":"reserve1","type":"uint256"},{"internalType":"uint256","name":"totalShares","type":"uint256"},{"internalType":"bool","name":"active","type":"bool"}],"stateMutability":"view","type":"function"},{"inputs":[{"internalType":"uint256","name":"poolId","type":"uint256"},{"internalType":"uint256","name":"shares","type":"uint256"}],"name":"removeLiquidity","outputs":[],"stateMutability":"nonpayable","type":"function"},{"inputs":[],"name":"renounceOwnership","outputs":[],"stateMutability":"nonpayable","type":"function"},{"inputs":[{"internalType":"uint256","name":"poolId","type":"uint256"},{"internalType":"address","name":"tokenIn","type":"address"},{"internalType":"uint256","name":"amountIn","type":"uint256"},{"internalType":"uint256","name":"minAmountOut","type":"uint256"}],"name":"swap","outputs":[{"internalType":"uint256","name":"amountOut","type":"uint256"}],"stateMutability":"nonpayable","type":"function"},{"inputs":[{"internalType":"address","name":"newOwner","type":"address"}],"name":"transferOwnership","outputs":[],"stateMutability":"nonpayable","type":"function"},{"inputs":[],"name":"unpause","outputs":[],"stateMutability":"nonpayable","type":"function"}],"evm":{"bytecode":{"linkReferences":{},"object":"60808060405234610070576001600081815581546001600160a81b0319811633600881811b610100600160a81b0316929092179094551c6001600160a01b0316907f8be0079c531659141344cd1fd0a4f28419497f9722a3daafe3b4186f6b6457e09080a36118f790816100768239f35b600080fdfe608080604052600436101561001357600080fd5b60003560e01c9081620b46f814611218575080630a8d544d146111e657806318e56131146111c85780631ba0e4c01461115c5780632f380b35146110cf5780633f4ba83a1461103b578063422f104314610e0957806351a578de14610da25780635c975abb14610d7f5780635ee6bade14610d535780636a17fbaf14610d27578063715018a614610cc65780638456cb5914610c6d578063884db063146108ff5780638da5cb5b146108d25780639d7de6b314610704578063aaf5eb68146106e7578063ac4afa3814610663578063b17acdcd1461050b578063b33daea914610206578063ba9a7a56146101e95763f2fde38b1461011057600080fd5b346101e45760203660031901126101e457610129611248565b61013161125e565b6001600160a01b038181169182156101905760018054610100600160a81b03198116600893841b610100600160a81b031617909155901c167f8be0079c531659141344cd1fd0a4f28419497f9722a3daafe3b4186f6b6457e0600080a3005b60405162461bcd60e51b815260206004820152602660248201527f4f776e61626c653a206e6577206f776e657220697320746865207a65726f206160448201526564647265737360d01b6064820152608490fd5b600080fd5b346101e45760003660031901126101e45760206040516103e88152f35b346101e45760803660031901126101e457600435610222611232565b60443561022d6113a4565b610235611360565b600290610244825485106116a5565b8360005260039360209480865260406000209061026760ff6005840154166116e7565b83156104d15781546001600160a01b0390811696811695908688148080156104c2575b610293906117a3565b80156104b85782850154915b81156104ae5784860154995b82156104a8575080600187015416905b8315158061049f575b6102cd9061130e565b6102d98930338d6113fa565b601e8902898104601e0361048957899461030f8d6103096103026127106103159604809a611353565b91826112fb565b92611726565b90611733565b9a6064358c1061044f578b1161040a578a7fe06a4d610074140b2cc31eebfaffbcc4d55ee111f8de6a57051525fb4cdd882f97969594939261035992339116611753565b156103cb5781840161036c888254611726565b905582840161037c8a8254611353565b90558560005260058a526103966040600020918254611726565b90555b820154910154604080519586526020860188905285019190915260608401523392608090a46001600055604051908152f35b8284016103d9888254611726565b90558184016103e98a8254611353565b90558560005260068a526104036040600020918254611726565b9055610399565b60405162461bcd60e51b8152600481018d9052601d60248201527f496e73756666696369656e74206f7574707574206c69717569646974790000006044820152606490fd5b60405162461bcd60e51b8152600481018e9052601260248201527145786365737369766520736c69707061676560701b6044820152606490fd5b634e487b7160e01b600052601160045260246000fd5b508a15156102c4565b906102bb565b83860154996102ab565b838501549161029f565b5060018501548216881461028a565b60405162461bcd60e51b81526004810188905260126024820152710416d6f756e74206d757374206265203e20360741b6044820152606490fd5b346101e4576020806003193601126101e457600435906105296113a4565b61053161125e565b61053e60025483106116a5565b816000526005815260406000205490600681526040600020549082158015809161065a575b1561062057917f9b95c9b8ce35525edae70c1fbd706e016dd0f8dba189b55a1563de7871033e0f9391604093866000526003825284600020906105f1575b82806105ba575b50508351928352820152a26001600055005b6000888152600684528681205560019182015491546105ea926001600160a01b0360089290921c82169116611753565b86826105a8565b60058252600085812055805460015461061b91869160081c6001600160a01b039081169116611753565b6105a1565b60405162461bcd60e51b8152600481018390526012602482015271139bc81999595cc81d1bc818dbdb1b1958dd60721b6044820152606490fd5b50821515610563565b346101e45760203660031901126101e45760048035600090815260036020818152604092839020805460018201546002830154948301549683015460059093015486516001600160a01b0393841681529290911693820193909352938401929092526060830193909352608082015260ff909116151560a082015260c090f35b0390f35b346101e45760003660031901126101e45760206040516127108152f35b346101e45760403660031901126101e4576024356004356107236113a4565b61073060025482106116a5565b8060005260036020526040600020600481019283549384156108985733600052600460205260406000208460005260205260016040600020019081549183831061085d57846108309260027f9c27aedc1d1fccd4271dc15980dab26a907cdb41ed08aef747c6d0a9680f55ce9701986107b3816107ae8c548a6112fb565b611733565b998a946107e6896107cd60038801956107ae8754846112fb565b998a98151580610854575b6107e1906112b9565b611353565b90556107f38b8254611353565b9055610800848254611353565b905561080d868254611353565b905560018060a01b03610824893383855416611753565b60013392015416611753565b604080519586526020860191909152840152339280606081015b0390a36001600055005b508815156107d8565b60405162461bcd60e51b8152602060048201526013602482015272496e73756666696369656e742073686172657360681b6044820152606490fd5b60405162461bcd60e51b8152602060048201526012602482015271496e76616c696420706f6f6c20737461746560701b6044820152606490fd5b346101e45760003660031901126101e45760015460405160089190911c6001600160a01b03168152602090f35b346101e45760803660031901126101e457610918611248565b610920611232565b60443591606435906109306113a4565b610938611360565b6001600160a01b03811680151580610c5b575b15610c25576001600160a01b03841690808214610be05785151580610bd7575b610974906112b9565b1015610bd257919290925b6002549361098d81846112fb565b60006003821115610bc457508060019080821c8281018091116104895791905b838310610ba4575050505b6109c56103e8821161130e565b806103e719810111610489576109e68430336001600160a01b0389166113fa565b6109fb8230336001600160a01b0387166113fa565b60405160c0810181811067ffffffffffffffff821117610b8e5760405260018060a01b03861681526005602082019160018060a01b03861683526040810187815260608201868152608083019186835260a0840195600187528c600052600360205260406000209460018060a01b039051166bffffffffffffffffffffffff60a01b9081875416178655600186019160018060a01b0390511690825416179055516002840155516003830155516004820155019051151560ff8019835416911617905560405192608084019284841067ffffffffffffffff851117610b8e57879460036040947f1af6355a170ecc0327e49a9aa985a86667dc35a39b8b29f632cd215a9f49618096865287835260208301906103e7190181528583018981526060840191858352336000526004602052876000208a6000526020528760002094518555516001850155516002840155519101558251958652602086015260018060a01b03169460018060a01b031693a4600254906000198214610489576001602092016002556001600055604051908152f35b634e487b7160e01b600052604160045260246000fd5b90919250610bbb83610bb68184611733565b611726565b821c91906109ad565b90156109b8575060016109b8565b61097f565b5083151561096b565b60405162461bcd60e51b815260206004820152601860248201527f546f6b656e73206d75737420626520646966666572656e7400000000000000006044820152606490fd5b60405162461bcd60e51b815260206004820152600e60248201526d496e76616c696420746f6b656e7360901b6044820152606490fd5b506001600160a01b038416151561094b565b346101e45760003660031901126101e457610c8661125e565b610c8e611360565b600160ff19815416176001557f62e78cea01bee320cd4e420270b5ea74000d11b0c9f74754ebdbfc544b05a2586020604051338152a1005b346101e45760003660031901126101e457610cdf61125e565b60018054610100600160a81b0319811690915560009060081c6001600160a01b03167f8be0079c531659141344cd1fd0a4f28419497f9722a3daafe3b4186f6b6457e08280a3005b346101e45760203660031901126101e45760043560005260056020526020604060002054604051908152f35b346101e45760203660031901126101e45760043560005260066020526020604060002054604051908152f35b346101e45760003660031901126101e457602060ff600154166040519015158152f35b346101e45760403660031901126101e4576001600160a01b03610dc3611248565b1660009081526004602090815260408083206024358452825291829020805460018201546002830154600390930154855192835293820152928301526060820152608090f35b346101e45760603660031901126101e457604435602435600435610e2b6113a4565b610e33611360565b610e4060025482106116a5565b80600052602060038152604060002093610e6060ff6005870154166116e7565b83151580611032575b610e72906112b9565b6004850191825492610e8484876112fb565b9360028801948554906001820180921161048957610eac91610ea591611733565b91856112fb565b90600389019182546001810180911161048957610ec891611733565b8082101561102a5750945b8515610fe557610f28857f089607a52cca0d390ff7d0ad4e97545804dcc41418e1daee9ec3948596fec94498999a60018060a01b0390610f1a8d83835416309033906113fa565b3091600133920154166113fa565b610f33898254611726565b9055610f40848254611726565b9055610f4d848254611726565b9055336000526004815260406000208560005281526001604060002001610f75848254611726565b9055336000526004815260406000208560005281526002604060002001610f9d878254611726565b9055336000526004815260406000209085600052526003604060002001610fc5828254611726565b90556040805195865260208601919091528401523392806060810161084a565b60405162461bcd60e51b815260048101859052601f60248201527f496e73756666696369656e74206c69717569646974792070726f7669646564006044820152606490fd5b905094610ed3565b50801515610e69565b346101e45760003660031901126101e45761105461125e565b60015460ff8116156110935760ff19166001557f5db9ee0a495bf2e6ff9c91a7834c1ba4fdd244a5e8aa4e537bd38aeae4b073aa6020604051338152a1005b60405162461bcd60e51b815260206004820152601460248201527314185d5cd8589b194e881b9bdd081c185d5cd95960621b6044820152606490fd5b346101e45760203660031901126101e4576004356110f060025482106116a5565b60009081526003602081815260409283902080546001820154600283015494830154600484015460059094015487516001600160a01b0394851681529390921694830194909452948101939093526060830191909152608082015260ff909116151560a082015260c090f35b346101e45760403660031901126101e4576001600160a01b0361117d611248565b1660005260046020526040600020602435600052602052604060002060018101546106e360036002840154930154604051938493846040919493926060820195825260208201520152565b346101e45760003660031901126101e4576020600254604051908152f35b346101e45760603660031901126101e4576020611210611204611232565b604435906004356117df565b604051908152f35b346101e45760003660031901126101e45780601e60209252f35b602435906001600160a01b03821682036101e457565b600435906001600160a01b03821682036101e457565b60015460081c6001600160a01b0316330361127557565b606460405162461bcd60e51b815260206004820152602060248201527f4f776e61626c653a2063616c6c6572206973206e6f7420746865206f776e65726044820152fd5b156112c057565b60405162461bcd60e51b81526020600482015260136024820152720416d6f756e7473206d757374206265203e203606c1b6044820152606490fd5b8181029291811591840414171561048957565b1561131557565b60405162461bcd60e51b8152602060048201526016602482015275496e73756666696369656e74206c697175696469747960501b6044820152606490fd5b9190820391821161048957565b60ff6001541661136c57565b60405162461bcd60e51b815260206004820152601060248201526f14185d5cd8589b194e881c185d5cd95960821b6044820152606490fd5b6002600054146113b5576002600055565b60405162461bcd60e51b815260206004820152601f60248201527f5265656e7472616e637947756172643a207265656e7472616e742063616c6c006044820152606490fd5b6040516323b872dd60e01b60208201526001600160a01b03928316602482015292909116604483015260648083019390935291815260a081019181831067ffffffffffffffff841117610b8e5761145392604052611455565b565b6040805167ffffffffffffffff94936001600160a01b03909316929080830186811182821017610b8e5783526020938482527f5361666545524332303a206c6f772d6c6576656c2063616c6c206661696c6564858301526000808487829651910182855af13d156115c4573d918883116115b057855192601f19603f81601f8401160116840199848b10908b111761159c57869798996114ff96975283528286893d92013e6115d1565b805191821591858315611571575b50505090501561151b575050565b60849250519062461bcd60e51b82526004820152602a60248201527f5361666545524332303a204552433230206f7065726174696f6e20646964206e6044820152691bdd081cdd58d8d9595960b21b6064820152fd5b9193818094500103126115985783015190811515820361159557508038808561150d565b80fd5b5080fd5b634e487b7160e01b86526041600452602486fd5b634e487b7160e01b85526041600452602485fd5b6114ff9394959697506060915b9192901561163357508151156115e5575090565b3b156115ee5790565b60405162461bcd60e51b815260206004820152601d60248201527f416464726573733a2063616c6c20746f206e6f6e2d636f6e74726163740000006044820152606490fd5b8251909150156116465750805190602001fd5b6040519062461bcd60e51b82528160208060048301528251908160248401526000935b82851061168c575050604492506000838284010152601f80199101168101030190fd5b8481018201518686016044015293810193859350611669565b156116ac57565b60405162461bcd60e51b8152602060048201526013602482015272141bdbdb08191bd95cc81b9bdd08195e1a5cdd606a1b6044820152606490fd5b156116ee57565b60405162461bcd60e51b815260206004820152601060248201526f506f6f6c20697320696e61637469766560801b6044820152606490fd5b9190820180921161048957565b811561173d570490565b634e487b7160e01b600052601260045260246000fd5b60405163a9059cbb60e01b60208201526001600160a01b039092166024830152604480830193909352918152608081019167ffffffffffffffff831182841017610b8e5761145392604052611455565b156117aa57565b60405162461bcd60e51b815260206004820152600d60248201526c24b73b30b634b2103a37b5b2b760991b6044820152606490fd5b90916117ee60025483106116a5565b600091825260036020526040822080546001600160a01b0394851690851681149461182391869182156118b1575b50506117a3565b83156118a6576002810154935b1561189c5760030154915b83158015611894575b61188d57601e820290828204601e148315171561187957509161030961030261030f9361271061187697960490611353565b90565b634e487b7160e01b81526011600452602490fd5b9250505090565b508215611844565b600201549161183b565b600381015493611830565b600185015416149050388061181c56fea2646970667358221220ac6a45473e80f0c8a0fdb3a7fca9a6a7c581f6fab1d27b0a6e8f171658cb577864736f6c63430008140033","opcodes":"PUSH1 0x80 DUP1 PUSH1 0x40 MSTORE CALLVALUE PUSH2 0x70 JUMPI PUSH1 0x1 PUSH1 0x0 DUP2 DUP2 SSTORE DUP2 SLOAD PUSH1 0x1 PUSH1 0x1 PUSH1 0xA8 SHL SUB NOT DUP2 AND CALLER PUSH1 0x8 DUP2 DUP2 SHL PUSH2 0x100 PUSH1 0x1 PUSH1 0xA8 SHL SUB AND SWAP3 SWAP1 SWAP3 OR SWAP1 SWAP5 SSTORE SHR PUSH1 0x1 PUSH1 0x1 PUSH1 0xA0 SHL SUB AND SWAP1 PUSH32 0x8BE0079C531659141344CD1FD0A4F28419497F9722A3DAAFE3B4186F6B6457E0 SWAP1 DUP1 LOG3 PUSH2 0x18F7 SWAP1 DUP2 PUSH2 0x76 DUP3 CODECOPY RETURN JUMPDEST PUSH1 0x0 DUP1 REVERT INVALID PUSH1 0x80 DUP1 PUSH1 0x40 MSTORE PUSH1 0x4 CALLDATASIZE LT ISZERO PUSH2 0x13 JUMPI PUSH1 0x0 DUP1 REVERT JUMPDEST PUSH1 0x0 CALLDATALOAD PUSH1 0xE0 SHR SWAP1 DUP2 PUSH3 0xB46F8 EQ PUSH2 0x1218 JUMPI POP DUP1 PUSH4 0xA8D544D EQ PUSH2 0x11E6 JUMPI DUP1 PUSH4 0x18E56131 EQ PUSH2 0x11C8 JUMPI DUP1 PUSH4 0x1BA0E4C0 EQ PUSH2 0x115C JUMPI DUP1 PUSH4 0x2F380B35 EQ PUSH2 0x10CF JUMPI DUP1 PUSH4 0x3F4BA83A EQ PUSH2 0x103B JUMPI DUP1 PUSH4 0x422F1043 EQ PUSH2 0xE09 JUMPI DUP1 PUSH4 0x51A578DE EQ PUSH2 0xDA2 JUMPI DUP1 PUSH4 0x5C975ABB EQ PUSH2 0xD7F JUMPI DUP1 PUSH4 0x5EE6BADE EQ PUSH2 0xD53 JUMPI DUP1 PUSH4 0x6A17FBAF EQ PUSH2 0xD27 JUMPI DUP1 PUSH4 0x715018A6 EQ PUSH2 0xCC6 JUMPI DUP1 PUSH4 0x8456CB59 EQ PUSH2 0xC6D JUMPI DUP1 PUSH4 0x884DB063 EQ PUSH2 0x8FF JUMPI DUP1 PUSH4 0x8DA5CB5B EQ PUSH2 0x8D2 JUMPI DUP1 PUSH4 0x9D7DE6B3 EQ PUSH2 0x704 JUMPI DUP1 PUSH4 0xAAF5EB68 EQ PUSH2 0x6E7 JUMPI DUP1 PUSH4 0xAC4AFA38 EQ PUSH2 0x663 JUMPI DUP1 PUSH4 0xB17ACDCD EQ PUSH2 0x50B JUMPI DUP1 PUSH4 0xB33DAEA9 EQ PUSH2 0x206 JUMPI DUP1 PUSH4 0xBA9A7A56 EQ PUSH2 0x1E9 JUMPI PUSH4 0xF2FDE38B EQ PUSH2 0x110 JUMPI PUSH1 0x0 DUP1 REVERT JUMPDEST CALLVALUE PUSH2 0x1E4 JUMPI PUSH1 0x20 CALLDATASIZE PUSH1 0x3 NOT ADD SLT PUSH2 0x1E4 JUMPI PUSH2 0x129 PUSH2 0x1248 JUMP JUMPDEST PUSH2 0x131 PUSH2 0x125E JUMP JUMPDEST PUSH1 0x1 PUSH1 0x1 PUSH1 0xA0 SHL SUB DUP2 DUP2 AND SWAP2 DUP3 ISZERO PUSH2 0x190 JUMPI PUSH1 0x1 DUP1 SLOAD PUSH2 0x100 PUSH1 0x1 PUSH1 0xA8 SHL SUB NOT DUP2 AND PUSH1 0x8 SWAP4 DUP5 SHL PUSH2 0x100 PUSH1 0x1 PUSH1 0xA8 SHL SUB AND OR SWAP1 SWAP2 SSTORE SWAP1 SHR AND PUSH32 0x8BE0079C531659141344CD1FD0A4F28419497F9722A3DAAFE3B4186F6B6457E0 PUSH1 0x0 DUP1 LOG3 STOP JUMPDEST PUSH1 0x40 MLOAD PUSH3 0x461BCD PUSH1 0xE5 SHL DUP2 MSTORE PUSH1 0x20 PUSH1 0x4 DUP3 ADD MSTORE PUSH1 0x26 PUSH1 0x24 DUP3 ADD MSTORE PUSH32 0x4F776E61626C653A206E6577206F776E657220697320746865207A65726F2061 PUSH1 0x44 DUP3 ADD MSTORE PUSH6 0x646472657373 PUSH1 0xD0 SHL PUSH1 0x64 DUP3 ADD MSTORE PUSH1 0x84 SWAP1 REVERT JUMPDEST PUSH1 0x0 DUP1 REVERT JUMPDEST CALLVALUE PUSH2 0x1E4 JUMPI PUSH1 0x0 CALLDATASIZE PUSH1 0x3 NOT ADD SLT PUSH2 0x1E4 JUMPI PUSH1 0x20 PUSH1 0x40 MLOAD PUSH2 0x3E8 DUP2 MSTORE RETURN JUMPDEST CALLVALUE PUSH2 0x1E4 JUMPI PUSH1 0x80 CALLDATASIZE PUSH1 0x3 NOT ADD SLT PUSH2 0x1E4 JUMPI PUSH1 0x4 CALLDATALOAD PUSH2 0x222 PUSH2 0x1232 JUMP JUMPDEST PUSH1 0x44 CALLDATALOAD PUSH2 0x22D PUSH2 0x13A4 JUMP JUMPDEST PUSH2 0x235 PUSH2 0x1360 JUMP JUMPDEST PUSH1 0x2 SWAP1 PUSH2 0x244 DUP3 SLOAD DUP6 LT PUSH2 0x16A5 JUMP JUMPDEST DUP4 PUSH1 0x0 MSTORE PUSH1 0x3 SWAP4 PUSH1 0x20 SWAP5 DUP1 DUP7 MSTORE PUSH1 0x40 PUSH1 0x0 KECCAK256 SWAP1 PUSH2 0x267 PUSH1 0xFF PUSH1 0x5 DUP5 ADD SLOAD AND PUSH2 0x16E7 JUMP JUMPDEST DUP4 ISZERO PUSH2 0x4D1 JUMPI DUP2 SLOAD PUSH1 0x1 PUSH1 0x1 PUSH1 0xA0 SHL SUB SWAP1 DUP2 AND SWAP7 DUP2 AND SWAP6 SWAP1 DUP7 DUP9 EQ DUP1 DUP1 ISZERO PUSH2 0x4C2 JUMPI JUMPDEST PUSH2 0x293 SWAP1 PUSH2 0x17A3 JUMP JUMPDEST DUP1 ISZERO PUSH2 0x4B8 JUMPI DUP3 DUP6 ADD SLOAD SWAP2 JUMPDEST DUP2 ISZERO PUSH2 0x4AE JUMPI DUP5 DUP7 ADD SLOAD SWAP10 JUMPDEST DUP3 ISZERO PUSH2 0x4A8 JUMPI POP DUP1 PUSH1 0x1 DUP8 ADD SLOAD AND SWAP1 JUMPDEST DUP4 ISZERO ISZERO DUP1 PUSH2 0x49F JUMPI JUMPDEST PUSH2 0x2CD SWAP1 PUSH2 0x130E JUMP JUMPDEST PUSH2 0x2D9 DUP10 ADDRESS CALLER DUP14 PUSH2 0x13FA JUMP JUMPDEST PUSH1 0x1E DUP10 MUL DUP10 DUP2 DIV PUSH1 0x1E SUB PUSH2 0x489 JUMPI DUP10 SWAP5 PUSH2 0x30F DUP14 PUSH2 0x309 PUSH2 0x302 PUSH2 0x2710 PUSH2 0x315 SWAP7 DIV DUP1 SWAP11 PUSH2 0x1353 JUMP JUMPDEST SWAP2 DUP3 PUSH2 0x12FB JUMP JUMPDEST SWAP3 PUSH2 0x1726 JUMP JUMPDEST SWAP1 PUSH2 0x1733 JUMP JUMPDEST SWAP11 PUSH1 0x64 CALLDATALOAD DUP13 LT PUSH2 0x44F JUMPI DUP12 GT PUSH2 0x40A JUMPI DUP11 PUSH32 0xE06A4D610074140B2CC31EEBFAFFBCC4D55EE111F8DE6A57051525FB4CDD882F SWAP8 SWAP7 SWAP6 SWAP5 SWAP4 SWAP3 PUSH2 0x359 SWAP3 CALLER SWAP2 AND PUSH2 0x1753 JUMP JUMPDEST ISZERO PUSH2 0x3CB JUMPI DUP2 DUP5 ADD PUSH2 0x36C DUP9 DUP3 SLOAD PUSH2 0x1726 JUMP JUMPDEST SWAP1 SSTORE DUP3 DUP5 ADD PUSH2 0x37C DUP11 DUP3 SLOAD PUSH2 0x1353 JUMP JUMPDEST SWAP1 SSTORE DUP6 PUSH1 0x0 MSTORE PUSH1 0x5 DUP11 MSTORE PUSH2 0x396 PUSH1 0x40 PUSH1 0x0 KECCAK256 SWAP2 DUP3 SLOAD PUSH2 0x1726 JUMP JUMPDEST SWAP1 SSTORE JUMPDEST DUP3 ADD SLOAD SWAP2 ADD SLOAD PUSH1 0x40 DUP1 MLOAD SWAP6 DUP7 MSTORE PUSH1 0x20 DUP7 ADD DUP9 SWAP1 MSTORE DUP6 ADD SWAP2 SWAP1 SWAP2 MSTORE PUSH1 0x60 DUP5 ADD MSTORE CALLER SWAP3 PUSH1 0x80 SWAP1 LOG4 PUSH1 0x1 PUSH1 0x0 SSTORE PUSH1 0x40 MLOAD SWAP1 DUP2 MSTORE RETURN JUMPDEST DUP3 DUP5 ADD PUSH2 0x3D9 DUP9 DUP3 SLOAD PUSH2 0x1726 JUMP JUMPDEST SWAP1 SSTORE DUP2 DUP5 ADD PUSH2 0x3E9 DUP11 DUP3 SLOAD PUSH2 0x1353 JUMP JUMPDEST SWAP1 SSTORE DUP6 PUSH1 0x0 MSTORE PUSH1 0x6 DUP11 MSTORE PUSH2 0x403 PUSH1 0x40 PUSH1 0x0 KECCAK256 SWAP2 DUP3 SLOAD PUSH2 0x1726 JUMP JUMPDEST SWAP1 SSTORE PUSH2 0x399 JUMP JUMPDEST PUSH1 0x40 MLOAD PUSH3 0x461BCD PUSH1 0xE5 SHL DUP2 MSTORE PUSH1 0x4 DUP2 ADD DUP14 SWAP1 MSTORE PUSH1 0x1D PUSH1 0x24 DUP3 ADD MSTORE PUSH32 0x496E73756666696369656E74206F7574707574206C6971756964697479000000 PUSH1 0x44 DUP3 ADD MSTORE PUSH1 0x64 SWAP1 REVERT JUMPDEST PUSH1 0x40 MLOAD PUSH3 0x461BCD PUSH1 0xE5 SHL DUP2 MSTORE PUSH1 0x4 DUP2 ADD DUP15 SWAP1 MSTORE PUSH1 0x12 PUSH1 0x24 DUP3 ADD MSTORE PUSH18 0x45786365737369766520736C697070616765 PUSH1 0x70 SHL PUSH1 0x44 DUP3 ADD MSTORE PUSH1 0x64 SWAP1 REVERT JUMPDEST PUSH4 0x4E487B71 PUSH1 0xE0 SHL PUSH1 0x0 MSTORE PUSH1 0x11 PUSH1 0x4 MSTORE PUSH1 0x24 PUSH1 0x0 REVERT JUMPDEST POP DUP11 ISZERO ISZERO PUSH2 0x2C4 JUMP JUMPDEST SWAP1 PUSH2 0x2BB JUMP JUMPDEST DUP4 DUP7 ADD SLOAD SWAP10 PUSH2 0x2AB JUMP JUMPDEST DUP4 DUP6 ADD SLOAD SWAP2 PUSH2 0x29F JUMP JUMPDEST POP PUSH1 0x1 DUP6 ADD SLOAD DUP3 AND DUP9 EQ PUSH2 0x28A JUMP JUMPDEST PUSH1 0x40 MLOAD PUSH3 0x461BCD PUSH1 0xE5 SHL DUP2 MSTORE PUSH1 0x4 DUP2 ADD DUP9 SWAP1 MSTORE PUSH1 0x12 PUSH1 0x24 DUP3 ADD MSTORE PUSH18 0x416D6F756E74206D757374206265203E203 PUSH1 0x74 SHL PUSH1 0x44 DUP3 ADD MSTORE PUSH1 0x64 SWAP1 REVERT JUMPDEST CALLVALUE PUSH2 0x1E4 JUMPI PUSH1 0x20 DUP1 PUSH1 0x3 NOT CALLDATASIZE ADD SLT PUSH2 0x1E4 JUMPI PUSH1 0x4 CALLDATALOAD SWAP1 PUSH2 0x529 PUSH2 0x13A4 JUMP JUMPDEST PUSH2 0x531 PUSH2 0x125E JUMP JUMPDEST PUSH2 0x53E PUSH1 0x2 SLOAD DUP4 LT PUSH2 0x16A5 JUMP JUMPDEST DUP2 PUSH1 0x0 MSTORE PUSH1 0x5 DUP2 MSTORE PUSH1 0x40 PUSH1 0x0 KECCAK256 SLOAD SWAP1 PUSH1 0x6 DUP2 MSTORE PUSH1 0x40 PUSH1 0x0 KECCAK256 SLOAD SWAP1 DUP3 ISZERO DUP1 ISZERO DUP1 SWAP2 PUSH2 0x65A JUMPI JUMPDEST ISZERO PUSH2 0x620 JUMPI SWAP2 PUSH32 0x9B95C9B8CE35525EDAE70C1FBD706E016DD0F8DBA189B55A1563DE7871033E0F SWAP4 SWAP2 PUSH1 0x40 SWAP4 DUP7 PUSH1 0x0 MSTORE PUSH1 0x3 DUP3 MSTORE DUP5 PUSH1 0x0 KECCAK256 SWAP1 PUSH2 0x5F1 JUMPI JUMPDEST DUP3 DUP1 PUSH2 0x5BA JUMPI JUMPDEST POP POP DUP4 MLOAD SWAP3 DUP4 MSTORE DUP3 ADD MSTORE LOG2 PUSH1 0x1 PUSH1 0x0 SSTORE STOP JUMPDEST PUSH1 0x0 DUP9 DUP2 MSTORE PUSH1 0x6 DUP5 MSTORE DUP7 DUP2 KECCAK256 SSTORE PUSH1 0x1 SWAP2 DUP3 ADD SLOAD SWAP2 SLOAD PUSH2 0x5EA SWAP3 PUSH1 0x1 PUSH1 0x1 PUSH1 0xA0 SHL SUB PUSH1 0x8 SWAP3 SWAP1 SWAP3 SHR DUP3 AND SWAP2 AND PUSH2 0x1753 JUMP JUMPDEST DUP7 DUP3 PUSH2 0x5A8 JUMP JUMPDEST PUSH1 0x5 DUP3 MSTORE PUSH1 0x0 DUP6 DUP2 KECCAK256 SSTORE DUP1 SLOAD PUSH1 0x1 SLOAD PUSH2 0x61B SWAP2 DUP7 SWAP2 PUSH1 0x8 SHR PUSH1 0x1 PUSH1 0x1 PUSH1 0xA0 SHL SUB SWAP1 DUP2 AND SWAP2 AND PUSH2 0x1753 JUMP JUMPDEST PUSH2 0x5A1 JUMP JUMPDEST PUSH1 0x40 MLOAD PUSH3 0x461BCD PUSH1 0xE5 SHL DUP2 MSTORE PUSH1 0x4 DUP2 ADD DUP4 SWAP1 MSTORE PUSH1 0x12 PUSH1 0x24 DUP3 ADD MSTORE PUSH18 0x139BC81999595CC81D1BC818DBDB1B1958DD PUSH1 0x72 SHL PUSH1 0x44 DUP3 ADD MSTORE PUSH1 0x64 SWAP1 REVERT JUMPDEST POP DUP3 ISZERO ISZERO PUSH2 0x563 JUMP JUMPDEST CALLVALUE PUSH2 0x1E4 JUMPI PUSH1 0x20 CALLDATASIZE PUSH1 0x3 NOT ADD SLT PUSH2 0x1E4 JUMPI PUSH1 0x4 DUP1 CALLDATALOAD PUSH1 0x0 SWAP1 DUP2 MSTORE PUSH1 0x3 PUSH1 0x20 DUP2 DUP2 MSTORE PUSH1 0x40 SWAP3 DUP4 SWAP1 KECCAK256 DUP1 SLOAD PUSH1 0x1 DUP3 ADD SLOAD PUSH1 0x2 DUP4 ADD SLOAD SWAP5 DUP4 ADD SLOAD SWAP7 DUP4 ADD SLOAD PUSH1 0x5 SWAP1 SWAP4 ADD SLOAD DUP7 MLOAD PUSH1 0x1 PUSH1 0x1 PUSH1 0xA0 SHL SUB SWAP4 DUP5 AND DUP2 MSTORE SWAP3 SWAP1 SWAP2 AND SWAP4 DUP3 ADD SWAP4 SWAP1 SWAP4 MSTORE SWAP4 DUP5 ADD SWAP3 SWAP1 SWAP3 MSTORE PUSH1 0x60 DUP4 ADD SWAP4 SWAP1 SWAP4 MSTORE PUSH1 0x80 DUP3 ADD MSTORE PUSH1 0xFF SWAP1 SWAP2 AND ISZERO ISZERO PUSH1 0xA0 DUP3 ADD MSTORE PUSH1 0xC0 SWAP1 RETURN JUMPDEST SUB SWAP1 RETURN JUMPDEST CALLVALUE PUSH2 0x1E4 JUMPI PUSH1 0x0 CALLDATASIZE PUSH1 0x3 NOT ADD SLT PUSH2 0x1E4 JUMPI PUSH1 0x20 PUSH1 0x40 MLOAD PUSH2 0x2710 DUP2 MSTORE RETURN JUMPDEST CALLVALUE PUSH2 0x1E4 JUMPI PUSH1 0x40 CALLDATASIZE PUSH1 0x3 NOT ADD SLT PUSH2 0x1E4 JUMPI PUSH1 0x24 CALLDATALOAD PUSH1 0x4 CALLDATALOAD PUSH2 0x723 PUSH2 0x13A4 JUMP JUMPDEST PUSH2 0x730 PUSH1 0x2 SLOAD DUP3 LT PUSH2 0x16A5 JUMP JUMPDEST DUP1 PUSH1 0x0 MSTORE PUSH1 0x3 PUSH1 0x20 MSTORE PUSH1 0x40 PUSH1 0x0 KECCAK256 PUSH1 0x4 DUP2 ADD SWAP3 DUP4 SLOAD SWAP4 DUP5 ISZERO PUSH2 0x898 JUMPI CALLER PUSH1 0x0 MSTORE PUSH1 0x4 PUSH1 0x20 MSTORE PUSH1 0x40 PUSH1 0x0 KECCAK256 DUP5 PUSH1 0x0 MSTORE PUSH1 0x20 MSTORE PUSH1 0x1 PUSH1 0x40 PUSH1 0x0 KECCAK256 ADD SWAP1 DUP2 SLOAD SWAP2 DUP4 DUP4 LT PUSH2 0x85D JUMPI DUP5 PUSH2 0x830 SWAP3 PUSH1 0x2 PUSH32 0x9C27AEDC1D1FCCD4271DC15980DAB26A907CDB41ED08AEF747C6D0A9680F55CE SWAP8 ADD SWAP9 PUSH2 0x7B3 DUP2 PUSH2 0x7AE DUP13 SLOAD DUP11 PUSH2 0x12FB JUMP JUMPDEST PUSH2 0x1733 JUMP JUMPDEST SWAP10 DUP11 SWAP5 PUSH2 0x7E6 DUP10 PUSH2 0x7CD PUSH1 0x3 DUP9 ADD SWAP6 PUSH2 0x7AE DUP8 SLOAD DUP5 PUSH2 0x12FB JUMP JUMPDEST SWAP10 DUP11 SWAP9 ISZERO ISZERO DUP1 PUSH2 0x854 JUMPI JUMPDEST PUSH2 0x7E1 SWAP1 PUSH2 0x12B9 JUMP JUMPDEST PUSH2 0x1353 JUMP JUMPDEST SWAP1 SSTORE PUSH2 0x7F3 DUP12 DUP3 SLOAD PUSH2 0x1353 JUMP JUMPDEST SWAP1 SSTORE PUSH2 0x800 DUP5 DUP3 SLOAD PUSH2 0x1353 JUMP JUMPDEST SWAP1 SSTORE PUSH2 0x80D DUP7 DUP3 SLOAD PUSH2 0x1353 JUMP JUMPDEST SWAP1 SSTORE PUSH1 0x1 DUP1 PUSH1 0xA0 SHL SUB PUSH2 0x824 DUP10 CALLER DUP4 DUP6 SLOAD AND PUSH2 0x1753 JUMP JUMPDEST PUSH1 0x1 CALLER SWAP3 ADD SLOAD AND PUSH2 0x1753 JUMP JUMPDEST PUSH1 0x40 DUP1 MLOAD SWAP6 DUP7 MSTORE PUSH1 0x20 DUP7 ADD SWAP2 SWAP1 SWAP2 MSTORE DUP5 ADD MSTORE CALLER SWAP3 DUP1 PUSH1 0x60 DUP2 ADD JUMPDEST SUB SWAP1 LOG3 PUSH1 0x1 PUSH1 0x0 SSTORE STOP JUMPDEST POP DUP9 ISZERO ISZERO PUSH2 0x7D8 JUMP JUMPDEST PUSH1 0x40 MLOAD PUSH3 0x461BCD PUSH1 0xE5 SHL DUP2 MSTORE PUSH1 0x20 PUSH1 0x4 DUP3 ADD MSTORE PUSH1 0x13 PUSH1 0x24 DUP3 ADD MSTORE PUSH19 0x496E73756666696369656E7420736861726573 PUSH1 0x68 SHL PUSH1 0x44 DUP3 ADD MSTORE PUSH1 0x64 SWAP1 REVERT JUMPDEST PUSH1 0x40 MLOAD PUSH3 0x461BCD PUSH1 0xE5 SHL DUP2 MSTORE PUSH1 0x20 PUSH1 0x4 DUP3 ADD MSTORE PUSH1 0x12 PUSH1 0x24 DUP3 ADD MSTORE PUSH18 0x496E76616C696420706F6F6C207374617465 PUSH1 0x70 SHL PUSH1 0x44 DUP3 ADD MSTORE PUSH1 0x64 SWAP1 REVERT JUMPDEST CALLVALUE PUSH2 0x1E4 JUMPI PUSH1 0x0 CALLDATASIZE PUSH1 0x3 NOT ADD SLT PUSH2 0x1E4 JUMPI PUSH1 0x1 SLOAD PUSH1 0x40 MLOAD PUSH1 0x8 SWAP2 SWAP1 SWAP2 SHR PUSH1 0x1 PUSH1 0x1 PUSH1 0xA0 SHL SUB AND DUP2 MSTORE PUSH1 0x20 SWAP1 RETURN JUMPDEST CALLVALUE PUSH2 0x1E4 JUMPI PUSH1 0x80 CALLDATASIZE PUSH1 0x3 NOT ADD SLT PUSH2 0x1E4 JUMPI PUSH2 0x918 PUSH2 0x1248 JUMP JUMPDEST PUSH2 0x920 PUSH2 0x1232 JUMP JUMPDEST PUSH1 0x44 CALLDATALOAD SWAP2 PUSH1 0x64 CALLDATALOAD SWAP1 PUSH2 0x930 PUSH2 0x13A4 JUMP JUMPDEST PUSH2 0x938 PUSH2 0x1360 JUMP JUMPDEST PUSH1 0x1 PUSH1 0x1 PUSH1 0xA0 SHL SUB DUP2 AND DUP1 ISZERO ISZERO DUP1 PUSH2 0xC5B JUMPI JUMPDEST ISZERO PUSH2 0xC25 JUMPI PUSH1 0x1 PUSH1 0x1 PUSH1 0xA0 SHL SUB DUP5 AND SWAP1 DUP1 DUP3 EQ PUSH2 0xBE0 JUMPI DUP6 ISZERO ISZERO DUP1 PUSH2 0xBD7 JUMPI JUMPDEST PUSH2 0x974 SWAP1 PUSH2 0x12B9 JUMP JUMPDEST LT ISZERO PUSH2 0xBD2 JUMPI SWAP2 SWAP3 SWAP1 SWAP3 JUMPDEST PUSH1 0x2 SLOAD SWAP4 PUSH2 0x98D DUP2 DUP5 PUSH2 0x12FB JUMP JUMPDEST PUSH1 0x0 PUSH1 0x3 DUP3 GT ISZERO PUSH2 0xBC4 JUMPI POP DUP1 PUSH1 0x1 SWAP1 DUP1 DUP3 SHR DUP3 DUP2 ADD DUP1 SWAP2 GT PUSH2 0x489 JUMPI SWAP2 SWAP1 JUMPDEST DUP4 DUP4 LT PUSH2 0xBA4 JUMPI POP POP POP JUMPDEST PUSH2 0x9C5 PUSH2 0x3E8 DUP3 GT PUSH2 0x130E JUMP JUMPDEST DUP1 PUSH2 0x3E7 NOT DUP2 ADD GT PUSH2 0x489 JUMPI PUSH2 0x9E6 DUP5 ADDRESS CALLER PUSH1 0x1 PUSH1 0x1 PUSH1 0xA0 SHL SUB DUP10 AND PUSH2 0x13FA JUMP JUMPDEST PUSH2 0x9FB DUP3 ADDRESS CALLER PUSH1 0x1 PUSH1 0x1 PUSH1 0xA0 SHL SUB DUP8 AND PUSH2 0x13FA JUMP JUMPDEST PUSH1 0x40 MLOAD PUSH1 0xC0 DUP2 ADD DUP2 DUP2 LT PUSH8 0xFFFFFFFFFFFFFFFF DUP3 GT OR PUSH2 0xB8E JUMPI PUSH1 0x40 MSTORE PUSH1 0x1 DUP1 PUSH1 0xA0 SHL SUB DUP7 AND DUP2 MSTORE PUSH1 0x5 PUSH1 0x20 DUP3 ADD SWAP2 PUSH1 0x1 DUP1 PUSH1 0xA0 SHL SUB DUP7 AND DUP4 MSTORE PUSH1 0x40 DUP2 ADD DUP8 DUP2 MSTORE PUSH1 0x60 DUP3 ADD DUP7 DUP2 MSTORE PUSH1 0x80 DUP4 ADD SWAP2 DUP7 DUP4 MSTORE PUSH1 0xA0 DUP5 ADD SWAP6 PUSH1 0x1 DUP8 MSTORE DUP13 PUSH1 0x0 MSTORE PUSH1 0x3 PUSH1 0x20 MSTORE PUSH1 0x40 PUSH1 0x0 KECCAK256 SWAP5 PUSH1 0x1 DUP1 PUSH1 0xA0 SHL SUB SWAP1 MLOAD AND PUSH12 0xFFFFFFFFFFFFFFFFFFFFFFFF PUSH1 0xA0 SHL SWAP1 DUP2 DUP8 SLOAD AND OR DUP7 SSTORE PUSH1 0x1 DUP7 ADD SWAP2 PUSH1 0x1 DUP1 PUSH1 0xA0 SHL SUB SWAP1 MLOAD AND SWAP1 DUP3 SLOAD AND OR SWAP1 SSTORE MLOAD PUSH1 0x2 DUP5 ADD SSTORE MLOAD PUSH1 0x3 DUP4 ADD SSTORE MLOAD PUSH1 0x4 DUP3 ADD SSTORE ADD SWAP1 MLOAD ISZERO ISZERO PUSH1 0xFF DUP1 NOT DUP4 SLOAD AND SWAP2 AND OR SWAP1 SSTORE PUSH1 0x40 MLOAD SWAP3 PUSH1 0x80 DUP5 ADD SWAP3 DUP5 DUP5 LT PUSH8 0xFFFFFFFFFFFFFFFF DUP6 GT OR PUSH2 0xB8E JUMPI DUP8 SWAP5 PUSH1 0x3 PUSH1 0x40 SWAP5 PUSH32 0x1AF6355A170ECC0327E49A9AA985A86667DC35A39B8B29F632CD215A9F496180 SWAP7 DUP7 MSTORE DUP8 DUP4 MSTORE PUSH1 0x20 DUP4 ADD SWAP1 PUSH2 0x3E7 NOT ADD DUP2 MSTORE DUP6 DUP4 ADD DUP10 DUP2 MSTORE PUSH1 0x60 DUP5 ADD SWAP2 DUP6 DUP4 MSTORE CALLER PUSH1 0x0 MSTORE PUSH1 0x4 PUSH1 0x20 MSTORE DUP8 PUSH1 0x0 KECCAK256 DUP11 PUSH1 0x0 MSTORE PUSH1 0x20 MSTORE DUP8 PUSH1 0x0 KECCAK256 SWAP5 MLOAD DUP6 SSTORE MLOAD PUSH1 0x1 DUP6 ADD SSTORE MLOAD PUSH1 0x2 DUP5 ADD SSTORE MLOAD SWAP2 ADD SSTORE DUP3 MLOAD SWAP6 DUP7 MSTORE PUSH1 0x20 DUP7 ADD MSTORE PUSH1 0x1 DUP1 PUSH1 0xA0 SHL SUB AND SWAP5 PUSH1 0x1 DUP1 PUSH1 0xA0 SHL SUB AND SWAP4 LOG4 PUSH1 0x2 SLOAD SWAP1 PUSH1 0x0 NOT DUP3 EQ PUSH2 0x489 JUMPI PUSH1 0x1 PUSH1 0x20 SWAP3 ADD PUSH1 0x2 SSTORE PUSH1 0x1 PUSH1 0x0 SSTORE PUSH1 0x40 MLOAD SWAP1 DUP2 MSTORE RETURN JUMPDEST PUSH4 0x4E487B71 PUSH1 0xE0 SHL PUSH1 0x0 MSTORE PUSH1 0x41 PUSH1 0x4 MSTORE PUSH1 0x24 PUSH1 0x0 REVERT JUMPDEST SWAP1 SWAP2 SWAP3 POP PUSH2 0xBBB DUP4 PUSH2 0xBB6 DUP2 DUP5 PUSH2 0x1733 JUMP JUMPDEST PUSH2 0x1726 JUMP JUMPDEST DUP3 SHR SWAP2 SWAP1 PUSH2 0x9AD JUMP JUMPDEST SWAP1 ISZERO PUSH2 0x9B8 JUMPI POP PUSH1 0x1 PUSH2 0x9B8 JUMP JUMPDEST PUSH2 0x97F JUMP JUMPDEST POP DUP4 ISZERO ISZERO PUSH2 0x96B JUMP JUMPDEST PUSH1 0x40 MLOAD PUSH3 0x461BCD PUSH1 0xE5 SHL DUP2 MSTORE PUSH1 0x20 PUSH1 0x4 DUP3 ADD MSTORE PUSH1 0x18 PUSH1 0x24 DUP3 ADD MSTORE PUSH32 0x546F6B656E73206D75737420626520646966666572656E740000000000000000 PUSH1 0x44 DUP3 ADD MSTORE PUSH1 0x64 SWAP1 REVERT JUMPDEST PUSH1 0x40 MLOAD PUSH3 0x461BCD PUSH1 0xE5 SHL DUP2 MSTORE PUSH1 0x20 PUSH1 0x4 DUP3 ADD MSTORE PUSH1 0xE PUSH1 0x24 DUP3 ADD MSTORE PUSH14 0x496E76616C696420746F6B656E73 PUSH1 0x90 SHL PUSH1 0x44 DUP3 ADD MSTORE PUSH1 0x64 SWAP1 REVERT JUMPDEST POP PUSH1 0x1 PUSH1 0x1 PUSH1 0xA0 SHL SUB DUP5 AND ISZERO ISZERO PUSH2 0x94B JUMP JUMPDEST CALLVALUE PUSH2 0x1E4 JUMPI PUSH1 0x0 CALLDATASIZE PUSH1 0x3 NOT ADD SLT PUSH2 0x1E4 JUMPI PUSH2 0xC86 PUSH2 0x125E JUMP JUMPDEST PUSH2 0xC8E PUSH2 0x1360 JUMP JUMPDEST PUSH1 0x1 PUSH1 0xFF NOT DUP2 SLOAD AND OR PUSH1 0x1 SSTORE PUSH32 0x62E78CEA01BEE320CD4E420270B5EA74000D11B0C9F74754EBDBFC544B05A258 PUSH1 0x20 PUSH1 0x40 MLOAD CALLER DUP2 MSTORE LOG1 STOP JUMPDEST CALLVALUE PUSH2 0x1E4 JUMPI PUSH1 0x0 CALLDATASIZE PUSH1 0x3 NOT ADD SLT PUSH2 0x1E4 JUMPI PUSH2 0xCDF PUSH2 0x125E JUMP JUMPDEST PUSH1 0x1 DUP1 SLOAD PUSH2 0x100 PUSH1 0x1 PUSH1 0xA8 SHL SUB NOT DUP2 AND SWAP1 SWAP2 SSTORE PUSH1 0x0 SWAP1 PUSH1 0x8 SHR PUSH1 0x1 PUSH1 0x1 PUSH1 0xA0 SHL SUB AND PUSH32 0x8BE0079C531659141344CD1FD0A4F28419497F9722A3DAAFE3B4186F6B6457E0 DUP3 DUP1 LOG3 STOP JUMPDEST CALLVALUE PUSH2 0x1E4 JUMPI PUSH1 0x20 CALLDATASIZE PUSH1 0x3 NOT ADD SLT PUSH2 0x1E4 JUMPI PUSH1 0x4 CALLDATALOAD PUSH1 0x0 MSTORE PUSH1 0x5 PUSH1 0x20 MSTORE PUSH1 0x20 PUSH1 0x40 PUSH1 0x0 KECCAK256 SLOAD PUSH1 0x40 MLOAD SWAP1 DUP2 MSTORE RETURN JUMPDEST CALLVALUE PUSH2 0x1E4 JUMPI PUSH1 0x20 CALLDATASIZE PUSH1 0x3 NOT ADD SLT PUSH2 0x1E4 JUMPI PUSH1 0x4 CALLDATALOAD PUSH1 0x0 MSTORE PUSH1 0x6 PUSH1 0x20 MSTORE PUSH1 0x20 PUSH1 0x40 PUSH1 0x0 KECCAK256 SLOAD PUSH1 0x40 MLOAD SWAP1 DUP2 MSTORE RETURN JUMPDEST CALLVALUE PUSH2 0x1E4 JUMPI PUSH1 0x0 CALLDATASIZE PUSH1 0x3 NOT ADD SLT PUSH2 0x1E4 JUMPI PUSH1 0x20 PUSH1 0xFF PUSH1 0x1 SLOAD AND PUSH1 0x40 MLOAD SWAP1 ISZERO ISZERO DUP2 MSTORE RETURN JUMPDEST CALLVALUE PUSH2 0x1E4 JUMPI PUSH1 0x40 CALLDATASIZE PUSH1 0x3 NOT ADD SLT PUSH2 0x1E4 JUMPI PUSH1 0x1 PUSH1 0x1 PUSH1 0xA0 SHL SUB PUSH2 0xDC3 PUSH2 0x1248 JUMP JUMPDEST AND PUSH1 0x0 SWAP1 DUP2 MSTORE PUSH1 0x4 PUSH1 0x20 SWAP1 DUP2 MSTORE PUSH1 0x40 DUP1 DUP4 KECCAK256 PUSH1 0x24 CALLDATALOAD DUP5 MSTORE DUP3 MSTORE SWAP2 DUP3 SWAP1 KECCAK256 DUP1 SLOAD PUSH1 0x1 DUP3 ADD SLOAD PUSH1 0x2 DUP4 ADD SLOAD PUSH1 0x3 SWAP1 SWAP4 ADD SLOAD DUP6 MLOAD SWAP3 DUP4 MSTORE SWAP4 DUP3 ADD MSTORE SWAP3 DUP4 ADD MSTORE PUSH1 0x60 DUP3 ADD MSTORE PUSH1 0x80 SWAP1 RETURN JUMPDEST CALLVALUE PUSH2 0x1E4 JUMPI PUSH1 0x60 CALLDATASIZE PUSH1 0x3 NOT ADD SLT PUSH2 0x1E4 JUMPI PUSH1 0x44 CALLDATALOAD PUSH1 0x24 CALLDATALOAD PUSH1 0x4 CALLDATALOAD PUSH2 0xE2B PUSH2 0x13A4 JUMP JUMPDEST PUSH2 0xE33 PUSH2 0x1360 JUMP JUMPDEST PUSH2 0xE40 PUSH1 0x2 SLOAD DUP3 LT PUSH2 0x16A5 JUMP JUMPDEST DUP1 PUSH1 0x0 MSTORE PUSH1 0x20 PUSH1 0x3 DUP2 MSTORE PUSH1 0x40 PUSH1 0x0 KECCAK256 SWAP4 PUSH2 0xE60 PUSH1 0xFF PUSH1 0x5 DUP8 ADD SLOAD AND PUSH2 0x16E7 JUMP JUMPDEST DUP4 ISZERO ISZERO DUP1 PUSH2 0x1032 JUMPI JUMPDEST PUSH2 0xE72 SWAP1 PUSH2 0x12B9 JUMP JUMPDEST PUSH1 0x4 DUP6 ADD SWAP2 DUP3 SLOAD SWAP3 PUSH2 0xE84 DUP5 DUP8 PUSH2 0x12FB JUMP JUMPDEST SWAP4 PUSH1 0x2 DUP9 ADD SWAP5 DUP6 SLOAD SWAP1 PUSH1 0x1 DUP3 ADD DUP1 SWAP3 GT PUSH2 0x489 JUMPI PUSH2 0xEAC SWAP2 PUSH2 0xEA5 SWAP2 PUSH2 0x1733 JUMP JUMPDEST SWAP2 DUP6 PUSH2 0x12FB JUMP JUMPDEST SWAP1 PUSH1 0x3 DUP10 ADD SWAP2 DUP3 SLOAD PUSH1 0x1 DUP2 ADD DUP1 SWAP2 GT PUSH2 0x489 JUMPI PUSH2 0xEC8 SWAP2 PUSH2 0x1733 JUMP JUMPDEST DUP1 DUP3 LT ISZERO PUSH2 0x102A JUMPI POP SWAP5 JUMPDEST DUP6 ISZERO PUSH2 0xFE5 JUMPI PUSH2 0xF28 DUP6 PUSH32 0x89607A52CCA0D390FF7D0AD4E97545804DCC41418E1DAEE9EC3948596FEC944 SWAP9 SWAP10 SWAP11 PUSH1 0x1 DUP1 PUSH1 0xA0 SHL SUB SWAP1 PUSH2 0xF1A DUP14 DUP4 DUP4 SLOAD AND ADDRESS SWAP1 CALLER SWAP1 PUSH2 0x13FA JUMP JUMPDEST ADDRESS SWAP2 PUSH1 0x1 CALLER SWAP3 ADD SLOAD AND PUSH2 0x13FA JUMP JUMPDEST PUSH2 0xF33 DUP10 DUP3 SLOAD PUSH2 0x1726 JUMP JUMPDEST SWAP1 SSTORE PUSH2 0xF40 DUP5 DUP3 SLOAD PUSH2 0x1726 JUMP JUMPDEST SWAP1 SSTORE PUSH2 0xF4D DUP5 DUP3 SLOAD PUSH2 0x1726 JUMP JUMPDEST SWAP1 SSTORE CALLER PUSH1 0x0 MSTORE PUSH1 0x4 DUP2 MSTORE PUSH1 0x40 PUSH1 0x0 KECCAK256 DUP6 PUSH1 0x0 MSTORE DUP2 MSTORE PUSH1 0x1 PUSH1 0x40 PUSH1 0x0 KECCAK256 ADD PUSH2 0xF75 DUP5 DUP3 SLOAD PUSH2 0x1726 JUMP JUMPDEST SWAP1 SSTORE CALLER PUSH1 0x0 MSTORE PUSH1 0x4 DUP2 MSTORE PUSH1 0x40 PUSH1 0x0 KECCAK256 DUP6 PUSH1 0x0 MSTORE DUP2 MSTORE PUSH1 0x2 PUSH1 0x40 PUSH1 0x0 KECCAK256 ADD PUSH2 0xF9D DUP8 DUP3 SLOAD PUSH2 0x1726 JUMP JUMPDEST SWAP1 SSTORE CALLER PUSH1 0x0 MSTORE PUSH1 0x4 DUP2 MSTORE PUSH1 0x40 PUSH1 0x0 KECCAK256 SWAP1 DUP6 PUSH1 0x0 MSTORE MSTORE PUSH1 0x3 PUSH1 0x40 PUSH1 0x0 KECCAK256 ADD PUSH2 0xFC5 DUP3 DUP3 SLOAD PUSH2 0x1726 JUMP JUMPDEST SWAP1 SSTORE PUSH1 0x40 DUP1 MLOAD SWAP6 DUP7 MSTORE PUSH1 0x20 DUP7 ADD SWAP2 SWAP1 SWAP2 MSTORE DUP5 ADD MSTORE CALLER SWAP3 DUP1 PUSH1 0x60 DUP2 ADD PUSH2 0x84A JUMP JUMPDEST PUSH1 0x40 MLOAD PUSH3 0x461BCD PUSH1 0xE5 SHL DUP2 MSTORE PUSH1 0x4 DUP2 ADD DUP6 SWAP1 MSTORE PUSH1 0x1F PUSH1 0x24 DUP3 ADD MSTORE PUSH32 0x496E73756666696369656E74206C69717569646974792070726F766964656400 PUSH1 0x44 DUP3 ADD MSTORE PUSH1 0x64 SWAP1 REVERT JUMPDEST SWAP1 POP SWAP5 PUSH2 0xED3 JUMP JUMPDEST POP DUP1 ISZERO ISZERO PUSH2 0xE69 JUMP JUMPDEST CALLVALUE PUSH2 0x1E4 JUMPI PUSH1 0x0 CALLDATASIZE PUSH1 0x3 NOT ADD SLT PUSH2 0x1E4 JUMPI PUSH2 0x1054 PUSH2 0x125E JUMP JUMPDEST PUSH1 0x1 SLOAD PUSH1 0xFF DUP2 AND ISZERO PUSH2 0x1093 JUMPI PUSH1 0xFF NOT AND PUSH1 0x1 SSTORE PUSH32 0x5DB9EE0A495BF2E6FF9C91A7834C1BA4FDD244A5E8AA4E537BD38AEAE4B073AA PUSH1 0x20 PUSH1 0x40 MLOAD CALLER DUP2 MSTORE LOG1 STOP JUMPDEST PUSH1 0x40 MLOAD PUSH3 0x461BCD PUSH1 0xE5 SHL DUP2 MSTORE PUSH1 0x20 PUSH1 0x4 DUP3 ADD MSTORE PUSH1 0x14 PUSH1 0x24 DUP3 ADD MSTORE PUSH20 0x14185D5CD8589B194E881B9BDD081C185D5CD959 PUSH1 0x62 SHL PUSH1 0x44 DUP3 ADD MSTORE PUSH1 0x64 SWAP1 REVERT JUMPDEST CALLVALUE PUSH2 0x1E4 JUMPI PUSH1 0x20 CALLDATASIZE PUSH1 0x3 NOT ADD SLT PUSH2 0x1E4 JUMPI PUSH1 0x4 CALLDATALOAD PUSH2 0x10F0 PUSH1 0x2 SLOAD DUP3 LT PUSH2 0x16A5 JUMP JUMPDEST PUSH1 0x0 SWAP1 DUP2 MSTORE PUSH1 0x3 PUSH1 0x20 DUP2 DUP2 MSTORE PUSH1 0x40 SWAP3 DUP4 SWAP1 KECCAK256 DUP1 SLOAD PUSH1 0x1 DUP3 ADD SLOAD PUSH1 0x2 DUP4 ADD SLOAD SWAP5 DUP4 ADD SLOAD PUSH1 0x4 DUP5 ADD SLOAD PUSH1 0x5 SWAP1 SWAP5 ADD SLOAD DUP8 MLOAD PUSH1 0x1 PUSH1 0x1 PUSH1 0xA0 SHL SUB SWAP5 DUP6 AND DUP2 MSTORE SWAP4 SWAP1 SWAP3 AND SWAP5 DUP4 ADD SWAP5 SWAP1 SWAP5 MSTORE SWAP5 DUP2 ADD SWAP4 SWAP1 SWAP4 MSTORE PUSH1 0x60 DUP4 ADD SWAP2 SWAP1 SWAP2 MSTORE PUSH1 0x80 DUP3 ADD MSTORE PUSH1 0xFF SWAP1 SWAP2 AND ISZERO ISZERO PUSH1 0xA0 DUP3 ADD MSTORE PUSH1 0xC0 SWAP1 RETURN JUMPDEST CALLVALUE PUSH2 0x1E4 JUMPI PUSH1 0x40 CALLDATASIZE PUSH1 0x3 NOT ADD SLT PUSH2 0x1E4 JUMPI PUSH1 0x1 PUSH1 0x1 PUSH1 0xA0 SHL SUB PUSH2 0x117D PUSH2 0x1248 JUMP JUMPDEST AND PUSH1 0x0 MSTORE PUSH1 0x4 PUSH1 0x20 MSTORE PUSH1 0x40 PUSH1 0x0 KECCAK256 PUSH1 0x24 CALLDATALOAD PUSH1 0x0 MSTORE PUSH1 0x20 MSTORE PUSH1 0x40 PUSH1 0x0 KECCAK256 PUSH1 0x1 DUP2 ADD SLOAD PUSH2 0x6E3 PUSH1 0x3 PUSH1 0x2 DUP5 ADD SLOAD SWAP4 ADD SLOAD PUSH1 0x40 MLOAD SWAP4 DUP5 SWAP4 DUP5 PUSH1 0x40 SWAP2 SWAP5 SWAP4 SWAP3 PUSH1 0x60 DUP3 ADD SWAP6 DUP3 MSTORE PUSH1 0x20 DUP3 ADD MSTORE ADD MSTORE JUMP JUMPDEST CALLVALUE PUSH2 0x1E4 JUMPI PUSH1 0x0 CALLDATASIZE PUSH1 0x3 NOT ADD SLT PUSH2 0x1E4 JUMPI PUSH1 0x20 PUSH1 0x2 SLOAD PUSH1 0x40 MLOAD SWAP1 DUP2 MSTORE RETURN JUMPDEST CALLVALUE PUSH2 0x1E4 JUMPI PUSH1 0x60 CALLDATASIZE PUSH1 0x3 NOT ADD SLT PUSH2 0x1E4 JUMPI PUSH1 0x20 PUSH2 0x1210 PUSH2 0x1204 PUSH2 0x1232 JUMP JUMPDEST PUSH1 0x44 CALLDATALOAD SWAP1 PUSH1 0x4 CALLDATALOAD PUSH2 0x17DF JUMP JUMPDEST PUSH1 0x40 MLOAD SWAP1 DUP2 MSTORE RETURN JUMPDEST CALLVALUE PUSH2 0x1E4 JUMPI PUSH1 0x0 CALLDATASIZE PUSH1 0x3 NOT ADD SLT PUSH2 0x1E4 JUMPI DUP1 PUSH1 0x1E PUSH1 0x20 SWAP3 MSTORE RETURN JUMPDEST PUSH1 0x24 CALLDATALOAD SWAP1 PUSH1 0x1 PUSH1 0x1 PUSH1 0xA0 SHL SUB DUP3 AND DUP3 SUB PUSH2 0x1E4 JUMPI JUMP JUMPDEST PUSH1 0x4 CALLDATALOAD SWAP1 PUSH1 0x1 PUSH1 0x1 PUSH1 0xA0 SHL SUB DUP3 AND DUP3 SUB PUSH2 0x1E4 JUMPI JUMP JUMPDEST PUSH1 0x1 SLOAD PUSH1 0x8 SHR PUSH1 0x1 PUSH1 0x1 PUSH1 0xA0 SHL SUB AND CALLER SUB PUSH2 0x1275 JUMPI JUMP JUMPDEST PUSH1 0x64 PUSH1 0x40 MLOAD PUSH3 0x461BCD PUSH1 0xE5 SHL DUP2 MSTORE PUSH1 0x20 PUSH1 0x4 DUP3 ADD MSTORE PUSH1 0x20 PUSH1 0x24 DUP3 ADD MSTORE PUSH32 0x4F776E61626C653A2063616C6C6572206973206E6F7420746865206F776E6572 PUSH1 0x44 DUP3 ADD MSTORE REVERT JUMPDEST ISZERO PUSH2 0x12C0 JUMPI JUMP JUMPDEST PUSH1 0x40 MLOAD PUSH3 0x461BCD PUSH1 0xE5 SHL DUP2 MSTORE PUSH1 0x20 PUSH1 0x4 DUP3 ADD MSTORE PUSH1 0x13 PUSH1 0x24 DUP3 ADD MSTORE PUSH19 0x416D6F756E7473206D757374206265203E203 PUSH1 0x6C SHL PUSH1 0x44 DUP3 ADD MSTORE PUSH1 0x64 SWAP1 REVERT JUMPDEST DUP2 DUP2 MUL SWAP3 SWAP2 DUP2 ISZERO SWAP2 DUP5 DIV EQ OR ISZERO PUSH2 0x489 JUMPI JUMP JUMPDEST ISZERO PUSH2 0x1315 JUMPI JUMP JUMPDEST PUSH1 0x40 MLOAD PUSH3 0x461BCD PUSH1 0xE5 SHL DUP2 MSTORE PUSH1 0x20 PUSH1 0x4 DUP3 ADD MSTORE PUSH1 0x16 PUSH1 0x24 DUP3 ADD MSTORE PUSH22 0x496E73756666696369656E74206C6971756964697479 PUSH1 0x50 SHL PUSH1 0x44 DUP3 ADD MSTORE PUSH1 0x64 SWAP1 REVERT JUMPDEST SWAP2 SWAP1 DUP3 SUB SWAP2 DUP3 GT PUSH2 0x489 JUMPI JUMP JUMPDEST PUSH1 0xFF PUSH1 0x1 SLOAD AND PUSH2 0x136C JUMPI JUMP JUMPDEST PUSH1 0x40 MLOAD PUSH3 0x461BCD PUSH1 0xE5 SHL DUP2 MSTORE PUSH1 0x20 PUSH1 0x4 DUP3 ADD MSTORE PUSH1 0x10 PUSH1 0x24 DUP3 ADD MSTORE PUSH16 0x14185D5CD8589B194E881C185D5CD959 PUSH1 0x82 SHL PUSH1 0x44 DUP3 ADD MSTORE PUSH1 0x64 SWAP1 REVERT JUMPDEST PUSH1 0x2 PUSH1 0x0 SLOAD EQ PUSH2 0x13B5 JUMPI PUSH1 0x2 PUSH1 0x0 SSTORE JUMP JUMPDEST PUSH1 0x40 MLOAD PUSH3 0x461BCD PUSH1 0xE5 SHL DUP2 MSTORE PUSH1 0x20 PUSH1 0x4 DUP3 ADD MSTORE PUSH1 0x1F PUSH1 0x24 DUP3 ADD MSTORE PUSH32 0x5265656E7472616E637947756172643A207265656E7472616E742063616C6C00 PUSH1 0x44 DUP3 ADD MSTORE PUSH1 0x64 SWAP1 REVERT JUMPDEST PUSH1 0x40 MLOAD PUSH4 0x23B872DD PUSH1 0xE0 SHL PUSH1 0x20 DUP3 ADD MSTORE PUSH1 0x1 PUSH1 0x1 PUSH1 0xA0 SHL SUB SWAP3 DUP4 AND PUSH1 0x24 DUP3 ADD MSTORE SWAP3 SWAP1 SWAP2 AND PUSH1 0x44 DUP4 ADD MSTORE PUSH1 0x64 DUP1 DUP4 ADD SWAP4 SWAP1 SWAP4 MSTORE SWAP2 DUP2 MSTORE PUSH1 0xA0 DUP2 ADD SWAP2 DUP2 DUP4 LT PUSH8 0xFFFFFFFFFFFFFFFF DUP5 GT OR PUSH2 0xB8E JUMPI PUSH2 0x1453 SWAP3 PUSH1 0x40 MSTORE PUSH2 0x1455 JUMP JUMPDEST JUMP JUMPDEST PUSH1 0x40 DUP1 MLOAD PUSH8 0xFFFFFFFFFFFFFFFF SWAP5 SWAP4 PUSH1 0x1 PUSH1 0x1 PUSH1 0xA0 SHL SUB SWAP1 SWAP4 AND SWAP3 SWAP1 DUP1 DUP4 ADD DUP7 DUP2 GT DUP3 DUP3 LT OR PUSH2 0xB8E JUMPI DUP4 MSTORE PUSH1 0x20 SWAP4 DUP5 DUP3 MSTORE PUSH32 0x5361666545524332303A206C6F772D6C6576656C2063616C6C206661696C6564 DUP6 DUP4 ADD MSTORE PUSH1 0x0 DUP1 DUP5 DUP8 DUP3 SWAP7 MLOAD SWAP2 ADD DUP3 DUP6 GAS CALL RETURNDATASIZE ISZERO PUSH2 0x15C4 JUMPI RETURNDATASIZE SWAP2 DUP9 DUP4 GT PUSH2 0x15B0 JUMPI DUP6 MLOAD SWAP3 PUSH1 0x1F NOT PUSH1 0x3F DUP2 PUSH1 0x1F DUP5 ADD AND ADD AND DUP5 ADD SWAP10 DUP5 DUP12 LT SWAP1 DUP12 GT OR PUSH2 0x159C JUMPI DUP7 SWAP8 SWAP9 SWAP10 PUSH2 0x14FF SWAP7 SWAP8 MSTORE DUP4 MSTORE DUP3 DUP7 DUP10 RETURNDATASIZE SWAP3 ADD RETURNDATACOPY PUSH2 0x15D1 JUMP JUMPDEST DUP1 MLOAD SWAP2 DUP3 ISZERO SWAP2 DUP6 DUP4 ISZERO PUSH2 0x1571 JUMPI JUMPDEST POP POP POP SWAP1 POP ISZERO PUSH2 0x151B JUMPI POP POP JUMP JUMPDEST PUSH1 0x84 SWAP3 POP MLOAD SWAP1 PUSH3 0x461BCD PUSH1 0xE5 SHL DUP3 MSTORE PUSH1 0x4 DUP3 ADD MSTORE PUSH1 0x2A PUSH1 0x24 DUP3 ADD MSTORE PUSH32 0x5361666545524332303A204552433230206F7065726174696F6E20646964206E PUSH1 0x44 DUP3 ADD MSTORE PUSH10 0x1BDD081CDD58D8D95959 PUSH1 0xB2 SHL PUSH1 0x64 DUP3 ADD MSTORE REVERT JUMPDEST SWAP2 SWAP4 DUP2 DUP1 SWAP5 POP ADD SUB SLT PUSH2 0x1598 JUMPI DUP4 ADD MLOAD SWAP1 DUP2 ISZERO ISZERO DUP3 SUB PUSH2 0x1595 JUMPI POP DUP1 CODESIZE DUP1 DUP6 PUSH2 0x150D JUMP JUMPDEST DUP1 REVERT JUMPDEST POP DUP1 REVERT JUMPDEST PUSH4 0x4E487B71 PUSH1 0xE0 SHL DUP7 MSTORE PUSH1 0x41 PUSH1 0x4 MSTORE PUSH1 0x24 DUP7 REVERT JUMPDEST PUSH4 0x4E487B71 PUSH1 0xE0 SHL DUP6 MSTORE PUSH1 0x41 PUSH1 0x4 MSTORE PUSH1 0x24 DUP6 REVERT JUMPDEST PUSH2 0x14FF SWAP4 SWAP5 SWAP6 SWAP7 SWAP8 POP PUSH1 0x60 SWAP2 JUMPDEST SWAP2 SWAP3 SWAP1 ISZERO PUSH2 0x1633 JUMPI POP DUP2 MLOAD ISZERO PUSH2 0x15E5 JUMPI POP SWAP1 JUMP JUMPDEST EXTCODESIZE ISZERO PUSH2 0x15EE JUMPI SWAP1 JUMP JUMPDEST PUSH1 0x40 MLOAD PUSH3 0x461BCD PUSH1 0xE5 SHL DUP2 MSTORE PUSH1 0x20 PUSH1 0x4 DUP3 ADD MSTORE PUSH1 0x1D PUSH1 0x24 DUP3 ADD MSTORE PUSH32 0x416464726573733A2063616C6C20746F206E6F6E2D636F6E7472616374000000 PUSH1 0x44 DUP3 ADD MSTORE PUSH1 0x64 SWAP1 REVERT JUMPDEST DUP3 MLOAD SWAP1 SWAP2 POP ISZERO PUSH2 0x1646 JUMPI POP DUP1 MLOAD SWAP1 PUSH1 0x20 ADD REVERT JUMPDEST PUSH1 0x40 MLOAD SWAP1 PUSH3 0x461BCD PUSH1 0xE5 SHL DUP3 MSTORE DUP2 PUSH1 0x20 DUP1 PUSH1 0x4 DUP4 ADD MSTORE DUP3 MLOAD SWAP1 DUP2 PUSH1 0x24 DUP5 ADD MSTORE PUSH1 0x0 SWAP4 JUMPDEST DUP3 DUP6 LT PUSH2 0x168C JUMPI POP POP PUSH1 0x44 SWAP3 POP PUSH1 0x0 DUP4 DUP3 DUP5 ADD ADD MSTORE PUSH1 0x1F DUP1 NOT SWAP2 ADD AND DUP2 ADD SUB ADD SWAP1 REVERT JUMPDEST DUP5 DUP2 ADD DUP3 ADD MLOAD DUP7 DUP7 ADD PUSH1 0x44 ADD MSTORE SWAP4 DUP2 ADD SWAP4 DUP6 SWAP4 POP PUSH2 0x1669 JUMP JUMPDEST ISZERO PUSH2 0x16AC JUMPI JUMP JUMPDEST PUSH1 0x40 MLOAD PUSH3 0x461BCD PUSH1 0xE5 SHL DUP2 MSTORE PUSH1 0x20 PUSH1 0x4 DUP3 ADD MSTORE PUSH1 0x13 PUSH1 0x24 DUP3 ADD MSTORE PUSH19 0x141BDBDB08191BD95CC81B9BDD08195E1A5CDD PUSH1 0x6A SHL PUSH1 0x44 DUP3 ADD MSTORE PUSH1 0x64 SWAP1 REVERT JUMPDEST ISZERO PUSH2 0x16EE JUMPI JUMP JUMPDEST PUSH1 0x40 MLOAD PUSH3 0x461BCD PUSH1 0xE5 SHL DUP2 MSTORE PUSH1 0x20 PUSH1 0x4 DUP3 ADD MSTORE PUSH1 0x10 PUSH1 0x24 DUP3 ADD MSTORE PUSH16 0x506F6F6C20697320696E616374697665 PUSH1 0x80 SHL PUSH1 0x44 DUP3 ADD MSTORE PUSH1 0x64 SWAP1 REVERT JUMPDEST SWAP2 SWAP1 DUP3 ADD DUP1 SWAP3 GT PUSH2 0x489 JUMPI JUMP JUMPDEST DUP2 ISZERO PUSH2 0x173D JUMPI DIV SWAP1 JUMP JUMPDEST PUSH4 0x4E487B71 PUSH1 0xE0 SHL PUSH1 0x0 MSTORE PUSH1 0x12 PUSH1 0x4 MSTORE PUSH1 0x24 PUSH1 0x0 REVERT JUMPDEST PUSH1 0x40 MLOAD PUSH4 0xA9059CBB PUSH1 0xE0 SHL PUSH1 0x20 DUP3 ADD MSTORE PUSH1 0x1 PUSH1 0x1 PUSH1 0xA0 SHL SUB SWAP1 SWAP3 AND PUSH1 0x24 DUP4 ADD MSTORE PUSH1 0x44 DUP1 DUP4 ADD SWAP4 SWAP1 SWAP4 MSTORE SWAP2 DUP2 MSTORE PUSH1 0x80 DUP2 ADD SWAP2 PUSH8 0xFFFFFFFFFFFFFFFF DUP4 GT DUP3 DUP5 LT OR PUSH2 0xB8E JUMPI PUSH2 0x1453 SWAP3 PUSH1 0x40 MSTORE PUSH2 0x1455 JUMP JUMPDEST ISZERO PUSH2 0x17AA JUMPI JUMP JUMPDEST PUSH1 0x40 MLOAD PUSH3 0x461BCD PUSH1 0xE5 SHL DUP2 MSTORE PUSH1 0x20 PUSH1 0x4 DUP3 ADD MSTORE PUSH1 0xD PUSH1 0x24 DUP3 ADD MSTORE PUSH13 0x24B73B30B634B2103A37B5B2B7 PUSH1 0x99 SHL PUSH1 0x44 DUP3 ADD MSTORE PUSH1 0x64 SWAP1 REVERT JUMPDEST SWAP1 SWAP2 PUSH2 0x17EE PUSH1 0x2 SLOAD DUP4 LT PUSH2 0x16A5 JUMP JUMPDEST PUSH1 0x0 SWAP2 DUP3 MSTORE PUSH1 0x3 PUSH1 0x20 MSTORE PUSH1 0x40 DUP3 KECCAK256 DUP1 SLOAD PUSH1 0x1 PUSH1 0x1 PUSH1 0xA0 SHL SUB SWAP5 DUP6 AND SWAP1 DUP6 AND DUP2 EQ SWAP5 PUSH2 0x1823 SWAP2 DUP7 SWAP2 DUP3 ISZERO PUSH2 0x18B1 JUMPI JUMPDEST POP POP PUSH2 0x17A3 JUMP JUMPDEST DUP4 ISZERO PUSH2 0x18A6 JUMPI PUSH1 0x2 DUP2 ADD SLOAD SWAP4 JUMPDEST ISZERO PUSH2 0x189C JUMPI PUSH1 0x3 ADD SLOAD SWAP2 JUMPDEST DUP4 ISZERO DUP1 ISZERO PUSH2 0x1894 JUMPI JUMPDEST PUSH2 0x188D JUMPI PUSH1 0x1E DUP3 MUL SWAP1 DUP3 DUP3 DIV PUSH1 0x1E EQ DUP4 ISZERO OR ISZERO PUSH2 0x1879 JUMPI POP SWAP2 PUSH2 0x309 PUSH2 0x302 PUSH2 0x30F SWAP4 PUSH2 0x2710 PUSH2 0x1876 SWAP8 SWAP7 DIV SWAP1 PUSH2 0x1353 JUMP JUMPDEST SWAP1 JUMP JUMPDEST PUSH4 0x4E487B71 PUSH1 0xE0 SHL DUP2 MSTORE PUSH1 0x11 PUSH1 0x4 MSTORE PUSH1 0x24 SWAP1 REVERT JUMPDEST SWAP3 POP POP POP SWAP1 JUMP JUMPDEST POP DUP3 ISZERO PUSH2 0x1844 JUMP JUMPDEST PUSH1 0x2 ADD SLOAD SWAP2 PUSH2 0x183B JUMP JUMPDEST PUSH1 0x3 DUP2 ADD SLOAD SWAP4 PUSH2 0x1830 JUMP JUMPDEST PUSH1 0x1 DUP6 ADD SLOAD AND EQ SWAP1 POP CODESIZE DUP1 PUSH2 0x181C JUMP INVALID LOG2 PUSH5 0x6970667358 0x22 SLT KECCAK256 0xAC PUSH11 0x45473E80F0C8A0FDB3A7FC 0xA9 0xA6 0xA7 0xC5 DUP2 0xF6 STATICCALL 0xB1 0xD2 PUSH28 0xA6E8F171658CB577864736F6C634300081400330000000000000000 "},"methodIdentifiers":{"FEE_PERCENTAGE()":"000b46f8","MINIMUM_LIQUIDITY()":"ba9a7a56","PRECISION()":"aaf5eb68","addLiquidity(uint256,uint256,uint256)":"422f1043","collectFees(uint256)":"b17acdcd","collectedFees0(uint256)":"6a17fbaf","collectedFees1(uint256)":"5ee6bade","createPool(address,address,uint256,uint256)":"884db063","getLPPosition(address,uint256)":"1ba0e4c0","getPoolInfo(uint256)":"2f380b35","getSwapAmount(uint256,address,uint256)":"0a8d544d","lpPositions(address,uint256)":"51a578de","nextPoolId()":"18e56131","owner()":"8da5cb5b","pause()":"8456cb59","paused()":"5c975abb","pools(uint256)":"ac4afa38","removeLiquidity(uint256,uint256)":"9d7de6b3","renounceOwnership()":"715018a6","swap(uint256,address,uint256,uint256)":"b33daea9","transferOwnership(address)":"f2fde38b","unpause()":"3f4ba83a"}}}}}