{
  "_format": "hh-sol-artifact-1",
  "contractName": "StreamPayCore",
  "sourceName": "contracts/StreamPayCore.sol",
  "abi": [
    {
      "inputs": [],
      "stateMutability": "nonpayable",
      "type": "constructor"
    },
    {
      "anonymous": false,
      "inputs": [
        {
          "indexed": true,
          "internalType": "address",
          "name": "previousOwner",
          "type": "address"
        },
        {
          "indexed": true,
          "internalType": "address",
          "name": "newOwner",
          "type": "address"
        }
      ],
      "name": "OwnershipTransferred",
      "type": "event"
    },
    {
      "anonymous": false,
      "inputs": [
        {
          "indexed": false,
          "internalType": "address",
          "name": "account",
          "type": "address"
        }
      ],
      "name": "Paused",
      "type": "event"
    },
    {
      "anonymous": false,
      "inputs": [
        {
          "indexed": true,
          "internalType": "uint256",
          "name": "streamId",
          "type": "uint256"
        },
        {
          "indexed": true,
          "internalType": "address",
          "name": "sender",
          "type": "address"
        },
        {
          "indexed": false,
          "internalType": "uint256",
          "name": "senderRefund",
          "type": "uint256"
        },
        {
          "indexed": false,
          "internalType": "uint256",
          "name": "recipientPayout",
          "type": "uint256"
        }
      ],
      "name": "StreamCancelled",
      "type": "event"
    },
    {
      "anonymous": false,
      "inputs": [
        {
          "indexed": true,
          "internalType": "uint256",
          "name": "streamId",
          "type": "uint256"
        },
        {
          "indexed": true,
          "internalType": "address",
          "name": "recipient",
          "type": "address"
        },
        {
          "indexed": false,
          "internalType": "uint256",
          "name": "amount",
          "type": "uint256"
        }
      ],
      "name": "StreamClaimed",
      "type": "event"
    },
    {
      "anonymous": false,
      "inputs": [
        {
          "indexed": true,
          "internalType": "uint256",
          "name": "streamId",
          "type": "uint256"
        },
        {
          "indexed": true,
          "internalType": "address",
          "name": "sender",
          "type": "address"
        },
        {
          "indexed": true,
          "internalType": "address",
          "name": "recipient",
          "type": "address"
        },
        {
          "indexed": false,
          "internalType": "address",
          "name": "token",
          "type": "address"
        },
        {
          "indexed": false,
          "internalType": "uint256",
          "name": "ratePerSecond",
          "type": "uint256"
        },
        {
          "indexed": false,
          "internalType": "uint256",
          "name": "duration",
          "type": "uint256"
        }
      ],
      "name": "StreamCreated",
      "type": "event"
    },
    {
      "anonymous": false,
      "inputs": [
        {
          "indexed": true,
          "internalType": "uint256",
          "name": "streamId",
          "type": "uint256"
        },
        {
          "indexed": true,
          "internalType": "address",
          "name": "sender",
          "type": "address"
        },
        {
          "indexed": false,
          "internalType": "uint256",
          "name": "amount",
          "type": "uint256"
        }
      ],
      "name": "StreamWithdrawn",
      "type": "event"
    },
    {
      "anonymous": false,
      "inputs": [
        {
          "indexed": false,
          "internalType": "address",
          "name": "account",
          "type": "address"
        }
      ],
      "name": "Unpaused",
      "type": "event"
    },
    {
      "inputs": [
        {
          "internalType": "uint256",
          "name": "streamId",
          "type": "uint256"
        }
      ],
      "name": "availableToClaim",
      "outputs": [
        {
          "internalType": "uint256",
          "name": "",
          "type": "uint256"
        }
      ],
      "stateMutability": "view",
      "type": "function"
    },
    {
      "inputs": [
        {
          "internalType": "uint256",
          "name": "streamId",
          "type": "uint256"
        }
      ],
      "name": "cancelStream",
      "outputs": [],
      "stateMutability": "nonpayable",
      "type": "function"
    },
    {
      "inputs": [
        {
          "internalType": "uint256",
          "name": "streamId",
          "type": "uint256"
        }
      ],
      "name": "claim",
      "outputs": [],
      "stateMutability": "nonpayable",
      "type": "function"
    },
    {
      "inputs": [
        {
          "internalType": "address",
          "name": "recipient",
          "type": "address"
        },
        {
          "internalType": "address",
          "name": "token",
          "type": "address"
        },
        {
          "internalType": "uint256",
          "name": "deposit",
          "type": "uint256"
        },
        {
          "internalType": "uint256",
          "name": "ratePerSecond",
          "type": "uint256"
        },
        {
          "internalType": "uint256",
          "name": "duration",
          "type": "uint256"
        }
      ],
      "name": "createStream",
      "outputs": [
        {
          "internalType": "uint256",
          "name": "",
          "type": "uint256"
        }
      ],
      "stateMutability": "nonpayable",
      "type": "function"
    },
    {
      "inputs": [
        {
          "internalType": "uint256",
          "name": "streamId",
          "type": "uint256"
        }
      ],
      "name": "getStreamInfo",
      "outputs": [
        {
          "internalType": "address",
          "name": "sender",
          "type": "address"
        },
        {
          "internalType": "address",
          "name": "recipient",
          "type": "address"
        },
        {
          "internalType": "address",
          "name": "token",
          "type": "address"
        },
        {
          "internalType": "uint256",
          "name": "deposit",
          "type": "uint256"
        },
        {
          "internalType": "uint256",
          "name": "ratePerSecond",
          "type": "uint256"
        },
        {
          "internalType": "uint256",
          "name": "startTime",
          "type": "uint256"
        },
        {
          "internalType": "uint256",
          "name": "stopTime",
          "type": "uint256"
        },
        {
          "internalType": "uint256",
          "name": "remainingBalance",
          "type": "uint256"
        },
        {
          "internalType": "bool",
          "name": "active",
          "type": "bool"
        },
        {
          "internalType": "uint256",
          "name": "claimableNow",
          "type": "uint256"
        }
      ],
      "stateMutability": "view",
      "type": "function"
    },
    {
      "inputs": [],
      "name": "nextStreamId",
      "outputs": [
        {
          "internalType": "uint256",
          "name": "",
          "type": "uint256"
        }
      ],
      "stateMutability": "view",
      "type": "function"
    },
    {
      "inputs": [],
      "name": "owner",
      "outputs": [
        {
          "internalType": "address",
          "name": "",
          "type": "address"
        }
      ],
      "stateMutability": "view",
      "type": "function"
    },
    {
      "inputs": [],
      "name": "pause",
      "outputs": [],
      "stateMutability": "nonpayable",
      "type": "function"
    },
    {
      "inputs": [],
      "name": "paused",
      "outputs": [
        {
          "internalType": "bool",
          "name": "",
          "type": "bool"
        }
      ],
      "stateMutability": "view",
      "type": "function"
    },
    {
      "inputs": [],
      "name": "renounceOwnership",
      "outputs": [],
      "stateMutability": "nonpayable",
      "type": "function"
    },
    {
      "inputs": [
        {
          "internalType": "uint256",
          "name": "",
          "type": "uint256"
        }
      ],
      "name": "streams",
      "outputs": [
        {
          "internalType": "address",
          "name": "sender",
          "type": "address"
        },
        {
          "internalType": "address",
          "name": "recipient",
          "type": "address"
        },
        {
          "internalType": "address",
          "name": "token",
          "type": "address"
        },
        {
          "internalType": "uint256",
          "name": "deposit",
          "type": "uint256"
        },
        {
          "internalType": "uint256",
          "name": "ratePerSecond",
          "type": "uint256"
        },
        {
          "internalType": "uint256",
          "name": "startTime",
          "type": "uint256"
        },
        {
          "internalType": "uint256",
          "name": "stopTime",
          "type": "uint256"
        },
        {
          "internalType": "uint256",
          "name": "remainingBalance",
          "type": "uint256"
        },
        {
          "internalType": "bool",
          "name": "active",
          "type": "bool"
        }
      ],
      "stateMutability": "view",
      "type": "function"
    },
    {
      "inputs": [
        {
          "internalType": "address",
          "name": "newOwner",
          "type": "address"
        }
      ],
      "name": "transferOwnership",
      "outputs": [],
      "stateMutability": "nonpayable",
      "type": "function"
    },
    {
      "inputs": [],
      "name": "unpause",
      "outputs": [],
      "stateMutability": "nonpayable",
      "type": "function"
    },
    {
      "inputs": [
        {
          "internalType": "uint256",
          "name": "streamId",
          "type": "uint256"
        }
      ],
      "name": "withdrawExpiredStream",
      "outputs": [],
      "stateMutability": "nonpayable",
      "type": "function"
    }
  ],
  "bytecode": "0x60808060405234610070576001600081815581546001600160a81b0319811633600881811b610100600160a81b0316929092179094551c6001600160a01b0316907f8be0079c531659141344cd1fd0a4f28419497f9722a3daafe3b4186f6b6457e09080a361131290816100768239f35b600080fdfe6040608081526004908136101561001557600080fd5b600091823560e01c806306eb2dd314610a2b5780631e99d56914610a0c578063379607f51461085f5780633f4ba83a146107ca5780635c975abb146107a657806364d60d911461071457806369e62d6a146104d35780636db9241b14610362578063715018a6146103015780638456cb59146102a75780638da5cb5b1461027657806396bb2192146101c0578063b6cc2a7d146101965763f2fde38b146100bb57600080fd5b34610192576020366003190112610192576100d4610def565b6100dc610e0a565b6001600160a01b0381811693909290841561014057505060018054610100600160a81b03198116600893841b610100600160a81b031617909155901c167f8be0079c531659141344cd1fd0a4f28419497f9722a3daafe3b4186f6b6457e08380a380f35b906020608492519162461bcd60e51b8352820152602660248201527f4f776e61626c653a206e6577206f776e657220697320746865207a65726f206160448201526564647265737360d01b6064820152fd5b8280fd5b5091346101bd5760203660031901126101bd57506101b660209235611228565b9051908152f35b80fd5b50903461019257602036600319011261019257610140928235815260036020528181209060018060a01b039283835416948460018501541694600285015416906003850154908501549060058601549260068701549460078801549660ff60088a015416988960001461026f576102379150611266565b985b81519a8b5260208b01528901526060880152608087015260a086015260c085015260e08401521515610100830152610120820152f35b5098610239565b5050346102a357816003193601126102a357600154905160089190911c6001600160a01b03168152602090f35b5080fd5b5050346102a357816003193601126102a35760207f62e78cea01bee320cd4e420270b5ea74000d11b0c9f74754ebdbfc544b05a258916102e5610e0a565b6102ed610e9b565b600160ff198154161760015551338152a180f35b83346101bd57806003193601126101bd5761031a610e0a565b60018054610100600160a81b03198116909155819060081c6001600160a01b03167f8be0079c531659141344cd1fd0a4f28419497f9722a3daafe3b4186f6b6457e08280a380f35b503461019257602036600319011261019257803561037e610edf565b808452600360205282842092600884019384549461039e60ff8716611198565b81546001600160a01b0395908616330361049757506103bc82611266565b9560ff191690558593869186151580610489575b610444575b7fa6379f61382c1003d8c4c63f81dfd08cbeae892e76aad686c9b5021259ad2c5794959650876007820161040a898254610e8e565b80610427575b505554169482519182526020820152a36001815580f35b945061043e858560028601541686865416906111d6565b38610410565b7fa6379f61382c1003d8c4c63f81dfd08cbeae892e76aad686c9b5021259ad2c57949550610480878360028401541684600185015416906111d6565b869594506103d5565b5060078101548711156103d0565b606490602085519162461bcd60e51b8352820152601660248201527513db9b1e481cd95b99195c8818d85b8818d85b98d95b60521b6044820152fd5b509190346102a357602080600319360112610192578335906104f3610edf565b818452600381528284209460ff6008870154166106dd576006860154958642106106a65760018060a01b03908181541697883303610663576007820190815490811561062a5761054b61055491600586015490610e8e565b86850154610e65565b610562826003860154610e8e565b808211156106225761057391610e8e565b8082111561061a576105859082610e8e565b945b85156105df57507fb8794a93ad70d58bd94788f8523cd8ebcff47f5541f8816ade60c636f1b57827969798996105d0926105c2878094610e8e565b9055846002850154166111d6565b54169451908152a36001815580f35b885162461bcd60e51b815290810187905260156024820152744e6f20776974686472617761626c652066756e647360581b6044820152606490fd5b508894610587565b505088610573565b885162461bcd60e51b815280870188905260136024820152724e6f7468696e6720746f20776974686472617760681b6044820152606490fd5b865162461bcd60e51b8152808501869052601860248201527f4f6e6c792073656e6465722063616e20776974686472617700000000000000006044820152606490fd5b5060649184519162461bcd60e51b8352820152601260248201527114dd1c99585b481b9bdd08195e1c1a5c995960721b6044820152fd5b60649184519162461bcd60e51b8352820152601360248201527253747265616d207374696c6c2061637469766560681b6044820152fd5b5090346101925760203660031901126101925780610120938335815260036020522060018060a01b039182825416938360018401541693600284015416906003840154908401549060058501549260068601549460ff6008600789015498015416978151998a5260208a01528801526060870152608086015260a085015260c084015260e08301521515610100820152f35b5050346102a357816003193601126102a35760209060ff6001541690519015158152f35b50346101925782600319360112610192576107e3610e0a565b6001549060ff821615610825575060ff1916600155513381527f5db9ee0a495bf2e6ff9c91a7834c1ba4fdd244a5e8aa4e537bd38aeae4b073aa90602090a180f35b606490602084519162461bcd60e51b8352820152601460248201527314185d5cd8589b194e881b9bdd081c185d5cd95960621b6044820152fd5b5090346101925760209182600319360112610a085780359161087f610edf565b8285526003845280852092600884019461089c60ff875416611198565b6001850180546001600160a01b0390811691338390036109c5576108bf88611266565b92831561098f5760078901978854908186116109555750848094939261090a7fae8194793eb0586860ad9ca74669746e16d4383642d338c9539501787c5ae8d2989761091894610e8e565b8b558460028d0154166111d6565b54169451908152a35415908115610946575b50610938575b506001815580f35b805460ff1916905538610930565b6006915001544210153861092a565b885162461bcd60e51b81529081018790526014602482015273496e73756666696369656e742062616c616e636560601b6044820152606490fd5b865162461bcd60e51b8152808901869052601060248201526f4e6f7468696e6720746f20636c61696d60801b6044820152606490fd5b855162461bcd60e51b8152808801859052601860248201527f4f6e6c7920726563697069656e742063616e20636c61696d00000000000000006044820152606490fd5b8380fd5b5050346102a357816003193601126102a3576020906002549051908152f35b5090346101925760a036600319011261019257610a46610def565b916024906001600160a01b03823581811690819003610deb576044958635966064978835988560843594610a78610edf565b610a80610e9b565b16958615610db857338714610d81578515610d52578215610d1d578a15610ceb578415610cb55784420191824211610ca357610abc868d610e65565b8410610c6e578a51946323b872dd60e01b6020870152338b87015230908601528381860152845260a084019367ffffffffffffffff9481811086821117610c5c578b52610b099087610f35565b895193610120850190811185821017610c4a57918c8c8c60089694600198968252338752602087018c8152828801918c83528060608a019489865260808b0196875260a08b019742895260c08c01998a5260e08c019a8b526101008c019d8e526002548152600360205220995116916bffffffffffffffffffffffff60a01b92838b5416178a558160018b01915116838254161790556002890192511690825416179055516003860155518a850155516005840155516006830155516007820155019051151560ff80198354169116179055600254968651928352602083015285820152857feda1e5a48c710fd6bedb62b49521e911de7889fb3556c8c0485978520441e8d260603393a46000198414610c395760018401806002558411610c3957505060016020935551908152f35b634e487b7160e01b85526011905283fd5b634e487b7160e01b8d5260418952898dfd5b634e487b7160e01b8e5260418a528a8efd5b8a5162461bcd60e51b81526020818b01526014818c015273125b9cdd59999a58da595b9d0819195c1bdcda5d60621b81870152fd5b634e487b7160e01b8d5260118952898dfd5b50885162461bcd60e51b81526020818901526014818a01527304475726174696f6e206d757374206265203e20360641b81850152fd5b50885162461bcd60e51b81526020818901526010818a01526f052617465206d757374206265203e20360841b81850152fd5b50885162461bcd60e51b81526020818901526013818a01527204465706f736974206d757374206265203e203606c1b81850152fd5b50885162461bcd60e51b8152602081890152600d818a01526c24b73b30b634b2103a37b5b2b760991b81850152fd5b50885162461bcd60e51b81526020818901526015818a01527421b0b73737ba1039ba3932b0b6903a379039b2b63360591b81850152fd5b50885162461bcd60e51b81526020818901526011818a015270125b9d985b1a59081c9958da5c1a595b9d607a1b81850152fd5b8680fd5b600435906001600160a01b0382168203610e0557565b600080fd5b60015460081c6001600160a01b03163303610e2157565b606460405162461bcd60e51b815260206004820152602060248201527f4f776e61626c653a2063616c6c6572206973206e6f7420746865206f776e65726044820152fd5b81810292918115918404141715610e7857565b634e487b7160e01b600052601160045260246000fd5b91908203918211610e7857565b60ff60015416610ea757565b60405162461bcd60e51b815260206004820152601060248201526f14185d5cd8589b194e881c185d5cd95960821b6044820152606490fd5b600260005414610ef0576002600055565b60405162461bcd60e51b815260206004820152601f60248201527f5265656e7472616e637947756172643a207265656e7472616e742063616c6c006044820152606490fd5b6040805167ffffffffffffffff94936001600160a01b039093169290808301868111828210176110ae5783526020938482527f5361666545524332303a206c6f772d6c6576656c2063616c6c206661696c6564858301526000808487829651910182855af13d1561109d573d9188831161108957855192601f19603f81601f8401160116840199848b10908b11176110755786979899610fdf96975283528286893d92013e6110c4565b805191821591858315611051575b505050905015610ffb575050565b60849250519062461bcd60e51b82526004820152602a60248201527f5361666545524332303a204552433230206f7065726174696f6e20646964206e6044820152691bdd081cdd58d8d9595960b21b6064820152fd5b9193818094500103126102a3578301519081151582036101bd575080388085610fed565b634e487b7160e01b86526041600452602486fd5b634e487b7160e01b85526041600452602485fd5b610fdf9394959697506060916110c4565b634e487b7160e01b600052604160045260246000fd5b9192901561112657508151156110d8575090565b3b156110e15790565b60405162461bcd60e51b815260206004820152601d60248201527f416464726573733a2063616c6c20746f206e6f6e2d636f6e74726163740000006044820152606490fd5b8251909150156111395750805190602001fd5b6040519062461bcd60e51b82528160208060048301528251908160248401526000935b82851061117f575050604492506000838284010152601f80199101168101030190fd5b848101820151868601604401529381019385935061115c565b1561119f57565b60405162461bcd60e51b815260206004820152600f60248201526e496e6163746976652073747265616d60881b6044820152606490fd5b60405163a9059cbb60e01b60208201526001600160a01b039092166024830152604480830193909352918152608081019167ffffffffffffffff8311828410176110ae5761122692604052610f35565b565b6000526003602052604060002060ff6008820154161561126057600761124d82611266565b91015480821161125b575090565b905090565b50600090565b60068101548042116000146112c25761129461128a6112a592600585015490610e8e565b6004840154610e65565b916007600382015491015490610e8e565b600091818111156112bd576112ba9250610e8e565b90565b505090565b506112a56112946112d7600584015442610e8e565b61128a56fea2646970667358221220d67c2b5c579445d708f25b42f4e96e3a587807e7512182cfa3be6c945e93490764736f6c63430008140033",
  "linkReferences": {},
  "deployedLinkReferences": {}
}