{
  "_format": "hh-sol-artifact-1",
  "contractName": "LiquidityPool",
  "sourceName": "contracts/LiquidityPool.sol",
  "abi": [
    {
      "inputs": [],
      "stateMutability": "nonpayable",
      "type": "constructor"
    },
    {
      "anonymous": false,
      "inputs": [
        {
          "indexed": true,
          "internalType": "uint256",
          "name": "poolId",
          "type": "uint256"
        },
        {
          "indexed": true,
          "internalType": "address",
          "name": "provider",
          "type": "address"
        },
        {
          "indexed": false,
          "internalType": "uint256",
          "name": "amount0",
          "type": "uint256"
        },
        {
          "indexed": false,
          "internalType": "uint256",
          "name": "amount1",
          "type": "uint256"
        },
        {
          "indexed": false,
          "internalType": "uint256",
          "name": "sharesIssued",
          "type": "uint256"
        }
      ],
      "name": "LiquidityAdded",
      "type": "event"
    },
    {
      "anonymous": false,
      "inputs": [
        {
          "indexed": true,
          "internalType": "uint256",
          "name": "poolId",
          "type": "uint256"
        },
        {
          "indexed": true,
          "internalType": "address",
          "name": "provider",
          "type": "address"
        },
        {
          "indexed": false,
          "internalType": "uint256",
          "name": "amount0",
          "type": "uint256"
        },
        {
          "indexed": false,
          "internalType": "uint256",
          "name": "amount1",
          "type": "uint256"
        },
        {
          "indexed": false,
          "internalType": "uint256",
          "name": "sharesBurned",
          "type": "uint256"
        }
      ],
      "name": "LiquidityRemoved",
      "type": "event"
    },
    {
      "anonymous": false,
      "inputs": [
        {
          "indexed": true,
          "internalType": "address",
          "name": "previousOwner",
          "type": "address"
        },
        {
          "indexed": true,
          "internalType": "address",
          "name": "newOwner",
          "type": "address"
        }
      ],
      "name": "OwnershipTransferred",
      "type": "event"
    },
    {
      "anonymous": false,
      "inputs": [
        {
          "indexed": false,
          "internalType": "address",
          "name": "account",
          "type": "address"
        }
      ],
      "name": "Paused",
      "type": "event"
    },
    {
      "anonymous": false,
      "inputs": [
        {
          "indexed": true,
          "internalType": "uint256",
          "name": "poolId",
          "type": "uint256"
        },
        {
          "indexed": true,
          "internalType": "address",
          "name": "token0",
          "type": "address"
        },
        {
          "indexed": true,
          "internalType": "address",
          "name": "token1",
          "type": "address"
        },
        {
          "indexed": false,
          "internalType": "uint256",
          "name": "initialLiquidity0",
          "type": "uint256"
        },
        {
          "indexed": false,
          "internalType": "uint256",
          "name": "initialLiquidity1",
          "type": "uint256"
        }
      ],
      "name": "PoolCreated",
      "type": "event"
    },
    {
      "anonymous": false,
      "inputs": [
        {
          "indexed": true,
          "internalType": "uint256",
          "name": "poolId",
          "type": "uint256"
        },
        {
          "indexed": false,
          "internalType": "uint256",
          "name": "fee0",
          "type": "uint256"
        },
        {
          "indexed": false,
          "internalType": "uint256",
          "name": "fee1",
          "type": "uint256"
        }
      ],
      "name": "PoolFeeCollected",
      "type": "event"
    },
    {
      "anonymous": false,
      "inputs": [
        {
          "indexed": true,
          "internalType": "uint256",
          "name": "poolId",
          "type": "uint256"
        },
        {
          "indexed": true,
          "internalType": "address",
          "name": "user",
          "type": "address"
        },
        {
          "indexed": true,
          "internalType": "address",
          "name": "tokenIn",
          "type": "address"
        },
        {
          "indexed": false,
          "internalType": "uint256",
          "name": "amountIn",
          "type": "uint256"
        },
        {
          "indexed": false,
          "internalType": "uint256",
          "name": "amountOut",
          "type": "uint256"
        },
        {
          "indexed": false,
          "internalType": "uint256",
          "name": "newReserve0",
          "type": "uint256"
        },
        {
          "indexed": false,
          "internalType": "uint256",
          "name": "newReserve1",
          "type": "uint256"
        }
      ],
      "name": "Swapped",
      "type": "event"
    },
    {
      "anonymous": false,
      "inputs": [
        {
          "indexed": false,
          "internalType": "address",
          "name": "account",
          "type": "address"
        }
      ],
      "name": "Unpaused",
      "type": "event"
    },
    {
      "inputs": [],
      "name": "FEE_PERCENTAGE",
      "outputs": [
        {
          "internalType": "uint256",
          "name": "",
          "type": "uint256"
        }
      ],
      "stateMutability": "view",
      "type": "function"
    },
    {
      "inputs": [],
      "name": "MINIMUM_LIQUIDITY",
      "outputs": [
        {
          "internalType": "uint256",
          "name": "",
          "type": "uint256"
        }
      ],
      "stateMutability": "view",
      "type": "function"
    },
    {
      "inputs": [],
      "name": "PRECISION",
      "outputs": [
        {
          "internalType": "uint256",
          "name": "",
          "type": "uint256"
        }
      ],
      "stateMutability": "view",
      "type": "function"
    },
    {
      "inputs": [
        {
          "internalType": "uint256",
          "name": "poolId",
          "type": "uint256"
        },
        {
          "internalType": "uint256",
          "name": "amount0",
          "type": "uint256"
        },
        {
          "internalType": "uint256",
          "name": "amount1",
          "type": "uint256"
        }
      ],
      "name": "addLiquidity",
      "outputs": [],
      "stateMutability": "nonpayable",
      "type": "function"
    },
    {
      "inputs": [
        {
          "internalType": "uint256",
          "name": "poolId",
          "type": "uint256"
        }
      ],
      "name": "collectFees",
      "outputs": [],
      "stateMutability": "nonpayable",
      "type": "function"
    },
    {
      "inputs": [
        {
          "internalType": "uint256",
          "name": "",
          "type": "uint256"
        }
      ],
      "name": "collectedFees0",
      "outputs": [
        {
          "internalType": "uint256",
          "name": "",
          "type": "uint256"
        }
      ],
      "stateMutability": "view",
      "type": "function"
    },
    {
      "inputs": [
        {
          "internalType": "uint256",
          "name": "",
          "type": "uint256"
        }
      ],
      "name": "collectedFees1",
      "outputs": [
        {
          "internalType": "uint256",
          "name": "",
          "type": "uint256"
        }
      ],
      "stateMutability": "view",
      "type": "function"
    },
    {
      "inputs": [
        {
          "internalType": "address",
          "name": "token0",
          "type": "address"
        },
        {
          "internalType": "address",
          "name": "token1",
          "type": "address"
        },
        {
          "internalType": "uint256",
          "name": "amount0",
          "type": "uint256"
        },
        {
          "internalType": "uint256",
          "name": "amount1",
          "type": "uint256"
        }
      ],
      "name": "createPool",
      "outputs": [
        {
          "internalType": "uint256",
          "name": "",
          "type": "uint256"
        }
      ],
      "stateMutability": "nonpayable",
      "type": "function"
    },
    {
      "inputs": [
        {
          "internalType": "address",
          "name": "user",
          "type": "address"
        },
        {
          "internalType": "uint256",
          "name": "poolId",
          "type": "uint256"
        }
      ],
      "name": "getLPPosition",
      "outputs": [
        {
          "internalType": "uint256",
          "name": "shares",
          "type": "uint256"
        },
        {
          "internalType": "uint256",
          "name": "depositedToken0",
          "type": "uint256"
        },
        {
          "internalType": "uint256",
          "name": "depositedToken1",
          "type": "uint256"
        }
      ],
      "stateMutability": "view",
      "type": "function"
    },
    {
      "inputs": [
        {
          "internalType": "uint256",
          "name": "poolId",
          "type": "uint256"
        }
      ],
      "name": "getPoolInfo",
      "outputs": [
        {
          "internalType": "address",
          "name": "token0",
          "type": "address"
        },
        {
          "internalType": "address",
          "name": "token1",
          "type": "address"
        },
        {
          "internalType": "uint256",
          "name": "reserve0",
          "type": "uint256"
        },
        {
          "internalType": "uint256",
          "name": "reserve1",
          "type": "uint256"
        },
        {
          "internalType": "uint256",
          "name": "totalShares",
          "type": "uint256"
        },
        {
          "internalType": "bool",
          "name": "active",
          "type": "bool"
        }
      ],
      "stateMutability": "view",
      "type": "function"
    },
    {
      "inputs": [
        {
          "internalType": "uint256",
          "name": "poolId",
          "type": "uint256"
        },
        {
          "internalType": "address",
          "name": "tokenIn",
          "type": "address"
        },
        {
          "internalType": "uint256",
          "name": "amountIn",
          "type": "uint256"
        }
      ],
      "name": "getSwapAmount",
      "outputs": [
        {
          "internalType": "uint256",
          "name": "amountOut",
          "type": "uint256"
        }
      ],
      "stateMutability": "view",
      "type": "function"
    },
    {
      "inputs": [
        {
          "internalType": "address",
          "name": "",
          "type": "address"
        },
        {
          "internalType": "uint256",
          "name": "",
          "type": "uint256"
        }
      ],
      "name": "lpPositions",
      "outputs": [
        {
          "internalType": "uint256",
          "name": "poolId",
          "type": "uint256"
        },
        {
          "internalType": "uint256",
          "name": "shares",
          "type": "uint256"
        },
        {
          "internalType": "uint256",
          "name": "depositedToken0",
          "type": "uint256"
        },
        {
          "internalType": "uint256",
          "name": "depositedToken1",
          "type": "uint256"
        }
      ],
      "stateMutability": "view",
      "type": "function"
    },
    {
      "inputs": [],
      "name": "nextPoolId",
      "outputs": [
        {
          "internalType": "uint256",
          "name": "",
          "type": "uint256"
        }
      ],
      "stateMutability": "view",
      "type": "function"
    },
    {
      "inputs": [],
      "name": "owner",
      "outputs": [
        {
          "internalType": "address",
          "name": "",
          "type": "address"
        }
      ],
      "stateMutability": "view",
      "type": "function"
    },
    {
      "inputs": [],
      "name": "pause",
      "outputs": [],
      "stateMutability": "nonpayable",
      "type": "function"
    },
    {
      "inputs": [],
      "name": "paused",
      "outputs": [
        {
          "internalType": "bool",
          "name": "",
          "type": "bool"
        }
      ],
      "stateMutability": "view",
      "type": "function"
    },
    {
      "inputs": [
        {
          "internalType": "uint256",
          "name": "",
          "type": "uint256"
        }
      ],
      "name": "pools",
      "outputs": [
        {
          "internalType": "address",
          "name": "token0",
          "type": "address"
        },
        {
          "internalType": "address",
          "name": "token1",
          "type": "address"
        },
        {
          "internalType": "uint256",
          "name": "reserve0",
          "type": "uint256"
        },
        {
          "internalType": "uint256",
          "name": "reserve1",
          "type": "uint256"
        },
        {
          "internalType": "uint256",
          "name": "totalShares",
          "type": "uint256"
        },
        {
          "internalType": "bool",
          "name": "active",
          "type": "bool"
        }
      ],
      "stateMutability": "view",
      "type": "function"
    },
    {
      "inputs": [
        {
          "internalType": "uint256",
          "name": "poolId",
          "type": "uint256"
        },
        {
          "internalType": "uint256",
          "name": "shares",
          "type": "uint256"
        }
      ],
      "name": "removeLiquidity",
      "outputs": [],
      "stateMutability": "nonpayable",
      "type": "function"
    },
    {
      "inputs": [],
      "name": "renounceOwnership",
      "outputs": [],
      "stateMutability": "nonpayable",
      "type": "function"
    },
    {
      "inputs": [
        {
          "internalType": "uint256",
          "name": "poolId",
          "type": "uint256"
        },
        {
          "internalType": "address",
          "name": "tokenIn",
          "type": "address"
        },
        {
          "internalType": "uint256",
          "name": "amountIn",
          "type": "uint256"
        },
        {
          "internalType": "uint256",
          "name": "minAmountOut",
          "type": "uint256"
        }
      ],
      "name": "swap",
      "outputs": [
        {
          "internalType": "uint256",
          "name": "amountOut",
          "type": "uint256"
        }
      ],
      "stateMutability": "nonpayable",
      "type": "function"
    },
    {
      "inputs": [
        {
          "internalType": "address",
          "name": "newOwner",
          "type": "address"
        }
      ],
      "name": "transferOwnership",
      "outputs": [],
      "stateMutability": "nonpayable",
      "type": "function"
    },
    {
      "inputs": [],
      "name": "unpause",
      "outputs": [],
      "stateMutability": "nonpayable",
      "type": "function"
    }
  ],
  "bytecode": "0x60808060405234610070576001600081815581546001600160a81b0319811633600881811b610100600160a81b0316929092179094551c6001600160a01b0316907f8be0079c531659141344cd1fd0a4f28419497f9722a3daafe3b4186f6b6457e09080a36118f790816100768239f35b600080fdfe608080604052600436101561001357600080fd5b60003560e01c9081620b46f814611218575080630a8d544d146111e657806318e56131146111c85780631ba0e4c01461115c5780632f380b35146110cf5780633f4ba83a1461103b578063422f104314610e0957806351a578de14610da25780635c975abb14610d7f5780635ee6bade14610d535780636a17fbaf14610d27578063715018a614610cc65780638456cb5914610c6d578063884db063146108ff5780638da5cb5b146108d25780639d7de6b314610704578063aaf5eb68146106e7578063ac4afa3814610663578063b17acdcd1461050b578063b33daea914610206578063ba9a7a56146101e95763f2fde38b1461011057600080fd5b346101e45760203660031901126101e457610129611248565b61013161125e565b6001600160a01b038181169182156101905760018054610100600160a81b03198116600893841b610100600160a81b031617909155901c167f8be0079c531659141344cd1fd0a4f28419497f9722a3daafe3b4186f6b6457e0600080a3005b60405162461bcd60e51b815260206004820152602660248201527f4f776e61626c653a206e6577206f776e657220697320746865207a65726f206160448201526564647265737360d01b6064820152608490fd5b600080fd5b346101e45760003660031901126101e45760206040516103e88152f35b346101e45760803660031901126101e457600435610222611232565b60443561022d6113a4565b610235611360565b600290610244825485106116a5565b8360005260039360209480865260406000209061026760ff6005840154166116e7565b83156104d15781546001600160a01b0390811696811695908688148080156104c2575b610293906117a3565b80156104b85782850154915b81156104ae5784860154995b82156104a8575080600187015416905b8315158061049f575b6102cd9061130e565b6102d98930338d6113fa565b601e8902898104601e0361048957899461030f8d6103096103026127106103159604809a611353565b91826112fb565b92611726565b90611733565b9a6064358c1061044f578b1161040a578a7fe06a4d610074140b2cc31eebfaffbcc4d55ee111f8de6a57051525fb4cdd882f97969594939261035992339116611753565b156103cb5781840161036c888254611726565b905582840161037c8a8254611353565b90558560005260058a526103966040600020918254611726565b90555b820154910154604080519586526020860188905285019190915260608401523392608090a46001600055604051908152f35b8284016103d9888254611726565b90558184016103e98a8254611353565b90558560005260068a526104036040600020918254611726565b9055610399565b60405162461bcd60e51b8152600481018d9052601d60248201527f496e73756666696369656e74206f7574707574206c69717569646974790000006044820152606490fd5b60405162461bcd60e51b8152600481018e9052601260248201527145786365737369766520736c69707061676560701b6044820152606490fd5b634e487b7160e01b600052601160045260246000fd5b508a15156102c4565b906102bb565b83860154996102ab565b838501549161029f565b5060018501548216881461028a565b60405162461bcd60e51b81526004810188905260126024820152710416d6f756e74206d757374206265203e20360741b6044820152606490fd5b346101e4576020806003193601126101e457600435906105296113a4565b61053161125e565b61053e60025483106116a5565b816000526005815260406000205490600681526040600020549082158015809161065a575b1561062057917f9b95c9b8ce35525edae70c1fbd706e016dd0f8dba189b55a1563de7871033e0f9391604093866000526003825284600020906105f1575b82806105ba575b50508351928352820152a26001600055005b6000888152600684528681205560019182015491546105ea926001600160a01b0360089290921c82169116611753565b86826105a8565b60058252600085812055805460015461061b91869160081c6001600160a01b039081169116611753565b6105a1565b60405162461bcd60e51b8152600481018390526012602482015271139bc81999595cc81d1bc818dbdb1b1958dd60721b6044820152606490fd5b50821515610563565b346101e45760203660031901126101e45760048035600090815260036020818152604092839020805460018201546002830154948301549683015460059093015486516001600160a01b0393841681529290911693820193909352938401929092526060830193909352608082015260ff909116151560a082015260c090f35b0390f35b346101e45760003660031901126101e45760206040516127108152f35b346101e45760403660031901126101e4576024356004356107236113a4565b61073060025482106116a5565b8060005260036020526040600020600481019283549384156108985733600052600460205260406000208460005260205260016040600020019081549183831061085d57846108309260027f9c27aedc1d1fccd4271dc15980dab26a907cdb41ed08aef747c6d0a9680f55ce9701986107b3816107ae8c548a6112fb565b611733565b998a946107e6896107cd60038801956107ae8754846112fb565b998a98151580610854575b6107e1906112b9565b611353565b90556107f38b8254611353565b9055610800848254611353565b905561080d868254611353565b905560018060a01b03610824893383855416611753565b60013392015416611753565b604080519586526020860191909152840152339280606081015b0390a36001600055005b508815156107d8565b60405162461bcd60e51b8152602060048201526013602482015272496e73756666696369656e742073686172657360681b6044820152606490fd5b60405162461bcd60e51b8152602060048201526012602482015271496e76616c696420706f6f6c20737461746560701b6044820152606490fd5b346101e45760003660031901126101e45760015460405160089190911c6001600160a01b03168152602090f35b346101e45760803660031901126101e457610918611248565b610920611232565b60443591606435906109306113a4565b610938611360565b6001600160a01b03811680151580610c5b575b15610c25576001600160a01b03841690808214610be05785151580610bd7575b610974906112b9565b1015610bd257919290925b6002549361098d81846112fb565b60006003821115610bc457508060019080821c8281018091116104895791905b838310610ba4575050505b6109c56103e8821161130e565b806103e719810111610489576109e68430336001600160a01b0389166113fa565b6109fb8230336001600160a01b0387166113fa565b60405160c0810181811067ffffffffffffffff821117610b8e5760405260018060a01b03861681526005602082019160018060a01b03861683526040810187815260608201868152608083019186835260a0840195600187528c600052600360205260406000209460018060a01b039051166bffffffffffffffffffffffff60a01b9081875416178655600186019160018060a01b0390511690825416179055516002840155516003830155516004820155019051151560ff8019835416911617905560405192608084019284841067ffffffffffffffff851117610b8e57879460036040947f1af6355a170ecc0327e49a9aa985a86667dc35a39b8b29f632cd215a9f49618096865287835260208301906103e7190181528583018981526060840191858352336000526004602052876000208a6000526020528760002094518555516001850155516002840155519101558251958652602086015260018060a01b03169460018060a01b031693a4600254906000198214610489576001602092016002556001600055604051908152f35b634e487b7160e01b600052604160045260246000fd5b90919250610bbb83610bb68184611733565b611726565b821c91906109ad565b90156109b8575060016109b8565b61097f565b5083151561096b565b60405162461bcd60e51b815260206004820152601860248201527f546f6b656e73206d75737420626520646966666572656e7400000000000000006044820152606490fd5b60405162461bcd60e51b815260206004820152600e60248201526d496e76616c696420746f6b656e7360901b6044820152606490fd5b506001600160a01b038416151561094b565b346101e45760003660031901126101e457610c8661125e565b610c8e611360565b600160ff19815416176001557f62e78cea01bee320cd4e420270b5ea74000d11b0c9f74754ebdbfc544b05a2586020604051338152a1005b346101e45760003660031901126101e457610cdf61125e565b60018054610100600160a81b0319811690915560009060081c6001600160a01b03167f8be0079c531659141344cd1fd0a4f28419497f9722a3daafe3b4186f6b6457e08280a3005b346101e45760203660031901126101e45760043560005260056020526020604060002054604051908152f35b346101e45760203660031901126101e45760043560005260066020526020604060002054604051908152f35b346101e45760003660031901126101e457602060ff600154166040519015158152f35b346101e45760403660031901126101e4576001600160a01b03610dc3611248565b1660009081526004602090815260408083206024358452825291829020805460018201546002830154600390930154855192835293820152928301526060820152608090f35b346101e45760603660031901126101e457604435602435600435610e2b6113a4565b610e33611360565b610e4060025482106116a5565b80600052602060038152604060002093610e6060ff6005870154166116e7565b83151580611032575b610e72906112b9565b6004850191825492610e8484876112fb565b9360028801948554906001820180921161048957610eac91610ea591611733565b91856112fb565b90600389019182546001810180911161048957610ec891611733565b8082101561102a5750945b8515610fe557610f28857f089607a52cca0d390ff7d0ad4e97545804dcc41418e1daee9ec3948596fec94498999a60018060a01b0390610f1a8d83835416309033906113fa565b3091600133920154166113fa565b610f33898254611726565b9055610f40848254611726565b9055610f4d848254611726565b9055336000526004815260406000208560005281526001604060002001610f75848254611726565b9055336000526004815260406000208560005281526002604060002001610f9d878254611726565b9055336000526004815260406000209085600052526003604060002001610fc5828254611726565b90556040805195865260208601919091528401523392806060810161084a565b60405162461bcd60e51b815260048101859052601f60248201527f496e73756666696369656e74206c69717569646974792070726f7669646564006044820152606490fd5b905094610ed3565b50801515610e69565b346101e45760003660031901126101e45761105461125e565b60015460ff8116156110935760ff19166001557f5db9ee0a495bf2e6ff9c91a7834c1ba4fdd244a5e8aa4e537bd38aeae4b073aa6020604051338152a1005b60405162461bcd60e51b815260206004820152601460248201527314185d5cd8589b194e881b9bdd081c185d5cd95960621b6044820152606490fd5b346101e45760203660031901126101e4576004356110f060025482106116a5565b60009081526003602081815260409283902080546001820154600283015494830154600484015460059094015487516001600160a01b0394851681529390921694830194909452948101939093526060830191909152608082015260ff909116151560a082015260c090f35b346101e45760403660031901126101e4576001600160a01b0361117d611248565b1660005260046020526040600020602435600052602052604060002060018101546106e360036002840154930154604051938493846040919493926060820195825260208201520152565b346101e45760003660031901126101e4576020600254604051908152f35b346101e45760603660031901126101e4576020611210611204611232565b604435906004356117df565b604051908152f35b346101e45760003660031901126101e45780601e60209252f35b602435906001600160a01b03821682036101e457565b600435906001600160a01b03821682036101e457565b60015460081c6001600160a01b0316330361127557565b606460405162461bcd60e51b815260206004820152602060248201527f4f776e61626c653a2063616c6c6572206973206e6f7420746865206f776e65726044820152fd5b156112c057565b60405162461bcd60e51b81526020600482015260136024820152720416d6f756e7473206d757374206265203e203606c1b6044820152606490fd5b8181029291811591840414171561048957565b1561131557565b60405162461bcd60e51b8152602060048201526016602482015275496e73756666696369656e74206c697175696469747960501b6044820152606490fd5b9190820391821161048957565b60ff6001541661136c57565b60405162461bcd60e51b815260206004820152601060248201526f14185d5cd8589b194e881c185d5cd95960821b6044820152606490fd5b6002600054146113b5576002600055565b60405162461bcd60e51b815260206004820152601f60248201527f5265656e7472616e637947756172643a207265656e7472616e742063616c6c006044820152606490fd5b6040516323b872dd60e01b60208201526001600160a01b03928316602482015292909116604483015260648083019390935291815260a081019181831067ffffffffffffffff841117610b8e5761145392604052611455565b565b6040805167ffffffffffffffff94936001600160a01b03909316929080830186811182821017610b8e5783526020938482527f5361666545524332303a206c6f772d6c6576656c2063616c6c206661696c6564858301526000808487829651910182855af13d156115c4573d918883116115b057855192601f19603f81601f8401160116840199848b10908b111761159c57869798996114ff96975283528286893d92013e6115d1565b805191821591858315611571575b50505090501561151b575050565b60849250519062461bcd60e51b82526004820152602a60248201527f5361666545524332303a204552433230206f7065726174696f6e20646964206e6044820152691bdd081cdd58d8d9595960b21b6064820152fd5b9193818094500103126115985783015190811515820361159557508038808561150d565b80fd5b5080fd5b634e487b7160e01b86526041600452602486fd5b634e487b7160e01b85526041600452602485fd5b6114ff9394959697506060915b9192901561163357508151156115e5575090565b3b156115ee5790565b60405162461bcd60e51b815260206004820152601d60248201527f416464726573733a2063616c6c20746f206e6f6e2d636f6e74726163740000006044820152606490fd5b8251909150156116465750805190602001fd5b6040519062461bcd60e51b82528160208060048301528251908160248401526000935b82851061168c575050604492506000838284010152601f80199101168101030190fd5b8481018201518686016044015293810193859350611669565b156116ac57565b60405162461bcd60e51b8152602060048201526013602482015272141bdbdb08191bd95cc81b9bdd08195e1a5cdd606a1b6044820152606490fd5b156116ee57565b60405162461bcd60e51b815260206004820152601060248201526f506f6f6c20697320696e61637469766560801b6044820152606490fd5b9190820180921161048957565b811561173d570490565b634e487b7160e01b600052601260045260246000fd5b60405163a9059cbb60e01b60208201526001600160a01b039092166024830152604480830193909352918152608081019167ffffffffffffffff831182841017610b8e5761145392604052611455565b156117aa57565b60405162461bcd60e51b815260206004820152600d60248201526c24b73b30b634b2103a37b5b2b760991b6044820152606490fd5b90916117ee60025483106116a5565b600091825260036020526040822080546001600160a01b0394851690851681149461182391869182156118b1575b50506117a3565b83156118a6576002810154935b1561189c5760030154915b83158015611894575b61188d57601e820290828204601e148315171561187957509161030961030261030f9361271061187697960490611353565b90565b634e487b7160e01b81526011600452602490fd5b9250505090565b508215611844565b600201549161183b565b600381015493611830565b600185015416149050388061181c56fea2646970667358221220ac6a45473e80f0c8a0fdb3a7fca9a6a7c581f6fab1d27b0a6e8f171658cb577864736f6c63430008140033",
  "linkReferences": {},
  "deployedLinkReferences": {}
}