{
  "_format": "hh-sol-artifact-1",
  "contractName": "SwapRouter",
  "sourceName": "contracts/SwapRouter.sol",
  "abi": [
    {
      "inputs": [
        {
          "internalType": "address",
          "name": "_swapRouter",
          "type": "address"
        }
      ],
      "stateMutability": "nonpayable",
      "type": "constructor"
    },
    {
      "anonymous": false,
      "inputs": [
        {
          "indexed": true,
          "internalType": "address",
          "name": "user",
          "type": "address"
        },
        {
          "indexed": true,
          "internalType": "address",
          "name": "tokenIn",
          "type": "address"
        },
        {
          "indexed": true,
          "internalType": "address",
          "name": "tokenOut",
          "type": "address"
        },
        {
          "indexed": false,
          "internalType": "uint256",
          "name": "amountIn",
          "type": "uint256"
        },
        {
          "indexed": false,
          "internalType": "uint256",
          "name": "amountOut",
          "type": "uint256"
        },
        {
          "indexed": false,
          "internalType": "uint256",
          "name": "routeIndex",
          "type": "uint256"
        },
        {
          "indexed": false,
          "internalType": "uint256",
          "name": "timestamp",
          "type": "uint256"
        }
      ],
      "name": "MultiHopSwapExecuted",
      "type": "event"
    },
    {
      "anonymous": false,
      "inputs": [
        {
          "indexed": true,
          "internalType": "address",
          "name": "previousOwner",
          "type": "address"
        },
        {
          "indexed": true,
          "internalType": "address",
          "name": "newOwner",
          "type": "address"
        }
      ],
      "name": "OwnershipTransferred",
      "type": "event"
    },
    {
      "anonymous": false,
      "inputs": [
        {
          "indexed": false,
          "internalType": "address",
          "name": "account",
          "type": "address"
        }
      ],
      "name": "Paused",
      "type": "event"
    },
    {
      "anonymous": false,
      "inputs": [
        {
          "indexed": true,
          "internalType": "address",
          "name": "token",
          "type": "address"
        },
        {
          "indexed": false,
          "internalType": "int256",
          "name": "currentPrice",
          "type": "int256"
        },
        {
          "indexed": false,
          "internalType": "int256",
          "name": "expectedPrice",
          "type": "int256"
        },
        {
          "indexed": false,
          "internalType": "string",
          "name": "reason",
          "type": "string"
        }
      ],
      "name": "PriceCircuitBreakerTriggered",
      "type": "event"
    },
    {
      "anonymous": false,
      "inputs": [
        {
          "indexed": true,
          "internalType": "uint256",
          "name": "routeIndex",
          "type": "uint256"
        },
        {
          "indexed": false,
          "internalType": "address[]",
          "name": "tokens",
          "type": "address[]"
        },
        {
          "indexed": false,
          "internalType": "uint24[]",
          "name": "fees",
          "type": "uint24[]"
        }
      ],
      "name": "RouteCreated",
      "type": "event"
    },
    {
      "anonymous": false,
      "inputs": [
        {
          "indexed": true,
          "internalType": "address",
          "name": "user",
          "type": "address"
        },
        {
          "indexed": true,
          "internalType": "address",
          "name": "tokenIn",
          "type": "address"
        },
        {
          "indexed": true,
          "internalType": "address",
          "name": "tokenOut",
          "type": "address"
        },
        {
          "indexed": false,
          "internalType": "uint256",
          "name": "amountIn",
          "type": "uint256"
        },
        {
          "indexed": false,
          "internalType": "uint256",
          "name": "amountOut",
          "type": "uint256"
        },
        {
          "indexed": false,
          "internalType": "uint24",
          "name": "fee",
          "type": "uint24"
        },
        {
          "indexed": false,
          "internalType": "uint256",
          "name": "timestamp",
          "type": "uint256"
        }
      ],
      "name": "SwapExecuted",
      "type": "event"
    },
    {
      "anonymous": false,
      "inputs": [
        {
          "indexed": false,
          "internalType": "address",
          "name": "account",
          "type": "address"
        }
      ],
      "name": "Unpaused",
      "type": "event"
    },
    {
      "inputs": [],
      "name": "BPS",
      "outputs": [
        {
          "internalType": "uint256",
          "name": "",
          "type": "uint256"
        }
      ],
      "stateMutability": "view",
      "type": "function"
    },
    {
      "inputs": [],
      "name": "CIRCUIT_BREAKER_THRESHOLD",
      "outputs": [
        {
          "internalType": "uint256",
          "name": "",
          "type": "uint256"
        }
      ],
      "stateMutability": "view",
      "type": "function"
    },
    {
      "inputs": [],
      "name": "MAX_SLIPPAGE_BPS",
      "outputs": [
        {
          "internalType": "uint256",
          "name": "",
          "type": "uint256"
        }
      ],
      "stateMutability": "view",
      "type": "function"
    },
    {
      "inputs": [
        {
          "internalType": "address[]",
          "name": "tokens",
          "type": "address[]"
        },
        {
          "internalType": "uint24[]",
          "name": "fees",
          "type": "uint24[]"
        }
      ],
      "name": "createRoute",
      "outputs": [
        {
          "internalType": "uint256",
          "name": "routeId",
          "type": "uint256"
        }
      ],
      "stateMutability": "nonpayable",
      "type": "function"
    },
    {
      "inputs": [
        {
          "internalType": "address",
          "name": "token",
          "type": "address"
        }
      ],
      "name": "emergencyWithdraw",
      "outputs": [],
      "stateMutability": "nonpayable",
      "type": "function"
    },
    {
      "inputs": [
        {
          "internalType": "uint256",
          "name": "amountIn",
          "type": "uint256"
        },
        {
          "internalType": "address[]",
          "name": "route",
          "type": "address[]"
        }
      ],
      "name": "estimateSwap",
      "outputs": [
        {
          "internalType": "uint256",
          "name": "estimatedAmountOut",
          "type": "uint256"
        }
      ],
      "stateMutability": "view",
      "type": "function"
    },
    {
      "inputs": [
        {
          "internalType": "address",
          "name": "",
          "type": "address"
        }
      ],
      "name": "lastSwapTime",
      "outputs": [
        {
          "internalType": "uint256",
          "name": "",
          "type": "uint256"
        }
      ],
      "stateMutability": "view",
      "type": "function"
    },
    {
      "inputs": [],
      "name": "nextRouteId",
      "outputs": [
        {
          "internalType": "uint256",
          "name": "",
          "type": "uint256"
        }
      ],
      "stateMutability": "view",
      "type": "function"
    },
    {
      "inputs": [
        {
          "internalType": "bytes32",
          "name": "",
          "type": "bytes32"
        }
      ],
      "name": "oracles",
      "outputs": [
        {
          "internalType": "address",
          "name": "priceFeed",
          "type": "address"
        },
        {
          "internalType": "uint8",
          "name": "decimals",
          "type": "uint8"
        },
        {
          "internalType": "uint256",
          "name": "stalePriceThreshold",
          "type": "uint256"
        },
        {
          "internalType": "int256",
          "name": "lowerBoundPercent",
          "type": "int256"
        },
        {
          "internalType": "int256",
          "name": "upperBoundPercent",
          "type": "int256"
        }
      ],
      "stateMutability": "view",
      "type": "function"
    },
    {
      "inputs": [],
      "name": "owner",
      "outputs": [
        {
          "internalType": "address",
          "name": "",
          "type": "address"
        }
      ],
      "stateMutability": "view",
      "type": "function"
    },
    {
      "inputs": [],
      "name": "pause",
      "outputs": [],
      "stateMutability": "nonpayable",
      "type": "function"
    },
    {
      "inputs": [],
      "name": "paused",
      "outputs": [
        {
          "internalType": "bool",
          "name": "",
          "type": "bool"
        }
      ],
      "stateMutability": "view",
      "type": "function"
    },
    {
      "inputs": [
        {
          "internalType": "address",
          "name": "token",
          "type": "address"
        },
        {
          "internalType": "address",
          "name": "priceFeed",
          "type": "address"
        },
        {
          "internalType": "uint256",
          "name": "stalePriceThreshold",
          "type": "uint256"
        },
        {
          "internalType": "int256",
          "name": "lowerBound",
          "type": "int256"
        },
        {
          "internalType": "int256",
          "name": "upperBound",
          "type": "int256"
        }
      ],
      "name": "registerOracle",
      "outputs": [],
      "stateMutability": "nonpayable",
      "type": "function"
    },
    {
      "inputs": [],
      "name": "renounceOwnership",
      "outputs": [],
      "stateMutability": "nonpayable",
      "type": "function"
    },
    {
      "inputs": [
        {
          "internalType": "uint256",
          "name": "",
          "type": "uint256"
        }
      ],
      "name": "routes",
      "outputs": [
        {
          "internalType": "bool",
          "name": "active",
          "type": "bool"
        }
      ],
      "stateMutability": "view",
      "type": "function"
    },
    {
      "inputs": [
        {
          "internalType": "uint256",
          "name": "routeId",
          "type": "uint256"
        },
        {
          "internalType": "uint256",
          "name": "amountIn",
          "type": "uint256"
        },
        {
          "internalType": "uint256",
          "name": "minAmountOut",
          "type": "uint256"
        }
      ],
      "name": "swapExactInputMultiHop",
      "outputs": [
        {
          "internalType": "uint256",
          "name": "amountOut",
          "type": "uint256"
        }
      ],
      "stateMutability": "nonpayable",
      "type": "function"
    },
    {
      "inputs": [
        {
          "internalType": "address",
          "name": "tokenIn",
          "type": "address"
        },
        {
          "internalType": "address",
          "name": "tokenOut",
          "type": "address"
        },
        {
          "internalType": "uint24",
          "name": "fee",
          "type": "uint24"
        },
        {
          "internalType": "uint256",
          "name": "amountIn",
          "type": "uint256"
        },
        {
          "internalType": "uint256",
          "name": "minAmountOut",
          "type": "uint256"
        }
      ],
      "name": "swapExactInputSingle",
      "outputs": [
        {
          "internalType": "uint256",
          "name": "amountOut",
          "type": "uint256"
        }
      ],
      "stateMutability": "nonpayable",
      "type": "function"
    },
    {
      "inputs": [],
      "name": "swapRouter",
      "outputs": [
        {
          "internalType": "contract ISwapRouter",
          "name": "",
          "type": "address"
        }
      ],
      "stateMutability": "view",
      "type": "function"
    },
    {
      "inputs": [
        {
          "internalType": "address",
          "name": "newOwner",
          "type": "address"
        }
      ],
      "name": "transferOwnership",
      "outputs": [],
      "stateMutability": "nonpayable",
      "type": "function"
    },
    {
      "inputs": [],
      "name": "unpause",
      "outputs": [],
      "stateMutability": "nonpayable",
      "type": "function"
    }
  ],
  "bytecode": "0x60803461011657601f61239238819003918201601f19168301916001600160401b0383118484101761011b5780849260209460405283398101031261011657516001600160a01b0380821691829003610116576001600081815581546001600160a81b0319811633600881811b610100600160a81b0316929092179094556040519491901c16907f8be0079c531659141344cd1fd0a4f28419497f9722a3daafe3b4186f6b6457e09080a381156100d45750600280546001600160a01b03191691909117905560405161226090816101328239f35b62461bcd60e51b815260206004820152601360248201527f496e76616c6964207377617020726f75746572000000000000000000000000006044820152606490fd5b600080fd5b634e487b7160e01b600052604160045260246000fdfe608080604052600436101561001357600080fd5b60003560e01c9081630ca55cd71461180b57508063249d39e9146117ee5780633a7e75c2146116665780633f4ba83a146115d25780634ece7c061461159857806355c32c941461137d5780635c975abb1461135a57806365650ea11461104c5780636ff1c9bc14610f3a578063715018a614610ed9578063726f16d814610ea55780638456cb5914610e4c5780638da5cb5b14610e1f578063975cf31314610e01578063a81a267714610da1578063ae8008a014610801578063c31c9c07146107d8578063dc895236146101f1578063e229cd76146101d45763f2fde38b146100fb57600080fd5b346101cf5760203660031901126101cf57610114611856565b61011c6118a6565b6001600160a01b0381811691821561017b5760018054610100600160a81b03198116600893841b610100600160a81b031617909155901c167f8be0079c531659141344cd1fd0a4f28419497f9722a3daafe3b4186f6b6457e0600080a3005b60405162461bcd60e51b815260206004820152602660248201527f4f776e61626c653a206e6577206f776e657220697320746865207a65726f206160448201526564647265737360d01b6064820152608490fd5b600080fd5b346101cf5760003660031901126101cf5760206040516101f48152f35b346101cf5760603660031901126101cf5761020a611a8d565b610212611a49565b600354600435101561079c576004356000526004602052604060002060ff60028201541615610763576102486024351515611a08565b805480156105b257600082815260209020546001600160a01b031690600019808201828111610442578211156105b25760008481526020902090910101546001600160a01b0316906102a06044356024358484611e85565b6102ae602435303384611ae3565b6002546102c890602435906001600160a01b031683611b27565b60405192838460208354928381520180928460005260206000209060005b81811061074157505050600193916102ff910387611973565b6040519201805480845260009182526020808320928592918301915b8060098301106106b9576103819454918181106106a3575b81811061068a575b818110610671575b818110610658575b81811061063f575b818110610626575b81811061060d575b8181106105f4575b8181106105db575b106105c8575b500383611973565b8451156105b25751604051906001600160601b03199060601b166020820152601481526103ad81611958565b916000925b8251841015610458576103c58484612216565b5160018501851161044257610436603761043c936103e6600189018b612216565b51936040519482610401879451809260208088019101611e1d565b83019162ffffff60e81b9060e81b1660208301526001600160601b03199060601b166023820152036017810184520182611973565b93611994565b926103b2565b634e487b7160e01b600052601160045260246000fd5b9084603c420180421161044257600093602091604051916104788361193d565b8252338383015260408201526024356060820152604435608082015260018060a01b0360025416604051809681809463c04b8d5960e01b825286600483015260806104cf825160a0602486015260c4850190611e40565b888301516001600160a01b03166044850152604083015160648501526060830151608485015291015160a483015203925af19182156105a657600092610571575b602093503360005260068452426040600020556040516024358152838582015260043560408201524260608201527fdc45cc23a637acfc76bd724d5fe5b3195bb8ff1830052bde5e0cacb924152c7760803392a46001600055604051908152f35b91506020833d60201161059e575b8161058c60209383611973565b810103126101cf576020925191610510565b3d915061057f565b6040513d6000823e3d90fd5b634e487b7160e01b600052603260045260246000fd5b60d81c62ffffff16815260200188610379565b92602060019162ffffff8560c01c168152019301610373565b92602060019162ffffff8560a81c16815201930161036b565b92602060019162ffffff8560901c168152019301610363565b92602060019162ffffff8560781c16815201930161035b565b92602060019162ffffff8560601c168152019301610353565b92602060019162ffffff8560481c16815201930161034b565b92602060019162ffffff8560301c168152019301610343565b92602060019162ffffff8560181c16815201930161033b565b92602060019162ffffff85168152019301610333565b91600a919350610140600191865462ffffff908181168352818160181c166020840152818160301c166040840152818160481c166060840152818160601c166080840152818160781c1660a0840152818160c0828260901c1681870152828260a81c1660e08701521c1661010084015260d81c1661012082015201940192018592939161031b565b82546001600160a01b03168452899450602090930192600192830192016102e6565b60405162461bcd60e51b8152602060048201526011602482015270526f75746520697320696e61637469766560781b6044820152606490fd5b60405162461bcd60e51b8152602060048201526014602482015273149bdd5d1948191bd95cc81b9bdd08195e1a5cdd60621b6044820152606490fd5b346101cf5760003660031901126101cf576002546040516001600160a01b039091168152602090f35b346101cf5760403660031901126101cf576004356001600160401b0381116101cf57610831903690600401611826565b906024356001600160401b0381116101cf57610851903690600401611826565b6108596118a6565b60028410610d52576000198401848111610442578103610cfa5760005b848110610c41575060035492604051606081018181106001600160401b03821117610bc1576040526108a7866119c7565b6108b46040519182611973565b86815260208101368860051b8501116101cf5783905b8860051b85018210610c2957505081526108e3836119c7565b6108f06040519182611973565b83815260208101368560051b8701116101cf5785905b8560051b87018210610c11575050602082015260016040820152846000526004602052604060002081518051906001600160401b038211610bc157600160401b8211610bc1576020908354838555808410610bf4575b500182600052602060002060005b838110610bd7575050505060208201518051906001600160401b038211610bc157600160401b8211610bc1576020906001840154836001860155808410610b66575b5001906001830160005260206000209060005b600a82048110610b195750600a808204028103610abf575b505050600260409197939701910151151560ff80198354169116179055604051948160408701604088525260608601909160005b818110610a93575050602091508581038287015282815201919060005b818110610a6f57602085807fc2a1604c5fa5887ccc37e677e01f22ef8ee8e0c39f1a5f8dbf282aa2bd281c2f8988038aa2610a64600354611994565b600355604051908152f35b90919260208060019262ffffff610a8588611896565b168152019401929101610a28565b909160019060209081906001600160a01b03610aae88611882565b168152019401910192919092610a0b565b60009260005b600a8084040283038110610ae5575050600a9004015560026040896109d7565b90936020610b1060019262ffffff885116908560030260031b9162ffffff809116831b921b19161790565b95019101610ac5565b6000805b600a8110610b325750838201556001016109bf565b94906020610b5d60019262ffffff855116908960030260031b9162ffffff809116831b921b19161790565b92019501610b1d565b610b999060018601600052600a6009856000209260038389060280610b9f575b500104810190600a6009870104016119f1565b8a6109ac565b60001984848b010486010190815490600019908a0360031b1c1690558f610b86565b634e487b7160e01b600052604160045260246000fd5b82516001600160a01b03168183015560209092019160010161096a565b610c0b9085600052848460002091820191016119f1565b8a61095c565b60208091610c1e84611896565b815201910190610906565b60208091610c3684611882565b8152019101906108ca565b6001600160a01b03610c6881610c60610c5b858a8a6119a3565b6119b3565b161515611901565b81610c7d575b50610c7890611994565b610876565b610c8b610c5b8388886119a3565b90600019830183811161044257610ca7610c5b83928a8a6119a3565b16911614610cb55785610c6e565b60405162461bcd60e51b815260206004820152601960248201527f4475706c696361746520746f6b656e7320696e20726f757465000000000000006044820152606490fd5b60405162461bcd60e51b815260206004820152602a60248201527f466565206172726179206c656e677468206d75737420626520746f6b656e732e6044820152696c656e677468202d203160b01b6064820152608490fd5b60405162461bcd60e51b815260206004820152602160248201527f526f757465206d7573742068617665206174206c65617374203220746f6b656e6044820152607360f81b6064820152608490fd5b346101cf5760203660031901126101cf57600435600052600560205260a06040600020805490600181015490600360028201549101549160ff60405194600180881b0381168652861c166020850152604084015260608301526080820152f35b346101cf5760003660031901126101cf576020600354604051908152f35b346101cf5760003660031901126101cf5760015460405160089190911c6001600160a01b03168152602090f35b346101cf5760003660031901126101cf57610e656118a6565b610e6d611a49565b600160ff19815416176001557f62e78cea01bee320cd4e420270b5ea74000d11b0c9f74754ebdbfc544b05a2586020604051338152a1005b346101cf5760203660031901126101cf576004356000526004602052602060ff600260406000200154166040519015158152f35b346101cf5760003660031901126101cf57610ef26118a6565b60018054610100600160a81b0319811690915560009060081c6001600160a01b03167f8be0079c531659141344cd1fd0a4f28419497f9722a3daafe3b4186f6b6457e08280a3005b346101cf576020806003193601126101cf57610f54611856565b610f5c6118a6565b6040516370a0823160e01b8152306004820152906001600160a01b03908116908383602481855afa9283156105a65760009361101d575b508215610feb5760015460405163a9059cbb60e01b9581019590955260081c166001600160a01b031660248401526044830191909152610fe99190610fe4826064810103601f198101845283611973565b611c5b565b005b60405162461bcd60e51b815260048101859052600a6024820152694e6f2062616c616e636560b01b6044820152606490fd5b9092508381813d8311611045575b6110358183611973565b810103126101cf57519184610f93565b503d61102b565b346101cf5760a03660031901126101cf57611065611856565b61106d61186c565b6044359162ffffff831683036101cf57611085611a8d565b61108d611a49565b6001600160a01b038116151580611348575b15611312576001600160a01b03818116908316146112cd576110c46064351515611a08565b6110d46084356064358484611e85565b6110eb60643530336001600160a01b038516611ae3565b60025461110990606435906001600160a01b03908116908416611b27565b603c42014211610442576040519261010084018481106001600160401b03821117610bc15760009460209160405260018060a01b038416815260018060a01b0385168282015262ffffff83166040820152336060820152603c4201608082015260643560a082015260843560c08201528560e082015261010460018060a01b036002541691604051978893849263414bf38960e01b845260018060a01b03815116600485015260018060a01b038782015116602485015262ffffff604082015116604485015260018060a01b0360608201511660648501526080810151608485015260a081015160a485015260c081015160c485015260e060018060a01b039101511660e48401525af19283156105a657600093611298575b6020945033600052600685524260406000205562ffffff604051926064358452858785015216604083015242606083015260018060a01b03169160018060a01b0316907fe28b6697e9cdbd8c354eac7bfa9502ebc482b1fb66ed4aebe22298c5e796ff9860803392a46001600055604051908152f35b92506020843d6020116112c5575b816112b360209383611973565b810103126101cf576020935192611222565b3d91506112a6565b60405162461bcd60e51b815260206004820152601860248201527f546f6b656e73206d75737420626520646966666572656e7400000000000000006044820152606490fd5b60405162461bcd60e51b815260206004820152600e60248201526d496e76616c696420746f6b656e7360901b6044820152606490fd5b506001600160a01b038216151561109f565b346101cf5760003660031901126101cf57602060ff600154166040519015158152f35b346101cf5760a03660031901126101cf57611396611856565b61139e61186c565b906084356064356044356113b06118a6565b6001600160a01b039485906113c88683161515611901565b1694851561155e57811561152557600083138061151c575b156114e6576040519063313ce56760e01b825260209586836004818b5afa9283156105a6576000936114ac575b50600396600591604051828101916001600160601b03199060601b1682526014815261143881611958565b519020604051996114488b61193d565b8a5260ff828b019516855260408a0195865260608a0196875260808a0197885260005252604060002096511686549160ff60a01b905160a01b16916affffffffffffffffffffff60a81b161717855551600185015551600284015551910155600080f35b9092508681813d83116114df575b6114c48183611973565b810103126101cf575160ff811681036101cf5791600361140d565b503d6114ba565b60405162461bcd60e51b815260206004820152600e60248201526d496e76616c696420626f756e647360901b6044820152606490fd5b508284136113e0565b60405162461bcd60e51b8152602060048201526011602482015270125b9d985b1a59081d1a1c995cda1bdb19607a1b6044820152606490fd5b60405162461bcd60e51b8152602060048201526012602482015271125b9d985b1a59081c1c9a58d9481999595960721b6044820152606490fd5b346101cf5760203660031901126101cf576001600160a01b036115b9611856565b1660005260066020526020604060002054604051908152f35b346101cf5760003660031901126101cf576115eb6118a6565b60015460ff81161561162a5760ff19166001557f5db9ee0a495bf2e6ff9c91a7834c1ba4fdd244a5e8aa4e537bd38aeae4b073aa6020604051338152a1005b60405162461bcd60e51b815260206004820152601460248201527314185d5cd8589b194e881b9bdd081c185d5cd95960621b6044820152606490fd5b346101cf5760403660031901126101cf576004356024356001600160401b0381116101cf57611699903690600401611826565b9091600091600281106117b9576116b1821515611a08565b80156105b2576116c0846119b3565b90600019810194818611610442576020956116de92610c5b926119a3565b906040518581016001600160601b031991828460601b1682526014815261170481611958565b51902090604051878101918560601b1682526014815261172381611958565b5190206000918252600587526040909120546001600160a01b03908116151591826117a3575b505061175b575b505050604051908152f35b61176761176d91612064565b91612064565b916000821380611799575b156117505761179193509061178c916119de565b611e65565b828080611750565b5060008313611778565b9091506000526040600020541615158680611749565b60405162461bcd60e51b815260206004820152600d60248201526c496e76616c696420726f75746560981b6044820152606490fd5b346101cf5760003660031901126101cf5760206040516127108152f35b346101cf5760003660031901126101cf57806103e860209252f35b9181601f840112156101cf578235916001600160401b0383116101cf576020808501948460051b0101116101cf57565b600435906001600160a01b03821682036101cf57565b602435906001600160a01b03821682036101cf57565b35906001600160a01b03821682036101cf57565b359062ffffff821682036101cf57565b60015460081c6001600160a01b031633036118bd57565b606460405162461bcd60e51b815260206004820152602060248201527f4f776e61626c653a2063616c6c6572206973206e6f7420746865206f776e65726044820152fd5b1561190857565b60405162461bcd60e51b815260206004820152600d60248201526c24b73b30b634b2103a37b5b2b760991b6044820152606490fd5b60a081019081106001600160401b03821117610bc157604052565b604081019081106001600160401b03821117610bc157604052565b90601f801991011681019081106001600160401b03821117610bc157604052565b60001981146104425760010190565b91908110156105b25760051b0190565b356001600160a01b03811681036101cf5790565b6001600160401b038111610bc15760051b60200190565b8181029291811591840414171561044257565b8181106119fc575050565b600081556001016119f1565b15611a0f57565b60405162461bcd60e51b81526020600482015260126024820152710416d6f756e74206d757374206265203e20360741b6044820152606490fd5b60ff60015416611a5557565b60405162461bcd60e51b815260206004820152601060248201526f14185d5cd8589b194e881c185d5cd95960821b6044820152606490fd5b600260005414611a9e576002600055565b60405162461bcd60e51b815260206004820152601f60248201527f5265656e7472616e637947756172643a207265656e7472616e742063616c6c006044820152606490fd5b6040516323b872dd60e01b60208201526001600160a01b039283166024820152929091166044830152606480830193909352918152611b2591610fe48261193d565b565b60405163095ea7b360e01b602082018181526001600160a01b038516602484015260448084019690965294825294939092611b63606485611973565b83516000926001600160a01b039291858416918591829182855af190611b87611d41565b82611c11575b5081611c06575b5015611ba4575b50505050509050565b6040519660208801521660248601528060448601526044855260808501908582106001600160401b03831117611bf25750611be79394610fe49160405282611c5b565b803880808080611b9b565b634e487b7160e01b81526041600452602490fd5b90503b151538611b94565b80519192508115918215611c29575b50509038611b8d565b611c3c9250602080918301019101611c43565b3880611c20565b908160209103126101cf575180151581036101cf5790565b604051611cb9916001600160a01b0316611c7482611958565b6000806020958685527f5361666545524332303a206c6f772d6c6576656c2063616c6c206661696c656487860152868151910182855af1611cb3611d41565b91611d80565b805190828215928315611d29575b50505015611cd25750565b6084906040519062461bcd60e51b82526004820152602a60248201527f5361666545524332303a204552433230206f7065726174696f6e20646964206e6044820152691bdd081cdd58d8d9595960b21b6064820152fd5b611d399350820181019101611c43565b388281611cc7565b3d15611d7b573d906001600160401b038211610bc15760405191611d6f601f8201601f191660200184611973565b82523d6000602084013e565b606090565b91929015611de25750815115611d94575090565b3b15611d9d5790565b60405162461bcd60e51b815260206004820152601d60248201527f416464726573733a2063616c6c20746f206e6f6e2d636f6e74726163740000006044820152606490fd5b825190915015611df55750805190602001fd5b60405162461bcd60e51b815260206004820152908190611e19906024830190611e40565b0390fd5b60005b838110611e305750506000910152565b8181015183820152602001611e20565b90602091611e5981518092818552858086019101611e1d565b601f01601f1916010190565b8115611e6f570490565b634e487b7160e01b600052601260045260246000fd5b91929092604093845193602085016001600160601b031995868360601b16825260148152611eb281611958565b51902094865160208101918460601b16825260148152611ed181611958565b51902060009586526005602052868620546001600160a01b039081161591821561203c575b505061203457611767611f0891612064565b918482138061202b575b15611ff657611f25929161178c916119de565b918183039181811284841281169085851390151617611fe257612710808402938405149084141715611fba578215611fce57600160ff1b8214600019841416611fba5750906103e8910513611f775750565b5162461bcd60e51b815260206004820152601860248201527f507269636520646576696174696f6e20746f6f206869676800000000000000006044820152606490fd5b634e487b7160e01b81526011600452602490fd5b634e487b7160e01b81526012600452602490fd5b634e487b7160e01b82526011600452602482fd5b855162461bcd60e51b815260206004820152600e60248201526d496e76616c69642070726963657360901b6044820152606490fd5b50848313611f12565b505050505050565b875287872054161590503880611ef6565b519069ffffffffffffffffffff821682036101cf57565b604090815190602091828101916001600160601b03199060601b1682526014815261208e81611958565b51902091600092835260058252808320928151936120ab8561193d565b80549460ff60018060a01b0387169687835260a01c168582015260806003600184015493868401948552600281015460608501520154910152841561220b5760a0600495845196878092633fabe5a360e21b82525afa801561220157829583916121ab575b504203904282116121975751106121605783131561212d57505090565b60649250519062461bcd60e51b82526004820152600d60248201526c496e76616c696420707269636560981b6044820152fd5b815162461bcd60e51b815260048101849052601060248201526f5374616c65207072696365206461746160801b6044820152606490fd5b634e487b7160e01b83526011600452602483fd5b95505060a0853d82116121f9575b816121c660a09383611973565b810103126121f5576121d78561204d565b50838501516121ed60806060880151970161204d565b509438612110565b5080fd5b3d91506121b9565b83513d84823e3d90fd5b505050505060001990565b80518210156105b25760209160051b01019056fea264697066735822122069011497b2ba09f2f4fc3e50300314106526c3550851ec1e457ab367c54868e764736f6c63430008140033",
  "linkReferences": {},
  "deployedLinkReferences": {}
}